{
  "_format": "hh-sol-artifact-1",
  "contractName": "AlphaHomoraV1PriceOracle",
  "sourceName": "contracts/oracles/AlphaHomoraV1PriceOracle.sol",
  "abi": [
    {
      "inputs": [],
      "name": "IBETH",
      "outputs": [
        {
          "internalType": "contract Bank",
          "name": "",
          "type": "address"
        }
      ],
      "stateMutability": "view",
      "type": "function"
    },
    {
      "inputs": [
        {
          "internalType": "contract CToken",
          "name": "cToken",
          "type": "address"
        }
      ],
      "name": "getUnderlyingPrice",
      "outputs": [
        {
          "internalType": "uint256",
          "name": "",
          "type": "uint256"
        }
      ],
      "stateMutability": "view",
      "type": "function"
    }
  ],
  "bytecode": "0x608060405234801561001057600080fd5b5061046f806100206000396000f3fe608060405234801561001057600080fd5b50600436106100365760003560e01c806378cd49e91461003b578063fc57d4df1461006f575b600080fd5b6100436100c7565b604051808273ffffffffffffffffffffffffffffffffffffffff16815260200191505060405180910390f35b6100b16004803603602081101561008557600080fd5b81019080803573ffffffffffffffffffffffffffffffffffffffff1690602001909291905050506100df565b6040518082815260200191505060405180910390f35b7367b66c99d3eb37fa76aa3ed1ff33e8e39f0b9c7a81565b60007367b66c99d3eb37fa76aa3ed1ff33e8e39f0b9c7a73ffffffffffffffffffffffffffffffffffffffff168273ffffffffffffffffffffffffffffffffffffffff16636f307dc36040518163ffffffff1660e01b815260040160206040518083038186803b15801561015257600080fd5b505afa158015610166573d6000803e3d6000fd5b505050506040513d602081101561017c57600080fd5b810190808051906020019092919050505073ffffffffffffffffffffffffffffffffffffffff16146101ad57600080fd5b6103027367b66c99d3eb37fa76aa3ed1ff33e8e39f0b9c7a73ffffffffffffffffffffffffffffffffffffffff166318160ddd6040518163ffffffff1660e01b815260040160206040518083038186803b15801561020a57600080fd5b505afa15801561021e573d6000803e3d6000fd5b505050506040513d602081101561023457600080fd5b81019080805190602001909291905050506102f4670de0b6b3a76400007367b66c99d3eb37fa76aa3ed1ff33e8e39f0b9c7a73ffffffffffffffffffffffffffffffffffffffff166336bdee746040518163ffffffff1660e01b815260040160206040518083038186803b1580156102ab57600080fd5b505afa1580156102bf573d6000803e3d6000fd5b505050506040513d60208110156102d557600080fd5b810190808051906020019092919050505061030990919063ffffffff16565b61038f90919063ffffffff16565b9050919050565b60008083141561031c5760009050610389565b600082840290508284828161032d57fe5b0414610384576040517f08c379a00000000000000000000000000000000000000000000000000000000081526004018080602001828103825260218152602001806104196021913960400191505060405180910390fd5b809150505b92915050565b6000808211610406576040517f08c379a000000000000000000000000000000000000000000000000000000000815260040180806020018281038252601a8152602001807f536166654d6174683a206469766973696f6e206279207a65726f00000000000081525060200191505060405180910390fd5b81838161040f57fe5b0490509291505056fe536166654d6174683a206d756c7469706c69636174696f6e206f766572666c6f77a2646970667358221220be37ff01b2baa3313984f6fd2645b5d07dfe9064645947f37fcce1a75fc4b27c64736f6c634300060c0033",
  "linkReferences": {},
  "deployedLinkReferences": {}
}