{
  "_format": "hh-sol-artifact-1",
  "contractName": "UniswapLpTokenPriceOracle",
  "sourceName": "contracts/oracles/UniswapLpTokenPriceOracle.sol",
  "abi": [
    {
      "inputs": [
        {
          "internalType": "contract CToken",
          "name": "cToken",
          "type": "address"
        }
      ],
      "name": "getUnderlyingPrice",
      "outputs": [
        {
          "internalType": "uint256",
          "name": "",
          "type": "uint256"
        }
      ],
      "stateMutability": "view",
      "type": "function"
    },
    {
      "inputs": [
        {
          "internalType": "address",
          "name": "underlying",
          "type": "address"
        }
      ],
      "name": "price",
      "outputs": [
        {
          "internalType": "uint256",
          "name": "",
          "type": "uint256"
        }
      ],
      "stateMutability": "view",
      "type": "function"
    }
  ],
  "bytecode": "0x608060405234801561001057600080fd5b50610bca806100206000396000f3fe608060405234801561001057600080fd5b50600436106100365760003560e01c8063aea910781461003b578063fc57d4df14610093575b600080fd5b61007d6004803603602081101561005157600080fd5b81019080803573ffffffffffffffffffffffffffffffffffffffff1690602001909291905050506100eb565b6040518082815260200191505060405180910390f35b6100d5600480360360208110156100a957600080fd5b81019080803573ffffffffffffffffffffffffffffffffffffffff1690602001909291905050506100fd565b6040518082815260200191505060405180910390f35b60006100f682610246565b9050919050565b6000808273ffffffffffffffffffffffffffffffffffffffff16636f307dc36040518163ffffffff1660e01b815260040160206040518083038186803b15801561014657600080fd5b505afa15801561015a573d6000803e3d6000fd5b505050506040513d602081101561017057600080fd5b8101908080519060200190929190505050905061023e8173ffffffffffffffffffffffffffffffffffffffff1663313ce5676040518163ffffffff1660e01b815260040160206040518083038186803b1580156101cc57600080fd5b505afa1580156101e0573d6000803e3d6000fd5b505050506040513d60208110156101f657600080fd5b810190808051906020019092919050505060ff16600a0a610230670de0b6b3a764000061022285610246565b6108e790919063ffffffff16565b61096d90919063ffffffff16565b915050919050565b60008082905060008173ffffffffffffffffffffffffffffffffffffffff166318160ddd6040518163ffffffff1660e01b815260040160206040518083038186803b15801561029457600080fd5b505afa1580156102a8573d6000803e3d6000fd5b505050506040513d60208110156102be57600080fd5b8101908080519060200190929190505050905060008114156102e5576000925050506108e2565b6000808373ffffffffffffffffffffffffffffffffffffffff16630902f1ac6040518163ffffffff1660e01b815260040160606040518083038186803b15801561032e57600080fd5b505afa158015610342573d6000803e3d6000fd5b505050506040513d606081101561035857600080fd5b81019080805190602001909291908051906020019092919080519060200190929190505050506dffffffffffffffffffffffffffff1691506dffffffffffffffffffffffffffff16915060008473ffffffffffffffffffffffffffffffffffffffff16630dfe16816040518163ffffffff1660e01b815260040160206040518083038186803b1580156103ea57600080fd5b505afa1580156103fe573d6000803e3d6000fd5b505050506040513d602081101561041457600080fd5b8101908080519060200190929190505050905060008573ffffffffffffffffffffffffffffffffffffffff1663d21220a76040518163ffffffff1660e01b815260040160206040518083038186803b15801561046f57600080fd5b505afa158015610483573d6000803e3d6000fd5b505050506040513d602081101561049957600080fd5b81019080805190602001909291905050509050600073c02aaa39b223fe8d0a0e5c4f27ead9083c756cc273ffffffffffffffffffffffffffffffffffffffff168373ffffffffffffffffffffffffffffffffffffffff161461064e576106498373ffffffffffffffffffffffffffffffffffffffff1663313ce5676040518163ffffffff1660e01b815260040160206040518083038186803b15801561053e57600080fd5b505afa158015610552573d6000803e3d6000fd5b505050506040513d602081101561056857600080fd5b810190808051906020019092919050505060ff16600a0a61063b670de0b6b3a76400003373ffffffffffffffffffffffffffffffffffffffff1663aea91078886040518263ffffffff1660e01b8152600401808273ffffffffffffffffffffffffffffffffffffffff16815260200191505060206040518083038186803b1580156105f257600080fd5b505afa158015610606573d6000803e3d6000fd5b505050506040513d602081101561061c57600080fd5b81019080805190602001909291905050506108e790919063ffffffff16565b61096d90919063ffffffff16565b610658565b670de0b6b3a76400005b9050600073c02aaa39b223fe8d0a0e5c4f27ead9083c756cc273ffffffffffffffffffffffffffffffffffffffff168373ffffffffffffffffffffffffffffffffffffffff16146107fc576107f78373ffffffffffffffffffffffffffffffffffffffff1663313ce5676040518163ffffffff1660e01b815260040160206040518083038186803b1580156106ec57600080fd5b505afa158015610700573d6000803e3d6000fd5b505050506040513d602081101561071657600080fd5b810190808051906020019092919050505060ff16600a0a6107e9670de0b6b3a76400003373ffffffffffffffffffffffffffffffffffffffff1663aea91078886040518263ffffffff1660e01b8152600401808273ffffffffffffffffffffffffffffffffffffffff16815260200191505060206040518083038186803b1580156107a057600080fd5b505afa1580156107b4573d6000803e3d6000fd5b505050506040513d60208110156107ca57600080fd5b81019080805190602001909291905050506108e790919063ffffffff16565b61096d90919063ffffffff16565b610806565b670de0b6b3a76400005b905060006108588861084a6e01000000000000000000000000000061083c6108378b8d6108e790919063ffffffff16565b6109f6565b6108e790919063ffffffff16565b61096d90919063ffffffff16565b90506108d66701000000000000006108c8610872856109f6565b6108ba6701000000000000006108ac61088a8a6109f6565b61089e60028a6108e790919063ffffffff16565b6108e790919063ffffffff16565b61096d90919063ffffffff16565b6108e790919063ffffffff16565b61096d90919063ffffffff16565b99505050505050505050505b919050565b6000808314156108fa5760009050610967565b600082840290508284828161090b57fe5b0414610962576040517f08c379a0000000000000000000000000000000000000000000000000000000008152600401808060200182810382526021815260200180610b746021913960400191505060405180910390fd5b809150505b92915050565b60008082116109e4576040517f08c379a000000000000000000000000000000000000000000000000000000000815260040180806020018281038252601a8152602001807f536166654d6174683a206469766973696f6e206279207a65726f00000000000081525060200191505060405180910390fd5b8183816109ed57fe5b04905092915050565b600080821415610a095760009050610b6e565b60008290506000600190507001000000000000000000000000000000008210610a3b57608082901c9150604081901b90505b680100000000000000008210610a5a57604082901c9150602081901b90505b6401000000008210610a7557602082901c9150601081901b90505b620100008210610a8e57601082901c9150600881901b90505b6101008210610aa657600882901c9150600481901b90505b60108210610abd57600482901c9150600281901b90505b60088210610acd57600181901b90505b6001818581610ad857fe5b048201901c90506001818581610aea57fe5b048201901c90506001818581610afc57fe5b048201901c90506001818581610b0e57fe5b048201901c90506001818581610b2057fe5b048201901c90506001818581610b3257fe5b048201901c90506001818581610b4457fe5b048201901c90506000818581610b5657fe5b049050808210610b665780610b68565b815b93505050505b91905056fe536166654d6174683a206d756c7469706c69636174696f6e206f766572666c6f77a264697066735822122035396004ae5f858202522b0dc3dac6f1ed5c594060c4548ef806f9d412edc10a64736f6c634300060c0033",
  "linkReferences": {},
  "deployedLinkReferences": {}
}