{
  "_format": "hh-sol-artifact-1",
  "contractName": "CurveLiquidityGaugeV2Liquidator",
  "sourceName": "contracts/liquidators/CurveLiquidityGaugeV2Liquidator.sol",
  "abi": [
    {
      "inputs": [
        {
          "internalType": "contract IERC20Upgradeable",
          "name": "inputToken",
          "type": "address"
        },
        {
          "internalType": "uint256",
          "name": "inputAmount",
          "type": "uint256"
        },
        {
          "internalType": "bytes",
          "name": "strategyData",
          "type": "bytes"
        }
      ],
      "name": "redeem",
      "outputs": [
        {
          "internalType": "contract IERC20Upgradeable",
          "name": "outputToken",
          "type": "address"
        },
        {
          "internalType": "uint256",
          "name": "outputAmount",
          "type": "uint256"
        }
      ],
      "stateMutability": "nonpayable",
      "type": "function"
    }
  ],
  "bytecode": "0x608060405234801561001057600080fd5b506105ed806100206000396000f3fe608060405234801561001057600080fd5b506004361061002b5760003560e01c806310badf4e14610030575b600080fd5b6101136004803603606081101561004657600080fd5b81019080803573ffffffffffffffffffffffffffffffffffffffff169060200190929190803590602001909291908035906020019064010000000081111561008d57600080fd5b82018360208201111561009f57600080fd5b803590602001918460018302840111640100000000831117156100c157600080fd5b91908080601f016020809104026020016040519081016040528093929190818152602001838380828437600081840152601f19601f820116905080830192505050505050509192919290505050610146565b604051808373ffffffffffffffffffffffffffffffffffffffff1681526020018281526020019250505060405180910390f35b60008060008590508073ffffffffffffffffffffffffffffffffffffffff16632e1a7d4d866040518263ffffffff1660e01b815260040180828152602001915050600060405180830381600087803b1580156101a157600080fd5b505af11580156101b5573d6000803e3d6000fd5b505050508073ffffffffffffffffffffffffffffffffffffffff166382c630666040518163ffffffff1660e01b815260040160206040518083038186803b1580156101ff57600080fd5b505afa158015610213573d6000803e3d6000fd5b505050506040513d602081101561022957600080fd5b810190808051906020019092919050505095506000737d86446ddb609ed0f5f8684acf30380a356b2b4c73ffffffffffffffffffffffffffffffffffffffff1663bdf475c3886040518263ffffffff1660e01b8152600401808273ffffffffffffffffffffffffffffffffffffffff16815260200191505060206040518083038186803b1580156102b957600080fd5b505afa1580156102cd573d6000803e3d6000fd5b505050506040513d60208110156102e357600080fd5b8101908080519060200190929190505050905060008086806020019051604081101561030e57600080fd5b810190808051906020019092919080519060200190929190505050915091508273ffffffffffffffffffffffffffffffffffffffff16631a4d01d2898460ff1660016040518463ffffffff1660e01b81526004018084815260200183600f0b81526020018281526020019350505050600060405180830381600087803b15801561039757600080fd5b505af11580156103ab573d6000803e3d6000fd5b5050505073eeeeeeeeeeeeeeeeeeeeeeeeeeeeeeeeeeeeeeee73ffffffffffffffffffffffffffffffffffffffff168173ffffffffffffffffffffffffffffffffffffffff16146103fc57806103ff565b60005b9550600073ffffffffffffffffffffffffffffffffffffffff168673ffffffffffffffffffffffffffffffffffffffff16146104dc578573ffffffffffffffffffffffffffffffffffffffff166370a08231306040518263ffffffff1660e01b8152600401808273ffffffffffffffffffffffffffffffffffffffff16815260200191505060206040518083038186803b15801561049c57600080fd5b505afa1580156104b0573d6000803e3d6000fd5b505050506040513d60208110156104c657600080fd5b81019080805190602001909291905050506104de565b475b9450600073ffffffffffffffffffffffffffffffffffffffff168673ffffffffffffffffffffffffffffffffffffffff1614156105aa5773c02aaa39b223fe8d0a0e5c4f27ead9083c756cc273ffffffffffffffffffffffffffffffffffffffff1663d0e30db0866040518263ffffffff1660e01b81526004016000604051808303818588803b15801561057157600080fd5b505af1158015610585573d6000803e3d6000fd5b505050505073c02aaa39b223fe8d0a0e5c4f27ead9083c756cc29550505050506105af565b505050505b93509391505056fea2646970667358221220b20b98ad83db0e23684a4a1748c0c654bffd0297a316eeb1aba870e4aa76acc164736f6c634300060c0033",
  "linkReferences": {},
  "deployedLinkReferences": {}
}