{
  "_format": "hh-sol-artifact-1",
  "contractName": "UniswapTwapPriceOracleV2Root",
  "sourceName": "contracts/oracles/UniswapTwapPriceOracleV2Root.sol",
  "abi": [
    {
      "inputs": [],
      "name": "MIN_TWAP_TIME",
      "outputs": [
        {
          "internalType": "uint256",
          "name": "",
          "type": "uint256"
        }
      ],
      "stateMutability": "view",
      "type": "function"
    },
    {
      "inputs": [],
      "name": "OBSERVATION_BUFFER",
      "outputs": [
        {
          "internalType": "uint8",
          "name": "",
          "type": "uint8"
        }
      ],
      "stateMutability": "view",
      "type": "function"
    },
    {
      "inputs": [],
      "name": "WETH",
      "outputs": [
        {
          "internalType": "address",
          "name": "",
          "type": "address"
        }
      ],
      "stateMutability": "view",
      "type": "function"
    },
    {
      "inputs": [
        {
          "internalType": "address",
          "name": "",
          "type": "address"
        }
      ],
      "name": "observationCount",
      "outputs": [
        {
          "internalType": "uint256",
          "name": "",
          "type": "uint256"
        }
      ],
      "stateMutability": "view",
      "type": "function"
    },
    {
      "inputs": [
        {
          "internalType": "address",
          "name": "",
          "type": "address"
        },
        {
          "internalType": "uint256",
          "name": "",
          "type": "uint256"
        }
      ],
      "name": "observations",
      "outputs": [
        {
          "internalType": "uint32",
          "name": "timestamp",
          "type": "uint32"
        },
        {
          "internalType": "uint256",
          "name": "price0Cumulative",
          "type": "uint256"
        },
        {
          "internalType": "uint256",
          "name": "price1Cumulative",
          "type": "uint256"
        }
      ],
      "stateMutability": "view",
      "type": "function"
    },
    {
      "inputs": [
        {
          "internalType": "address[]",
          "name": "tokenA",
          "type": "address[]"
        },
        {
          "internalType": "address[]",
          "name": "tokenB",
          "type": "address[]"
        },
        {
          "internalType": "address",
          "name": "factory",
          "type": "address"
        }
      ],
      "name": "pairsFor",
      "outputs": [
        {
          "internalType": "address[]",
          "name": "",
          "type": "address[]"
        }
      ],
      "stateMutability": "view",
      "type": "function"
    },
    {
      "inputs": [
        {
          "internalType": "address",
          "name": "underlying",
          "type": "address"
        },
        {
          "internalType": "address",
          "name": "baseToken",
          "type": "address"
        },
        {
          "internalType": "address",
          "name": "factory",
          "type": "address"
        }
      ],
      "name": "price",
      "outputs": [
        {
          "internalType": "uint256",
          "name": "",
          "type": "uint256"
        }
      ],
      "stateMutability": "view",
      "type": "function"
    },
    {
      "inputs": [
        {
          "internalType": "address",
          "name": "pair",
          "type": "address"
        }
      ],
      "name": "update",
      "outputs": [],
      "stateMutability": "nonpayable",
      "type": "function"
    },
    {
      "inputs": [
        {
          "internalType": "address[]",
          "name": "pairs",
          "type": "address[]"
        }
      ],
      "name": "update",
      "outputs": [],
      "stateMutability": "nonpayable",
      "type": "function"
    },
    {
      "inputs": [
        {
          "internalType": "address[]",
          "name": "pairs",
          "type": "address[]"
        },
        {
          "internalType": "address[]",
          "name": "baseTokens",
          "type": "address[]"
        },
        {
          "internalType": "uint256[]",
          "name": "minPeriods",
          "type": "uint256[]"
        },
        {
          "internalType": "uint256[]",
          "name": "deviationThresholds",
          "type": "uint256[]"
        }
      ],
      "name": "workable",
      "outputs": [
        {
          "internalType": "bool[]",
          "name": "",
          "type": "bool[]"
        }
      ],
      "stateMutability": "view",
      "type": "function"
    }
  ],
  "bytecode": "0x608060405234801561001057600080fd5b50612413806100206000396000f3fe608060405234801561001057600080fd5b506004361061009e5760003560e01c80638eb7938b116100665780638eb7938b1461033a578063ad5c464814610392578063af8a9ba5146103c6578063b9b2e68f146103e4578063de5559421461047c5761009e565b806302459966146100a35780631c1b877214610119578063290ad26e1461015d578063317f17dc1461017e578063421cd20c146101f7575b600080fd5b6100ef600480360360408110156100b957600080fd5b81019080803573ffffffffffffffffffffffffffffffffffffffff16906020019092919080359060200190929190505050610649565b604051808463ffffffff168152602001838152602001828152602001935050505060405180910390f35b61015b6004803603602081101561012f57600080fd5b81019080803573ffffffffffffffffffffffffffffffffffffffff169060200190929190505050610693565b005b610165610711565b604051808260ff16815260200191505060405180910390f35b6101f56004803603602081101561019457600080fd5b81019080803590602001906401000000008111156101b157600080fd5b8201836020820111156101c357600080fd5b803590602001918460208302840111640100000000831117156101e557600080fd5b9091929391929390505050610716565b005b6102e36004803603606081101561020d57600080fd5b810190808035906020019064010000000081111561022a57600080fd5b82018360208201111561023c57600080fd5b8035906020019184602083028401116401000000008311171561025e57600080fd5b90919293919293908035906020019064010000000081111561027f57600080fd5b82018360208201111561029157600080fd5b803590602001918460208302840111640100000000831117156102b357600080fd5b9091929391929390803573ffffffffffffffffffffffffffffffffffffffff1690602001909291905050506107e6565b6040518080602001828103825283818151815260200191508051906020019060200280838360005b8381101561032657808201518184015260208101905061030b565b505050509050019250505060405180910390f35b61037c6004803603602081101561035057600080fd5b81019080803573ffffffffffffffffffffffffffffffffffffffff169060200190929190505050610a22565b6040518082815260200191505060405180910390f35b61039a610a3a565b604051808273ffffffffffffffffffffffffffffffffffffffff16815260200191505060405180910390f35b6103ce610a52565b6040518082815260200191505060405180910390f35b610466600480360360608110156103fa57600080fd5b81019080803573ffffffffffffffffffffffffffffffffffffffff169060200190929190803573ffffffffffffffffffffffffffffffffffffffff169060200190929190803573ffffffffffffffffffffffffffffffffffffffff169060200190929190505050610a58565b6040518082815260200191505060405180910390f35b6105f26004803603608081101561049257600080fd5b81019080803590602001906401000000008111156104af57600080fd5b8201836020820111156104c157600080fd5b803590602001918460208302840111640100000000831117156104e357600080fd5b90919293919293908035906020019064010000000081111561050457600080fd5b82018360208201111561051657600080fd5b8035906020019184602083028401116401000000008311171561053857600080fd5b90919293919293908035906020019064010000000081111561055957600080fd5b82018360208201111561056b57600080fd5b8035906020019184602083028401116401000000008311171561058d57600080fd5b9091929391929390803590602001906401000000008111156105ae57600080fd5b8201836020820111156105c057600080fd5b803590602001918460208302840111640100000000831117156105e257600080fd5b9091929391929390505050610c44565b6040518080602001828103825283818151815260200191508051906020019060200280838360005b8381101561063557808201518184015260208101905061061a565b505050509050019250505060405180910390f35b6001602052816000526040600020816004811061066257fe5b60030201600091509150508060000160009054906101000a900463ffffffff16908060010154908060020154905083565b61069c81610ded565b61070e576040517f08c379a00000000000000000000000000000000000000000000000000000000081526004018080602001828103825260168152602001807f4661696c656420746f2075706461746520706169722e0000000000000000000081525060200191505060405180910390fd5b50565b600481565b6000805b8383905081101561076d5761075684848381811061073457fe5b9050602002013573ffffffffffffffffffffffffffffffffffffffff16610ded565b1561076057600191505b808060010191505061071a565b50806107e1576040517f08c379a000000000000000000000000000000000000000000000000000000000815260040180806020018281038252601e8152602001807f4e6f2070616972732063616e20626520757064617465642028796574292e000081525060200191505060405180910390fd5b505050565b606060008686905011801561080057508383905086869050145b610855576040517f08c379a00000000000000000000000000000000000000000000000000000000081526004018080602001828103825260358152602001806123596035913960400191505060405180910390fd5b60608686905067ffffffffffffffff8111801561087157600080fd5b506040519080825280602002602001820160405280156108a05781602001602082028036833780820191505090505b50905060005b87879050811015610a14578373ffffffffffffffffffffffffffffffffffffffff1663e6a439058989848181106108d957fe5b9050602002013573ffffffffffffffffffffffffffffffffffffffff1688888581811061090257fe5b9050602002013573ffffffffffffffffffffffffffffffffffffffff166040518363ffffffff1660e01b8152600401808373ffffffffffffffffffffffffffffffffffffffff1681526020018273ffffffffffffffffffffffffffffffffffffffff1681526020019250505060206040518083038186803b15801561098657600080fd5b505afa15801561099a573d6000803e3d6000fd5b505050506040513d60208110156109b057600080fd5b81019080805190602001909291905050508282815181106109cd57fe5b602002602001019073ffffffffffffffffffffffffffffffffffffffff16908173ffffffffffffffffffffffffffffffffffffffff168152505080806001019150506108a6565b508091505095945050505050565b60006020528060005260406000206000915090505481565b73c02aaa39b223fe8d0a0e5c4f27ead9083c756cc281565b61038481565b6000808273ffffffffffffffffffffffffffffffffffffffff1663e6a4390586866040518363ffffffff1660e01b8152600401808373ffffffffffffffffffffffffffffffffffffffff1681526020018273ffffffffffffffffffffffffffffffffffffffff1681526020019250505060206040518083038186803b158015610ae057600080fd5b505afa158015610af4573d6000803e3d6000fd5b505050506040513d6020811015610b0a57600080fd5b8101908080519060200190929190505050905060008573ffffffffffffffffffffffffffffffffffffffff1663313ce5676040518163ffffffff1660e01b815260040160206040518083038186803b158015610b6557600080fd5b505afa158015610b79573d6000803e3d6000fd5b505050506040513d6020811015610b8f57600080fd5b810190808051906020019092919050505060ff16600a0a9050610c39670100000000000000610c2b83610c1d6701000000000000008a73ffffffffffffffffffffffffffffffffffffffff168c73ffffffffffffffffffffffffffffffffffffffff1610610c0557610c00886110fd565b610c0f565b610c0e88611453565b5b6117a990919063ffffffff16565b61183290919063ffffffff16565b6117a990919063ffffffff16565b925050509392505050565b6060600089899050118015610c5e57508686905089899050145b8015610c6f57508484905089899050145b8015610c8057508282905089899050145b610cd5576040517f08c379a000000000000000000000000000000000000000000000000000000000815260040180806020018281038252602f8152602001806123af602f913960400191505060405180910390fd5b60608989905067ffffffffffffffff81118015610cf157600080fd5b50604051908082528060200260200182016040528015610d205781602001602082028036833780820191505090505b50905060005b8a8a9050811015610ddc57610db18b8b83818110610d4057fe5b9050602002013573ffffffffffffffffffffffffffffffffffffffff168a8a84818110610d6957fe5b9050602002013573ffffffffffffffffffffffffffffffffffffffff16898985818110610d9257fe5b90506020020135888886818110610da557fe5b905060200201356118b8565b828281518110610dbd57fe5b6020026020010190151590811515815250508080600101915050610d26565b508091505098975050505050505050565b6000610df882611b58565b610e0557600090506110f8565b60008273ffffffffffffffffffffffffffffffffffffffff16635909c0d56040518163ffffffff1660e01b815260040160206040518083038186803b158015610e4d57600080fd5b505afa158015610e61573d6000803e3d6000fd5b505050506040513d6020811015610e7757600080fd5b8101908080519060200190929190505050905060008373ffffffffffffffffffffffffffffffffffffffff16635a3d54936040518163ffffffff1660e01b815260040160206040518083038186803b158015610ed257600080fd5b505afa158015610ee6573d6000803e3d6000fd5b505050506040513d6020811015610efc57600080fd5b8101908080519060200190929190505050905060008473ffffffffffffffffffffffffffffffffffffffff16630902f1ac6040518163ffffffff1660e01b815260040160606040518083038186803b158015610f5757600080fd5b505afa158015610f6b573d6000803e3d6000fd5b505050506040513d6060811015610f8157600080fd5b810190808051906020019092919080519060200190929190805190602001909291905050509250505060405180606001604052808263ffffffff16815260200184815260200183815250600160008773ffffffffffffffffffffffffffffffffffffffff1673ffffffffffffffffffffffffffffffffffffffff168152602001908152602001600020600460ff166000808973ffffffffffffffffffffffffffffffffffffffff1673ffffffffffffffffffffffffffffffffffffffff168152602001908152602001600020548161105557fe5b066004811061106057fe5b6003020160008201518160000160006101000a81548163ffffffff021916908363ffffffff16021790555060208201518160010155604082015181600201559050506000808673ffffffffffffffffffffffffffffffffffffffff1673ffffffffffffffffffffffffffffffffffffffff16815260200190815260200160002060008154809291906001019190505550600193505050505b919050565b6000806000808473ffffffffffffffffffffffffffffffffffffffff1673ffffffffffffffffffffffffffffffffffffffff168152602001908152602001600020549050600081116111b7576040517f08c379a000000000000000000000000000000000000000000000000000000000815260040180806020018281038252601d8152602001807f4e6f206c656e6774682d312054574150206f62736572766174696f6e2e00000081525060200191505060405180910390fd5b6111bf612331565b600160008573ffffffffffffffffffffffffffffffffffffffff1673ffffffffffffffffffffffffffffffffffffffff168152602001908152602001600020600460ff16600184038161120e57fe5b066004811061121957fe5b600302016040518060600160405290816000820160009054906101000a900463ffffffff1663ffffffff1663ffffffff1681526020016001820154815260200160028201548152505090506103844203816000015163ffffffff16111561139657600182116112f0576040517f08c379a000000000000000000000000000000000000000000000000000000000815260040180806020018281038252601d8152602001807f4e6f206c656e6774682d322054574150206f62736572766174696f6e2e00000081525060200191505060405180910390fd5b600160008573ffffffffffffffffffffffffffffffffffffffff1673ffffffffffffffffffffffffffffffffffffffff168152602001908152602001600020600460ff16600284038161133f57fe5b066004811061134a57fe5b600302016040518060600160405290816000820160009054906101000a900463ffffffff1663ffffffff1663ffffffff1681526020016001820154815260200160028201548152505090505b6000816000015163ffffffff164203905061038481101561141f576040517f08c379a000000000000000000000000000000000000000000000000000000000815260040180806020018281038252600e8152602001807f42616420545741502074696d652e00000000000000000000000000000000000081525060200191505060405180910390fd5b600061142a86611c66565b9050826000015163ffffffff164203836040015182038161144757fe5b04945050505050919050565b6000806000808473ffffffffffffffffffffffffffffffffffffffff1673ffffffffffffffffffffffffffffffffffffffff1681526020019081526020016000205490506000811161150d576040517f08c379a000000000000000000000000000000000000000000000000000000000815260040180806020018281038252601d8152602001807f4e6f206c656e6774682d312054574150206f62736572766174696f6e2e00000081525060200191505060405180910390fd5b611515612331565b600160008573ffffffffffffffffffffffffffffffffffffffff1673ffffffffffffffffffffffffffffffffffffffff168152602001908152602001600020600460ff16600184038161156457fe5b066004811061156f57fe5b600302016040518060600160405290816000820160009054906101000a900463ffffffff1663ffffffff1663ffffffff1681526020016001820154815260200160028201548152505090506103844203816000015163ffffffff1611156116ec5760018211611646576040517f08c379a000000000000000000000000000000000000000000000000000000000815260040180806020018281038252601d8152602001807f4e6f206c656e6774682d322054574150206f62736572766174696f6e2e00000081525060200191505060405180910390fd5b600160008573ffffffffffffffffffffffffffffffffffffffff1673ffffffffffffffffffffffffffffffffffffffff168152602001908152602001600020600460ff16600284038161169557fe5b06600481106116a057fe5b600302016040518060600160405290816000820160009054906101000a900463ffffffff1663ffffffff1663ffffffff1681526020016001820154815260200160028201548152505090505b6000816000015163ffffffff1642039050610384811015611775576040517f08c379a000000000000000000000000000000000000000000000000000000000815260040180806020018281038252600e8152602001807f42616420545741502074696d652e00000000000000000000000000000000000081525060200191505060405180910390fd5b600061178086611dee565b9050826000015163ffffffff164203836020015182038161179d57fe5b04945050505050919050565b6000808211611820576040517f08c379a000000000000000000000000000000000000000000000000000000000815260040180806020018281038252601a8152602001807f536166654d6174683a206469766973696f6e206279207a65726f00000000000081525060200191505060405180910390fd5b81838161182957fe5b04905092915050565b60008083141561184557600090506118b2565b600082840290508284828161185657fe5b04146118ad576040517f08c379a000000000000000000000000000000000000000000000000000000000815260040180806020018281038252602181526020018061238e6021913960400191505060405180910390fd5b809150505b92915050565b6000806000808773ffffffffffffffffffffffffffffffffffffffff1673ffffffffffffffffffffffffffffffffffffffff16815260200190815260200160002054116119085760019050611b50565b60008573ffffffffffffffffffffffffffffffffffffffff16630902f1ac6040518163ffffffff1660e01b815260040160606040518083038186803b15801561195057600080fd5b505afa158015611964573d6000803e3d6000fd5b505050506040513d606081101561197a57600080fd5b81019080805190602001909291908051906020019092919080519060200190929190505050925050506103848410156119b5576103846119b7565b835b600160008873ffffffffffffffffffffffffffffffffffffffff1673ffffffffffffffffffffffffffffffffffffffff168152602001908152602001600020600460ff1660016000808b73ffffffffffffffffffffffffffffffffffffffff1673ffffffffffffffffffffffffffffffffffffffff168152602001908152602001600020540381611a4457fe5b0660048110611a4f57fe5b6003020160000160009054906101000a900463ffffffff1663ffffffff164203118015611b375750600160008773ffffffffffffffffffffffffffffffffffffffff1673ffffffffffffffffffffffffffffffffffffffff168152602001908152602001600020600460ff1660016000808a73ffffffffffffffffffffffffffffffffffffffff1673ffffffffffffffffffffffffffffffffffffffff168152602001908152602001600020540381611b0457fe5b0660048110611b0f57fe5b6003020160000160009054906101000a900463ffffffff1663ffffffff168163ffffffff1614155b8015611b4c575082611b498787611f70565b10155b9150505b949350505050565b6000806000808473ffffffffffffffffffffffffffffffffffffffff1673ffffffffffffffffffffffffffffffffffffffff16815260200190815260200160002054111580611c5f5750610384600160008473ffffffffffffffffffffffffffffffffffffffff1673ffffffffffffffffffffffffffffffffffffffff168152602001908152602001600020600460ff1660016000808773ffffffffffffffffffffffffffffffffffffffff1673ffffffffffffffffffffffffffffffffffffffff168152602001908152602001600020540381611c3257fe5b0660048110611c3d57fe5b6003020160000160009054906101000a900463ffffffff1663ffffffff164203115b9050919050565b6000804290508273ffffffffffffffffffffffffffffffffffffffff16635a3d54936040518163ffffffff1660e01b815260040160206040518083038186803b158015611cb257600080fd5b505afa158015611cc6573d6000803e3d6000fd5b505050506040513d6020811015611cdc57600080fd5b8101908080519060200190929190505050915060008060008573ffffffffffffffffffffffffffffffffffffffff16630902f1ac6040518163ffffffff1660e01b815260040160606040518083038186803b158015611d3a57600080fd5b505afa158015611d4e573d6000803e3d6000fd5b505050506040513d6060811015611d6457600080fd5b8101908080519060200190929190805190602001909291908051906020019092919050505092506dffffffffffffffffffffffffffff1692506dffffffffffffffffffffffffffff1692508363ffffffff168163ffffffff1614611de557600081850390508063ffffffff1683607086901b81611ddd57fe5b040286019550505b50505050919050565b6000804290508273ffffffffffffffffffffffffffffffffffffffff16635909c0d56040518163ffffffff1660e01b815260040160206040518083038186803b158015611e3a57600080fd5b505afa158015611e4e573d6000803e3d6000fd5b505050506040513d6020811015611e6457600080fd5b8101908080519060200190929190505050915060008060008573ffffffffffffffffffffffffffffffffffffffff16630902f1ac6040518163ffffffff1660e01b815260040160606040518083038186803b158015611ec257600080fd5b505afa158015611ed6573d6000803e3d6000fd5b505050506040513d6060811015611eec57600080fd5b8101908080519060200190929190805190602001909291908051906020019092919050505092506dffffffffffffffffffffffffffff1692506dffffffffffffffffffffffffffff169250428163ffffffff1614611f6757600081850390508063ffffffff1684607085901b81611f5f57fe5b040286019550505b50505050919050565b6000808373ffffffffffffffffffffffffffffffffffffffff16630dfe16816040518163ffffffff1660e01b815260040160206040518083038186803b158015611fb957600080fd5b505afa158015611fcd573d6000803e3d6000fd5b505050506040513d6020811015611fe357600080fd5b8101908080519060200190929190505050905060008373ffffffffffffffffffffffffffffffffffffffff168273ffffffffffffffffffffffffffffffffffffffff16141590506000816120b7578573ffffffffffffffffffffffffffffffffffffffff1663d21220a76040518163ffffffff1660e01b815260040160206040518083038186803b15801561207757600080fd5b505afa15801561208b573d6000803e3d6000fd5b505050506040513d60208110156120a157600080fd5b81019080805190602001909291905050506120b9565b825b905060008173ffffffffffffffffffffffffffffffffffffffff1663313ce5676040518163ffffffff1660e01b815260040160206040518083038186803b15801561210357600080fd5b505afa158015612117573d6000803e3d6000fd5b505050506040513d602081101561212d57600080fd5b810190808051906020019092919050505060ff16600a0a905060006121ab67010000000000000061219d8461218f67010000000000000089612177576121728e6110fd565b612181565b6121808e611453565b5b6117a990919063ffffffff16565b61183290919063ffffffff16565b6117a990919063ffffffff16565b90506000808973ffffffffffffffffffffffffffffffffffffffff16630902f1ac6040518163ffffffff1660e01b815260040160606040518083038186803b1580156121f657600080fd5b505afa15801561220a573d6000803e3d6000fd5b505050506040513d606081101561222057600080fd5b81019080805190602001909291908051906020019092919080519060200190929190505050506dffffffffffffffffffffffffffff1691506dffffffffffffffffffffffffffff16915060008661229b5761229682612288878661183290919063ffffffff16565b6117a990919063ffffffff16565b6122c1565b6122c0836122b2878561183290919063ffffffff16565b6117a990919063ffffffff16565b5b905060006122f2856122e4670de0b6b3a76400008561183290919063ffffffff16565b6117a990919063ffffffff16565b9050670de0b6b3a76400008110156123145780670de0b6b3a764000003612320565b670de0b6b3a764000081035b995050505050505050505092915050565b6040518060600160405280600063ffffffff1681526020016000815260200160008152509056fe546f6b656e206172726179206c656e67746873206d75737420626520657175616c20616e642067726561746572207468616e20302e536166654d6174683a206d756c7469706c69636174696f6e206f766572666c6f774172726179206c656e67746873206d75737420626520657175616c20616e642067726561746572207468616e20302ea26469706673582212200015e2116610e9bda5c36272b754f5d29a66fb4c54af7fbb01d907f4ca000f3a64736f6c634300060c0033",
  "linkReferences": {},
  "deployedLinkReferences": {}
}