{
  "_format": "hh-sol-artifact-1",
  "contractName": "UniswapV3TwapPriceOracleV2",
  "sourceName": "contracts/oracles/UniswapV3TwapPriceOracleV2.sol",
  "abi": [
    {
      "inputs": [],
      "name": "TWAP_PERIOD",
      "outputs": [
        {
          "internalType": "uint32",
          "name": "",
          "type": "uint32"
        }
      ],
      "stateMutability": "view",
      "type": "function"
    },
    {
      "inputs": [],
      "name": "WETH",
      "outputs": [
        {
          "internalType": "address",
          "name": "",
          "type": "address"
        }
      ],
      "stateMutability": "view",
      "type": "function"
    },
    {
      "inputs": [],
      "name": "baseToken",
      "outputs": [
        {
          "internalType": "address",
          "name": "",
          "type": "address"
        }
      ],
      "stateMutability": "view",
      "type": "function"
    },
    {
      "inputs": [],
      "name": "feeTier",
      "outputs": [
        {
          "internalType": "uint24",
          "name": "",
          "type": "uint24"
        }
      ],
      "stateMutability": "view",
      "type": "function"
    },
    {
      "inputs": [
        {
          "internalType": "contract CToken",
          "name": "cToken",
          "type": "address"
        }
      ],
      "name": "getUnderlyingPrice",
      "outputs": [
        {
          "internalType": "uint256",
          "name": "",
          "type": "uint256"
        }
      ],
      "stateMutability": "view",
      "type": "function"
    },
    {
      "inputs": [
        {
          "internalType": "address",
          "name": "_uniswapV3Factory",
          "type": "address"
        },
        {
          "internalType": "uint24",
          "name": "_feeTier",
          "type": "uint24"
        },
        {
          "internalType": "address",
          "name": "_baseToken",
          "type": "address"
        }
      ],
      "name": "initialize",
      "outputs": [],
      "stateMutability": "nonpayable",
      "type": "function"
    },
    {
      "inputs": [
        {
          "internalType": "address",
          "name": "underlying",
          "type": "address"
        }
      ],
      "name": "price",
      "outputs": [
        {
          "internalType": "uint256",
          "name": "",
          "type": "uint256"
        }
      ],
      "stateMutability": "view",
      "type": "function"
    },
    {
      "inputs": [],
      "name": "uniswapV3Factory",
      "outputs": [
        {
          "internalType": "address",
          "name": "",
          "type": "address"
        }
      ],
      "stateMutability": "view",
      "type": "function"
    }
  ],
  "bytecode": "0x608060405234801561001057600080fd5b50611916806100206000396000f3fe608060405234801561001057600080fd5b50600436106100885760003560e01c8063aea910781161005b578063aea910781461013c578063c55dae6314610194578063d9d3d00a146101c8578063fc57d4df1461023b57610088565b80635b5491821461008d57806372f5d98a146100c15780637ca25184146100e4578063ad5c464814610108575b600080fd5b610095610293565b604051808273ffffffffffffffffffffffffffffffffffffffff16815260200191505060405180910390f35b6100c96102b9565b604051808262ffffff16815260200191505060405180910390f35b6100ec6102ce565b604051808263ffffffff16815260200191505060405180910390f35b6101106102d4565b604051808273ffffffffffffffffffffffffffffffffffffffff16815260200191505060405180910390f35b61017e6004803603602081101561015257600080fd5b81019080803573ffffffffffffffffffffffffffffffffffffffff1690602001909291905050506102ec565b6040518082815260200191505060405180910390f35b61019c6102fe565b604051808273ffffffffffffffffffffffffffffffffffffffff16815260200191505060405180910390f35b610239600480360360608110156101de57600080fd5b81019080803573ffffffffffffffffffffffffffffffffffffffff169060200190929190803562ffffff169060200190929190803573ffffffffffffffffffffffffffffffffffffffff169060200190929190505050610324565b005b61027d6004803603602081101561025157600080fd5b81019080803573ffffffffffffffffffffffffffffffffffffffff169060200190929190505050610656565b6040518082815260200191505060405180910390f35b600060029054906101000a900473ffffffffffffffffffffffffffffffffffffffff1681565b600060169054906101000a900462ffffff1681565b61025881565b73c02aaa39b223fe8d0a0e5c4f27ead9083c756cc281565b60006102f78261083d565b9050919050565b600160009054906101000a900473ffffffffffffffffffffffffffffffffffffffff1681565b600060019054906101000a900460ff16806103435750610342610ca7565b5b80610359575060008054906101000a900460ff16155b6103ae576040517f08c379a000000000000000000000000000000000000000000000000000000000815260040180806020018281038252602e815260200180611892602e913960400191505060405180910390fd5b60008060019054906101000a900460ff1615905080156103fe576001600060016101000a81548160ff02191690831515021790555060016000806101000a81548160ff0219169083151502179055505b600073ffffffffffffffffffffffffffffffffffffffff168473ffffffffffffffffffffffffffffffffffffffff1614156104a1576040517f08c379a000000000000000000000000000000000000000000000000000000000815260040180806020018281038252601d8152602001807f556e69737761705633466163746f7279206e6f7420646566696e65642e00000081525060200191505060405180910390fd5b6101f48362ffffff1614806104bc5750610bb88362ffffff16145b806104cd57506127108362ffffff16145b61053f576040517f08c379a00000000000000000000000000000000000000000000000000000000081526004018080602001828103825260118152602001807f496e76616c69642066656520746965722e00000000000000000000000000000081525060200191505060405180910390fd5b83600060026101000a81548173ffffffffffffffffffffffffffffffffffffffff021916908373ffffffffffffffffffffffffffffffffffffffff16021790555082600060166101000a81548162ffffff021916908362ffffff160217905550600073ffffffffffffffffffffffffffffffffffffffff168273ffffffffffffffffffffffffffffffffffffffff16146105d957816105ef565b73c02aaa39b223fe8d0a0e5c4f27ead9083c756cc25b600160006101000a81548173ffffffffffffffffffffffffffffffffffffffff021916908373ffffffffffffffffffffffffffffffffffffffff16021790555080156106505760008060016101000a81548160ff0219169083151502179055505b50505050565b60008173ffffffffffffffffffffffffffffffffffffffff1663ac784ddc6040518163ffffffff1660e01b815260040160206040518083038186803b15801561069e57600080fd5b505afa1580156106b2573d6000803e3d6000fd5b505050506040513d60208110156106c857600080fd5b8101908080519060200190929190505050156106ee57670de0b6b3a76400009050610838565b60008273ffffffffffffffffffffffffffffffffffffffff16636f307dc36040518163ffffffff1660e01b815260040160206040518083038186803b15801561073657600080fd5b505afa15801561074a573d6000803e3d6000fd5b505050506040513d602081101561076057600080fd5b8101908080519060200190929190505050905060008173ffffffffffffffffffffffffffffffffffffffff1663313ce5676040518163ffffffff1660e01b815260040160206040518083038186803b1580156107bb57600080fd5b505afa1580156107cf573d6000803e3d6000fd5b505050506040513d60208110156107e557600080fd5b810190808051906020019092919050505060ff16600a0a905061083381610825670de0b6b3a76400006108178661083d565b610cb890919063ffffffff16565b610d3e90919063ffffffff16565b925050505b919050565b600073c02aaa39b223fe8d0a0e5c4f27ead9083c756cc273ffffffffffffffffffffffffffffffffffffffff168273ffffffffffffffffffffffffffffffffffffffff16141561089757670de0b6b3a76400009050610ca2565b60008060029054906101000a900473ffffffffffffffffffffffffffffffffffffffff1673ffffffffffffffffffffffffffffffffffffffff16631698ee8284600160009054906101000a900473ffffffffffffffffffffffffffffffffffffffff16600060169054906101000a900462ffffff166040518463ffffffff1660e01b8152600401808473ffffffffffffffffffffffffffffffffffffffff1681526020018373ffffffffffffffffffffffffffffffffffffffff1681526020018262ffffff168152602001935050505060206040518083038186803b15801561097f57600080fd5b505afa158015610993573d6000803e3d6000fd5b505050506040513d60208110156109a957600080fd5b8101908080519060200190929190505050905060006109ca82610258610dc7565b905060008473ffffffffffffffffffffffffffffffffffffffff1663313ce5676040518163ffffffff1660e01b815260040160206040518083038186803b158015610a1457600080fd5b505afa158015610a28573d6000803e3d6000fd5b505050506040513d6020811015610a3e57600080fd5b810190808051906020019092919050505060ff166fffffffffffffffffffffffffffffffff16600a0a90506000610a99838388600160009054906101000a900473ffffffffffffffffffffffffffffffffffffffff16611166565b905073c02aaa39b223fe8d0a0e5c4f27ead9083c756cc273ffffffffffffffffffffffffffffffffffffffff16600160009054906101000a900473ffffffffffffffffffffffffffffffffffffffff1673ffffffffffffffffffffffffffffffffffffffff1614610c9957610c94600160009054906101000a900473ffffffffffffffffffffffffffffffffffffffff1673ffffffffffffffffffffffffffffffffffffffff1663313ce5676040518163ffffffff1660e01b815260040160206040518083038186803b158015610b6f57600080fd5b505afa158015610b83573d6000803e3d6000fd5b505050506040513d6020811015610b9957600080fd5b810190808051906020019092919050505060ff16600a0a610c863373ffffffffffffffffffffffffffffffffffffffff1663aea91078600160009054906101000a900473ffffffffffffffffffffffffffffffffffffffff166040518263ffffffff1660e01b8152600401808273ffffffffffffffffffffffffffffffffffffffff16815260200191505060206040518083038186803b158015610c3c57600080fd5b505afa158015610c50573d6000803e3d6000fd5b505050506040513d6020811015610c6657600080fd5b810190808051906020019092919050505084610cb890919063ffffffff16565b610d3e90919063ffffffff16565b610c9b565b805b9450505050505b919050565b6000610cb230611369565b15905090565b600080831415610ccb5760009050610d38565b6000828402905082848281610cdc57fe5b0414610d33576040517f08c379a00000000000000000000000000000000000000000000000000000000081526004018080602001828103825260218152602001806118c06021913960400191505060405180910390fd5b809150505b92915050565b6000808211610db5576040517f08c379a000000000000000000000000000000000000000000000000000000000815260040180806020018281038252601a8152602001807f536166654d6174683a206469766973696f6e206279207a65726f00000000000081525060200191505060405180910390fd5b818381610dbe57fe5b04905092915050565b6000808263ffffffff161415610e45576040517f08c379a00000000000000000000000000000000000000000000000000000000081526004018080602001828103825260028152602001807f425000000000000000000000000000000000000000000000000000000000000081525060200191505060405180910390fd5b6060600267ffffffffffffffff81118015610e5f57600080fd5b50604051908082528060200260200182016040528015610e8e5781602001602082028036833780820191505090505b5090508281600081518110610e9f57fe5b602002602001019063ffffffff16908163ffffffff1681525050600081600181518110610ec857fe5b602002602001019063ffffffff16908163ffffffff168152505060608473ffffffffffffffffffffffffffffffffffffffff1663883bdbfd836040518263ffffffff1660e01b81526004018080602001828103825283818151815260200191508051906020019060200280838360005b83811015610f53578082015181840152602081019050610f38565b505050509050019250505060006040518083038186803b158015610f7657600080fd5b505afa158015610f8a573d6000803e3d6000fd5b505050506040513d6000823e3d601f19601f820116820180604052506040811015610fb457600080fd5b8101908080516040519392919084640100000000821115610fd457600080fd5b83820191506020820185811115610fea57600080fd5b825186602082028301116401000000008211171561100757600080fd5b8083526020830192505050908051906020019060200280838360005b8381101561103e578082015181840152602081019050611023565b505050509050016040526020018051604051939291908464010000000082111561106757600080fd5b8382019150602082018581111561107d57600080fd5b825186602082028301116401000000008211171561109a57600080fd5b8083526020830192505050908051906020019060200280838360005b838110156110d15780820151818401526020810190506110b6565b505050509050016040525050505090506000816000815181106110f057fe5b60200260200101518260018151811061110557fe5b60200260200101510390508463ffffffff168160060b8161112257fe5b05935060008160060b12801561114e575060008563ffffffff168260060b8161114757fe5b0760060b14155b1561115d578380600190039450505b50505092915050565b6000806111728661137c565b90506fffffffffffffffffffffffffffffffff80168173ffffffffffffffffffffffffffffffffffffffff16116112835760008173ffffffffffffffffffffffffffffffffffffffff168273ffffffffffffffffffffffffffffffffffffffff160290508373ffffffffffffffffffffffffffffffffffffffff168573ffffffffffffffffffffffffffffffffffffffff16106112445761123f7801000000000000000000000000000000000000000000000000876fffffffffffffffffffffffffffffffff16836117b7565b61127b565b61127a81876fffffffffffffffffffffffffffffffff1678010000000000000000000000000000000000000000000000006117b7565b5b925050611360565b60006112c58273ffffffffffffffffffffffffffffffffffffffff168373ffffffffffffffffffffffffffffffffffffffff16680100000000000000006117b7565b90508373ffffffffffffffffffffffffffffffffffffffff168573ffffffffffffffffffffffffffffffffffffffff161061132d57611328700100000000000000000000000000000000876fffffffffffffffffffffffffffffffff16836117b7565b61135c565b61135b81876fffffffffffffffffffffffffffffffff167001000000000000000000000000000000006117b7565b5b9250505b50949350505050565b600080823b905060008111915050919050565b60008060008360020b12611393578260020b61139b565b8260020b6000035b90507ffffffffffffffffffffffffffffffffffffffffffffffffffffffffffff2761860000360020b811115611439576040517f08c379a00000000000000000000000000000000000000000000000000000000081526004018080602001828103825260018152602001807f540000000000000000000000000000000000000000000000000000000000000081525060200191505060405180910390fd5b60008060018316141561145d5770010000000000000000000000000000000061146f565b6ffffcb933bd6fad37aa2d162d1a5940015b70ffffffffffffffffffffffffffffffffff169050600060028316146114a95760806ffff97272373d413259a46990580e213a8202901c90505b600060048316146114ce5760806ffff2e50f5f656932ef12357cf3c7fdcc8202901c90505b600060088316146114f35760806fffe5caca7e10e4e61c3624eaa0941cd08202901c90505b600060108316146115185760806fffcb9843d60f6159c9db58835c9266448202901c90505b6000602083161461153d5760806fff973b41fa98c081472e6896dfb254c08202901c90505b600060408316146115625760806fff2ea16466c96a3843ec78b326b528618202901c90505b600060808316146115875760806ffe5dee046a99a2a811c461f1969c30538202901c90505b60006101008316146115ad5760806ffcbe86c7900a88aedcffc83b479aa3a48202901c90505b60006102008316146115d35760806ff987a7253ac413176f2b074cf7815e548202901c90505b60006104008316146115f95760806ff3392b0822b70005940c7a398e4b70f38202901c90505b600061080083161461161f5760806fe7159475a2c29b7443b29c7fa6e889d98202901c90505b60006110008316146116455760806fd097f3bdfd2022b8845ad8f792aa58258202901c90505b600061200083161461166b5760806fa9f746462d870fdf8a65dc1f90e061e58202901c90505b60006140008316146116915760806f70d869a156d2a1b890bb3df62baf32f78202901c90505b60006180008316146116b75760806f31be135f97d08fd981231505542fcfa68202901c90505b6000620100008316146116de5760806f09aa508b5b7a84e1c677de54f3e99bc98202901c90505b6000620200008316146117045760806e5d6af8dedb81196699c329225ee6048202901c90505b6000620400008316146117295760806d2216e584f5fa1ea926041bedfe988202901c90505b60006208000083161461174c5760806b048a170391f7dc42444e8fa28202901c90505b60008460020b131561178557807fffffffffffffffffffffffffffffffffffffffffffffffffffffffffffffffff8161178157fe5b0490505b6000640100000000828161179557fe5b06146117a25760016117a5565b60005b60ff16602082901c0192505050919050565b6000806000801985870985870292508281108382030391505060008114156117f257600084116117e657600080fd5b8382049250505061188a565b8084116117fe57600080fd5b600084868809905082811182039150808303925060008586600003169050808604955080840493506001818260000304019050808302841793506000600287600302189050808702600203810290508087026002038102905080870260020381029050808702600203810290508087026002038102905080870260020381029050808502955050505050505b939250505056fe496e697469616c697a61626c653a20636f6e747261637420697320616c726561647920696e697469616c697a6564536166654d6174683a206d756c7469706c69636174696f6e206f766572666c6f77a2646970667358221220bfb9f633cc00289ba46cfa425e7940be38bc86c80ab067826a215d1d360aafe364736f6c634300060c0033",
  "linkReferences": {},
  "deployedLinkReferences": {}
}