{
  "_format": "hh-sol-artifact-1",
  "contractName": "Keep3rV2OracleFactory",
  "sourceName": "contracts/external/keep3r/Keep3rV2OracleFactory.sol",
  "abi": [
    {
      "inputs": [
        {
          "internalType": "address",
          "name": "",
          "type": "address"
        }
      ],
      "name": "feeds",
      "outputs": [
        {
          "internalType": "contract Keep3rV2Oracle",
          "name": "",
          "type": "address"
        }
      ],
      "stateMutability": "view",
      "type": "function"
    }
  ],
  "bytecode": "0x608060405234801561001057600080fd5b50610101806100206000396000f3fe6080604052348015600f57600080fd5b506004361060285760003560e01c80632fba4aa914602d575b600080fd5b606c60048036036020811015604157600080fd5b81019080803573ffffffffffffffffffffffffffffffffffffffff1690602001909291905050506098565b604051808273ffffffffffffffffffffffffffffffffffffffff16815260200191505060405180910390f35b60006020528060005260406000206000915054906101000a900473ffffffffffffffffffffffffffffffffffffffff168156fea264697066735822122037475832a377ad7ba484c07a84391523775d00ab29058f79c87a004431d0885064736f6c634300060c0033",
  "linkReferences": {},
  "deployedLinkReferences": {}
}