{
  "_format": "hh-sol-artifact-1",
  "contractName": "YVaultV2PriceOracle",
  "sourceName": "contracts/oracles/YVaultV2PriceOracle.sol",
  "abi": [
    {
      "inputs": [
        {
          "internalType": "contract CToken",
          "name": "cToken",
          "type": "address"
        }
      ],
      "name": "getUnderlyingPrice",
      "outputs": [
        {
          "internalType": "uint256",
          "name": "",
          "type": "uint256"
        }
      ],
      "stateMutability": "view",
      "type": "function"
    }
  ],
  "bytecode": "0x608060405234801561001057600080fd5b5061055c806100206000396000f3fe608060405234801561001057600080fd5b506004361061002b5760003560e01c8063fc57d4df14610030575b600080fd5b6100726004803603602081101561004657600080fd5b81019080803573ffffffffffffffffffffffffffffffffffffffff169060200190929190505050610088565b6040518082815260200191505060405180910390f35b6000808273ffffffffffffffffffffffffffffffffffffffff16636f307dc36040518163ffffffff1660e01b815260040160206040518083038186803b1580156100d157600080fd5b505afa1580156100e5573d6000803e3d6000fd5b505050506040513d60208110156100fb57600080fd5b8101908080519060200190929190505050905060008173ffffffffffffffffffffffffffffffffffffffff1663fc0c546a6040518163ffffffff1660e01b815260040160206040518083038186803b15801561015657600080fd5b505afa15801561016a573d6000803e3d6000fd5b505050506040513d602081101561018057600080fd5b81019080805190602001909291905050509050600073c02aaa39b223fe8d0a0e5c4f27ead9083c756cc273ffffffffffffffffffffffffffffffffffffffff168273ffffffffffffffffffffffffffffffffffffffff1614610283573373ffffffffffffffffffffffffffffffffffffffff1663aea91078836040518263ffffffff1660e01b8152600401808273ffffffffffffffffffffffffffffffffffffffff16815260200191505060206040518083038186803b15801561024357600080fd5b505afa158015610257573d6000803e3d6000fd5b505050506040513d602081101561026d57600080fd5b810190808051906020019092919050505061028d565b670de0b6b3a76400005b905060008373ffffffffffffffffffffffffffffffffffffffff1663313ce5676040518163ffffffff1660e01b815260040160206040518083038186803b1580156102d757600080fd5b505afa1580156102eb573d6000803e3d6000fd5b505050506040513d602081101561030157600080fd5b810190808051906020019092919050505060ff16600a0a90506103eb816103dd670de0b6b3a76400006103cf856103c1888b73ffffffffffffffffffffffffffffffffffffffff166399530b066040518163ffffffff1660e01b815260040160206040518083038186803b15801561037857600080fd5b505afa15801561038c573d6000803e3d6000fd5b505050506040513d60208110156103a257600080fd5b81019080805190602001909291905050506103f690919063ffffffff16565b61047c90919063ffffffff16565b6103f690919063ffffffff16565b61047c90919063ffffffff16565b945050505050919050565b6000808314156104095760009050610476565b600082840290508284828161041a57fe5b0414610471576040517f08c379a00000000000000000000000000000000000000000000000000000000081526004018080602001828103825260218152602001806105066021913960400191505060405180910390fd5b809150505b92915050565b60008082116104f3576040517f08c379a000000000000000000000000000000000000000000000000000000000815260040180806020018281038252601a8152602001807f536166654d6174683a206469766973696f6e206279207a65726f00000000000081525060200191505060405180910390fd5b8183816104fc57fe5b0490509291505056fe536166654d6174683a206d756c7469706c69636174696f6e206f766572666c6f77a26469706673582212207335561d94c218f92c5f489afd355ec47037569205a63d0c5b48d41c20ba961f64736f6c634300060c0033",
  "linkReferences": {},
  "deployedLinkReferences": {}
}