{
  "abi": [
    {
      "inputs": [
        {
          "internalType": "contract ERC20",
          "name": "_rewardToken",
          "type": "address"
        },
        {
          "internalType": "contract IFlywheelRewards",
          "name": "_flywheelRewards",
          "type": "address"
        },
        {
          "internalType": "contract IFlywheelBooster",
          "name": "_flywheelBooster",
          "type": "address"
        },
        {
          "internalType": "address",
          "name": "_owner",
          "type": "address"
        },
        {
          "internalType": "contract Authority",
          "name": "_authority",
          "type": "address"
        }
      ],
      "stateMutability": "nonpayable",
      "type": "constructor"
    },
    {
      "anonymous": false,
      "inputs": [
        {
          "indexed": true,
          "internalType": "contract ERC20",
          "name": "strategy",
          "type": "address"
        },
        {
          "indexed": true,
          "internalType": "address",
          "name": "user",
          "type": "address"
        },
        {
          "indexed": false,
          "internalType": "uint256",
          "name": "rewardsDelta",
          "type": "uint256"
        },
        {
          "indexed": false,
          "internalType": "uint256",
          "name": "rewardsIndex",
          "type": "uint256"
        }
      ],
      "name": "AccrueRewards",
      "type": "event"
    },
    {
      "anonymous": false,
      "inputs": [
        {
          "indexed": true,
          "internalType": "address",
          "name": "newStrategy",
          "type": "address"
        }
      ],
      "name": "AddStrategy",
      "type": "event"
    },
    {
      "anonymous": false,
      "inputs": [
        {
          "indexed": true,
          "internalType": "address",
          "name": "user",
          "type": "address"
        },
        {
          "indexed": true,
          "internalType": "contract Authority",
          "name": "newAuthority",
          "type": "address"
        }
      ],
      "name": "AuthorityUpdated",
      "type": "event"
    },
    {
      "anonymous": false,
      "inputs": [
        {
          "indexed": true,
          "internalType": "address",
          "name": "user",
          "type": "address"
        },
        {
          "indexed": false,
          "internalType": "uint256",
          "name": "amount",
          "type": "uint256"
        }
      ],
      "name": "ClaimRewards",
      "type": "event"
    },
    {
      "anonymous": false,
      "inputs": [
        {
          "indexed": true,
          "internalType": "address",
          "name": "newBooster",
          "type": "address"
        }
      ],
      "name": "FlywheelBoosterUpdate",
      "type": "event"
    },
    {
      "anonymous": false,
      "inputs": [
        {
          "indexed": true,
          "internalType": "address",
          "name": "newFlywheelRewards",
          "type": "address"
        }
      ],
      "name": "FlywheelRewardsUpdate",
      "type": "event"
    },
    {
      "anonymous": false,
      "inputs": [
        {
          "indexed": true,
          "internalType": "address",
          "name": "user",
          "type": "address"
        },
        {
          "indexed": true,
          "internalType": "address",
          "name": "newOwner",
          "type": "address"
        }
      ],
      "name": "OwnerUpdated",
      "type": "event"
    },
    {
      "inputs": [],
      "name": "ONE",
      "outputs": [
        {
          "internalType": "uint224",
          "name": "",
          "type": "uint224"
        }
      ],
      "stateMutability": "view",
      "type": "function"
    },
    {
      "inputs": [
        {
          "internalType": "contract ERC20",
          "name": "strategy",
          "type": "address"
        },
        {
          "internalType": "address",
          "name": "user",
          "type": "address"
        }
      ],
      "name": "accrue",
      "outputs": [
        {
          "internalType": "uint256",
          "name": "",
          "type": "uint256"
        }
      ],
      "stateMutability": "nonpayable",
      "type": "function"
    },
    {
      "inputs": [
        {
          "internalType": "contract ERC20",
          "name": "strategy",
          "type": "address"
        },
        {
          "internalType": "address",
          "name": "user",
          "type": "address"
        },
        {
          "internalType": "address",
          "name": "secondUser",
          "type": "address"
        }
      ],
      "name": "accrue",
      "outputs": [
        {
          "internalType": "uint256",
          "name": "",
          "type": "uint256"
        },
        {
          "internalType": "uint256",
          "name": "",
          "type": "uint256"
        }
      ],
      "stateMutability": "nonpayable",
      "type": "function"
    },
    {
      "inputs": [
        {
          "internalType": "contract ERC20",
          "name": "strategy",
          "type": "address"
        }
      ],
      "name": "addMarketForRewards",
      "outputs": [],
      "stateMutability": "nonpayable",
      "type": "function"
    },
    {
      "inputs": [
        {
          "internalType": "contract ERC20",
          "name": "strategy",
          "type": "address"
        }
      ],
      "name": "addStrategyForRewards",
      "outputs": [],
      "stateMutability": "nonpayable",
      "type": "function"
    },
    {
      "inputs": [
        {
          "internalType": "uint256",
          "name": "",
          "type": "uint256"
        }
      ],
      "name": "allStrategies",
      "outputs": [
        {
          "internalType": "contract ERC20",
          "name": "",
          "type": "address"
        }
      ],
      "stateMutability": "view",
      "type": "function"
    },
    {
      "inputs": [],
      "name": "authority",
      "outputs": [
        {
          "internalType": "contract Authority",
          "name": "",
          "type": "address"
        }
      ],
      "stateMutability": "view",
      "type": "function"
    },
    {
      "inputs": [
        {
          "internalType": "address",
          "name": "user",
          "type": "address"
        }
      ],
      "name": "claimRewards",
      "outputs": [],
      "stateMutability": "nonpayable",
      "type": "function"
    },
    {
      "inputs": [
        {
          "internalType": "address",
          "name": "user",
          "type": "address"
        }
      ],
      "name": "compAccrued",
      "outputs": [
        {
          "internalType": "uint256",
          "name": "",
          "type": "uint256"
        }
      ],
      "stateMutability": "view",
      "type": "function"
    },
    {
      "inputs": [],
      "name": "flywheelBooster",
      "outputs": [
        {
          "internalType": "contract IFlywheelBooster",
          "name": "",
          "type": "address"
        }
      ],
      "stateMutability": "view",
      "type": "function"
    },
    {
      "inputs": [
        {
          "internalType": "contract ERC20",
          "name": "market",
          "type": "address"
        },
        {
          "internalType": "address",
          "name": "borrower",
          "type": "address"
        }
      ],
      "name": "flywheelPreBorrowerAction",
      "outputs": [],
      "stateMutability": "nonpayable",
      "type": "function"
    },
    {
      "inputs": [
        {
          "internalType": "contract ERC20",
          "name": "market",
          "type": "address"
        },
        {
          "internalType": "address",
          "name": "supplier",
          "type": "address"
        }
      ],
      "name": "flywheelPreSupplierAction",
      "outputs": [],
      "stateMutability": "nonpayable",
      "type": "function"
    },
    {
      "inputs": [
        {
          "internalType": "contract ERC20",
          "name": "market",
          "type": "address"
        },
        {
          "internalType": "address",
          "name": "src",
          "type": "address"
        },
        {
          "internalType": "address",
          "name": "dst",
          "type": "address"
        }
      ],
      "name": "flywheelPreTransferAction",
      "outputs": [],
      "stateMutability": "nonpayable",
      "type": "function"
    },
    {
      "inputs": [],
      "name": "flywheelRewards",
      "outputs": [
        {
          "internalType": "contract IFlywheelRewards",
          "name": "",
          "type": "address"
        }
      ],
      "stateMutability": "view",
      "type": "function"
    },
    {
      "inputs": [],
      "name": "getAllStrategies",
      "outputs": [
        {
          "internalType": "contract ERC20[]",
          "name": "",
          "type": "address[]"
        }
      ],
      "stateMutability": "view",
      "type": "function"
    },
    {
      "inputs": [],
      "name": "isFlywheel",
      "outputs": [
        {
          "internalType": "bool",
          "name": "",
          "type": "bool"
        }
      ],
      "stateMutability": "view",
      "type": "function"
    },
    {
      "inputs": [],
      "name": "isRewardsDistributor",
      "outputs": [
        {
          "internalType": "bool",
          "name": "",
          "type": "bool"
        }
      ],
      "stateMutability": "view",
      "type": "function"
    },
    {
      "inputs": [
        {
          "internalType": "contract ERC20",
          "name": "strategy",
          "type": "address"
        }
      ],
      "name": "marketState",
      "outputs": [
        {
          "components": [
            {
              "internalType": "uint224",
              "name": "index",
              "type": "uint224"
            },
            {
              "internalType": "uint32",
              "name": "lastUpdatedTimestamp",
              "type": "uint32"
            }
          ],
          "internalType": "struct FlywheelCore.RewardsState",
          "name": "",
          "type": "tuple"
        }
      ],
      "stateMutability": "view",
      "type": "function"
    },
    {
      "inputs": [],
      "name": "owner",
      "outputs": [
        {
          "internalType": "address",
          "name": "",
          "type": "address"
        }
      ],
      "stateMutability": "view",
      "type": "function"
    },
    {
      "inputs": [],
      "name": "rewardToken",
      "outputs": [
        {
          "internalType": "contract ERC20",
          "name": "",
          "type": "address"
        }
      ],
      "stateMutability": "view",
      "type": "function"
    },
    {
      "inputs": [
        {
          "internalType": "address",
          "name": "",
          "type": "address"
        }
      ],
      "name": "rewardsAccrued",
      "outputs": [
        {
          "internalType": "uint256",
          "name": "",
          "type": "uint256"
        }
      ],
      "stateMutability": "view",
      "type": "function"
    },
    {
      "inputs": [
        {
          "internalType": "contract Authority",
          "name": "newAuthority",
          "type": "address"
        }
      ],
      "name": "setAuthority",
      "outputs": [],
      "stateMutability": "nonpayable",
      "type": "function"
    },
    {
      "inputs": [
        {
          "internalType": "contract IFlywheelBooster",
          "name": "newBooster",
          "type": "address"
        }
      ],
      "name": "setBooster",
      "outputs": [],
      "stateMutability": "nonpayable",
      "type": "function"
    },
    {
      "inputs": [
        {
          "internalType": "contract IFlywheelRewards",
          "name": "newFlywheelRewards",
          "type": "address"
        }
      ],
      "name": "setFlywheelRewards",
      "outputs": [],
      "stateMutability": "nonpayable",
      "type": "function"
    },
    {
      "inputs": [
        {
          "internalType": "address",
          "name": "newOwner",
          "type": "address"
        }
      ],
      "name": "setOwner",
      "outputs": [],
      "stateMutability": "nonpayable",
      "type": "function"
    },
    {
      "inputs": [
        {
          "internalType": "contract ERC20",
          "name": "",
          "type": "address"
        }
      ],
      "name": "strategyState",
      "outputs": [
        {
          "internalType": "uint224",
          "name": "index",
          "type": "uint224"
        },
        {
          "internalType": "uint32",
          "name": "lastUpdatedTimestamp",
          "type": "uint32"
        }
      ],
      "stateMutability": "view",
      "type": "function"
    },
    {
      "inputs": [
        {
          "internalType": "contract ERC20",
          "name": "",
          "type": "address"
        },
        {
          "internalType": "address",
          "name": "",
          "type": "address"
        }
      ],
      "name": "userIndex",
      "outputs": [
        {
          "internalType": "uint224",
          "name": "",
          "type": "uint224"
        }
      ],
      "stateMutability": "view",
      "type": "function"
    }
  ],
  "bytecode": {
    "object": "0x60a06040523480156200001157600080fd5b506040516200167238038062001672833981016040819052620000349162000129565b600080546001600160a01b03199081166001600160a01b0385811691821784556001805490931690851617909155604051879287928792879287928492849233917f8292fce18fa69edf4db7b94ea2e58241df0ae57f97e0a6c9b29067028bf92d769190a36040516001600160a01b0382169033907fa3396fd7f6e0a21b50e5089d2da70d5ac0a3bbbd1f617a93f134b7638998019890600090a35050506001600160a01b0393841660805250600380549284166001600160a01b03199384161790556004805491909316911617905550620001a99350505050565b6001600160a01b03811681146200012657600080fd5b50565b600080600080600060a086880312156200014257600080fd5b85516200014f8162000110565b6020870151909550620001628162000110565b6040870151909450620001758162000110565b6060870151909350620001888162000110565b60808701519092506200019b8162000110565b809150509295509295909350565b608051611498620001da600039600081816104f5015281816107b90152818161083d0152610a7f01526114986000f3fe608060405234801561001057600080fd5b50600436106101a95760003560e01c8063abc6d72d116100f9578063cc7ebdc411610097578063e6e162e811610071578063e6e162e8146104b8578063ef5cfb8c146104ca578063f046ee5c146104dd578063f7c618c1146104f057600080fd5b8063cc7ebdc414610420578063dde684a514610449578063e1e3dfeb146104a557600080fd5b8063bf7e214f116100d3578063bf7e214f146103c1578063c2ee3a08146103d4578063c3b28864146103e3578063cc6bc101146103f857600080fd5b8063abc6d72d14610214578063b006340d1461039b578063b9be44ac146103ae57600080fd5b8063715cad16116101665780638da5cb5b116101405780638da5cb5b146102b95780638fb00913146102e4578063a7a9a62c146102f7578063ab5497d71461038857600080fd5b8063715cad16146102655780637a9e5e4b146102785780637fb5ad381461028b57600080fd5b8063116139d3146101ae57806313af4035146101ff57806317e6a45f146102145780631c9161e01461022c5780634e081c951461023f5780635a826df314610252575b600080fd5b6101e26101bc366004611204565b60076020908152600092835260408084209091529082529020546001600160e01b031681565b6040516001600160e01b0390911681526020015b60405180910390f35b61021261020d36600461123d565b610517565b005b61021c600181565b60405190151581526020016101f6565b61021261023a366004611204565b61059d565b61021261024d366004611261565b6105ac565b61021261026036600461123d565b6105be565b61021261027336600461123d565b61063a565b61021261028636600461123d565b610678565b6102ab61029936600461123d565b60056020526000908152604090205481565b6040519081526020016101f6565b6000546102cc906001600160a01b031681565b6040516001600160a01b0390911681526020016101f6565b6102126102f236600461123d565b610762565b61035e61030536600461123d565b6040805180820190915260008082526020820152506001600160a01b03166000908152600660209081526040918290208251808401909352546001600160e01b0381168352600160e01b900463ffffffff169082015290565b6040805182516001600160e01b0316815260209283015163ffffffff1692810192909252016101f6565b6004546102cc906001600160a01b031681565b6102126103a936600461123d565b61066c565b6102ab6103bc366004611204565b6108b2565b6001546102cc906001600160a01b031681565b6101e2670de0b6b3a764000081565b6103eb610928565b6040516101f691906112ac565b61040b610406366004611261565b61098a565b604080519283526020830191909152016101f6565b6102ab61042e36600461123d565b6001600160a01b031660009081526005602052604090205490565b61048161045736600461123d565b6006602052600090815260409020546001600160e01b03811690600160e01b900463ffffffff1682565b604080516001600160e01b03909316835263ffffffff9091166020830152016101f6565b6102cc6104b33660046112f9565b610a13565b6102126104c6366004611204565b5050565b6102126104d836600461123d565b610a3d565b6003546102cc906001600160a01b031681565b6102cc7f000000000000000000000000000000000000000000000000000000000000000081565b61052d336000356001600160e01b031916610af0565b6105525760405162461bcd60e51b815260040161054990611312565b60405180910390fd5b600080546001600160a01b0319166001600160a01b0383169081178255604051909133917f8292fce18fa69edf4db7b94ea2e58241df0ae57f97e0a6c9b29067028bf92d769190a350565b6105a782826108b2565b505050565b6105b783838361098a565b5050505050565b6105d4336000356001600160e01b031916610af0565b6105f05760405162461bcd60e51b815260040161054990611312565b600480546001600160a01b0319166001600160a01b0383169081179091556040517ff2fb4350e8466c152b500f8e58c0c23f01bbc332dc82f5375267e70b5f50f19990600090a250565b610650336000356001600160e01b031916610af0565b61066c5760405162461bcd60e51b815260040161054990611312565b61067581610b9a565b50565b6000546001600160a01b031633148061070d575060015460405163b700961360e01b81526001600160a01b039091169063b7009613906106cc90339030906001600160e01b03196000351690600401611338565b602060405180830381865afa1580156106e9573d6000803e3d6000fd5b505050506040513d601f19601f8201168201806040525081019061070d9190611365565b61071657600080fd5b600180546001600160a01b0319166001600160a01b03831690811790915560405133907fa3396fd7f6e0a21b50e5089d2da70d5ac0a3bbbd1f617a93f134b7638998019890600090a350565b610778336000356001600160e01b031916610af0565b6107945760405162461bcd60e51b815260040161054990611312565b6003546040516370a0823160e01b81526001600160a01b0391821660048201526000917f000000000000000000000000000000000000000000000000000000000000000016906370a0823190602401602060405180830381865afa158015610800573d6000803e3d6000fd5b505050506040513d601f19601f820116820180604052508101906108249190611387565b9050801561086757600354610867906001600160a01b037f0000000000000000000000000000000000000000000000000000000000000000811691168484610cd0565b600380546001600160a01b0319166001600160a01b0384169081179091556040517ff1ba364f52e65f08563196b608289b1da2a923cdd0aa7e20dfe664c4ad294c9590600090a25050565b6001600160a01b03821660009081526006602090815260408083208151808301909252546001600160e01b038116808352600160e01b90910463ffffffff169282019290925290610907576000915050610922565b6109118482610d53565b905061091e848483610f95565b9150505b92915050565b6060600280548060200260200160405190810160405280929190818152602001828054801561098057602002820191906000526020600020905b81546001600160a01b03168152600190910190602001808311610962575b5050505050905090565b6001600160a01b03831660009081526006602090815260408083208151808301909252546001600160e01b038116808352600160e01b90910463ffffffff169282019290925282916109e3576000809250925050610a0b565b6109ed8682610d53565b90506109fa868683610f95565b610a05878684610f95565b92509250505b935093915050565b60028181548110610a2357600080fd5b6000918252602090912001546001600160a01b0316905081565b6001600160a01b03811660009081526005602052604090205480156104c6576001600160a01b03808316600090815260056020526040812055600354610aa9917f0000000000000000000000000000000000000000000000000000000000000000811691168484610cd0565b816001600160a01b03167f1f89f96333d3133000ee447473151fa9606543368f02271c9d95ae14f13bcc6782604051610ae491815260200190565b60405180910390a25050565b6001546000906001600160a01b03168015801590610b7a575060405163b700961360e01b81526001600160a01b0382169063b700961390610b3990879030908890600401611338565b602060405180830381865afa158015610b56573d6000803e3d6000fd5b505050506040513d601f19601f82011682018060405250810190610b7a9190611365565b8061091e57506000546001600160a01b0385811691161491505092915050565b6001600160a01b0381166000908152600660205260409020546001600160e01b031615610bf45760405162461bcd60e51b8152602060048201526008602482015267737472617465677960c01b6044820152606401610549565b6040518060400160405280670de0b6b3a76400006001600160e01b03168152602001610c1f426111c6565b63ffffffff9081169091526001600160a01b038316600081815260066020908152604080832086519690920151909416600160e01b026001600160e01b0390951694909417909355600280546001810182559084527f405787fa12a823e0f2b7631cc41b3ba8828b3321ca811111fa75cd3aa3bb5ace0180546001600160a01b03191682179055905190917f69887873d46778fb35539b0a9992d9176ca03c1820b0afb538bc3a6f63326b1091a250565b60006040516323b872dd60e01b81528460048201528360248201528260448201526020600060648360008a5af13d15601f3d11600160005114161716915050806105b75760405162461bcd60e51b81526020600482015260146024820152731514905394d1915497d19493d357d1905253115160621b6044820152606401610549565b6040805180820190915260008082526020820152600354602083015160405163b334db7b60e01b81526001600160a01b03868116600483015263ffffffff9092166024820152600092919091169063b334db7b906044016020604051808303816000875af1158015610dc9573d6000803e3d6000fd5b505050506040513d601f19601f82011682018060405250810190610ded9190611387565b83925090508015610f8e576004546000906001600160a01b0316610e7257846001600160a01b03166318160ddd6040518163ffffffff1660e01b8152600401602060405180830381865afa158015610e49573d6000803e3d6000fd5b505050506040513d601f19601f82011682018060405250810190610e6d9190611387565b610ee2565b60048054604051631e1932fb60e01b81526001600160a01b0388811693820193909352911690631e1932fb90602401602060405180830381865afa158015610ebe573d6000803e3d6000fd5b505050506040513d601f19601f82011682018060405250810190610ee29190611387565b905060008115610f1457610f1182610f02670de0b6b3a7640000866113b6565b610f0c91906113d5565b6111dd565b90505b6040518060400160405280828760000151610f2f91906113f7565b6001600160e01b03168152602001610f46426111c6565b63ffffffff9081169091526001600160a01b0388166000908152600660209081526040909120835191840151909216600160e01b026001600160e01b03909116179055935050505b5092915050565b80516001600160a01b038481166000908152600760209081526040808320938716835292905290812080546001600160e01b038085166001600160e01b03198316179092559192911680610fee5750670de0b6b3a76400005b6000610ffa8284611422565b6004549091506000906001600160a01b031661107f576040516370a0823160e01b81526001600160a01b0388811660048301528916906370a0823190602401602060405180830381865afa158015611056573d6000803e3d6000fd5b505050506040513d601f19601f8201168201806040525081019061107a9190611387565b6110f7565b60048054604051631a50ef2f60e01b81526001600160a01b038b8116938201939093528983166024820152911690631a50ef2f90604401602060405180830381865afa1580156110d3573d6000803e3d6000fd5b505050506040513d601f19601f820116820180604052508101906110f79190611387565b90506000670de0b6b3a76400006111176001600160e01b038516846113b6565b61112191906113d5565b6001600160a01b0389166000908152600560205260408120549192509061114990839061144a565b6001600160a01b03808b16600081815260056020526040908190208490555192935091908c16907f35a61f3c719e8f59f636c336e563ba74f667fadafcc80d709231ca8bb59eecce906111b19086908b909182526001600160e01b0316602082015260400190565b60405180910390a39998505050505050505050565b600064010000000082106111d957600080fd5b5090565b6000600160e01b82106111d957600080fd5b6001600160a01b038116811461067557600080fd5b6000806040838503121561121757600080fd5b8235611222816111ef565b91506020830135611232816111ef565b809150509250929050565b60006020828403121561124f57600080fd5b813561125a816111ef565b9392505050565b60008060006060848603121561127657600080fd5b8335611281816111ef565b92506020840135611291816111ef565b915060408401356112a1816111ef565b809150509250925092565b6020808252825182820181905260009190848201906040850190845b818110156112ed5783516001600160a01b0316835292840192918401916001016112c8565b50909695505050505050565b60006020828403121561130b57600080fd5b5035919050565b6020808252600c908201526b15539055551213d49256915160a21b604082015260600190565b6001600160a01b0393841681529190921660208201526001600160e01b0319909116604082015260600190565b60006020828403121561137757600080fd5b8151801515811461125a57600080fd5b60006020828403121561139957600080fd5b5051919050565b634e487b7160e01b600052601160045260246000fd5b60008160001904831182151516156113d0576113d06113a0565b500290565b6000826113f257634e487b7160e01b600052601260045260246000fd5b500490565b60006001600160e01b03828116848216808303821115611419576114196113a0565b01949350505050565b60006001600160e01b0383811690831681811015611442576114426113a0565b039392505050565b6000821982111561145d5761145d6113a0565b50019056fea26469706673582212206079f319f8c4054e62edfefa116facbda44c1a9ed0dc772afd49921fd0b57c4f64736f6c634300080a0033",
    "linkReferences": {}
  }
}