{
  "_format": "hh-sol-artifact-1",
  "contractName": "UniswapTwapPriceOracleRoot",
  "sourceName": "contracts/oracles/UniswapTwapPriceOracleRoot.sol",
  "abi": [
    {
      "inputs": [],
      "name": "MIN_TWAP_TIME",
      "outputs": [
        {
          "internalType": "uint256",
          "name": "",
          "type": "uint256"
        }
      ],
      "stateMutability": "view",
      "type": "function"
    },
    {
      "inputs": [],
      "name": "OBSERVATION_BUFFER",
      "outputs": [
        {
          "internalType": "uint8",
          "name": "",
          "type": "uint8"
        }
      ],
      "stateMutability": "view",
      "type": "function"
    },
    {
      "inputs": [],
      "name": "WETH",
      "outputs": [
        {
          "internalType": "address",
          "name": "",
          "type": "address"
        }
      ],
      "stateMutability": "view",
      "type": "function"
    },
    {
      "inputs": [
        {
          "internalType": "address",
          "name": "",
          "type": "address"
        }
      ],
      "name": "observationCount",
      "outputs": [
        {
          "internalType": "uint256",
          "name": "",
          "type": "uint256"
        }
      ],
      "stateMutability": "view",
      "type": "function"
    },
    {
      "inputs": [
        {
          "internalType": "address",
          "name": "",
          "type": "address"
        },
        {
          "internalType": "uint256",
          "name": "",
          "type": "uint256"
        }
      ],
      "name": "observations",
      "outputs": [
        {
          "internalType": "uint32",
          "name": "timestamp",
          "type": "uint32"
        },
        {
          "internalType": "uint256",
          "name": "priceCumulative",
          "type": "uint256"
        }
      ],
      "stateMutability": "view",
      "type": "function"
    },
    {
      "inputs": [
        {
          "internalType": "address[]",
          "name": "tokenA",
          "type": "address[]"
        },
        {
          "internalType": "address[]",
          "name": "tokenB",
          "type": "address[]"
        },
        {
          "internalType": "address",
          "name": "factory",
          "type": "address"
        }
      ],
      "name": "pairsFor",
      "outputs": [
        {
          "internalType": "address[]",
          "name": "",
          "type": "address[]"
        }
      ],
      "stateMutability": "view",
      "type": "function"
    },
    {
      "inputs": [
        {
          "internalType": "address",
          "name": "underlying",
          "type": "address"
        },
        {
          "internalType": "address",
          "name": "factory",
          "type": "address"
        }
      ],
      "name": "price",
      "outputs": [
        {
          "internalType": "uint256",
          "name": "",
          "type": "uint256"
        }
      ],
      "stateMutability": "view",
      "type": "function"
    },
    {
      "inputs": [
        {
          "internalType": "address",
          "name": "pair",
          "type": "address"
        }
      ],
      "name": "update",
      "outputs": [],
      "stateMutability": "nonpayable",
      "type": "function"
    },
    {
      "inputs": [
        {
          "internalType": "address[]",
          "name": "pairs",
          "type": "address[]"
        }
      ],
      "name": "update",
      "outputs": [],
      "stateMutability": "nonpayable",
      "type": "function"
    },
    {
      "inputs": [
        {
          "internalType": "address[]",
          "name": "pairs",
          "type": "address[]"
        },
        {
          "internalType": "uint256[]",
          "name": "minPeriods",
          "type": "uint256[]"
        },
        {
          "internalType": "uint256[]",
          "name": "deviationThresholds",
          "type": "uint256[]"
        }
      ],
      "name": "workable",
      "outputs": [
        {
          "internalType": "bool[]",
          "name": "",
          "type": "bool[]"
        }
      ],
      "stateMutability": "view",
      "type": "function"
    }
  ],
  "bytecode": "0x608060405234801561001057600080fd5b5061255b806100206000396000f3fe608060405234801561001057600080fd5b506004361061009e5760003560e01c8063421cd20c11610066578063421cd20c146102685780638eb7938b146103ab5780639ce4d3a914610403578063ad5c46481461057b578063af8a9ba5146105af5761009e565b806302459966146100a35780631c1b877214610112578063290ad26e146101565780632b00490d14610177578063317f17dc146101ef575b600080fd5b6100ef600480360360408110156100b957600080fd5b81019080803573ffffffffffffffffffffffffffffffffffffffff169060200190929190803590602001909291905050506105cd565b604051808363ffffffff1681526020018281526020019250505060405180910390f35b6101546004803603602081101561012857600080fd5b81019080803573ffffffffffffffffffffffffffffffffffffffff169060200190929190505050610611565b005b61015e61068f565b604051808260ff16815260200191505060405180910390f35b6101d96004803603604081101561018d57600080fd5b81019080803573ffffffffffffffffffffffffffffffffffffffff169060200190929190803573ffffffffffffffffffffffffffffffffffffffff169060200190929190505050610694565b6040518082815260200191505060405180910390f35b6102666004803603602081101561020557600080fd5b810190808035906020019064010000000081111561022257600080fd5b82018360208201111561023457600080fd5b8035906020019184602083028401116401000000008311171561025657600080fd5b90919293919293905050506108a7565b005b6103546004803603606081101561027e57600080fd5b810190808035906020019064010000000081111561029b57600080fd5b8201836020820111156102ad57600080fd5b803590602001918460208302840111640100000000831117156102cf57600080fd5b9091929391929390803590602001906401000000008111156102f057600080fd5b82018360208201111561030257600080fd5b8035906020019184602083028401116401000000008311171561032457600080fd5b9091929391929390803573ffffffffffffffffffffffffffffffffffffffff169060200190929190505050610977565b6040518080602001828103825283818151815260200191508051906020019060200280838360005b8381101561039757808201518184015260208101905061037c565b505050509050019250505060405180910390f35b6103ed600480360360208110156103c157600080fd5b81019080803573ffffffffffffffffffffffffffffffffffffffff169060200190929190505050610bb3565b6040518082815260200191505060405180910390f35b6105246004803603606081101561041957600080fd5b810190808035906020019064010000000081111561043657600080fd5b82018360208201111561044857600080fd5b8035906020019184602083028401116401000000008311171561046a57600080fd5b90919293919293908035906020019064010000000081111561048b57600080fd5b82018360208201111561049d57600080fd5b803590602001918460208302840111640100000000831117156104bf57600080fd5b9091929391929390803590602001906401000000008111156104e057600080fd5b8201836020820111156104f257600080fd5b8035906020019184602083028401116401000000008311171561051457600080fd5b9091929391929390505050610bcb565b6040518080602001828103825283818151815260200191508051906020019060200280838360005b8381101561056757808201518184015260208101905061054c565b505050509050019250505060405180910390f35b610583610d38565b604051808273ffffffffffffffffffffffffffffffffffffffff16815260200191505060405180910390f35b6105b7610d50565b6040518082815260200191505060405180910390f35b600160205281600052604060002081600481106105e657fe5b60020201600091509150508060000160009054906101000a900463ffffffff16908060010154905082565b61061a81610d56565b61068c576040517f08c379a00000000000000000000000000000000000000000000000000000000081526004018080602001828103825260168152602001807f4661696c656420746f2075706461746520706169722e0000000000000000000081525060200191505060405180910390fd5b50565b600481565b6000808273ffffffffffffffffffffffffffffffffffffffff1663e6a439058573c02aaa39b223fe8d0a0e5c4f27ead9083c756cc26040518363ffffffff1660e01b8152600401808373ffffffffffffffffffffffffffffffffffffffff1681526020018273ffffffffffffffffffffffffffffffffffffffff1681526020019250505060206040518083038186803b15801561073057600080fd5b505afa158015610744573d6000803e3d6000fd5b505050506040513d602081101561075a57600080fd5b8101908080519060200190929190505050905060008473ffffffffffffffffffffffffffffffffffffffff1663313ce5676040518163ffffffff1660e01b815260040160206040518083038186803b1580156107b557600080fd5b505afa1580156107c9573d6000803e3d6000fd5b505050506040513d60208110156107df57600080fd5b810190808051906020019092919050505060ff16600a0a905061089d67010000000000000061088f8361088167010000000000000073c02aaa39b223fe8d0a0e5c4f27ead9083c756cc273ffffffffffffffffffffffffffffffffffffffff168b73ffffffffffffffffffffffffffffffffffffffff1610610869576108648861123f565b610873565b61087288611581565b5b6118c390919063ffffffff16565b61194c90919063ffffffff16565b6118c390919063ffffffff16565b9250505092915050565b6000805b838390508110156108fe576108e78484838181106108c557fe5b9050602002013573ffffffffffffffffffffffffffffffffffffffff16610d56565b156108f157600191505b80806001019150506108ab565b5080610972576040517f08c379a000000000000000000000000000000000000000000000000000000000815260040180806020018281038252601e8152602001807f4e6f2070616972732063616e20626520757064617465642028796574292e000081525060200191505060405180910390fd5b505050565b606060008686905011801561099157508383905086869050145b6109e6576040517f08c379a000000000000000000000000000000000000000000000000000000000815260040180806020018281038252603581526020018061247d6035913960400191505060405180910390fd5b60608686905067ffffffffffffffff81118015610a0257600080fd5b50604051908082528060200260200182016040528015610a315781602001602082028036833780820191505090505b50905060005b87879050811015610ba5578373ffffffffffffffffffffffffffffffffffffffff1663e6a43905898984818110610a6a57fe5b9050602002013573ffffffffffffffffffffffffffffffffffffffff16888885818110610a9357fe5b9050602002013573ffffffffffffffffffffffffffffffffffffffff166040518363ffffffff1660e01b8152600401808373ffffffffffffffffffffffffffffffffffffffff1681526020018273ffffffffffffffffffffffffffffffffffffffff1681526020019250505060206040518083038186803b158015610b1757600080fd5b505afa158015610b2b573d6000803e3d6000fd5b505050506040513d6020811015610b4157600080fd5b8101908080519060200190929190505050828281518110610b5e57fe5b602002602001019073ffffffffffffffffffffffffffffffffffffffff16908173ffffffffffffffffffffffffffffffffffffffff16815250508080600101915050610a37565b508091505095945050505050565b60006020528060005260406000206000915090505481565b6060600087879050118015610be557508484905087879050145b8015610bf657508282905087879050145b610c4b576040517f08c379a000000000000000000000000000000000000000000000000000000000815260040180806020018281038252602f8152602001806124d3602f913960400191505060405180910390fd5b60608787905067ffffffffffffffff81118015610c6757600080fd5b50604051908082528060200260200182016040528015610c965781602001602082028036833780820191505090505b50905060005b88889050811015610d2957610cfe898983818110610cb657fe5b9050602002013573ffffffffffffffffffffffffffffffffffffffff16888884818110610cdf57fe5b90506020020135878785818110610cf257fe5b905060200201356119d2565b828281518110610d0a57fe5b6020026020010190151590811515815250508080600101915050610c9c565b50809150509695505050505050565b73c02aaa39b223fe8d0a0e5c4f27ead9083c756cc281565b61038481565b6000610d6182611c70565b610d6e576000905061123a565b600073c02aaa39b223fe8d0a0e5c4f27ead9083c756cc273ffffffffffffffffffffffffffffffffffffffff168373ffffffffffffffffffffffffffffffffffffffff16630dfe16816040518163ffffffff1660e01b815260040160206040518083038186803b158015610de157600080fd5b505afa158015610df5573d6000803e3d6000fd5b505050506040513d6020811015610e0b57600080fd5b810190808051906020019092919050505073ffffffffffffffffffffffffffffffffffffffff161415610ec0578273ffffffffffffffffffffffffffffffffffffffff16635a3d54936040518163ffffffff1660e01b815260040160206040518083038186803b158015610e7e57600080fd5b505afa158015610e92573d6000803e3d6000fd5b505050506040513d6020811015610ea857600080fd5b81019080805190602001909291905050509050611062565b73c02aaa39b223fe8d0a0e5c4f27ead9083c756cc273ffffffffffffffffffffffffffffffffffffffff168373ffffffffffffffffffffffffffffffffffffffff1663d21220a76040518163ffffffff1660e01b815260040160206040518083038186803b158015610f3157600080fd5b505afa158015610f45573d6000803e3d6000fd5b505050506040513d6020811015610f5b57600080fd5b810190808051906020019092919050505073ffffffffffffffffffffffffffffffffffffffff161415611010578273ffffffffffffffffffffffffffffffffffffffff16635909c0d56040518163ffffffff1660e01b815260040160206040518083038186803b158015610fce57600080fd5b505afa158015610fe2573d6000803e3d6000fd5b505050506040513d6020811015610ff857600080fd5b81019080805190602001909291905050509050611061565b6040517f08c379a00000000000000000000000000000000000000000000000000000000081526004018080602001828103825260248152602001806125026024913960400191505060405180910390fd5b5b60008373ffffffffffffffffffffffffffffffffffffffff16630902f1ac6040518163ffffffff1660e01b815260040160606040518083038186803b1580156110aa57600080fd5b505afa1580156110be573d6000803e3d6000fd5b505050506040513d60608110156110d457600080fd5b810190808051906020019092919080519060200190929190805190602001909291905050509250505060405180604001604052808263ffffffff16815260200183815250600160008673ffffffffffffffffffffffffffffffffffffffff1673ffffffffffffffffffffffffffffffffffffffff168152602001908152602001600020600460ff166000808873ffffffffffffffffffffffffffffffffffffffff1673ffffffffffffffffffffffffffffffffffffffff16815260200190815260200160002054816111a257fe5b06600481106111ad57fe5b6002020160008201518160000160006101000a81548163ffffffff021916908363ffffffff160217905550602082015181600101559050506000808573ffffffffffffffffffffffffffffffffffffffff1673ffffffffffffffffffffffffffffffffffffffff168152602001908152602001600020600081548092919060010191905055506001925050505b919050565b6000806000808473ffffffffffffffffffffffffffffffffffffffff1673ffffffffffffffffffffffffffffffffffffffff168152602001908152602001600020549050600081116112f9576040517f08c379a000000000000000000000000000000000000000000000000000000000815260040180806020018281038252601d8152602001807f4e6f206c656e6774682d312054574150206f62736572766174696f6e2e00000081525060200191505060405180910390fd5b61130161245c565b600160008573ffffffffffffffffffffffffffffffffffffffff1673ffffffffffffffffffffffffffffffffffffffff168152602001908152602001600020600460ff16600184038161135057fe5b066004811061135b57fe5b600202016040518060400160405290816000820160009054906101000a900463ffffffff1663ffffffff1663ffffffff16815260200160018201548152505090506103844203816000015163ffffffff1611156114c45760018211611428576040517f08c379a000000000000000000000000000000000000000000000000000000000815260040180806020018281038252601d8152602001807f4e6f206c656e6774682d322054574150206f62736572766174696f6e2e00000081525060200191505060405180910390fd5b600160008573ffffffffffffffffffffffffffffffffffffffff1673ffffffffffffffffffffffffffffffffffffffff168152602001908152602001600020600460ff16600284038161147757fe5b066004811061148257fe5b600202016040518060400160405290816000820160009054906101000a900463ffffffff1663ffffffff1663ffffffff16815260200160018201548152505090505b6000816000015163ffffffff164203905061038481101561154d576040517f08c379a000000000000000000000000000000000000000000000000000000000815260040180806020018281038252600e8152602001807f42616420545741502074696d652e00000000000000000000000000000000000081525060200191505060405180910390fd5b600061155886611d7e565b9050826000015163ffffffff164203836020015182038161157557fe5b04945050505050919050565b6000806000808473ffffffffffffffffffffffffffffffffffffffff1673ffffffffffffffffffffffffffffffffffffffff1681526020019081526020016000205490506000811161163b576040517f08c379a000000000000000000000000000000000000000000000000000000000815260040180806020018281038252601d8152602001807f4e6f206c656e6774682d312054574150206f62736572766174696f6e2e00000081525060200191505060405180910390fd5b61164361245c565b600160008573ffffffffffffffffffffffffffffffffffffffff1673ffffffffffffffffffffffffffffffffffffffff168152602001908152602001600020600460ff16600184038161169257fe5b066004811061169d57fe5b600202016040518060400160405290816000820160009054906101000a900463ffffffff1663ffffffff1663ffffffff16815260200160018201548152505090506103844203816000015163ffffffff161115611806576001821161176a576040517f08c379a000000000000000000000000000000000000000000000000000000000815260040180806020018281038252601d8152602001807f4e6f206c656e6774682d322054574150206f62736572766174696f6e2e00000081525060200191505060405180910390fd5b600160008573ffffffffffffffffffffffffffffffffffffffff1673ffffffffffffffffffffffffffffffffffffffff168152602001908152602001600020600460ff1660028403816117b957fe5b06600481106117c457fe5b600202016040518060400160405290816000820160009054906101000a900463ffffffff1663ffffffff1663ffffffff16815260200160018201548152505090505b6000816000015163ffffffff164203905061038481101561188f576040517f08c379a000000000000000000000000000000000000000000000000000000000815260040180806020018281038252600e8152602001807f42616420545741502074696d652e00000000000000000000000000000000000081525060200191505060405180910390fd5b600061189a86611f06565b9050826000015163ffffffff16420383602001518203816118b757fe5b04945050505050919050565b600080821161193a576040517f08c379a000000000000000000000000000000000000000000000000000000000815260040180806020018281038252601a8152602001807f536166654d6174683a206469766973696f6e206279207a65726f00000000000081525060200191505060405180910390fd5b81838161194357fe5b04905092915050565b60008083141561195f57600090506119cc565b600082840290508284828161197057fe5b04146119c7576040517f08c379a00000000000000000000000000000000000000000000000000000000081526004018080602001828103825260218152602001806124b26021913960400191505060405180910390fd5b809150505b92915050565b6000806000808673ffffffffffffffffffffffffffffffffffffffff1673ffffffffffffffffffffffffffffffffffffffff1681526020019081526020016000205411611a225760019050611c69565b60008473ffffffffffffffffffffffffffffffffffffffff16630902f1ac6040518163ffffffff1660e01b815260040160606040518083038186803b158015611a6a57600080fd5b505afa158015611a7e573d6000803e3d6000fd5b505050506040513d6060811015611a9457600080fd5b8101908080519060200190929190805190602001909291908051906020019092919050505092505050610384841015611acf57610384611ad1565b835b600160008773ffffffffffffffffffffffffffffffffffffffff1673ffffffffffffffffffffffffffffffffffffffff168152602001908152602001600020600460ff1660016000808a73ffffffffffffffffffffffffffffffffffffffff1673ffffffffffffffffffffffffffffffffffffffff168152602001908152602001600020540381611b5e57fe5b0660048110611b6957fe5b6002020160000160009054906101000a900463ffffffff1663ffffffff164203118015611c515750600160008673ffffffffffffffffffffffffffffffffffffffff1673ffffffffffffffffffffffffffffffffffffffff168152602001908152602001600020600460ff1660016000808973ffffffffffffffffffffffffffffffffffffffff1673ffffffffffffffffffffffffffffffffffffffff168152602001908152602001600020540381611c1e57fe5b0660048110611c2957fe5b6002020160000160009054906101000a900463ffffffff1663ffffffff168163ffffffff1614155b8015611c65575082611c6286612088565b10155b9150505b9392505050565b6000806000808473ffffffffffffffffffffffffffffffffffffffff1673ffffffffffffffffffffffffffffffffffffffff16815260200190815260200160002054111580611d775750610384600160008473ffffffffffffffffffffffffffffffffffffffff1673ffffffffffffffffffffffffffffffffffffffff168152602001908152602001600020600460ff1660016000808773ffffffffffffffffffffffffffffffffffffffff1673ffffffffffffffffffffffffffffffffffffffff168152602001908152602001600020540381611d4a57fe5b0660048110611d5557fe5b6002020160000160009054906101000a900463ffffffff1663ffffffff164203115b9050919050565b6000804290508273ffffffffffffffffffffffffffffffffffffffff16635a3d54936040518163ffffffff1660e01b815260040160206040518083038186803b158015611dca57600080fd5b505afa158015611dde573d6000803e3d6000fd5b505050506040513d6020811015611df457600080fd5b8101908080519060200190929190505050915060008060008573ffffffffffffffffffffffffffffffffffffffff16630902f1ac6040518163ffffffff1660e01b815260040160606040518083038186803b158015611e5257600080fd5b505afa158015611e66573d6000803e3d6000fd5b505050506040513d6060811015611e7c57600080fd5b8101908080519060200190929190805190602001909291908051906020019092919050505092506dffffffffffffffffffffffffffff1692506dffffffffffffffffffffffffffff1692508363ffffffff168163ffffffff1614611efd57600081850390508063ffffffff1683607086901b81611ef557fe5b040286019550505b50505050919050565b6000804290508273ffffffffffffffffffffffffffffffffffffffff16635909c0d56040518163ffffffff1660e01b815260040160206040518083038186803b158015611f5257600080fd5b505afa158015611f66573d6000803e3d6000fd5b505050506040513d6020811015611f7c57600080fd5b8101908080519060200190929190505050915060008060008573ffffffffffffffffffffffffffffffffffffffff16630902f1ac6040518163ffffffff1660e01b815260040160606040518083038186803b158015611fda57600080fd5b505afa158015611fee573d6000803e3d6000fd5b505050506040513d606081101561200457600080fd5b8101908080519060200190929190805190602001909291908051906020019092919050505092506dffffffffffffffffffffffffffff1692506dffffffffffffffffffffffffffff169250428163ffffffff161461207f57600081850390508063ffffffff1684607085901b8161207757fe5b040286019550505b50505050919050565b6000808273ffffffffffffffffffffffffffffffffffffffff16630dfe16816040518163ffffffff1660e01b815260040160206040518083038186803b1580156120d157600080fd5b505afa1580156120e5573d6000803e3d6000fd5b505050506040513d60208110156120fb57600080fd5b81019080805190602001909291905050509050600073c02aaa39b223fe8d0a0e5c4f27ead9083c756cc273ffffffffffffffffffffffffffffffffffffffff168273ffffffffffffffffffffffffffffffffffffffff16141590506000816121e3578473ffffffffffffffffffffffffffffffffffffffff1663d21220a76040518163ffffffff1660e01b815260040160206040518083038186803b1580156121a357600080fd5b505afa1580156121b7573d6000803e3d6000fd5b505050506040513d60208110156121cd57600080fd5b81019080805190602001909291905050506121e5565b825b905060008173ffffffffffffffffffffffffffffffffffffffff1663313ce5676040518163ffffffff1660e01b815260040160206040518083038186803b15801561222f57600080fd5b505afa158015612243573d6000803e3d6000fd5b505050506040513d602081101561225957600080fd5b810190808051906020019092919050505060ff16600a0a905060006122d76701000000000000006122c9846122bb670100000000000000896122a35761229e8d61123f565b6122ad565b6122ac8d611581565b5b6118c390919063ffffffff16565b61194c90919063ffffffff16565b6118c390919063ffffffff16565b90506000808873ffffffffffffffffffffffffffffffffffffffff16630902f1ac6040518163ffffffff1660e01b815260040160606040518083038186803b15801561232257600080fd5b505afa158015612336573d6000803e3d6000fd5b505050506040513d606081101561234c57600080fd5b81019080805190602001909291908051906020019092919080519060200190929190505050506dffffffffffffffffffffffffffff1691506dffffffffffffffffffffffffffff1691506000866123c7576123c2826123b4878661194c90919063ffffffff16565b6118c390919063ffffffff16565b6123ed565b6123ec836123de878561194c90919063ffffffff16565b6118c390919063ffffffff16565b5b9050600061241e85612410670de0b6b3a76400008561194c90919063ffffffff16565b6118c390919063ffffffff16565b9050670de0b6b3a76400008110156124405780670de0b6b3a76400000361244c565b670de0b6b3a764000081035b9950505050505050505050919050565b6040518060400160405280600063ffffffff16815260200160008152509056fe546f6b656e206172726179206c656e67746873206d75737420626520657175616c20616e642067726561746572207468616e20302e536166654d6174683a206d756c7469706c69636174696f6e206f766572666c6f774172726179206c656e67746873206d75737420626520657175616c20616e642067726561746572207468616e20302e4f6e6c7920574554482d62617365642070616972732061726520737570706f727465642ea26469706673582212204ab7d0a731da38c6a2a03ad4cc60984b3a5602e4822c076c45c512349e2b5ca064736f6c634300060c0033",
  "linkReferences": {},
  "deployedLinkReferences": {}
}