{
  "_format": "hh-sol-artifact-1",
  "contractName": "WXBtrflyPriceOracle",
  "sourceName": "contracts/oracles/WXBtrflyPriceOracle.sol",
  "abi": [
    {
      "inputs": [],
      "name": "BTRFLY",
      "outputs": [
        {
          "internalType": "address",
          "name": "",
          "type": "address"
        }
      ],
      "stateMutability": "view",
      "type": "function"
    },
    {
      "inputs": [],
      "name": "WXBTRFLY",
      "outputs": [
        {
          "internalType": "contract wxBTRFLY",
          "name": "",
          "type": "address"
        }
      ],
      "stateMutability": "view",
      "type": "function"
    },
    {
      "inputs": [
        {
          "internalType": "contract CToken",
          "name": "cToken",
          "type": "address"
        }
      ],
      "name": "getUnderlyingPrice",
      "outputs": [
        {
          "internalType": "uint256",
          "name": "",
          "type": "uint256"
        }
      ],
      "stateMutability": "view",
      "type": "function"
    },
    {
      "inputs": [
        {
          "internalType": "address",
          "name": "underlying",
          "type": "address"
        }
      ],
      "name": "price",
      "outputs": [
        {
          "internalType": "uint256",
          "name": "",
          "type": "uint256"
        }
      ],
      "stateMutability": "view",
      "type": "function"
    }
  ],
  "bytecode": "0x608060405273186e55c0bebd2f69348d94c4a27556d93c5bd36c6000806101000a81548173ffffffffffffffffffffffffffffffffffffffff021916908373ffffffffffffffffffffffffffffffffffffffff16021790555073c0d4ceb216b3ba9c3701b291766fdcba977cec3a600160006101000a81548173ffffffffffffffffffffffffffffffffffffffff021916908373ffffffffffffffffffffffffffffffffffffffff1602179055503480156100b957600080fd5b506106da806100c96000396000f3fe608060405234801561001057600080fd5b506004361061004c5760003560e01c806322443c101461005157806342bf76ee14610085578063aea91078146100b9578063fc57d4df14610111575b600080fd5b610059610169565b604051808273ffffffffffffffffffffffffffffffffffffffff16815260200191505060405180910390f35b61008d61018f565b604051808273ffffffffffffffffffffffffffffffffffffffff16815260200191505060405180910390f35b6100fb600480360360208110156100cf57600080fd5b81019080803573ffffffffffffffffffffffffffffffffffffffff1690602001909291905050506101b3565b6040518082815260200191505060405180910390f35b6101536004803603602081101561012757600080fd5b81019080803573ffffffffffffffffffffffffffffffffffffffff1690602001909291905050506101c5565b6040518082815260200191505060405180910390f35b600160009054906101000a900473ffffffffffffffffffffffffffffffffffffffff1681565b60008054906101000a900473ffffffffffffffffffffffffffffffffffffffff1681565b60006101be8261030e565b9050919050565b6000808273ffffffffffffffffffffffffffffffffffffffff16636f307dc36040518163ffffffff1660e01b815260040160206040518083038186803b15801561020e57600080fd5b505afa158015610222573d6000803e3d6000fd5b505050506040513d602081101561023857600080fd5b810190808051906020019092919050505090506103068173ffffffffffffffffffffffffffffffffffffffff1663313ce5676040518163ffffffff1660e01b815260040160206040518083038186803b15801561029457600080fd5b505afa1580156102a8573d6000803e3d6000fd5b505050506040513d60208110156102be57600080fd5b810190808051906020019092919050505060ff16600a0a6102f8670de0b6b3a76400006102ea8561030e565b61054890919063ffffffff16565b6105ce90919063ffffffff16565b915050919050565b60008060009054906101000a900473ffffffffffffffffffffffffffffffffffffffff1673ffffffffffffffffffffffffffffffffffffffff168273ffffffffffffffffffffffffffffffffffffffff16146103b5576040517f08c379a000000000000000000000000000000000000000000000000000000000815260040180806020018281038252602c815260200180610658602c913960400191505060405180910390fd5b610541633b9aca006105333373ffffffffffffffffffffffffffffffffffffffff1663aea91078600160009054906101000a900473ffffffffffffffffffffffffffffffffffffffff166040518263ffffffff1660e01b8152600401808273ffffffffffffffffffffffffffffffffffffffff16815260200191505060206040518083038186803b15801561044957600080fd5b505afa15801561045d573d6000803e3d6000fd5b505050506040513d602081101561047357600080fd5b810190808051906020019092919050505060008054906101000a900473ffffffffffffffffffffffffffffffffffffffff1673ffffffffffffffffffffffffffffffffffffffff1663c2b03d826040518163ffffffff1660e01b815260040160206040518083038186803b1580156104ea57600080fd5b505afa1580156104fe573d6000803e3d6000fd5b505050506040513d602081101561051457600080fd5b810190808051906020019092919050505061054890919063ffffffff16565b6105ce90919063ffffffff16565b9050919050565b60008083141561055b57600090506105c8565b600082840290508284828161056c57fe5b04146105c3576040517f08c379a00000000000000000000000000000000000000000000000000000000081526004018080602001828103825260218152602001806106846021913960400191505060405180910390fd5b809150505b92915050565b6000808211610645576040517f08c379a000000000000000000000000000000000000000000000000000000000815260040180806020018281038252601a8152602001807f536166654d6174683a206469766973696f6e206279207a65726f00000000000081525060200191505060405180910390fd5b81838161064e57fe5b0490509291505056fe496e76616c696420746f6b656e2070617373656420746f205758427472666c7950726963654f7261636c652e536166654d6174683a206d756c7469706c69636174696f6e206f766572666c6f77a26469706673582212201e178aed00c208c2c8bf938a83cb42ae58e5febb368ed1ccb4cd7243fc83b92a64736f6c634300060c0033",
  "linkReferences": {},
  "deployedLinkReferences": {}
}