{
  "_format": "hh-sol-artifact-1",
  "contractName": "FuseSafeLiquidatorArbitrum",
  "sourceName": "contracts/chains/arbitrum/FuseSafeLiquidatorArbitrum.sol",
  "abi": [
    {
      "inputs": [],
      "stateMutability": "nonpayable",
      "type": "constructor"
    },
    {
      "inputs": [
        {
          "internalType": "contract IERC20Upgradeable",
          "name": "underlyingCollateral",
          "type": "address"
        },
        {
          "internalType": "uint256",
          "name": "underlyingCollateralSeized",
          "type": "uint256"
        },
        {
          "internalType": "contract IRedemptionStrategy",
          "name": "strategy",
          "type": "address"
        },
        {
          "internalType": "bytes",
          "name": "strategyData",
          "type": "bytes"
        }
      ],
      "name": "redeemCustomCollateral",
      "outputs": [
        {
          "internalType": "contract IERC20Upgradeable",
          "name": "",
          "type": "address"
        },
        {
          "internalType": "uint256",
          "name": "",
          "type": "uint256"
        }
      ],
      "stateMutability": "nonpayable",
      "type": "function"
    },
    {
      "inputs": [
        {
          "internalType": "address",
          "name": "borrower",
          "type": "address"
        },
        {
          "internalType": "contract CEther",
          "name": "cEther",
          "type": "address"
        },
        {
          "internalType": "contract CErc20",
          "name": "cErc20Collateral",
          "type": "address"
        },
        {
          "internalType": "uint256",
          "name": "minOutputAmount",
          "type": "uint256"
        },
        {
          "internalType": "address",
          "name": "exchangeSeizedTo",
          "type": "address"
        },
        {
          "internalType": "contract IUniswapV2Router02",
          "name": "uniswapV2Router",
          "type": "address"
        },
        {
          "internalType": "contract IRedemptionStrategy[]",
          "name": "redemptionStrategies",
          "type": "address[]"
        },
        {
          "internalType": "bytes[]",
          "name": "strategyData",
          "type": "bytes[]"
        }
      ],
      "name": "safeLiquidate",
      "outputs": [
        {
          "internalType": "uint256",
          "name": "",
          "type": "uint256"
        }
      ],
      "stateMutability": "payable",
      "type": "function"
    },
    {
      "inputs": [
        {
          "internalType": "address",
          "name": "borrower",
          "type": "address"
        },
        {
          "internalType": "uint256",
          "name": "repayAmount",
          "type": "uint256"
        },
        {
          "internalType": "contract CErc20",
          "name": "cErc20",
          "type": "address"
        },
        {
          "internalType": "contract CToken",
          "name": "cTokenCollateral",
          "type": "address"
        },
        {
          "internalType": "uint256",
          "name": "minOutputAmount",
          "type": "uint256"
        },
        {
          "internalType": "address",
          "name": "exchangeSeizedTo",
          "type": "address"
        },
        {
          "internalType": "contract IUniswapV2Router02",
          "name": "uniswapV2Router",
          "type": "address"
        },
        {
          "internalType": "contract IRedemptionStrategy[]",
          "name": "redemptionStrategies",
          "type": "address[]"
        },
        {
          "internalType": "bytes[]",
          "name": "strategyData",
          "type": "bytes[]"
        }
      ],
      "name": "safeLiquidate",
      "outputs": [
        {
          "internalType": "uint256",
          "name": "",
          "type": "uint256"
        }
      ],
      "stateMutability": "nonpayable",
      "type": "function"
    },
    {
      "inputs": [
        {
          "internalType": "address",
          "name": "borrower",
          "type": "address"
        },
        {
          "internalType": "uint256",
          "name": "repayAmount",
          "type": "uint256"
        },
        {
          "internalType": "contract CEther",
          "name": "cEther",
          "type": "address"
        },
        {
          "internalType": "contract CErc20",
          "name": "cErc20Collateral",
          "type": "address"
        },
        {
          "internalType": "uint256",
          "name": "minProfitAmount",
          "type": "uint256"
        },
        {
          "internalType": "address",
          "name": "exchangeProfitTo",
          "type": "address"
        },
        {
          "internalType": "contract IUniswapV2Router02",
          "name": "uniswapV2RouterForCollateral",
          "type": "address"
        },
        {
          "internalType": "contract IRedemptionStrategy[]",
          "name": "redemptionStrategies",
          "type": "address[]"
        },
        {
          "internalType": "bytes[]",
          "name": "strategyData",
          "type": "bytes[]"
        },
        {
          "internalType": "uint256",
          "name": "ethToCoinbase",
          "type": "uint256"
        }
      ],
      "name": "safeLiquidateToEthWithFlashLoan",
      "outputs": [
        {
          "internalType": "uint256",
          "name": "",
          "type": "uint256"
        }
      ],
      "stateMutability": "nonpayable",
      "type": "function"
    },
    {
      "inputs": [
        {
          "internalType": "address",
          "name": "borrower",
          "type": "address"
        },
        {
          "internalType": "uint256",
          "name": "repayAmount",
          "type": "uint256"
        },
        {
          "internalType": "contract CErc20",
          "name": "cErc20",
          "type": "address"
        },
        {
          "internalType": "contract CToken",
          "name": "cTokenCollateral",
          "type": "address"
        },
        {
          "internalType": "uint256",
          "name": "minProfitAmount",
          "type": "uint256"
        },
        {
          "internalType": "address",
          "name": "exchangeProfitTo",
          "type": "address"
        },
        {
          "internalType": "contract IUniswapV2Router02",
          "name": "uniswapV2RouterForBorrow",
          "type": "address"
        },
        {
          "internalType": "contract IUniswapV2Router02",
          "name": "uniswapV2RouterForCollateral",
          "type": "address"
        },
        {
          "internalType": "contract IRedemptionStrategy[]",
          "name": "redemptionStrategies",
          "type": "address[]"
        },
        {
          "internalType": "bytes[]",
          "name": "strategyData",
          "type": "bytes[]"
        },
        {
          "internalType": "uint256",
          "name": "ethToCoinbase",
          "type": "uint256"
        }
      ],
      "name": "safeLiquidateToTokensWithFlashLoan",
      "outputs": [
        {
          "internalType": "uint256",
          "name": "",
          "type": "uint256"
        }
      ],
      "stateMutability": "nonpayable",
      "type": "function"
    },
    {
      "inputs": [
        {
          "internalType": "address",
          "name": "sender",
          "type": "address"
        },
        {
          "internalType": "uint256",
          "name": "amount0",
          "type": "uint256"
        },
        {
          "internalType": "uint256",
          "name": "amount1",
          "type": "uint256"
        },
        {
          "internalType": "bytes",
          "name": "data",
          "type": "bytes"
        }
      ],
      "name": "uniswapV2Call",
      "outputs": [],
      "stateMutability": "nonpayable",
      "type": "function"
    },
    {
      "stateMutability": "payable",
      "type": "receive"
    }
  ],
  "bytecode": "0x608060405234801561001057600080fd5b5073c02aaa39b223fe8d0a0e5c4f27ead9083c756cc2600060026101000a81548173ffffffffffffffffffffffffffffffffffffffff021916908373ffffffffffffffffffffffffffffffffffffffff16021790555073c02aaa39b223fe8d0a0e5c4f27ead9083c756cc2600160006101000a81548173ffffffffffffffffffffffffffffffffffffffff021916908373ffffffffffffffffffffffffffffffffffffffff160217905550737a250d5630b4cf539739df2c5dacb4c659f2488d600260006101000a81548173ffffffffffffffffffffffffffffffffffffffff021916908373ffffffffffffffffffffffffffffffffffffffff160217905550737a250d5630b4cf539739df2c5dacb4c659f2488d600360006101000a81548173ffffffffffffffffffffffffffffffffffffffff021916908373ffffffffffffffffffffffffffffffffffffffff16021790555073a0b86991c6218b36c1d19d4a2e9eb0ce3606eb48600460006101000a81548173ffffffffffffffffffffffffffffffffffffffff021916908373ffffffffffffffffffffffffffffffffffffffff160217905550732260fac5e5542a773aa44fbcfedf7c193bc2c599600560006101000a81548173ffffffffffffffffffffffffffffffffffffffff021916908373ffffffffffffffffffffffffffffffffffffffff1602179055507382af49447d8a07e3bd95bd0d56f35241523fbab1600060026101000a81548173ffffffffffffffffffffffffffffffffffffffff021916908373ffffffffffffffffffffffffffffffffffffffff1602179055507382af49447d8a07e3bd95bd0d56f35241523fbab1600160006101000a81548173ffffffffffffffffffffffffffffffffffffffff021916908373ffffffffffffffffffffffffffffffffffffffff160217905550731b02da8cb0d097eb8d57a175b88c7d8b47997506600260006101000a81548173ffffffffffffffffffffffffffffffffffffffff021916908373ffffffffffffffffffffffffffffffffffffffff160217905550731b02da8cb0d097eb8d57a175b88c7d8b47997506600360006101000a81548173ffffffffffffffffffffffffffffffffffffffff021916908373ffffffffffffffffffffffffffffffffffffffff16021790555073fea7a6a0b346362bf88a9e4a88416b77a57d6c2a600460006101000a81548173ffffffffffffffffffffffffffffffffffffffff021916908373ffffffffffffffffffffffffffffffffffffffff160217905550736c2c06790b3e3e3c38e12ee22f8183b37a13ee55600560006101000a81548173ffffffffffffffffffffffffffffffffffffffff021916908373ffffffffffffffffffffffffffffffffffffffff160217905550617b3a806200041d6000396000f3fe6080604052600436106100595760003560e01c80630d1b2763146100c357806310d1e85c146100f3578063700d5dd71461011c578063a68ee11914610159578063b596625814610196578063c8348b54146101d4576100be565b366100be5761007d3373ffffffffffffffffffffffffffffffffffffffff16610211565b6100bc576040517f08c379a00000000000000000000000000000000000000000000000000000000081526004016100b39061713d565b60405180910390fd5b005b600080fd5b6100dd60048036038101906100d89190615877565b610224565b6040516100ea91906174dd565b60405180910390f35b3480156100ff57600080fd5b5061011a60048036038101906101159190615c7a565b6106d1565b005b34801561012857600080fd5b50610143600480360381019061013e9190615a4f565b61098b565b60405161015091906174dd565b60405180910390f35b34801561016557600080fd5b50610180600480360381019061017b9190615959565b610cdc565b60405161018d91906174dd565b60405180910390f35b3480156101a257600080fd5b506101bd60048036038101906101b89190615da0565b6112ba565b6040516101cb929190616fc8565b60405180910390f35b3480156101e057600080fd5b506101fb60048036038101906101f69190615b6f565b611366565b60405161020891906174dd565b60405180910390f35b600080823b905060008111915050919050565b6000803411610268576040517f08c379a000000000000000000000000000000000000000000000000000000000815260040161025f9061737d565b60405180910390fd5b8773ffffffffffffffffffffffffffffffffffffffff1663aae40a2a348b8a6040518463ffffffff1660e01b81526004016102a4929190616f3f565b6000604051808303818588803b1580156102bd57600080fd5b505af11580156102d1573d6000803e3d6000fd5b50505050508673ffffffffffffffffffffffffffffffffffffffff168573ffffffffffffffffffffffffffffffffffffffff16146106b95760008773ffffffffffffffffffffffffffffffffffffffff166370a08231306040518263ffffffff1660e01b81526004016103449190616e72565b60206040518083038186803b15801561035c57600080fd5b505afa158015610370573d6000803e3d6000fd5b505050506040513d601f19601f820116820180604052508101906103949190615e6a565b905060008111156106b75760008873ffffffffffffffffffffffffffffffffffffffff1663db006a75836040518263ffffffff1660e01b81526004016103da91906174dd565b602060405180830381600087803b1580156103f457600080fd5b505af1158015610408573d6000803e3d6000fd5b505050506040513d601f19601f8201168201806040525081019061042c9190615e6a565b905060008114610471576040517f08c379a0000000000000000000000000000000000000000000000000000000008152600401610468906173bd565b60405180910390fd5b60008973ffffffffffffffffffffffffffffffffffffffff16636f307dc36040518163ffffffff1660e01b815260040160206040518083038186803b1580156104b957600080fd5b505afa1580156104cd573d6000803e3d6000fd5b505050506040513d601f19601f820116820180604052508101906104f19190615624565b90506000865111156106a8578451865114610541576040517f08c379a0000000000000000000000000000000000000000000000000000000008152600401610538906174bd565b60405180910390fd5b60008173ffffffffffffffffffffffffffffffffffffffff166370a08231306040518263ffffffff1660e01b815260040161057c9190616e72565b60206040518083038186803b15801561059457600080fd5b505afa1580156105a8573d6000803e3d6000fd5b505050506040513d601f19601f820116820180604052508101906105cc9190615e6a565b905060005b87518110156106a5573073ffffffffffffffffffffffffffffffffffffffff1663b596625884848b858151811061060457fe5b60200260200101518b868151811061061857fe5b60200260200101516040518563ffffffff1660e01b815260040161063f949392919061702f565b6040805180830381600087803b15801561065857600080fd5b505af115801561066c573d6000803e3d6000fd5b505050506040513d601f19601f820116820180604052508101906106909190615d64565b809350819450505080806001019150506105d1565b50505b6106b481898b8a6117be565b50505b505b6106c38587611ec6565b905098975050505050505050565b600082826044906064926106e79392919061776c565b8101906106f4919061564d565b90508073ffffffffffffffffffffffffffffffffffffffff1663ac784ddc6040518163ffffffff1660e01b815260040160206040518083038186803b15801561073c57600080fd5b505afa158015610750573d6000803e3d6000fd5b505050506040513d601f19601f820116820180604052508101906107749190615d3b565b1561087d576000806000806000806060808a8a60049080926107989392919061776c565b8101906107a59190615676565b985098509850985098509850509750975060006107e16103e56107d36103e88b61211490919063ffffffff16565b61218490919063ffffffff16565b9050600061080e6103e56108006103e88c61211490919063ffffffff16565b6121da90919063ffffffff16565b111561081d5780806001019150505b61082f89898c8a8a8a878b8b8b612230565b600660006101000a81548173ffffffffffffffffffffffffffffffffffffffff021916908373ffffffffffffffffffffffffffffffffffffffff160217905550505050505050505050610983565b60008060008060008060006060808b8b600490809261089e9392919061776c565b8101906108ab919061576c565b9950995099509950995099509950509850985060006108e96103e56108db6103e88c61211490919063ffffffff16565b61218490919063ffffffff16565b905060006109166103e56109086103e88d61211490919063ffffffff16565b6121da90919063ffffffff16565b11156109255780806001019150505b6109388a8a8d8b8b8b878c8c8c8c6124f0565b600660006101000a81548173ffffffffffffffffffffffffffffffffffffffff021916908373ffffffffffffffffffffffffffffffffffffffff160217905550505050505050505050505b505050505050565b6000808b116109cf576040517f08c379a00000000000000000000000000000000000000000000000000000000081526004016109c6906172bd565b60405180910390fd5b60008060008c73ffffffffffffffffffffffffffffffffffffffff16636f307dc36040518163ffffffff1660e01b815260040160206040518083038186803b158015610a1a57600080fd5b505afa158015610a2e573d6000803e3d6000fd5b505050506040513d601f19601f82011682018060405250810190610a529190615624565b90508873ffffffffffffffffffffffffffffffffffffffff1663c45a01556040518163ffffffff1660e01b815260040160206040518083038186803b158015610a9a57600080fd5b505afa158015610aae573d6000803e3d6000fd5b505050506040513d601f19601f82011682018060405250810190610ad29190615624565b73ffffffffffffffffffffffffffffffffffffffff1663e6a4390582600060029054906101000a900473ffffffffffffffffffffffffffffffffffffffff166040518363ffffffff1660e01b8152600401610b2e929190616edf565b60206040518083038186803b158015610b4657600080fd5b505afa158015610b5a573d6000803e3d6000fd5b505050506040513d601f19601f82011682018060405250810190610b7e9190615624565b92508073ffffffffffffffffffffffffffffffffffffffff168373ffffffffffffffffffffffffffffffffffffffff16630dfe16816040518163ffffffff1660e01b815260040160206040518083038186803b158015610bdd57600080fd5b505afa158015610bf1573d6000803e3d6000fd5b505050506040513d601f19601f82011682018060405250810190610c159190615624565b73ffffffffffffffffffffffffffffffffffffffff16149150508173ffffffffffffffffffffffffffffffffffffffff1663022c0d9f82610c57576000610c59565b8e5b8315610c66576000610c68565b8f5b306000366040518663ffffffff1660e01b8152600401610c8c959493929190617544565b600060405180830381600087803b158015610ca657600080fd5b505af1158015610cba573d6000803e3d6000fd5b50505050610cc9898b86612816565b925050509b9a5050505050505050505050565b6000808911610d20576040517f08c379a0000000000000000000000000000000000000000000000000000000008152600401610d179061737d565b60405180910390fd5b60008873ffffffffffffffffffffffffffffffffffffffff16636f307dc36040518163ffffffff1660e01b815260040160206040518083038186803b158015610d6857600080fd5b505afa158015610d7c573d6000803e3d6000fd5b505050506040513d601f19601f82011682018060405250810190610da09190615624565b9050610dcf33308c8473ffffffffffffffffffffffffffffffffffffffff16612a6a909392919063ffffffff16565b610dda818a8c612af3565b60008973ffffffffffffffffffffffffffffffffffffffff1663f5e3c4628d8d8c6040518463ffffffff1660e01b8152600401610e1993929190616f91565b602060405180830381600087803b158015610e3357600080fd5b505af1158015610e47573d6000803e3d6000fd5b505050506040513d601f19601f82011682018060405250810190610e6b9190615e6a565b14610eab576040517f08c379a0000000000000000000000000000000000000000000000000000000008152600401610ea2906171dd565b60405180910390fd5b8773ffffffffffffffffffffffffffffffffffffffff168673ffffffffffffffffffffffffffffffffffffffff16146112a05760008873ffffffffffffffffffffffffffffffffffffffff166370a08231306040518263ffffffff1660e01b8152600401610f199190616e72565b60206040518083038186803b158015610f3157600080fd5b505afa158015610f45573d6000803e3d6000fd5b505050506040513d601f19601f82011682018060405250810190610f699190615e6a565b9050600081111561129e5760008973ffffffffffffffffffffffffffffffffffffffff1663db006a75836040518263ffffffff1660e01b8152600401610faf91906174dd565b602060405180830381600087803b158015610fc957600080fd5b505af1158015610fdd573d6000803e3d6000fd5b505050506040513d601f19601f820116820180604052508101906110019190615e6a565b905060008114611046576040517f08c379a000000000000000000000000000000000000000000000000000000000815260040161103d906173bd565b60405180910390fd5b8973ffffffffffffffffffffffffffffffffffffffff1663ac784ddc6040518163ffffffff1660e01b815260040160206040518083038186803b15801561108c57600080fd5b505afa1580156110a0573d6000803e3d6000fd5b505050506040513d601f19601f820116820180604052508101906110c49190615d3b565b156110db576110d66000898b8a6117be565b61129c565b60008a73ffffffffffffffffffffffffffffffffffffffff16636f307dc36040518163ffffffff1660e01b815260040160206040518083038186803b15801561112357600080fd5b505afa158015611137573d6000803e3d6000fd5b505050506040513d601f19601f8201168201806040525081019061115b9190615624565b905060008751111561128e5785518751146111ab576040517f08c379a00000000000000000000000000000000000000000000000000000000081526004016111a2906174bd565b60405180910390fd5b60008173ffffffffffffffffffffffffffffffffffffffff166370a08231306040518263ffffffff1660e01b81526004016111e69190616e72565b60206040518083038186803b1580156111fe57600080fd5b505afa158015611212573d6000803e3d6000fd5b505050506040513d601f19601f820116820180604052508101906112369190615e6a565b905060005b885181101561128b5761127683838b848151811061125557fe5b60200260200101518b858151811061126957fe5b60200260200101516112ba565b8093508194505050808060010191505061123b565b50505b61129a818a8c8b6117be565b505b505b505b6112aa8688611ec6565b9150509998505050505050505050565b6000806060611342856310badf4e60e01b8989886040516024016112e093929190616ff1565b604051602081830303815290604052907bffffffffffffffffffffffffffffffffffffffffffffffffffffffff19166020820180517bffffffffffffffffffffffffffffffffffffffffffffffffffffffff8381831617835250505050612c12565b9050808060200190518101906113589190615d64565b925092505094509492505050565b6000808a116113aa576040517f08c379a00000000000000000000000000000000000000000000000000000000081526004016113a1906172bd565b60405180910390fd5b60006115ee600360009054906101000a900473ffffffffffffffffffffffffffffffffffffffff1673ffffffffffffffffffffffffffffffffffffffff1663c45a01556040518163ffffffff1660e01b815260040160206040518083038186803b15801561141757600080fd5b505afa15801561142b573d6000803e3d6000fd5b505050506040513d601f19601f8201168201806040525081019061144f9190615624565b600260009054906101000a900473ffffffffffffffffffffffffffffffffffffffff1673ffffffffffffffffffffffffffffffffffffffff168873ffffffffffffffffffffffffffffffffffffffff161480156115765750600460009054906101000a900473ffffffffffffffffffffffffffffffffffffffff1673ffffffffffffffffffffffffffffffffffffffff168b73ffffffffffffffffffffffffffffffffffffffff16636f307dc36040518163ffffffff1660e01b815260040160206040518083038186803b15801561152657600080fd5b505afa15801561153a573d6000803e3d6000fd5b505050506040513d601f19601f8201168201806040525081019061155e9190615624565b73ffffffffffffffffffffffffffffffffffffffff16145b6115a257600460009054906101000a900473ffffffffffffffffffffffffffffffffffffffff166115c6565b600560009054906101000a900473ffffffffffffffffffffffffffffffffffffffff165b600060029054906101000a900473ffffffffffffffffffffffffffffffffffffffff16612cf7565b905060008173ffffffffffffffffffffffffffffffffffffffff16630dfe16816040518163ffffffff1660e01b815260040160206040518083038186803b15801561163857600080fd5b505afa15801561164c573d6000803e3d6000fd5b505050506040513d601f19601f820116820180604052508101906116709190615624565b90508173ffffffffffffffffffffffffffffffffffffffff1663022c0d9f600060029054906101000a900473ffffffffffffffffffffffffffffffffffffffff1673ffffffffffffffffffffffffffffffffffffffff168373ffffffffffffffffffffffffffffffffffffffff16146116ea5760006116ec565b8d5b600060029054906101000a900473ffffffffffffffffffffffffffffffffffffffff1673ffffffffffffffffffffffffffffffffffffffff168473ffffffffffffffffffffffffffffffffffffffff16141561174957600061174b565b8e5b306000366040518663ffffffff1660e01b815260040161176f959493929190617544565b600060405180830381600087803b15801561178957600080fd5b505af115801561179d573d6000803e3d6000fd5b505050506117ac888a86612816565b925050509a9950505050505050505050565b8373ffffffffffffffffffffffffffffffffffffffff168373ffffffffffffffffffffffffffffffffffffffff1614156117f757611ec0565b600073ffffffffffffffffffffffffffffffffffffffff168473ffffffffffffffffffffffffffffffffffffffff1614156119d357600060029054906101000a900473ffffffffffffffffffffffffffffffffffffffff1673ffffffffffffffffffffffffffffffffffffffff168373ffffffffffffffffffffffffffffffffffffffff16141561190a57600160009054906101000a900473ffffffffffffffffffffffffffffffffffffffff1673ffffffffffffffffffffffffffffffffffffffff1663d0e30db0476040518263ffffffff1660e01b81526004016000604051808303818588803b1580156118ec57600080fd5b505af1158015611900573d6000803e3d6000fd5b50505050506119ce565b8073ffffffffffffffffffffffffffffffffffffffff16637ff36ab54784611954600060029054906101000a900473ffffffffffffffffffffffffffffffffffffffff1688612d69565b30426040518663ffffffff1660e01b815260040161197594939291906174f8565b6000604051808303818588803b15801561198e57600080fd5b505af11580156119a2573d6000803e3d6000fd5b50505050506040513d6000823e3d601f19601f820116820180604052508101906119cc9190615cfa565b505b611ebf565b600060029054906101000a900473ffffffffffffffffffffffffffffffffffffffff1673ffffffffffffffffffffffffffffffffffffffff168473ffffffffffffffffffffffffffffffffffffffff16148015611a5c5750600073ffffffffffffffffffffffffffffffffffffffff168373ffffffffffffffffffffffffffffffffffffffff16145b15611b9d57600160009054906101000a900473ffffffffffffffffffffffffffffffffffffffff1673ffffffffffffffffffffffffffffffffffffffff16632e1a7d4d600060029054906101000a900473ffffffffffffffffffffffffffffffffffffffff1673ffffffffffffffffffffffffffffffffffffffff166370a08231306040518263ffffffff1660e01b8152600401611afa9190616e72565b60206040518083038186803b158015611b1257600080fd5b505afa158015611b26573d6000803e3d6000fd5b505050506040513d601f19601f82011682018060405250810190611b4a9190615e6a565b6040518263ffffffff1660e01b8152600401611b6691906174dd565b600060405180830381600087803b158015611b8057600080fd5b505af1158015611b94573d6000803e3d6000fd5b50505050611ebe565b600084905060008173ffffffffffffffffffffffffffffffffffffffff166370a08231306040518263ffffffff1660e01b8152600401611bdd9190616e72565b60206040518083038186803b158015611bf557600080fd5b505afa158015611c09573d6000803e3d6000fd5b505050506040513d601f19601f82011682018060405250810190611c2d9190615e6a565b9050611c3a828483612af3565b600073ffffffffffffffffffffffffffffffffffffffff168573ffffffffffffffffffffffffffffffffffffffff161415611d38578273ffffffffffffffffffffffffffffffffffffffff166318cbafe58286611cb98a600060029054906101000a900473ffffffffffffffffffffffffffffffffffffffff16612d69565b30426040518663ffffffff1660e01b8152600401611cdb959493929190617592565b600060405180830381600087803b158015611cf557600080fd5b505af1158015611d09573d6000803e3d6000fd5b505050506040513d6000823e3d601f19601f82011682018060405250810190611d329190615cfa565b50611ebb565b8273ffffffffffffffffffffffffffffffffffffffff166338ed17398286600060029054906101000a900473ffffffffffffffffffffffffffffffffffffffff1673ffffffffffffffffffffffffffffffffffffffff168a73ffffffffffffffffffffffffffffffffffffffff161480611dff5750600060029054906101000a900473ffffffffffffffffffffffffffffffffffffffff1673ffffffffffffffffffffffffffffffffffffffff168973ffffffffffffffffffffffffffffffffffffffff16145b611e3557611e308a600060029054906101000a900473ffffffffffffffffffffffffffffffffffffffff168b612e50565b611e40565b611e3f8a8a612d69565b5b30426040518663ffffffff1660e01b8152600401611e62959493929190617592565b600060405180830381600087803b158015611e7c57600080fd5b505af1158015611e90573d6000803e3d6000fd5b505050506040513d6000823e3d601f19601f82011682018060405250810190611eb99190615cfa565b505b50505b5b5b50505050565b600080600073ffffffffffffffffffffffffffffffffffffffff168473ffffffffffffffffffffffffffffffffffffffff1614156120005747905082811015611f44576040517f08c379a0000000000000000000000000000000000000000000000000000000008152600401611f3b9061745d565b60405180910390fd5b6000811115611ffb5760003373ffffffffffffffffffffffffffffffffffffffff1682604051611f7390616e5d565b60006040518083038185875af1925050503d8060008114611fb0576040519150601f19603f3d011682016040523d82523d6000602084013e611fb5565b606091505b5050905080611ff9576040517f08c379a0000000000000000000000000000000000000000000000000000000008152600401611ff0906173fd565b60405180910390fd5b505b61210a565b60008490508073ffffffffffffffffffffffffffffffffffffffff166370a08231306040518263ffffffff1660e01b815260040161203e9190616e72565b60206040518083038186803b15801561205657600080fd5b505afa15801561206a573d6000803e3d6000fd5b505050506040513d601f19601f8201168201806040525081019061208e9190615e6a565b9150838210156120d3576040517f08c379a00000000000000000000000000000000000000000000000000000000081526004016120ca9061709d565b60405180910390fd5b60008211156121085761210733838373ffffffffffffffffffffffffffffffffffffffff16612f809092919063ffffffff16565b5b505b8091505092915050565b600080831415612127576000905061217e565b600082840290508284828161213857fe5b0414612179576040517f08c379a00000000000000000000000000000000000000000000000000000000081526004016121709061733d565b60405180910390fd5b809150505b92915050565b60008082116121c8576040517f08c379a00000000000000000000000000000000000000000000000000000000081526004016121bf9061725d565b60405180910390fd5b8183816121d157fe5b04905092915050565b600080821161221e576040517f08c379a0000000000000000000000000000000000000000000000000000000008152600401612215906172dd565b60405180910390fd5b81838161222757fe5b06905092915050565b6000600160009054906101000a900473ffffffffffffffffffffffffffffffffffffffff1673ffffffffffffffffffffffffffffffffffffffff16632e1a7d4d8b6040518263ffffffff1660e01b815260040161228d91906174dd565b600060405180830381600087803b1580156122a757600080fd5b505af11580156122bb573d6000803e3d6000fd5b505050508873ffffffffffffffffffffffffffffffffffffffff1663aae40a2a8b8d8b6040518463ffffffff1660e01b81526004016122fb929190616f3f565b6000604051808303818588803b15801561231457600080fd5b505af1158015612328573d6000803e3d6000fd5b505050505060008873ffffffffffffffffffffffffffffffffffffffff166370a08231306040518263ffffffff1660e01b81526004016123689190616e72565b60206040518083038186803b15801561238057600080fd5b505afa158015612394573d6000803e3d6000fd5b505050506040513d601f19601f820116820180604052508101906123b89190615e6a565b9050600081116123fd576040517f08c379a00000000000000000000000000000000000000000000000000000000081526004016123f49061719d565b60405180910390fd5b60008973ffffffffffffffffffffffffffffffffffffffff1663db006a75836040518263ffffffff1660e01b815260040161243891906174dd565b602060405180830381600087803b15801561245257600080fd5b505af1158015612466573d6000803e3d6000fd5b505050506040513d601f19601f8201168201806040525081019061248a9190615e6a565b9050600081146124cf576040517f08c379a00000000000000000000000000000000000000000000000000000000081526004016124c6906173bd565b60405180910390fd5b6124de8c8b8a8a8a8a8a613006565b925050509a9950505050505050505050565b6000808a73ffffffffffffffffffffffffffffffffffffffff16636f307dc36040518163ffffffff1660e01b815260040160206040518083038186803b15801561253957600080fd5b505afa15801561254d573d6000803e3d6000fd5b505050506040513d601f19601f820116820180604052508101906125719190615624565b905061257e818c8e612af3565b60008b73ffffffffffffffffffffffffffffffffffffffff1663f5e3c4628f8f8e6040518463ffffffff1660e01b81526004016125bd93929190616f91565b602060405180830381600087803b1580156125d757600080fd5b505af11580156125eb573d6000803e3d6000fd5b505050506040513d601f19601f8201168201806040525081019061260f9190615e6a565b1461264f576040517f08c379a0000000000000000000000000000000000000000000000000000000008152600401612646906171dd565b60405180910390fd5b60008a73ffffffffffffffffffffffffffffffffffffffff166370a08231306040518263ffffffff1660e01b815260040161268a9190616e72565b60206040518083038186803b1580156126a257600080fd5b505afa1580156126b6573d6000803e3d6000fd5b505050506040513d601f19601f820116820180604052508101906126da9190615e6a565b90506000811161271f576040517f08c379a00000000000000000000000000000000000000000000000000000000081526004016127169061719d565b60405180910390fd5b60008b73ffffffffffffffffffffffffffffffffffffffff1663db006a75836040518263ffffffff1660e01b815260040161275a91906174dd565b602060405180830381600087803b15801561277457600080fd5b505af1158015612788573d6000803e3d6000fd5b505050506040513d601f19601f820116820180604052508101906127ac9190615e6a565b9050600081146127f1576040517f08c379a00000000000000000000000000000000000000000000000000000000081526004016127e8906173bd565b60405180910390fd5b6128028e8d8c8c8c8c8c8c8b613a0b565b93505050509b9a5050505050505050505050565b60008073ffffffffffffffffffffffffffffffffffffffff168473ffffffffffffffffffffffffffffffffffffffff161415612932576128ae600660009054906101000a900473ffffffffffffffffffffffffffffffffffffffff168561288685876145df90919063ffffffff16565b600360009054906101000a900473ffffffffffffffffffffffffffffffffffffffff166117be565b6000821115612921574173ffffffffffffffffffffffffffffffffffffffff16826040516128db90616e5d565b60006040518083038185875af1925050503d8060008114612918576040519150601f19603f3d011682016040523d82523d6000602084013e61291d565b606091505b5050505b61292b8484611ec6565b9050612a63565b60008211156129f45761298a600660009054906101000a900473ffffffffffffffffffffffffffffffffffffffff1683600360009054906101000a900473ffffffffffffffffffffffffffffffffffffffff16614634565b4173ffffffffffffffffffffffffffffffffffffffff16826040516129ae90616e5d565b60006040518083038185875af1925050503d80600081146129eb576040519150601f19603f3d011682016040523d82523d6000602084013e6129f0565b606091505b5050505b612a56600660009054906101000a900473ffffffffffffffffffffffffffffffffffffffff1685612a2e85876145df90919063ffffffff16565b600360009054906101000a900473ffffffffffffffffffffffffffffffffffffffff166117be565b612a608484611ec6565b90505b9392505050565b612aed846323b872dd60e01b858585604051602401612a8b93929190616f08565b604051602081830303815290604052907bffffffffffffffffffffffffffffffffffffffffffffffffffffffff19166020820180517bffffffffffffffffffffffffffffffffffffffffffffffffffffffff83818316178352505050506148c0565b50505050565b60008373ffffffffffffffffffffffffffffffffffffffff1663dd62ed3e30856040518363ffffffff1660e01b8152600401612b30929190616e8d565b60206040518083038186803b158015612b4857600080fd5b505afa158015612b5c573d6000803e3d6000fd5b505050506040513d601f19601f82011682018060405250810190612b809190615e6a565b905081811015612c0c576000811115612bc057612bbf8360008673ffffffffffffffffffffffffffffffffffffffff166149879092919063ffffffff16565b5b612c0b837fffffffffffffffffffffffffffffffffffffffffffffffffffffffffffffffff8673ffffffffffffffffffffffffffffffffffffffff166149879092919063ffffffff16565b5b50505050565b6060612c1d83610211565b612c5c576040517f08c379a0000000000000000000000000000000000000000000000000000000008152600401612c53906173dd565b60405180910390fd5b600060608473ffffffffffffffffffffffffffffffffffffffff1684604051612c859190616e04565b600060405180830381855af49150503d8060008114612cc0576040519150601f19603f3d011682016040523d82523d6000602084013e612cc5565b606091505b5091509150612ced8282604051806060016040528060278152602001617ade60279139614ae5565b9250505092915050565b6000806000612d068585614b4c565b91509150858282604051602001612d1e929190616dd8565b60405160208183030381529060405280519060200120604051602001612d45929190616e1b565b6040516020818303038152906040528051906020012060001c925050509392505050565b606080600267ffffffffffffffff81118015612d8457600080fd5b50604051908082528060200260200182016040528015612db35781602001602082028036833780820191505090505b5090508381600081518110612dc457fe5b602002602001019073ffffffffffffffffffffffffffffffffffffffff16908173ffffffffffffffffffffffffffffffffffffffff16815250508281600181518110612e0c57fe5b602002602001019073ffffffffffffffffffffffffffffffffffffffff16908173ffffffffffffffffffffffffffffffffffffffff16815250508091505092915050565b606080600367ffffffffffffffff81118015612e6b57600080fd5b50604051908082528060200260200182016040528015612e9a5781602001602082028036833780820191505090505b5090508481600081518110612eab57fe5b602002602001019073ffffffffffffffffffffffffffffffffffffffff16908173ffffffffffffffffffffffffffffffffffffffff16815250508381600181518110612ef357fe5b602002602001019073ffffffffffffffffffffffffffffffffffffffff16908173ffffffffffffffffffffffffffffffffffffffff16815250508281600281518110612f3b57fe5b602002602001019073ffffffffffffffffffffffffffffffffffffffff16908173ffffffffffffffffffffffffffffffffffffffff1681525050809150509392505050565b6130018363a9059cbb60e01b8484604051602401612f9f929190616f68565b604051602081830303815290604052907bffffffffffffffffffffffffffffffffffffffffffffffffffffffff19166020820180517bffffffffffffffffffffffffffffffffffffffffffffffffffffffff83818316178352505050506148c0565b505050565b6000808773ffffffffffffffffffffffffffffffffffffffff16636f307dc36040518163ffffffff1660e01b815260040160206040518083038186803b15801561304f57600080fd5b505afa158015613063573d6000803e3d6000fd5b505050506040513d601f19601f820116820180604052508101906130879190615624565b905060008173ffffffffffffffffffffffffffffffffffffffff166370a08231306040518263ffffffff1660e01b81526004016130c49190616e72565b60206040518083038186803b1580156130dc57600080fd5b505afa1580156130f0573d6000803e3d6000fd5b505050506040513d601f19601f820116820180604052508101906131149190615e6a565b90506000855111156131b9578351855114613164576040517f08c379a000000000000000000000000000000000000000000000000000000000815260040161315b906174bd565b60405180910390fd5b60005b85518110156131b7576131a2838388848151811061318157fe5b602002602001015188858151811061319557fe5b60200260200101516112ba565b80935081945050508080600101915050613167565b505b600260009054906101000a900473ffffffffffffffffffffffffffffffffffffffff1673ffffffffffffffffffffffffffffffffffffffff168673ffffffffffffffffffffffffffffffffffffffff16148015613334575073a0b86991c6218b36c1d19d4a2e9eb0ce3606eb4873ffffffffffffffffffffffffffffffffffffffff168973ffffffffffffffffffffffffffffffffffffffff16636f307dc36040518163ffffffff1660e01b815260040160206040518083038186803b15801561328257600080fd5b505afa158015613296573d6000803e3d6000fd5b505050506040513d601f19601f820116820180604052508101906132ba9190615624565b73ffffffffffffffffffffffffffffffffffffffff16146132ef5773a0b86991c6218b36c1d19d4a2e9eb0ce3606eb48613305565b732260fac5e5542a773aa44fbcfedf7c193bc2c5995b73ffffffffffffffffffffffffffffffffffffffff168273ffffffffffffffffffffffffffffffffffffffff16145b156135195760006133ee8773ffffffffffffffffffffffffffffffffffffffff1663c45a01556040518163ffffffff1660e01b815260040160206040518083038186803b15801561338457600080fd5b505afa158015613398573d6000803e3d6000fd5b505050506040513d601f19601f820116820180604052508101906133bc9190615624565b8c6133e986600060029054906101000a900473ffffffffffffffffffffffffffffffffffffffff16612d69565b614c7a565b6000815181106133fa57fe5b6020026020010151905081811115613447576040517f08c379a000000000000000000000000000000000000000000000000000000000815260040161343e906171fd565b60405180910390fd5b8273ffffffffffffffffffffffffffffffffffffffff1663a9059cbb33836040518363ffffffff1660e01b8152600401613482929190616eb6565b602060405180830381600087803b15801561349c57600080fd5b505af11580156134b0573d6000803e3d6000fd5b505050506040513d601f19601f820116820180604052508101906134d49190615d3b565b613513576040517f08c379a000000000000000000000000000000000000000000000000000000000815260040161350a9061735d565b60405180910390fd5b506139fb565b600060029054906101000a900473ffffffffffffffffffffffffffffffffffffffff1673ffffffffffffffffffffffffffffffffffffffff168273ffffffffffffffffffffffffffffffffffffffff161461381f57600073ffffffffffffffffffffffffffffffffffffffff168273ffffffffffffffffffffffffffffffffffffffff16141561362b57600160009054906101000a900473ffffffffffffffffffffffffffffffffffffffff1673ffffffffffffffffffffffffffffffffffffffff1663d0e30db0886040518263ffffffff1660e01b81526004016000604051808303818588803b15801561360d57600080fd5b505af1158015613621573d6000803e3d6000fd5b505050505061381e565b613636828783612af3565b8173ffffffffffffffffffffffffffffffffffffffff168873ffffffffffffffffffffffffffffffffffffffff161415613733578573ffffffffffffffffffffffffffffffffffffffff16638803dbee88836136b486600060029054906101000a900473ffffffffffffffffffffffffffffffffffffffff16612d69565b30426040518663ffffffff1660e01b81526004016136d6959493929190617592565b600060405180830381600087803b1580156136f057600080fd5b505af1158015613704573d6000803e3d6000fd5b505050506040513d6000823e3d601f19601f8201168201806040525081019061372d9190615cfa565b5061381d565b8573ffffffffffffffffffffffffffffffffffffffff166338ed1739828961377d86600060029054906101000a900473ffffffffffffffffffffffffffffffffffffffff16612d69565b30426040518663ffffffff1660e01b815260040161379f959493929190617592565b600060405180830381600087803b1580156137b957600080fd5b505af11580156137cd573d6000803e3d6000fd5b505050506040513d6000823e3d601f19601f820116820180604052508101906137f69190615cfa565b50600060029054906101000a900473ffffffffffffffffffffffffffffffffffffffff1691505b5b5b600060029054906101000a900473ffffffffffffffffffffffffffffffffffffffff1673ffffffffffffffffffffffffffffffffffffffff166370a08231306040518263ffffffff1660e01b815260040161387a9190616e72565b60206040518083038186803b15801561389257600080fd5b505afa1580156138a6573d6000803e3d6000fd5b505050506040513d601f19601f820116820180604052508101906138ca9190615e6a565b87111561390c576040517f08c379a0000000000000000000000000000000000000000000000000000000008152600401613903906170fd565b60405180910390fd5b600160009054906101000a900473ffffffffffffffffffffffffffffffffffffffff1673ffffffffffffffffffffffffffffffffffffffff1663a9059cbb33896040518363ffffffff1660e01b8152600401613969929190616eb6565b602060405180830381600087803b15801561398357600080fd5b505af1158015613997573d6000803e3d6000fd5b505050506040513d601f19601f820116820180604052508101906139bb9190615d3b565b6139fa576040517f08c379a00000000000000000000000000000000000000000000000000000000081526004016139f19061727d565b60405180910390fd5b5b8192505050979650505050505050565b60008873ffffffffffffffffffffffffffffffffffffffff1663ac784ddc6040518163ffffffff1660e01b815260040160206040518083038186803b158015613a5357600080fd5b505afa158015613a67573d6000803e3d6000fd5b505050506040513d601f19601f82011682018060405250810190613a8b9190615d3b565b15613d1f5760004790506000613b4a8873ffffffffffffffffffffffffffffffffffffffff1663c45a01556040518163ffffffff1660e01b815260040160206040518083038186803b158015613ae057600080fd5b505afa158015613af4573d6000803e3d6000fd5b505050506040513d601f19601f82011682018060405250810190613b189190615624565b8d613b45600060029054906101000a900473ffffffffffffffffffffffffffffffffffffffff1688612d69565b614c7a565b600081518110613b5657fe5b6020026020010151905081811115613ba3576040517f08c379a0000000000000000000000000000000000000000000000000000000008152600401613b9a9061717d565b60405180910390fd5b600160009054906101000a900473ffffffffffffffffffffffffffffffffffffffff1673ffffffffffffffffffffffffffffffffffffffff1663d0e30db0826040518263ffffffff1660e01b81526004016000604051808303818588803b158015613c0d57600080fd5b505af1158015613c21573d6000803e3d6000fd5b5050505050600160009054906101000a900473ffffffffffffffffffffffffffffffffffffffff1673ffffffffffffffffffffffffffffffffffffffff1663a9059cbb33836040518363ffffffff1660e01b8152600401613c83929190616eb6565b602060405180830381600087803b158015613c9d57600080fd5b505af1158015613cb1573d6000803e3d6000fd5b505050506040513d601f19601f82011682018060405250810190613cd59190615d3b565b613d14576040517f08c379a0000000000000000000000000000000000000000000000000000000008152600401613d0b9061729d565b60405180910390fd5b6000925050506145d2565b60008973ffffffffffffffffffffffffffffffffffffffff16636f307dc36040518163ffffffff1660e01b815260040160206040518083038186803b158015613d6757600080fd5b505afa158015613d7b573d6000803e3d6000fd5b505050506040513d601f19601f82011682018060405250810190613d9f9190615624565b905060008173ffffffffffffffffffffffffffffffffffffffff166370a08231306040518263ffffffff1660e01b8152600401613ddc9190616e72565b60206040518083038186803b158015613df457600080fd5b505afa158015613e08573d6000803e3d6000fd5b505050506040513d601f19601f82011682018060405250810190613e2c9190615e6a565b9050600086511115613ed1578451865114613e7c576040517f08c379a0000000000000000000000000000000000000000000000000000000008152600401613e73906174bd565b60405180910390fd5b60005b8651811015613ecf57613eba8383898481518110613e9957fe5b6020026020010151898581518110613ead57fe5b60200260200101516112ba565b80935081945050508080600101915050613e7f565b505b8373ffffffffffffffffffffffffffffffffffffffff168273ffffffffffffffffffffffffffffffffffffffff1614156140a6578373ffffffffffffffffffffffffffffffffffffffff166370a08231306040518263ffffffff1660e01b8152600401613f3e9190616e72565b60206040518083038186803b158015613f5657600080fd5b505afa158015613f6a573d6000803e3d6000fd5b505050506040513d601f19601f82011682018060405250810190613f8e9190615e6a565b891115613fd0576040517f08c379a0000000000000000000000000000000000000000000000000000000008152600401613fc79061711d565b60405180910390fd5b8373ffffffffffffffffffffffffffffffffffffffff1663a9059cbb338b6040518363ffffffff1660e01b815260040161400b929190616eb6565b602060405180830381600087803b15801561402557600080fd5b505af1158015614039573d6000803e3d6000fd5b505050506040513d601f19601f8201168201806040525081019061405d9190615d3b565b61409c576040517f08c379a00000000000000000000000000000000000000000000000000000000081526004016140939061723d565b60405180910390fd5b81925050506145d2565b600061415b8973ffffffffffffffffffffffffffffffffffffffff1663c45a01556040518163ffffffff1660e01b815260040160206040518083038186803b1580156140f157600080fd5b505afa158015614105573d6000803e3d6000fd5b505050506040513d601f19601f820116820180604052508101906141299190615624565b8e614156600060029054906101000a900473ffffffffffffffffffffffffffffffffffffffff1689612d69565b614c7a565b60008151811061416757fe5b60200260200101519050600060029054906101000a900473ffffffffffffffffffffffffffffffffffffffff1673ffffffffffffffffffffffffffffffffffffffff168373ffffffffffffffffffffffffffffffffffffffff1614614394576141d1838984612af3565b8273ffffffffffffffffffffffffffffffffffffffff168b73ffffffffffffffffffffffffffffffffffffffff1614156142ce578773ffffffffffffffffffffffffffffffffffffffff16638803dbee828461424f87600060029054906101000a900473ffffffffffffffffffffffffffffffffffffffff16612d69565b30426040518663ffffffff1660e01b8152600401614271959493929190617592565b600060405180830381600087803b15801561428b57600080fd5b505af115801561429f573d6000803e3d6000fd5b505050506040513d6000823e3d601f19601f820116820180604052508101906142c89190615cfa565b50614393565b8773ffffffffffffffffffffffffffffffffffffffff166338ed1739838361431887600060029054906101000a900473ffffffffffffffffffffffffffffffffffffffff16612d69565b30426040518663ffffffff1660e01b815260040161433a959493929190617592565b600060405180830381600087803b15801561435457600080fd5b505af1158015614368573d6000803e3d6000fd5b505050506040513d6000823e3d601f19601f820116820180604052508101906143919190615cfa565b505b5b600060029054906101000a900473ffffffffffffffffffffffffffffffffffffffff1673ffffffffffffffffffffffffffffffffffffffff166370a08231306040518263ffffffff1660e01b81526004016143ef9190616e72565b60206040518083038186803b15801561440757600080fd5b505afa15801561441b573d6000803e3d6000fd5b505050506040513d601f19601f8201168201806040525081019061443f9190615e6a565b811115614481576040517f08c379a00000000000000000000000000000000000000000000000000000000081526004016144789061739d565b60405180910390fd5b600160009054906101000a900473ffffffffffffffffffffffffffffffffffffffff1673ffffffffffffffffffffffffffffffffffffffff1663a9059cbb33836040518363ffffffff1660e01b81526004016144de929190616eb6565b602060405180830381600087803b1580156144f857600080fd5b505af115801561450c573d6000803e3d6000fd5b505050506040513d601f19601f820116820180604052508101906145309190615d3b565b61456f576040517f08c379a00000000000000000000000000000000000000000000000000000000081526004016145669061729d565b60405180910390fd5b8273ffffffffffffffffffffffffffffffffffffffff168b73ffffffffffffffffffffffffffffffffffffffff16146145ca57600060029054906101000a900473ffffffffffffffffffffffffffffffffffffffff166145cc565b825b93505050505b9998505050505050505050565b60008082840190508381101561462a576040517f08c379a0000000000000000000000000000000000000000000000000000000008152600401614621906170bd565b60405180910390fd5b8091505092915050565b600073ffffffffffffffffffffffffffffffffffffffff168373ffffffffffffffffffffffffffffffffffffffff16141561466e576148bb565b600060029054906101000a900473ffffffffffffffffffffffffffffffffffffffff1673ffffffffffffffffffffffffffffffffffffffff168373ffffffffffffffffffffffffffffffffffffffff16141561475657600160009054906101000a900473ffffffffffffffffffffffffffffffffffffffff1673ffffffffffffffffffffffffffffffffffffffff16632e1a7d4d836040518263ffffffff1660e01b815260040161471f91906174dd565b600060405180830381600087803b15801561473957600080fd5b505af115801561474d573d6000803e3d6000fd5b505050506148ba565b600083905060008173ffffffffffffffffffffffffffffffffffffffff166370a08231306040518263ffffffff1660e01b81526004016147969190616e72565b60206040518083038186803b1580156147ae57600080fd5b505afa1580156147c2573d6000803e3d6000fd5b505050506040513d601f19601f820116820180604052508101906147e69190615e6a565b90506147f3828483612af3565b8273ffffffffffffffffffffffffffffffffffffffff16634a25d94a858361483d89600060029054906101000a900473ffffffffffffffffffffffffffffffffffffffff16612d69565b30426040518663ffffffff1660e01b815260040161485f959493929190617592565b600060405180830381600087803b15801561487957600080fd5b505af115801561488d573d6000803e3d6000fd5b505050506040513d6000823e3d601f19601f820116820180604052508101906148b69190615cfa565b5050505b5b505050565b6060614922826040518060400160405280602081526020017f5361666545524332303a206c6f772d6c6576656c2063616c6c206661696c65648152508573ffffffffffffffffffffffffffffffffffffffff16614dc79092919063ffffffff16565b905060008151111561498257808060200190518101906149429190615d3b565b614981576040517f08c379a00000000000000000000000000000000000000000000000000000000081526004016149789061747d565b60405180910390fd5b5b505050565b6000811480614a20575060008373ffffffffffffffffffffffffffffffffffffffff1663dd62ed3e30856040518363ffffffff1660e01b81526004016149ce929190616edf565b60206040518083038186803b1580156149e657600080fd5b505afa1580156149fa573d6000803e3d6000fd5b505050506040513d601f19601f82011682018060405250810190614a1e9190615e6a565b145b614a5f576040517f08c379a0000000000000000000000000000000000000000000000000000000008152600401614a569061749d565b60405180910390fd5b614ae08363095ea7b360e01b8484604051602401614a7e929190616f68565b604051602081830303815290604052907bffffffffffffffffffffffffffffffffffffffffffffffffffffffff19166020820180517bffffffffffffffffffffffffffffffffffffffffffffffffffffffff83818316178352505050506148c0565b505050565b60608315614af557829050614b45565b600083511115614b085782518084602001fd5b816040517f08c379a0000000000000000000000000000000000000000000000000000000008152600401614b3c919061707b565b60405180910390fd5b9392505050565b6000808273ffffffffffffffffffffffffffffffffffffffff168473ffffffffffffffffffffffffffffffffffffffff161415614bbe576040517f08c379a0000000000000000000000000000000000000000000000000000000008152600401614bb59061715d565b60405180910390fd5b8273ffffffffffffffffffffffffffffffffffffffff168473ffffffffffffffffffffffffffffffffffffffff1610614bf8578284614bfb565b83835b8092508193505050600073ffffffffffffffffffffffffffffffffffffffff168273ffffffffffffffffffffffffffffffffffffffff161415614c73576040517f08c379a0000000000000000000000000000000000000000000000000000000008152600401614c6a9061743d565b60405180910390fd5b9250929050565b6060600282511015614cc1576040517f08c379a0000000000000000000000000000000000000000000000000000000008152600401614cb8906172fd565b60405180910390fd5b815167ffffffffffffffff81118015614cd957600080fd5b50604051908082528060200260200182016040528015614d085781602001602082028036833780820191505090505b5090508281600183510381518110614d1c57fe5b6020026020010181815250506000600183510390505b6000811115614dbf57600080614d7287866001860381518110614d5157fe5b6020026020010151878681518110614d6557fe5b6020026020010151614ddf565b91509150614d94848481518110614d8557fe5b60200260200101518383614f71565b846001850381518110614da357fe5b6020026020010181815250505050808060019003915050614d32565b509392505050565b6060614dd68484600085615082565b90509392505050565b6000806000614dee8585614b4c565b5090506000808773ffffffffffffffffffffffffffffffffffffffff1663e6a4390588886040518363ffffffff1660e01b8152600401614e2f929190616edf565b60206040518083038186803b158015614e4757600080fd5b505afa158015614e5b573d6000803e3d6000fd5b505050506040513d601f19601f82011682018060405250810190614e7f9190615624565b73ffffffffffffffffffffffffffffffffffffffff16630902f1ac6040518163ffffffff1660e01b815260040160606040518083038186803b158015614ec457600080fd5b505afa158015614ed8573d6000803e3d6000fd5b505050506040513d601f19601f82011682018060405250810190614efc9190615e1b565b506dffffffffffffffffffffffffffff1691506dffffffffffffffffffffffffffff1691508273ffffffffffffffffffffffffffffffffffffffff168773ffffffffffffffffffffffffffffffffffffffff1614614f5b578082614f5e565b81815b8095508196505050505050935093915050565b6000808411614fb5576040517f08c379a0000000000000000000000000000000000000000000000000000000008152600401614fac906170dd565b60405180910390fd5b600083118015614fc55750600082115b615004576040517f08c379a0000000000000000000000000000000000000000000000000000000008152600401614ffb9061731d565b60405180910390fd5b600061502d6103e861501f878761211490919063ffffffff16565b61211490919063ffffffff16565b905060006150586103e561504a888761519790919063ffffffff16565b61211490919063ffffffff16565b9050615077600182848161506857fe5b046145df90919063ffffffff16565b925050509392505050565b6060824710156150c7576040517f08c379a00000000000000000000000000000000000000000000000000000000081526004016150be9061721d565b60405180910390fd5b6150d085610211565b61510f576040517f08c379a00000000000000000000000000000000000000000000000000000000081526004016151069061741d565b60405180910390fd5b600060608673ffffffffffffffffffffffffffffffffffffffff1685876040516151399190616e04565b60006040518083038185875af1925050503d8060008114615176576040519150601f19603f3d011682016040523d82523d6000602084013e61517b565b606091505b509150915061518b8282866151e7565b92505050949350505050565b6000828211156151dc576040517f08c379a00000000000000000000000000000000000000000000000000000000081526004016151d3906171bd565b60405180910390fd5b818303905092915050565b606083156151f757829050615247565b60008351111561520a5782518084602001fd5b816040517f08c379a000000000000000000000000000000000000000000000000000000000815260040161523e919061707b565b60405180910390fd5b9392505050565b60008135905061525d816179c9565b92915050565b600081519050615272816179c9565b92915050565b600081359050615287816179e0565b92915050565b600082601f83011261529e57600080fd5b81356152b16152ac82617619565b6175ec565b915081818352602084019350602081019050838560208402820111156152d657600080fd5b60005b8381101561530657816152ec888261524e565b8452602084019350602083019250506001810190506152d9565b5050505092915050565b600082601f83011261532157600080fd5b813561533461532f82617641565b6175ec565b9150818183526020840193506020810190508360005b8381101561537a578135860161536088826154e9565b84526020840193506020830192505060018101905061534a565b5050505092915050565b600082601f83011261539557600080fd5b81356153a86153a382617669565b6175ec565b915081818352602084019350602081019050838560208402820111156153cd57600080fd5b60005b838110156153fd57816153e388826155a6565b8452602084019350602083019250506001810190506153d0565b5050505092915050565b600082601f83011261541857600080fd5b815161542b61542682617691565b6175ec565b9150818183526020840193506020810190508385602084028201111561545057600080fd5b60005b83811015615480578161546688826155fa565b845260208401935060208301925050600181019050615453565b5050505092915050565b600081519050615499816179f7565b92915050565b60008083601f8401126154b157600080fd5b8235905067ffffffffffffffff8111156154ca57600080fd5b6020830191508360018202830111156154e257600080fd5b9250929050565b600082601f8301126154fa57600080fd5b813561550d615508826176b9565b6175ec565b9150808252602083016020830185838301111561552957600080fd5b61553483828461793b565b50505092915050565b60008135905061554c81617a0e565b92915050565b60008135905061556181617a25565b92915050565b60008135905061557681617a3c565b92915050565b60008135905061558b81617a53565b92915050565b6000815190506155a081617a53565b92915050565b6000813590506155b581617a6a565b92915050565b6000813590506155ca81617a81565b92915050565b6000815190506155df81617a98565b92915050565b6000813590506155f481617aaf565b92915050565b60008151905061560981617aaf565b92915050565b60008151905061561e81617ac6565b92915050565b60006020828403121561563657600080fd5b600061564484828501615263565b91505092915050565b60006020828403121561565f57600080fd5b600061566d84828501615278565b91505092915050565b60008060008060008060008060006101208a8c03121561569557600080fd5b60006156a38c828d01615278565b99505060206156b48c828d016155e5565b98505060406156c58c828d01615278565b97505060606156d68c828d01615278565b96505060806156e78c828d016155e5565b95505060a06156f88c828d01615278565b94505060c06157098c828d016155bb565b93505060e08a013567ffffffffffffffff81111561572657600080fd5b6157328c828d0161528d565b9250506101008a013567ffffffffffffffff81111561575057600080fd5b61575c8c828d01615310565b9150509295985092959850929598565b6000806000806000806000806000806101408b8d03121561578c57600080fd5b600061579a8d828e01615278565b9a505060206157ab8d828e016155e5565b99505060406157bc8d828e01615278565b98505060606157cd8d828e01615278565b97505060806157de8d828e016155e5565b96505060a06157ef8d828e01615278565b95505060c06158008d828e016155bb565b94505060e06158118d828e016155bb565b9350506101008b013567ffffffffffffffff81111561582f57600080fd5b61583b8d828e0161528d565b9250506101208b013567ffffffffffffffff81111561585957600080fd5b6158658d828e01615310565b9150509295989b9194979a5092959850565b600080600080600080600080610100898b03121561589457600080fd5b60006158a28b828c0161524e565b98505060206158b38b828c01615552565b97505060406158c48b828c0161553d565b96505060606158d58b828c016155e5565b95505060806158e68b828c0161524e565b94505060a06158f78b828c016155bb565b93505060c089013567ffffffffffffffff81111561591457600080fd5b6159208b828c01615384565b92505060e089013567ffffffffffffffff81111561593d57600080fd5b6159498b828c01615310565b9150509295985092959890939650565b60008060008060008060008060006101208a8c03121561597857600080fd5b60006159868c828d0161524e565b99505060206159978c828d016155e5565b98505060406159a88c828d0161553d565b97505060606159b98c828d01615567565b96505060806159ca8c828d016155e5565b95505060a06159db8c828d0161524e565b94505060c06159ec8c828d016155bb565b93505060e08a013567ffffffffffffffff811115615a0957600080fd5b615a158c828d01615384565b9250506101008a013567ffffffffffffffff811115615a3357600080fd5b615a3f8c828d01615310565b9150509295985092959850929598565b60008060008060008060008060008060006101608c8e031215615a7157600080fd5b6000615a7f8e828f0161524e565b9b50506020615a908e828f016155e5565b9a50506040615aa18e828f0161553d565b9950506060615ab28e828f01615567565b9850506080615ac38e828f016155e5565b97505060a0615ad48e828f0161524e565b96505060c0615ae58e828f016155bb565b95505060e0615af68e828f016155bb565b9450506101008c013567ffffffffffffffff811115615b1457600080fd5b615b208e828f01615384565b9350506101208c013567ffffffffffffffff811115615b3e57600080fd5b615b4a8e828f01615310565b925050610140615b5c8e828f016155e5565b9150509295989b509295989b9093969950565b6000806000806000806000806000806101408b8d031215615b8f57600080fd5b6000615b9d8d828e0161524e565b9a50506020615bae8d828e016155e5565b9950506040615bbf8d828e01615552565b9850506060615bd08d828e0161553d565b9750506080615be18d828e016155e5565b96505060a0615bf28d828e0161524e565b95505060c0615c038d828e016155bb565b94505060e08b013567ffffffffffffffff811115615c2057600080fd5b615c2c8d828e01615384565b9350506101008b013567ffffffffffffffff811115615c4a57600080fd5b615c568d828e01615310565b925050610120615c688d828e016155e5565b9150509295989b9194979a5092959850565b600080600080600060808688031215615c9257600080fd5b6000615ca08882890161524e565b9550506020615cb1888289016155e5565b9450506040615cc2888289016155e5565b935050606086013567ffffffffffffffff811115615cdf57600080fd5b615ceb8882890161549f565b92509250509295509295909350565b600060208284031215615d0c57600080fd5b600082015167ffffffffffffffff811115615d2657600080fd5b615d3284828501615407565b91505092915050565b600060208284031215615d4d57600080fd5b6000615d5b8482850161548a565b91505092915050565b60008060408385031215615d7757600080fd5b6000615d8585828601615591565b9250506020615d96858286016155fa565b9150509250929050565b60008060008060808587031215615db657600080fd5b6000615dc48782880161557c565b9450506020615dd5878288016155e5565b9350506040615de6878288016155a6565b925050606085013567ffffffffffffffff811115615e0357600080fd5b615e0f878288016154e9565b91505092959194509250565b600080600060608486031215615e3057600080fd5b6000615e3e868287016155d0565b9350506020615e4f868287016155d0565b9250506040615e608682870161560f565b9150509250925092565b600060208284031215615e7c57600080fd5b6000615e8a848285016155fa565b91505092915050565b6000615e9f8383615eba565b60208301905092915050565b615eb481617899565b82525050565b615ec38161779f565b82525050565b615ed28161779f565b82525050565b615ee9615ee48261779f565b61797d565b82525050565b6000615efa826176f5565b615f048185617723565b9350615f0f836176e5565b8060005b83811015615f40578151615f278882615e93565b9750615f3283617716565b925050600181019050615f13565b5085935050505092915050565b615f5e615f59826177cf565b61798f565b82525050565b6000615f708385617734565b9350615f7d83858461793b565b615f86836179ab565b840190509392505050565b6000615f9c82617700565b615fa68185617734565b9350615fb681856020860161794a565b615fbf816179ab565b840191505092915050565b6000615fd582617700565b615fdf8185617745565b9350615fef81856020860161794a565b80840191505092915050565b616004816178ab565b82525050565b616013816178cf565b82525050565b616022816178f3565b82525050565b60006160338261770b565b61603d8185617750565b935061604d81856020860161794a565b616056816179ab565b840191505092915050565b600061606e602983617750565b91507f4d696e696d756d20746f6b656e206f757470757420616d6f756e74206e6f742060008301527f73617469666965642e00000000000000000000000000000000000000000000006020830152604082019050919050565b60006160d4601b83617750565b91507f536166654d6174683a206164646974696f6e206f766572666c6f7700000000006000830152602082019050919050565b6000616114602c83617750565b91507f556e697377617056324c6962726172793a20494e53554646494349454e545f4f60008301527f55545055545f414d4f554e5400000000000000000000000000000000000000006020830152604082019050919050565b600061617a604b83617750565b91507f466c6173686c6f616e2072657475726e20616d6f756e7420677265617465722060008301527f7468616e20574554482065786368616e6765642066726f6d207365697a65642060208301527f636f6c6c61746572616c2e0000000000000000000000000000000000000000006040830152606082019050919050565b6000616206605383617750565b91507f546f6b656e20666c6173686c6f616e2072657475726e20616d6f756e7420677260008301527f6561746572207468616e20746f6b656e732065786368616e6765642066726f6d60208301527f207365697a656420636f6c6c61746572616c2e000000000000000000000000006040830152606082019050919050565b6000616292601983617750565b91507f53656e646572206973206e6f74206120636f6e74726163742e000000000000006000830152602082019050919050565b60006162d2602583617750565b91507f556e697377617056324c6962726172793a204944454e544943414c5f4144445260008301527f45535345530000000000000000000000000000000000000000000000000000006020830152604082019050919050565b6000616338603483617750565b91507f5365697a65642045544820636f6c6c61746572616c206e6f7420656e6f75676860008301527f20746f20726570617920666c6173686c6f616e2e0000000000000000000000006020830152604082019050919050565b600061639e601283617750565b91507f4e6f2063546f6b656e73207365697a65642e00000000000000000000000000006000830152602082019050919050565b60006163de601e83617750565b91507f536166654d6174683a207375627472616374696f6e206f766572666c6f7700006000830152602082019050919050565b600061641e601383617750565b91507f4c69717569646174696f6e206661696c65642e000000000000000000000000006000830152602082019050919050565b600061645e603783617750565b91507f466c6173686c6f616e2072657475726e20616d6f756e7420677265617465722060008301527f7468616e207365697a656420636f6c6c61746572616c2e0000000000000000006020830152604082019050919050565b60006164c4602683617750565b91507f416464726573733a20696e73756666696369656e742062616c616e636520666f60008301527f722063616c6c00000000000000000000000000000000000000000000000000006020830152604082019050919050565b600061652a603a83617750565b91507f4661696c656420746f20726570617920746f6b656e20666c6173686c6f616e2060008301527f6f6e20626f72726f7720286e6f6e2d574554482920736964652e0000000000006020830152604082019050919050565b6000616590601a83617750565b91507f536166654d6174683a206469766973696f6e206279207a65726f0000000000006000830152602082019050919050565b60006165d0602c83617750565b91507f4661696c656420746f207472616e736665722057455448206261636b20746f2060008301527f666c6173686c656e6465722e00000000000000000000000000000000000000006020830152604082019050919050565b6000616636604d83617750565b91507f4661696c656420746f20726570617920556e697377617020666c6173686c6f6160008301527f6e207769746820574554482065786368616e6765642066726f6d207365697a6560208301527f6420636f6c6c61746572616c2e000000000000000000000000000000000000006040830152606082019050919050565b60006166c2602083617761565b91507f96e8ac4277198ff8b6f785478aa9a39f403cb768dd02cbee326c3e7da348845f6000830152602082019050919050565b6000616702602483617750565b91507f526570617920616d6f756e74206d75737420626520677265617465722074686160008301527f6e20302e000000000000000000000000000000000000000000000000000000006020830152604082019050919050565b6000616768601883617750565b91507f536166654d6174683a206d6f64756c6f206279207a65726f00000000000000006000830152602082019050919050565b60006167a8601e83617750565b91507f556e697377617056324c6962726172793a20494e56414c49445f5041544800006000830152602082019050919050565b60006167e8602883617750565b91507f556e697377617056324c6962726172793a20494e53554646494349454e545f4c60008301527f49515549444954590000000000000000000000000000000000000000000000006020830152604082019050919050565b600061684e600183617761565b91507fff000000000000000000000000000000000000000000000000000000000000006000830152600182019050919050565b600061688e602183617750565b91507f536166654d6174683a206d756c7469706c69636174696f6e206f766572666c6f60008301527f77000000000000000000000000000000000000000000000000000000000000006020830152604082019050919050565b60006168f4603783617750565b91507f4661696c656420746f207472616e73666572206e6f6e2d5745544820746f6b6560008301527f6e73206261636b20746f20666c6173686c656e6465722e0000000000000000006020830152604082019050919050565b600061695a603883617750565b91507f526570617920616d6f756e7420287472616e73616374696f6e2076616c75652960008301527f206d7573742062652067726561746572207468616e20302e00000000000000006020830152604082019050919050565b60006169c0604483617750565b91507f4e6f7420656e6f75676820574554482065786368616e6765642066726f6d207360008301527f65697a656420636f6c6c61746572616c20746f20726570617920666c6173686c60208301527f6f616e2e000000000000000000000000000000000000000000000000000000006040830152606082019050919050565b6000616a4c604083617750565b91507f4572726f722063616c6c696e672072656465656d696e67207365697a6564206360008301527f546f6b656e3a206572726f7220636f6465206e6f7420657175616c20746f20306020830152604082019050919050565b6000616ab2602683617750565b91507f416464726573733a2064656c65676174652063616c6c20746f206e6f6e2d636f60008301527f6e747261637400000000000000000000000000000000000000000000000000006020830152604082019050919050565b6000616b18602c83617750565b91507f4661696c656420746f207472616e73666572206f75747075742045544820746f60008301527f206d73672e73656e6465722e00000000000000000000000000000000000000006020830152604082019050919050565b6000616b7e600083617745565b9150600082019050919050565b6000616b98601d83617750565b91507f416464726573733a2063616c6c20746f206e6f6e2d636f6e74726163740000006000830152602082019050919050565b6000616bd8601e83617750565b91507f556e697377617056324c6962726172793a205a45524f5f4144445245535300006000830152602082019050919050565b6000616c18602883617750565b91507f4d696e696d756d20455448206f757470757420616d6f756e74206e6f7420736160008301527f746973666965642e0000000000000000000000000000000000000000000000006020830152604082019050919050565b6000616c7e602a83617750565b91507f5361666545524332303a204552433230206f7065726174696f6e20646964206e60008301527f6f742073756363656564000000000000000000000000000000000000000000006020830152604082019050919050565b6000616ce4603683617750565b91507f5361666545524332303a20617070726f76652066726f6d206e6f6e2d7a65726f60008301527f20746f206e6f6e2d7a65726f20616c6c6f77616e6365000000000000000000006020830152604082019050919050565b6000616d4a605b83617750565b91507f49526564656d7074696f6e537472617465677920636f6e74726163742061727260008301527f617920616e64207374726174656779206461746120627974657320617272617960208301527f206d6e75737420746865207468652073616d65206c656e6774682e00000000006040830152606082019050919050565b616dd28161787f565b82525050565b6000616de48285615ed8565b601482019150616df48284615ed8565b6014820191508190509392505050565b6000616e108284615fca565b915081905092915050565b6000616e2682616841565b9150616e328285615ed8565b601482019150616e428284615f4d565b602082019150616e51826166b5565b91508190509392505050565b6000616e6882616b71565b9150819050919050565b6000602082019050616e876000830184615eab565b92915050565b6000604082019050616ea26000830185615eab565b616eaf6020830184615ec9565b9392505050565b6000604082019050616ecb6000830185615eab565b616ed86020830184616dc9565b9392505050565b6000604082019050616ef46000830185615ec9565b616f016020830184615ec9565b9392505050565b6000606082019050616f1d6000830186615ec9565b616f2a6020830185615ec9565b616f376040830184616dc9565b949350505050565b6000604082019050616f546000830185615ec9565b616f616020830184615ffb565b9392505050565b6000604082019050616f7d6000830185615ec9565b616f8a6020830184616dc9565b9392505050565b6000606082019050616fa66000830186615ec9565b616fb36020830185616dc9565b616fc06040830184615ffb565b949350505050565b6000604082019050616fdd600083018561600a565b616fea6020830184616dc9565b9392505050565b6000606082019050617006600083018661600a565b6170136020830185616dc9565b81810360408301526170258184615f91565b9050949350505050565b6000608082019050617044600083018761600a565b6170516020830186616dc9565b61705e6040830185616019565b81810360608301526170708184615f91565b905095945050505050565b600060208201905081810360008301526170958184616028565b905092915050565b600060208201905081810360008301526170b681616061565b9050919050565b600060208201905081810360008301526170d6816160c7565b9050919050565b600060208201905081810360008301526170f681616107565b9050919050565b600060208201905081810360008301526171168161616d565b9050919050565b60006020820190508181036000830152617136816161f9565b9050919050565b6000602082019050818103600083015261715681616285565b9050919050565b60006020820190508181036000830152617176816162c5565b9050919050565b600060208201905081810360008301526171968161632b565b9050919050565b600060208201905081810360008301526171b681616391565b9050919050565b600060208201905081810360008301526171d6816163d1565b9050919050565b600060208201905081810360008301526171f681616411565b9050919050565b6000602082019050818103600083015261721681616451565b9050919050565b60006020820190508181036000830152617236816164b7565b9050919050565b600060208201905081810360008301526172568161651d565b9050919050565b6000602082019050818103600083015261727681616583565b9050919050565b60006020820190508181036000830152617296816165c3565b9050919050565b600060208201905081810360008301526172b681616629565b9050919050565b600060208201905081810360008301526172d6816166f5565b9050919050565b600060208201905081810360008301526172f68161675b565b9050919050565b600060208201905081810360008301526173168161679b565b9050919050565b60006020820190508181036000830152617336816167db565b9050919050565b6000602082019050818103600083015261735681616881565b9050919050565b60006020820190508181036000830152617376816168e7565b9050919050565b600060208201905081810360008301526173968161694d565b9050919050565b600060208201905081810360008301526173b6816169b3565b9050919050565b600060208201905081810360008301526173d681616a3f565b9050919050565b600060208201905081810360008301526173f681616aa5565b9050919050565b6000602082019050818103600083015261741681616b0b565b9050919050565b6000602082019050818103600083015261743681616b8b565b9050919050565b6000602082019050818103600083015261745681616bcb565b9050919050565b6000602082019050818103600083015261747681616c0b565b9050919050565b6000602082019050818103600083015261749681616c71565b9050919050565b600060208201905081810360008301526174b681616cd7565b9050919050565b600060208201905081810360008301526174d681616d3d565b9050919050565b60006020820190506174f26000830184616dc9565b92915050565b600060808201905061750d6000830187616dc9565b818103602083015261751f8186615eef565b905061752e6040830185615eab565b61753b6060830184616dc9565b95945050505050565b60006080820190506175596000830188616dc9565b6175666020830187616dc9565b6175736040830186615eab565b8181036060830152617586818486615f64565b90509695505050505050565b600060a0820190506175a76000830188616dc9565b6175b46020830187616dc9565b81810360408301526175c68186615eef565b90506175d56060830185615eab565b6175e26080830184616dc9565b9695505050505050565b6000604051905081810181811067ffffffffffffffff8211171561760f57600080fd5b8060405250919050565b600067ffffffffffffffff82111561763057600080fd5b602082029050602081019050919050565b600067ffffffffffffffff82111561765857600080fd5b602082029050602081019050919050565b600067ffffffffffffffff82111561768057600080fd5b602082029050602081019050919050565b600067ffffffffffffffff8211156176a857600080fd5b602082029050602081019050919050565b600067ffffffffffffffff8211156176d057600080fd5b601f19601f8301169050602081019050919050565b6000819050602082019050919050565b600081519050919050565b600081519050919050565b600081519050919050565b6000602082019050919050565b600082825260208201905092915050565b600082825260208201905092915050565b600081905092915050565b600082825260208201905092915050565b600081905092915050565b6000808585111561777c57600080fd5b8386111561778957600080fd5b6001850283019150848603905094509492505050565b60006177aa8261785f565b9050919050565b60006177bc8261785f565b9050919050565b60008115159050919050565b6000819050919050565b60006177e48261779f565b9050919050565b60006177f68261779f565b9050919050565b60006178088261779f565b9050919050565b600061781a8261779f565b9050919050565b600061782c8261779f565b9050919050565b600061783e8261779f565b9050919050565b60006dffffffffffffffffffffffffffff82169050919050565b600073ffffffffffffffffffffffffffffffffffffffff82169050919050565b6000819050919050565b600063ffffffff82169050919050565b60006178a482617917565b9050919050565b60006178b6826178bd565b9050919050565b60006178c88261785f565b9050919050565b60006178da826178e1565b9050919050565b60006178ec8261785f565b9050919050565b60006178fe82617905565b9050919050565b60006179108261785f565b9050919050565b600061792282617929565b9050919050565b60006179348261785f565b9050919050565b82818337600083830152505050565b60005b8381101561796857808201518184015260208101905061794d565b83811115617977576000848401525b50505050565b600061798882617999565b9050919050565b6000819050919050565b60006179a4826179bc565b9050919050565b6000601f19601f8301169050919050565b60008160601b9050919050565b6179d28161779f565b81146179dd57600080fd5b50565b6179e9816177b1565b81146179f457600080fd5b50565b617a00816177c3565b8114617a0b57600080fd5b50565b617a17816177d9565b8114617a2257600080fd5b50565b617a2e816177eb565b8114617a3957600080fd5b50565b617a45816177fd565b8114617a5057600080fd5b50565b617a5c8161780f565b8114617a6757600080fd5b50565b617a7381617821565b8114617a7e57600080fd5b50565b617a8a81617833565b8114617a9557600080fd5b50565b617aa181617845565b8114617aac57600080fd5b50565b617ab88161787f565b8114617ac357600080fd5b50565b617acf81617889565b8114617ada57600080fd5b5056fe416464726573733a206c6f772d6c6576656c2064656c65676174652063616c6c206661696c6564a2646970667358221220329d2aee8ce0d4de090cad9d97038b284b914da2e90eae7f1b80ef06069c9e3e64736f6c634300060c0033",
  "linkReferences": {},
  "deployedLinkReferences": {}
}