{
  "_format": "hh-sol-artifact-1",
  "contractName": "MStablePriceOracle",
  "sourceName": "contracts/oracles/MStablePriceOracle.sol",
  "abi": [
    {
      "inputs": [],
      "name": "IMBTC",
      "outputs": [
        {
          "internalType": "contract ISavingsContractV2",
          "name": "",
          "type": "address"
        }
      ],
      "stateMutability": "view",
      "type": "function"
    },
    {
      "inputs": [],
      "name": "IMUSD",
      "outputs": [
        {
          "internalType": "contract ISavingsContractV2",
          "name": "",
          "type": "address"
        }
      ],
      "stateMutability": "view",
      "type": "function"
    },
    {
      "inputs": [],
      "name": "MBTC",
      "outputs": [
        {
          "internalType": "contract IMasset",
          "name": "",
          "type": "address"
        }
      ],
      "stateMutability": "view",
      "type": "function"
    },
    {
      "inputs": [],
      "name": "MUSD",
      "outputs": [
        {
          "internalType": "contract IMasset",
          "name": "",
          "type": "address"
        }
      ],
      "stateMutability": "view",
      "type": "function"
    },
    {
      "inputs": [
        {
          "internalType": "contract CToken",
          "name": "cToken",
          "type": "address"
        }
      ],
      "name": "getUnderlyingPrice",
      "outputs": [
        {
          "internalType": "uint256",
          "name": "",
          "type": "uint256"
        }
      ],
      "stateMutability": "view",
      "type": "function"
    },
    {
      "inputs": [
        {
          "internalType": "address",
          "name": "underlying",
          "type": "address"
        }
      ],
      "name": "price",
      "outputs": [
        {
          "internalType": "uint256",
          "name": "",
          "type": "uint256"
        }
      ],
      "stateMutability": "view",
      "type": "function"
    }
  ],
  "bytecode": "0x608060405234801561001057600080fd5b50611240806100206000396000f3fe608060405234801561001057600080fd5b50600436106100625760003560e01c806343a82621146100675780635685c38714610085578063aea91078146100a3578063cb5690e5146100d3578063f35d2ab6146100f1578063fc57d4df1461010f575b600080fd5b61006f61013f565b60405161007c9190610f46565b60405180910390f35b61008d610157565b60405161009a9190610f61565b60405180910390f35b6100bd60048036038101906100b89190610c6a565b61016f565b6040516100ca9190610ffc565b60405180910390f35b6100db610181565b6040516100e89190610f46565b60405180910390f35b6100f9610199565b6040516101069190610f61565b60405180910390f35b61012960048036038101906101249190610d28565b6101b1565b6040516101369190610ffc565b60405180910390f35b73e2f2a5c287993345a840db3b0845fbc70f5935a581565b7317d8cbb6bce8cee970a4027d1198f6700a7a6c2481565b600061017a826102f4565b9050919050565b73945facb997494cc2570096c74b5f66a3507330a181565b7330647a72dc82d7fbb1123ea74716ab8a317eac1981565b6000808273ffffffffffffffffffffffffffffffffffffffff16636f307dc36040518163ffffffff1660e01b815260040160206040518083038186803b1580156101fa57600080fd5b505afa15801561020e573d6000803e3d6000fd5b505050506040513d601f19601f820116820180604052508101906102329190610c93565b90506102ec8173ffffffffffffffffffffffffffffffffffffffff1663313ce5676040518163ffffffff1660e01b815260040160206040518083038186803b15801561027d57600080fd5b505afa158015610291573d6000803e3d6000fd5b505050506040513d601f19601f820116820180604052508101906102b59190610d7a565b60ff16600a0a6102de670de0b6b3a76400006102d0856102f4565b61066090919063ffffffff16565b6106d090919063ffffffff16565b915050919050565b600073e2f2a5c287993345a840db3b0845fbc70f5935a573ffffffffffffffffffffffffffffffffffffffff168273ffffffffffffffffffffffffffffffffffffffff1614156103625761035b73e2f2a5c287993345a840db3b0845fbc70f5935a5610726565b905061065b565b7330647a72dc82d7fbb1123ea74716ab8a317eac1973ffffffffffffffffffffffffffffffffffffffff168273ffffffffffffffffffffffffffffffffffffffff16141561048b57610484670de0b6b3a76400006104766103d673e2f2a5c287993345a840db3b0845fbc70f5935a5610726565b7330647a72dc82d7fbb1123ea74716ab8a317eac1973ffffffffffffffffffffffffffffffffffffffff16633ba0b9a96040518163ffffffff1660e01b815260040160206040518083038186803b15801561043057600080fd5b505afa158015610444573d6000803e3d6000fd5b505050506040513d601f19601f820116820180604052508101906104689190610d51565b61066090919063ffffffff16565b6106d090919063ffffffff16565b905061065b565b73945facb997494cc2570096c74b5f66a3507330a173ffffffffffffffffffffffffffffffffffffffff168273ffffffffffffffffffffffffffffffffffffffff1614156104f7576104f073945facb997494cc2570096c74b5f66a3507330a1610726565b905061065b565b7317d8cbb6bce8cee970a4027d1198f6700a7a6c2473ffffffffffffffffffffffffffffffffffffffff168273ffffffffffffffffffffffffffffffffffffffff16141561062057610619670de0b6b3a764000061060b61056b73945facb997494cc2570096c74b5f66a3507330a1610726565b7317d8cbb6bce8cee970a4027d1198f6700a7a6c2473ffffffffffffffffffffffffffffffffffffffff16633ba0b9a96040518163ffffffff1660e01b815260040160206040518083038186803b1580156105c557600080fd5b505afa1580156105d9573d6000803e3d6000fd5b505050506040513d601f19601f820116820180604052508101906105fd9190610d51565b61066090919063ffffffff16565b6106d090919063ffffffff16565b905061065b565b6040517f08c379a000000000000000000000000000000000000000000000000000000000815260040161065290610f9c565b60405180910390fd5b919050565b60008083141561067357600090506106ca565b600082840290508284828161068457fe5b04146106c5576040517f08c379a00000000000000000000000000000000000000000000000000000000081526004016106bc90610fdc565b60405180910390fd5b809150505b92915050565b6000808211610714576040517f08c379a000000000000000000000000000000000000000000000000000000000815260040161070b90610fbc565b60405180910390fd5b81838161071d57fe5b04905092915050565b60006060808373ffffffffffffffffffffffffffffffffffffffff16631d3ce3986040518163ffffffff1660e01b815260040160006040518083038186803b15801561077157600080fd5b505afa158015610785573d6000803e3d6000fd5b505050506040513d6000823e3d601f19601f820116820180604052508101906107ae9190610cbc565b915091506000805b825181101561090c576108fd6108ee3373ffffffffffffffffffffffffffffffffffffffff1663aea910788785815181106107ed57fe5b6020026020010151600001516040518263ffffffff1660e01b81526004016108159190610f2b565b60206040518083038186803b15801561082d57600080fd5b505afa158015610841573d6000803e3d6000fd5b505050506040513d601f19601f820116820180604052508101906108659190610d51565b6108e06305f5e1006108d288878151811061087c57fe5b6020026020010151600001516fffffffffffffffffffffffffffffffff168988815181106108a657fe5b6020026020010151602001516fffffffffffffffffffffffffffffffff1661066090919063ffffffff16565b6106d090919063ffffffff16565b61066090919063ffffffff16565b836109a790919063ffffffff16565b915080806001019150506107b6565b5061099d8573ffffffffffffffffffffffffffffffffffffffff166318160ddd6040518163ffffffff1660e01b815260040160206040518083038186803b15801561095657600080fd5b505afa15801561096a573d6000803e3d6000fd5b505050506040513d601f19601f8201168201806040525081019061098e9190610d51565b826106d090919063ffffffff16565b9350505050919050565b6000808284019050838110156109f2576040517f08c379a00000000000000000000000000000000000000000000000000000000081526004016109e990610f7c565b60405180910390fd5b8091505092915050565b600081359050610a0b81611170565b92915050565b600081519050610a2081611170565b92915050565b600082601f830112610a3757600080fd5b8151610a4a610a4582611044565b611017565b91508181835260208401935060208101905083856040840282011115610a6f57600080fd5b60005b83811015610a9f5781610a858882610b6b565b845260208401935060408301925050600181019050610a72565b5050505092915050565b600082601f830112610aba57600080fd5b8151610acd610ac88261106c565b611017565b91508181835260208401935060208101905083856080840282011115610af257600080fd5b60005b83811015610b225781610b088882610bb7565b845260208401935060808301925050600181019050610af5565b5050505092915050565b600081519050610b3b81611187565b92915050565b600081359050610b508161119e565b92915050565b600081519050610b65816111b5565b92915050565b600060408284031215610b7d57600080fd5b610b876040611017565b90506000610b9784828501610c2b565b6000830152506020610bab84828501610c2b565b60208301525092915050565b600060808284031215610bc957600080fd5b610bd36080611017565b90506000610be384828501610a11565b6000830152506020610bf784828501610a11565b6020830152506040610c0b84828501610b2c565b6040830152506060610c1f84828501610b56565b60608301525092915050565b600081519050610c3a816111c5565b92915050565b600081519050610c4f816111dc565b92915050565b600081519050610c64816111f3565b92915050565b600060208284031215610c7c57600080fd5b6000610c8a848285016109fc565b91505092915050565b600060208284031215610ca557600080fd5b6000610cb384828501610a11565b91505092915050565b60008060408385031215610ccf57600080fd5b600083015167ffffffffffffffff811115610ce957600080fd5b610cf585828601610aa9565b925050602083015167ffffffffffffffff811115610d1257600080fd5b610d1e85828601610a26565b9150509250929050565b600060208284031215610d3a57600080fd5b6000610d4884828501610b41565b91505092915050565b600060208284031215610d6357600080fd5b6000610d7184828501610c40565b91505092915050565b600060208284031215610d8c57600080fd5b6000610d9a84828501610c55565b91505092915050565b610dac816110a5565b82525050565b610dbb81611128565b82525050565b610dca8161114c565b82525050565b6000610ddd601b83611094565b91507f536166654d6174683a206164646974696f6e206f766572666c6f7700000000006000830152602082019050919050565b6000610e1d602b83611094565b91507f496e76616c696420746f6b656e2070617373656420746f204d537461626c655060008301527f726963654f7261636c652e0000000000000000000000000000000000000000006020830152604082019050919050565b6000610e83601a83611094565b91507f536166654d6174683a206469766973696f6e206279207a65726f0000000000006000830152602082019050919050565b6000610ec3602183611094565b91507f536166654d6174683a206d756c7469706c69636174696f6e206f766572666c6f60008301527f77000000000000000000000000000000000000000000000000000000000000006020830152604082019050919050565b610f2581611111565b82525050565b6000602082019050610f406000830184610da3565b92915050565b6000602082019050610f5b6000830184610db2565b92915050565b6000602082019050610f766000830184610dc1565b92915050565b60006020820190508181036000830152610f9581610dd0565b9050919050565b60006020820190508181036000830152610fb581610e10565b9050919050565b60006020820190508181036000830152610fd581610e76565b9050919050565b60006020820190508181036000830152610ff581610eb6565b9050919050565b60006020820190506110116000830184610f1c565b92915050565b6000604051905081810181811067ffffffffffffffff8211171561103a57600080fd5b8060405250919050565b600067ffffffffffffffff82111561105b57600080fd5b602082029050602081019050919050565b600067ffffffffffffffff82111561108357600080fd5b602082029050602081019050919050565b600082825260208201905092915050565b60006110b0826110f1565b9050919050565b60008115159050919050565b60006110ce826110a5565b9050919050565b60006fffffffffffffffffffffffffffffffff82169050919050565b600073ffffffffffffffffffffffffffffffffffffffff82169050919050565b6000819050919050565b600060ff82169050919050565b60006111338261113a565b9050919050565b6000611145826110f1565b9050919050565b60006111578261115e565b9050919050565b6000611169826110f1565b9050919050565b611179816110a5565b811461118457600080fd5b50565b611190816110b7565b811461119b57600080fd5b50565b6111a7816110c3565b81146111b257600080fd5b50565b600881106111c257600080fd5b50565b6111ce816110d5565b81146111d957600080fd5b50565b6111e581611111565b81146111f057600080fd5b50565b6111fc8161111b565b811461120757600080fd5b5056fea26469706673582212201fd411d9ed3fe18d23b369ca411c5e06d67ff5ad6839e15ba74657b5d5726d8d64736f6c634300060c0033",
  "linkReferences": {},
  "deployedLinkReferences": {}
}