{
  "_format": "hh-sol-artifact-1",
  "contractName": "FusePoolLensSecondary",
  "sourceName": "contracts/FusePoolLensSecondary.sol",
  "abi": [
    {
      "inputs": [],
      "name": "directory",
      "outputs": [
        {
          "internalType": "contract FusePoolDirectory",
          "name": "",
          "type": "address"
        }
      ],
      "stateMutability": "view",
      "type": "function"
    },
    {
      "inputs": [
        {
          "internalType": "address",
          "name": "account",
          "type": "address"
        },
        {
          "internalType": "contract CToken",
          "name": "cTokenModify",
          "type": "address"
        }
      ],
      "name": "getMaxBorrow",
      "outputs": [
        {
          "internalType": "uint256",
          "name": "",
          "type": "uint256"
        }
      ],
      "stateMutability": "nonpayable",
      "type": "function"
    },
    {
      "inputs": [
        {
          "internalType": "address",
          "name": "account",
          "type": "address"
        },
        {
          "internalType": "contract CToken",
          "name": "cTokenModify",
          "type": "address"
        }
      ],
      "name": "getMaxRedeem",
      "outputs": [
        {
          "internalType": "uint256",
          "name": "",
          "type": "uint256"
        }
      ],
      "stateMutability": "nonpayable",
      "type": "function"
    },
    {
      "inputs": [
        {
          "internalType": "contract Comptroller",
          "name": "comptroller",
          "type": "address"
        }
      ],
      "name": "getPoolOwnership",
      "outputs": [
        {
          "internalType": "address",
          "name": "",
          "type": "address"
        },
        {
          "internalType": "bool",
          "name": "",
          "type": "bool"
        },
        {
          "internalType": "bool",
          "name": "",
          "type": "bool"
        },
        {
          "components": [
            {
              "internalType": "address",
              "name": "cToken",
              "type": "address"
            },
            {
              "internalType": "address",
              "name": "admin",
              "type": "address"
            },
            {
              "internalType": "bool",
              "name": "adminHasRights",
              "type": "bool"
            },
            {
              "internalType": "bool",
              "name": "fuseAdminHasRights",
              "type": "bool"
            }
          ],
          "internalType": "struct FusePoolLensSecondary.CTokenOwnership[]",
          "name": "",
          "type": "tuple[]"
        }
      ],
      "stateMutability": "view",
      "type": "function"
    },
    {
      "inputs": [
        {
          "internalType": "contract Comptroller",
          "name": "comptroller",
          "type": "address"
        }
      ],
      "name": "getRewardSpeedsByPool",
      "outputs": [
        {
          "internalType": "contract CToken[]",
          "name": "",
          "type": "address[]"
        },
        {
          "internalType": "contract RewardsDistributor[]",
          "name": "",
          "type": "address[]"
        },
        {
          "internalType": "address[]",
          "name": "",
          "type": "address[]"
        },
        {
          "internalType": "uint256[][]",
          "name": "",
          "type": "uint256[][]"
        },
        {
          "internalType": "uint256[][]",
          "name": "",
          "type": "uint256[][]"
        }
      ],
      "stateMutability": "view",
      "type": "function"
    },
    {
      "inputs": [
        {
          "internalType": "contract Comptroller[]",
          "name": "comptrollers",
          "type": "address[]"
        }
      ],
      "name": "getRewardSpeedsByPools",
      "outputs": [
        {
          "internalType": "contract CToken[][]",
          "name": "",
          "type": "address[][]"
        },
        {
          "internalType": "contract RewardsDistributor[][]",
          "name": "",
          "type": "address[][]"
        },
        {
          "internalType": "address[][]",
          "name": "",
          "type": "address[][]"
        },
        {
          "internalType": "uint256[][][]",
          "name": "",
          "type": "uint256[][][]"
        },
        {
          "internalType": "uint256[][][]",
          "name": "",
          "type": "uint256[][][]"
        }
      ],
      "stateMutability": "view",
      "type": "function"
    },
    {
      "inputs": [
        {
          "internalType": "address",
          "name": "supplier",
          "type": "address"
        }
      ],
      "name": "getRewardsDistributorsBySupplier",
      "outputs": [
        {
          "internalType": "uint256[]",
          "name": "",
          "type": "uint256[]"
        },
        {
          "internalType": "contract Comptroller[]",
          "name": "",
          "type": "address[]"
        },
        {
          "internalType": "contract RewardsDistributor[][]",
          "name": "",
          "type": "address[][]"
        }
      ],
      "stateMutability": "view",
      "type": "function"
    },
    {
      "inputs": [
        {
          "internalType": "address",
          "name": "holder",
          "type": "address"
        },
        {
          "internalType": "contract RewardsDistributor[]",
          "name": "distributors",
          "type": "address[]"
        }
      ],
      "name": "getUnclaimedRewardsByDistributors",
      "outputs": [
        {
          "internalType": "address[]",
          "name": "",
          "type": "address[]"
        },
        {
          "internalType": "uint256[]",
          "name": "",
          "type": "uint256[]"
        },
        {
          "internalType": "contract CToken[][]",
          "name": "",
          "type": "address[][]"
        },
        {
          "internalType": "uint256[2][][]",
          "name": "",
          "type": "uint256[2][][]"
        },
        {
          "internalType": "uint256[]",
          "name": "",
          "type": "uint256[]"
        }
      ],
      "stateMutability": "nonpayable",
      "type": "function"
    },
    {
      "inputs": [
        {
          "internalType": "contract FusePoolDirectory",
          "name": "_directory",
          "type": "address"
        }
      ],
      "name": "initialize",
      "outputs": [],
      "stateMutability": "nonpayable",
      "type": "function"
    }
  ],
  "bytecode": "0x608060405234801561001057600080fd5b50614807806100206000396000f3fe608060405234801561001057600080fd5b50600436106100935760003560e01c806384b3403d1161006657806384b3403d1461016057806397f35ff014610194578063c41c2f24146101c7578063c4d66de8146101e5578063d24eaf131461020157610093565b80631ec18ec014610098578063338038fa146100c85780633fc5fab5146100fc5780636412904214610130575b600080fd5b6100b260048036038101906100ad9190612f3f565b610233565b6040516100bf9190614169565b60405180910390f35b6100e260048036038101906100dd9190612eeb565b610249565b6040516100f3959493929190613ea5565b60405180910390f35b61011660048036038101906101119190612fbc565b61082d565b604051610127959493929190613f1b565b60405180910390f35b61014a60048036038101906101459190612f3f565b610a8f565b6040516101579190614169565b60405180910390f35b61017a600480360381019061017591906130e4565b610aa5565b60405161018b959493929190613f91565b60405180910390f35b6101ae60048036038101906101a991906130e4565b611091565b6040516101be9493929190613e59565b60405180910390f35b6101cf6118f3565b6040516101dc919061406e565b60405180910390f35b6101ff60048036038101906101fa919061310d565b611919565b005b61021b60048036038101906102169190612e99565b611ab3565b60405161022a93929190614007565b60405180910390f35b600061024183836001611efd565b905092915050565b606080606080606080865167ffffffffffffffff8111801561026a57600080fd5b506040519080825280602002602001820160405280156102995781602001602082028036833780820191505090505b5090506060875167ffffffffffffffff811180156102b657600080fd5b506040519080825280602002602001820160405280156102e55781602001602082028036833780820191505090505b5090506060885167ffffffffffffffff8111801561030257600080fd5b5060405190808252806020026020018201604052801561033657816020015b60608152602001906001900390816103215790505b5090506060895167ffffffffffffffff8111801561035357600080fd5b5060405190808252806020026020018201604052801561038757816020015b60608152602001906001900390816103725790505b50905060608a5167ffffffffffffffff811180156103a457600080fd5b506040519080825280602002602001820160405280156103d35781602001602082028036833780820191505090505b50905060005b8b5181101561080e5760008c82815181106103f057fe5b602002602001015190508073ffffffffffffffffffffffffffffffffffffffff1663f7c618c16040518163ffffffff1660e01b815260040160206040518083038186803b15801561044057600080fd5b505afa158015610454573d6000803e3d6000fd5b505050506040513d601f19601f820116820180604052508101906104789190612ec2565b87838151811061048457fe5b602002602001019073ffffffffffffffffffffffffffffffffffffffff16908173ffffffffffffffffffffffffffffffffffffffff16815250508073ffffffffffffffffffffffffffffffffffffffff1663b0772d0b6040518163ffffffff1660e01b815260040160006040518083038186803b15801561050457600080fd5b505afa158015610518573d6000803e3d6000fd5b505050506040513d6000823e3d601f19601f820116820180604052508101906105419190612f7b565b85838151811061054d57fe5b602002602001018190525084828151811061056457fe5b60200260200101515167ffffffffffffffff8111801561058357600080fd5b506040519080825280602002602001820160405280156105bd57816020015b6105aa6129c4565b8152602001906001900390816105a25790505b508483815181106105ca57fe5b602002602001018190525060005b8583815181106105e457fe5b6020026020010151518110156106aa576106258f8388868151811061060557fe5b6020026020010151848151811061061857fe5b6020026020010151612269565b86858151811061063157fe5b6020026020010151838151811061064457fe5b602002602001015160006002811061065857fe5b6020020187868151811061066857fe5b6020026020010151848151811061067b57fe5b602002602001015160016002811061068f57fe5b602002018281525082815250505080806001019150506105d8565b508073ffffffffffffffffffffffffffffffffffffffff1663cc7ebdc48f6040518263ffffffff1660e01b81526004016106e49190613dec565b60206040518083038186803b1580156106fc57600080fd5b505afa158015610710573d6000803e3d6000fd5b505050506040513d601f19601f82011682018060405250810190610734919061315f565b86838151811061074057fe5b60200260200101818152505086828151811061075857fe5b602002602001015173ffffffffffffffffffffffffffffffffffffffff166370a08231826040518263ffffffff1660e01b81526004016107989190613dec565b60206040518083038186803b1580156107b057600080fd5b505afa1580156107c4573d6000803e3d6000fd5b505050506040513d601f19601f820116820180604052508101906107e8919061315f565b8383815181106107f457fe5b6020026020010181815250505080806001019150506103d9565b5084848484849950995099509950995050505050509295509295909350565b606080606080606080865167ffffffffffffffff8111801561084e57600080fd5b5060405190808252806020026020018201604052801561088257816020015b606081526020019060019003908161086d5790505b5090506060875167ffffffffffffffff8111801561089f57600080fd5b506040519080825280602002602001820160405280156108d357816020015b60608152602001906001900390816108be5790505b5090506060885167ffffffffffffffff811180156108f057600080fd5b5060405190808252806020026020018201604052801561092457816020015b606081526020019060019003908161090f5790505b5090506060895167ffffffffffffffff8111801561094157600080fd5b5060405190808252806020026020018201604052801561097557816020015b60608152602001906001900390816109605790505b50905060608a5167ffffffffffffffff8111801561099257600080fd5b506040519080825280602002602001820160405280156109c657816020015b60608152602001906001900390816109b15790505b50905060005b8b51811015610a71576109f18c82815181106109e457fe5b6020026020010151610aa5565b8a86815181106109fd57fe5b602002602001018a8781518110610a1057fe5b602002602001018a8881518110610a2357fe5b602002602001018a8981518110610a3657fe5b602002602001018a8a81518110610a4957fe5b60200260200101859052859052859052859052859052505050505080806001019150506109cc565b50848484848499509950995099509950505050505091939590929450565b6000610a9d83836000611efd565b905092915050565b6060806060806060808673ffffffffffffffffffffffffffffffffffffffff1663b0772d0b6040518163ffffffff1660e01b815260040160006040518083038186803b158015610af457600080fd5b505afa158015610b08573d6000803e3d6000fd5b505050506040513d6000823e3d601f19601f82011682018060405250810190610b319190612f7b565b905060608773ffffffffffffffffffffffffffffffffffffffff16633605b51b6040518163ffffffff1660e01b815260040160006040518083038186803b158015610b7b57600080fd5b505afa925050508015610bb157506040513d6000823e3d601f19601f82011682018060405250810190610bae9190612ffd565b60015b610c0457600067ffffffffffffffff81118015610bcd57600080fd5b50604051908082528060200260200182016040528015610bfc5781602001602082028036833780820191505090505b509050610c09565b809150505b6060815167ffffffffffffffff81118015610c2357600080fd5b50604051908082528060200260200182016040528015610c525781602001602082028036833780820191505090505b5090506060835167ffffffffffffffff81118015610c6f57600080fd5b50604051908082528060200260200182016040528015610ca357816020015b6060815260200190600190039081610c8e5790505b5090506060845167ffffffffffffffff81118015610cc057600080fd5b50604051908082528060200260200182016040528015610cf457816020015b6060815260200190600190039081610cdf5790505b50905060005b8451811015610de757848181518110610d0f57fe5b602002602001015173ffffffffffffffffffffffffffffffffffffffff1663f7c618c16040518163ffffffff1660e01b815260040160206040518083038186803b158015610d5c57600080fd5b505afa158015610d70573d6000803e3d6000fd5b505050506040513d601f19601f82011682018060405250810190610d949190612ec2565b848281518110610da057fe5b602002602001019073ffffffffffffffffffffffffffffffffffffffff16908173ffffffffffffffffffffffffffffffffffffffff16815250508080600101915050610cfa565b5060005b8551811015611073576000868281518110610e0257fe5b60200260200101519050855167ffffffffffffffff81118015610e2457600080fd5b50604051908082528060200260200182016040528015610e535781602001602082028036833780820191505090505b50848381518110610e6057fe5b6020026020010181905250855167ffffffffffffffff81118015610e8357600080fd5b50604051908082528060200260200182016040528015610eb25781602001602082028036833780820191505090505b50838381518110610ebf57fe5b602002602001018190525060005b8651811015611064576000878281518110610ee457fe5b602002602001015190508073ffffffffffffffffffffffffffffffffffffffff16636aa875b5846040518263ffffffff1660e01b8152600401610f279190613dec565b60206040518083038186803b158015610f3f57600080fd5b505afa158015610f53573d6000803e3d6000fd5b505050506040513d601f19601f82011682018060405250810190610f77919061315f565b868581518110610f8357fe5b60200260200101518381518110610f9657fe5b6020026020010181815250508073ffffffffffffffffffffffffffffffffffffffff1663f4a433c0846040518263ffffffff1660e01b8152600401610fdb9190613dec565b60206040518083038186803b158015610ff357600080fd5b505afa158015611007573d6000803e3d6000fd5b505050506040513d601f19601f8201168201806040525081019061102b919061315f565b85858151811061103757fe5b6020026020010151838151811061104a57fe5b602002602001018181525050508080600101915050610ecd565b50508080600101915050610deb565b50848484848499509950995099509950505050505091939590929450565b6000806000606060008573ffffffffffffffffffffffffffffffffffffffff1663f851a4406040518163ffffffff1660e01b815260040160206040518083038186803b1580156110e057600080fd5b505afa1580156110f4573d6000803e3d6000fd5b505050506040513d601f19601f820116820180604052508101906111189190612ec2565b905060008673ffffffffffffffffffffffffffffffffffffffff16630a755ec26040518163ffffffff1660e01b815260040160206040518083038186803b15801561116257600080fd5b505afa158015611176573d6000803e3d6000fd5b505050506040513d601f19601f8201168201806040525081019061119a919061307f565b905060008773ffffffffffffffffffffffffffffffffffffffff16632f1069ba6040518163ffffffff1660e01b815260040160206040518083038186803b1580156111e457600080fd5b505afa1580156111f8573d6000803e3d6000fd5b505050506040513d601f19601f8201168201806040525081019061121c919061307f565b905060608873ffffffffffffffffffffffffffffffffffffffff1663b0772d0b6040518163ffffffff1660e01b815260040160006040518083038186803b15801561126657600080fd5b505afa15801561127a573d6000803e3d6000fd5b505050506040513d6000823e3d601f19601f820116820180604052508101906112a39190612f7b565b90506000805b825181101561155f5760008382815181106112c057fe5b6020026020010151905060008c73ffffffffffffffffffffffffffffffffffffffff16638e8f294b836040518263ffffffff1660e01b81526004016113059190613dec565b604080518083038186803b15801561131c57600080fd5b505afa158015611330573d6000803e3d6000fd5b505050506040513d601f19601f8201168201806040525081019061135491906130a8565b50905080611363575050611552565b60008273ffffffffffffffffffffffffffffffffffffffff1663f851a4406040518163ffffffff1660e01b815260040160206040518083038186803b1580156113ab57600080fd5b505afa9250505080156113dc57506040513d601f19601f820116820180604052508101906113d99190612ec2565b60015b6113e857505050611552565b8091505060008373ffffffffffffffffffffffffffffffffffffffff16630a755ec26040518163ffffffff1660e01b815260040160206040518083038186803b15801561143457600080fd5b505afa158015611448573d6000803e3d6000fd5b505050506040513d601f19601f8201168201806040525081019061146c919061307f565b905060008473ffffffffffffffffffffffffffffffffffffffff16632f1069ba6040518163ffffffff1660e01b815260040160206040518083038186803b1580156114b657600080fd5b505afa1580156114ca573d6000803e3d6000fd5b505050506040513d601f19601f820116820180604052508101906114ee919061307f565b90508a73ffffffffffffffffffffffffffffffffffffffff168373ffffffffffffffffffffffffffffffffffffffff1614158061152f575089151582151514155b8061153e575088151581151514155b1561154c5786806001019750505b50505050505b80806001019150506112a9565b5060608167ffffffffffffffff8111801561157957600080fd5b506040519080825280602002602001820160405280156115b357816020015b6115a06129e6565b8152602001906001900390816115985790505b5090506000805b84518110156118d85760008582815181106115d157fe5b6020026020010151905060008e73ffffffffffffffffffffffffffffffffffffffff16638e8f294b836040518263ffffffff1660e01b81526004016116169190613dec565b604080518083038186803b15801561162d57600080fd5b505afa158015611641573d6000803e3d6000fd5b505050506040513d601f19601f8201168201806040525081019061166591906130a8565b509050806116745750506118cb565b60008273ffffffffffffffffffffffffffffffffffffffff1663f851a4406040518163ffffffff1660e01b815260040160206040518083038186803b1580156116bc57600080fd5b505afa9250505080156116ed57506040513d601f19601f820116820180604052508101906116ea9190612ec2565b60015b6116f9575050506118cb565b8091505060008373ffffffffffffffffffffffffffffffffffffffff16630a755ec26040518163ffffffff1660e01b815260040160206040518083038186803b15801561174557600080fd5b505afa158015611759573d6000803e3d6000fd5b505050506040513d601f19601f8201168201806040525081019061177d919061307f565b905060008473ffffffffffffffffffffffffffffffffffffffff16632f1069ba6040518163ffffffff1660e01b815260040160206040518083038186803b1580156117c757600080fd5b505afa1580156117db573d6000803e3d6000fd5b505050506040513d601f19601f820116820180604052508101906117ff919061307f565b90508c73ffffffffffffffffffffffffffffffffffffffff168373ffffffffffffffffffffffffffffffffffffffff1614158061184057508b151582151514155b8061184f57508a151581151514155b156118c55760405180608001604052808673ffffffffffffffffffffffffffffffffffffffff1681526020018473ffffffffffffffffffffffffffffffffffffffff16815260200183151581526020018215158152508888815181106118b157fe5b602002602001018190525086806001019750505b50505050505b80806001019150506115ba565b50868686849a509a509a509a50505050505050509193509193565b600060029054906101000a900473ffffffffffffffffffffffffffffffffffffffff1681565b600060019054906101000a900460ff168061193857506119376125ad565b5b8061194e575060008054906101000a900460ff16155b61198d576040517f08c379a0000000000000000000000000000000000000000000000000000000008152600401611984906140e9565b60405180910390fd5b60008060019054906101000a900460ff1615905080156119dd576001600060016101000a81548160ff02191690831515021790555060016000806101000a81548160ff0219169083151502179055505b600073ffffffffffffffffffffffffffffffffffffffff168273ffffffffffffffffffffffffffffffffffffffff161415611a4d576040517f08c379a0000000000000000000000000000000000000000000000000000000008152600401611a4490614149565b60405180910390fd5b81600060026101000a81548173ffffffffffffffffffffffffffffffffffffffff021916908373ffffffffffffffffffffffffffffffffffffffff1602179055508015611aaf5760008060016101000a81548160ff0219169083151502179055505b5050565b606080606080600060029054906101000a900473ffffffffffffffffffffffffffffffffffffffff1673ffffffffffffffffffffffffffffffffffffffff1663d88ff1f46040518163ffffffff1660e01b815260040160006040518083038186803b158015611b2157600080fd5b505afa158015611b35573d6000803e3d6000fd5b505050506040513d6000823e3d601f19601f82011682018060405250810190611b5e919061303e565b90506000805b8251811015611c2d57828181518110611b7957fe5b60200260200101516040015173ffffffffffffffffffffffffffffffffffffffff166316dc15fe886040518263ffffffff1660e01b8152600401611bbd9190613dec565b60206040518083038186803b158015611bd557600080fd5b505afa925050508015611c0657506040513d601f19601f82011682018060405250810190611c03919061307f565b60015b611c0f57611c20565b8015611c1e5782806001019350505b505b8080600101915050611b64565b5060608167ffffffffffffffff81118015611c4757600080fd5b50604051908082528060200260200182016040528015611c765781602001602082028036833780820191505090505b50905060608267ffffffffffffffff81118015611c9257600080fd5b50604051908082528060200260200182016040528015611cc15781602001602082028036833780820191505090505b50905060608367ffffffffffffffff81118015611cdd57600080fd5b50604051908082528060200260200182016040528015611d1157816020015b6060815260200190600190039081611cfc5790505b5090506000805b8651811015611ee6576000878281518110611d2f57fe5b60200260200101516040015190508073ffffffffffffffffffffffffffffffffffffffff166316dc15fe8d6040518263ffffffff1660e01b8152600401611d769190613dec565b60206040518083038186803b158015611d8e57600080fd5b505afa925050508015611dbf57506040513d601f19601f82011682018060405250810190611dbc919061307f565b60015b611dc857611ed8565b8015611ed65782878581518110611ddb57fe5b60200260200101818152505081868581518110611df457fe5b602002602001019073ffffffffffffffffffffffffffffffffffffffff16908173ffffffffffffffffffffffffffffffffffffffff16815250508173ffffffffffffffffffffffffffffffffffffffff16633605b51b6040518163ffffffff1660e01b815260040160006040518083038186803b158015611e7457600080fd5b505afa925050508015611eaa57506040513d6000823e3d601f19601f82011682018060405250810190611ea79190612ffd565b60015b611eb357611ecd565b80868681518110611ec057fe5b6020026020010181905250505b83806001019450505b505b508080600101915050611d18565b508383839850985098505050505050509193909250565b6000808373ffffffffffffffffffffffffffffffffffffffff16633af9e669866040518263ffffffff1660e01b8152600401611f399190613dec565b602060405180830381600087803b158015611f5357600080fd5b505af1158015611f67573d6000803e3d6000fd5b505050506040513d601f19601f82011682018060405250810190611f8b919061315f565b905060008473ffffffffffffffffffffffffffffffffffffffff16635fe3b5676040518163ffffffff1660e01b815260040160206040518083038186803b158015611fd557600080fd5b505afa158015611fe9573d6000803e3d6000fd5b505050506040513d601f19601f8201168201806040525081019061200d9190612ec2565b905060008060008373ffffffffffffffffffffffffffffffffffffffff16635ec88c798a6040518263ffffffff1660e01b815260040161204d9190613dec565b60606040518083038186803b15801561206557600080fd5b505afa158015612079573d6000803e3d6000fd5b505050506040513d601f19601f8201168201806040525081019061209d9190613188565b925092509250600083146120e6576040517f08c379a00000000000000000000000000000000000000000000000000000000081526004016120dd90614129565b60405180910390fd5b60008111156120fd57600095505050505050612262565b60008715801561219557508473ffffffffffffffffffffffffffffffffffffffff1663929fe9a1338b6040518363ffffffff1660e01b8152600401612143929190613e07565b60206040518083038186803b15801561215b57600080fd5b505afa15801561216f573d6000803e3d6000fd5b505050506040513d601f19601f82011682018060405250810190612193919061307f565b155b156121a2578590506121c6565b6121ad838a8a6125be565b9050871580156121bc57508086105b156121c5578590505b5b60008973ffffffffffffffffffffffffffffffffffffffff16633b1d21a26040518163ffffffff1660e01b815260040160206040518083038186803b15801561220e57600080fd5b505afa158015612222573d6000803e3d6000fd5b505050506040513d601f19601f82011682018060405250810190612246919061315f565b9050808211156122565780612258565b815b9750505050505050505b9392505050565b60008060008473ffffffffffffffffffffffffffffffffffffffff1663cc7ebdc4876040518263ffffffff1660e01b81526004016122a79190613dec565b60206040518083038186803b1580156122bf57600080fd5b505afa1580156122d3573d6000803e3d6000fd5b505050506040513d601f19601f820116820180604052508101906122f7919061315f565b90508473ffffffffffffffffffffffffffffffffffffffff16631c9161e085886040518363ffffffff1660e01b8152600401612334929190613e30565b600060405180830381600087803b15801561234e57600080fd5b505af1158015612362573d6000803e3d6000fd5b505050506000612403828773ffffffffffffffffffffffffffffffffffffffff1663cc7ebdc48a6040518263ffffffff1660e01b81526004016123a59190613dec565b60206040518083038186803b1580156123bd57600080fd5b505afa1580156123d1573d6000803e3d6000fd5b505050506040513d601f19601f820116820180604052508101906123f5919061315f565b61289b90919063ffffffff16565b90508573ffffffffffffffffffffffffffffffffffffffff1663cc7ebdc4886040518263ffffffff1660e01b815260040161243e9190613dec565b60206040518083038186803b15801561245657600080fd5b505afa15801561246a573d6000803e3d6000fd5b505050506040513d601f19601f8201168201806040525081019061248e919061315f565b91508573ffffffffffffffffffffffffffffffffffffffff1663e6e162e886896040518363ffffffff1660e01b81526004016124cb929190613e30565b600060405180830381600087803b1580156124e557600080fd5b505af11580156124f9573d6000803e3d6000fd5b50505050600061259a838873ffffffffffffffffffffffffffffffffffffffff1663cc7ebdc48b6040518263ffffffff1660e01b815260040161253c9190613dec565b60206040518083038186803b15801561255457600080fd5b505afa158015612568573d6000803e3d6000fd5b505050506040513d601f19601f8201168201806040525081019061258c919061315f565b61289b90919063ffffffff16565b9050818194509450505050935093915050565b60006125b8306128eb565b15905090565b60008084116125d05760009050612894565b60008373ffffffffffffffffffffffffffffffffffffffff16635fe3b5676040518163ffffffff1660e01b815260040160206040518083038186803b15801561261857600080fd5b505afa15801561262c573d6000803e3d6000fd5b505050506040513d601f19601f820116820180604052508101906126509190612ec2565b905060008173ffffffffffffffffffffffffffffffffffffffff16637dc0d1d06040518163ffffffff1660e01b815260040160206040518083038186803b15801561269a57600080fd5b505afa1580156126ae573d6000803e3d6000fd5b505050506040513d601f19601f820116820180604052508101906126d29190613136565b73ffffffffffffffffffffffffffffffffffffffff1663fc57d4df866040518263ffffffff1660e01b815260040161270a9190614053565b60206040518083038186803b15801561272257600080fd5b505afa158015612736573d6000803e3d6000fd5b505050506040513d601f19601f8201168201806040525081019061275a919061315f565b90506000811161279f576040517f08c379a000000000000000000000000000000000000000000000000000000000815260040161279690614089565b60405180910390fd5b836128625760008273ffffffffffffffffffffffffffffffffffffffff16638e8f294b876040518263ffffffff1660e01b81526004016127df9190613dec565b604080518083038186803b1580156127f657600080fd5b505afa15801561280a573d6000803e3d6000fd5b505050506040513d601f19601f8201168201806040525081019061282e91906130a8565b91505061285e670de0b6b3a764000061285084846128fe90919063ffffffff16565b61296e90919063ffffffff16565b9150505b61288f81612881670de0b6b3a7640000896128fe90919063ffffffff16565b61296e90919063ffffffff16565b925050505b9392505050565b6000828211156128e0576040517f08c379a00000000000000000000000000000000000000000000000000000000081526004016128d7906140a9565b60405180910390fd5b818303905092915050565b600080823b905060008111915050919050565b6000808314156129115760009050612968565b600082840290508284828161292257fe5b0414612963576040517f08c379a000000000000000000000000000000000000000000000000000000000815260040161295a90614109565b60405180910390fd5b809150505b92915050565b60008082116129b2576040517f08c379a00000000000000000000000000000000000000000000000000000000081526004016129a9906140c9565b60405180910390fd5b8183816129bb57fe5b04905092915050565b6040518060400160405280600290602082028036833780820191505090505090565b6040518060800160405280600073ffffffffffffffffffffffffffffffffffffffff168152602001600073ffffffffffffffffffffffffffffffffffffffff1681526020016000151581526020016000151581525090565b600081359050612a4d81614719565b92915050565b600081519050612a6281614719565b92915050565b600082601f830112612a7957600080fd5b8151612a8c612a87826141b1565b614184565b91508181835260208401935060208101905083856020840282011115612ab157600080fd5b60005b83811015612ae15781612ac78882612d12565b845260208401935060208301925050600181019050612ab4565b5050505092915050565b600082601f830112612afc57600080fd5b8135612b0f612b0a826141d9565b614184565b91508181835260208401935060208101905083856020840282011115612b3457600080fd5b60005b83811015612b645781612b4a8882612d27565b845260208401935060208301925050600181019050612b37565b5050505092915050565b600082601f830112612b7f57600080fd5b8135612b92612b8d82614201565b614184565b91508181835260208401935060208101905083856020840282011115612bb757600080fd5b60005b83811015612be75781612bcd8882612d66565b845260208401935060208301925050600181019050612bba565b5050505092915050565b600082601f830112612c0257600080fd5b8151612c15612c1082614201565b614184565b91508181835260208401935060208101905083856020840282011115612c3a57600080fd5b60005b83811015612c6a5781612c508882612d7b565b845260208401935060208301925050600181019050612c3d565b5050505092915050565b600082601f830112612c8557600080fd5b8151612c98612c9382614229565b614184565b9150818183526020840193506020810190508360005b83811015612cde5781518601612cc48882612de4565b845260208401935060208301925050600181019050612cae565b5050505092915050565b600081519050612cf781614730565b92915050565b600081359050612d0c81614747565b92915050565b600081519050612d2181614747565b92915050565b600081359050612d368161475e565b92915050565b600081359050612d4b81614775565b92915050565b600081519050612d608161478c565b92915050565b600081359050612d75816147a3565b92915050565b600081519050612d8a816147a3565b92915050565b600082601f830112612da157600080fd5b8151612db4612daf82614251565b614184565b91508082526020830160208301858383011115612dd057600080fd5b612ddb8382846146e6565b50505092915050565b600060a08284031215612df657600080fd5b612e0060a0614184565b9050600082015167ffffffffffffffff811115612e1c57600080fd5b612e2884828501612d90565b6000830152506020612e3c84828501612a53565b6020830152506040612e5084828501612a53565b6040830152506060612e6484828501612e84565b6060830152506080612e7884828501612e84565b60808301525092915050565b600081519050612e93816147ba565b92915050565b600060208284031215612eab57600080fd5b6000612eb984828501612a3e565b91505092915050565b600060208284031215612ed457600080fd5b6000612ee284828501612a53565b91505092915050565b60008060408385031215612efe57600080fd5b6000612f0c85828601612a3e565b925050602083013567ffffffffffffffff811115612f2957600080fd5b612f3585828601612b6e565b9150509250929050565b60008060408385031215612f5257600080fd5b6000612f6085828601612a3e565b9250506020612f7185828601612cfd565b9150509250929050565b600060208284031215612f8d57600080fd5b600082015167ffffffffffffffff811115612fa757600080fd5b612fb384828501612a68565b91505092915050565b600060208284031215612fce57600080fd5b600082013567ffffffffffffffff811115612fe857600080fd5b612ff484828501612aeb565b91505092915050565b60006020828403121561300f57600080fd5b600082015167ffffffffffffffff81111561302957600080fd5b61303584828501612bf1565b91505092915050565b60006020828403121561305057600080fd5b600082015167ffffffffffffffff81111561306a57600080fd5b61307684828501612c74565b91505092915050565b60006020828403121561309157600080fd5b600061309f84828501612ce8565b91505092915050565b600080604083850312156130bb57600080fd5b60006130c985828601612ce8565b92505060206130da85828601612e84565b9150509250929050565b6000602082840312156130f657600080fd5b600061310484828501612d27565b91505092915050565b60006020828403121561311f57600080fd5b600061312d84828501612d3c565b91505092915050565b60006020828403121561314857600080fd5b600061315684828501612d51565b91505092915050565b60006020828403121561317157600080fd5b600061317f84828501612e84565b91505092915050565b60008060006060848603121561319d57600080fd5b60006131ab86828701612e84565b93505060206131bc86828701612e84565b92505060406131cd86828701612e84565b9150509250925092565b60006131e38383613306565b60208301905092915050565b60006131fb8383613324565b905092915050565b600061320f8383613629565b905092915050565b60006132238383613687565b905092915050565b60006132378383613771565b905092915050565b600061324b838361388b565b905092915050565b600061325f83836139a5565b60408301905092915050565b600061327783836139fc565b905092915050565b600061328b8383613ad6565b60208301905092915050565b60006132a38383613af4565b60208301905092915050565b60006132bb8383613b12565b60208301905092915050565b60006132d38383613d79565b60808301905092915050565b60006132eb8383613dce565b60208301905092915050565b61330081614620565b82525050565b61330f8161457e565b82525050565b61331e8161457e565b82525050565b600061332f82614357565b61333981856144a7565b93506133448361427d565b8060005b8381101561337557815161335c88826131d7565b9750613367836143f1565b925050600181019050613348565b5085935050505092915050565b600061338d82614357565b61339781856144b8565b93506133a28361427d565b8060005b838110156133d35781516133ba88826131d7565b97506133c5836143f1565b9250506001810190506133a6565b5085935050505092915050565b60006133eb82614362565b6133f581856144c9565b9350836020820285016134078561428d565b8060005b85811015613443578484038952815161342485826131ef565b945061342f836143fe565b925060208a0199505060018101905061340b565b50829750879550505050505092915050565b60006134608261436d565b61346a81856144da565b93508360208202850161347c8561429d565b8060005b858110156134b857848403895281516134998582613203565b94506134a48361440b565b925060208a01995050600181019050613480565b50829750879550505050505092915050565b60006134d582614378565b6134df81856144eb565b9350836020820285016134f1856142ad565b8060005b8581101561352d578484038952815161350e8582613217565b945061351983614418565b925060208a019950506001810190506134f5565b50829750879550505050505092915050565b600061354a82614383565b61355481856144c9565b935083602082028501613566856142bd565b8060005b858110156135a25784840389528151613583858261322b565b945061358e83614425565b925060208a0199505060018101905061356a565b50829750879550505050505092915050565b60006135bf8261438e565b6135c981856144c9565b9350836020820285016135db856142cd565b8060005b8581101561361757848403895281516135f8858261323f565b945061360383614432565b925060208a019950506001810190506135df565b50829750879550505050505092915050565b600061363482614399565b61363e81856144fc565b9350613649836142dd565b8060005b8381101561367a5781516136618882613253565b975061366c8361443f565b92505060018101905061364d565b5085935050505092915050565b6000613692826143a4565b61369c818561450d565b9350836020820285016136ae856142ed565b8060005b858110156136ea57848403895281516136cb858261326b565b94506136d68361444c565b925060208a019950506001810190506136b2565b50829750879550505050505092915050565b6000613707826143a4565b613711818561451e565b935083602082028501613723856142ed565b8060005b8581101561375f5784840389528151613740858261326b565b945061374b8361444c565b925060208a01995050600181019050613727565b50829750879550505050505092915050565b600061377c826143af565b61378681856144a7565b9350613791836142fd565b8060005b838110156137c25781516137a9888261327f565b97506137b483614459565b925050600181019050613795565b5085935050505092915050565b60006137da826143af565b6137e481856144b8565b93506137ef836142fd565b8060005b83811015613820578151613807888261327f565b975061381283614459565b9250506001810190506137f3565b5085935050505092915050565b6000613838826143ba565b61384281856144b8565b935061384d8361430d565b8060005b8381101561387e5781516138658882613297565b975061387083614466565b925050600181019050613851565b5085935050505092915050565b6000613896826143c5565b6138a081856144a7565b93506138ab8361431d565b8060005b838110156138dc5781516138c388826132af565b97506138ce83614473565b9250506001810190506138af565b5085935050505092915050565b60006138f4826143c5565b6138fe81856144b8565b93506139098361431d565b8060005b8381101561393a57815161392188826132af565b975061392c83614473565b92505060018101905061390d565b5085935050505092915050565b6000613952826143d0565b61395c818561452f565b93506139678361432d565b8060005b8381101561399857815161397f88826132c7565b975061398a83614480565b92505060018101905061396b565b5085935050505092915050565b6139ae816143db565b6139b88184614540565b92506139c38261433d565b8060005b838110156139f45781516139db87826132df565b96506139e68361448d565b9250506001810190506139c7565b505050505050565b6000613a07826143e6565b613a11818561454b565b9350613a1c83614347565b8060005b83811015613a4d578151613a3488826132df565b9750613a3f8361449a565b925050600181019050613a20565b5085935050505092915050565b6000613a65826143e6565b613a6f818561455c565b9350613a7a83614347565b8060005b83811015613aab578151613a9288826132df565b9750613a9d8361449a565b925050600181019050613a7e565b5085935050505092915050565b613ac181614590565b82525050565b613ad081614590565b82525050565b613adf81614632565b82525050565b613aee81614632565b82525050565b613afd81614656565b82525050565b613b0c8161467a565b82525050565b613b1b8161469e565b82525050565b6000613b2e60138361456d565b91507f4f7261636c65207072696365206572726f722e000000000000000000000000006000830152602082019050919050565b6000613b6e601e8361456d565b91507f536166654d6174683a207375627472616374696f6e206f766572666c6f7700006000830152602082019050919050565b6000613bae601a8361456d565b91507f536166654d6174683a206469766973696f6e206279207a65726f0000000000006000830152602082019050919050565b6000613bee602e8361456d565b91507f496e697469616c697a61626c653a20636f6e747261637420697320616c72656160008301527f647920696e697469616c697a65640000000000000000000000000000000000006020830152604082019050919050565b6000613c5460218361456d565b91507f536166654d6174683a206d756c7469706c69636174696f6e206f766572666c6f60008301527f77000000000000000000000000000000000000000000000000000000000000006020830152604082019050919050565b6000613cba60358361456d565b91507f436f6d7074726f6c6c6572206572726f72207768656e2063616c63756c61746960008301527f6e67206163636f756e74206c69717569646974792e00000000000000000000006020830152604082019050919050565b6000613d2060368361456d565b91507f46757365506f6f6c4469726563746f727920696e7374616e63652063616e6e6f60008301527f7420626520746865207a65726f20616464726573732e000000000000000000006020830152604082019050919050565b608082016000820151613d8f6000850182613306565b506020820151613da26020850182613306565b506040820151613db56040850182613ab8565b506060820151613dc86060850182613ab8565b50505050565b613dd781614616565b82525050565b613de681614616565b82525050565b6000602082019050613e016000830184613315565b92915050565b6000604082019050613e1c60008301856132f7565b613e296020830184613ae5565b9392505050565b6000604082019050613e456000830185613315565b613e526020830184613315565b9392505050565b6000608082019050613e6e6000830187613315565b613e7b6020830186613ac7565b613e886040830185613ac7565b8181036060830152613e9a8184613947565b905095945050505050565b600060a0820190508181036000830152613ebf8188613382565b90508181036020830152613ed38187613a5a565b90508181036040830152613ee7818661353f565b90508181036060830152613efb8185613455565b90508181036080830152613f0f8184613a5a565b90509695505050505050565b600060a0820190508181036000830152613f35818861353f565b90508181036020830152613f4981876135b4565b90508181036040830152613f5d81866133e0565b90508181036060830152613f7181856134ca565b90508181036080830152613f8581846134ca565b90509695505050505050565b600060a0820190508181036000830152613fab81886137cf565b90508181036020830152613fbf81876138e9565b90508181036040830152613fd38186613382565b90508181036060830152613fe781856136fc565b90508181036080830152613ffb81846136fc565b90509695505050505050565b600060608201905081810360008301526140218186613a5a565b90508181036020830152614035818561382d565b9050818103604083015261404981846135b4565b9050949350505050565b60006020820190506140686000830184613ae5565b92915050565b60006020820190506140836000830184613b03565b92915050565b600060208201905081810360008301526140a281613b21565b9050919050565b600060208201905081810360008301526140c281613b61565b9050919050565b600060208201905081810360008301526140e281613ba1565b9050919050565b6000602082019050818103600083015261410281613be1565b9050919050565b6000602082019050818103600083015261412281613c47565b9050919050565b6000602082019050818103600083015261414281613cad565b9050919050565b6000602082019050818103600083015261416281613d13565b9050919050565b600060208201905061417e6000830184613ddd565b92915050565b6000604051905081810181811067ffffffffffffffff821117156141a757600080fd5b8060405250919050565b600067ffffffffffffffff8211156141c857600080fd5b602082029050602081019050919050565b600067ffffffffffffffff8211156141f057600080fd5b602082029050602081019050919050565b600067ffffffffffffffff82111561421857600080fd5b602082029050602081019050919050565b600067ffffffffffffffff82111561424057600080fd5b602082029050602081019050919050565b600067ffffffffffffffff82111561426857600080fd5b601f19601f8301169050602081019050919050565b6000819050602082019050919050565b6000819050602082019050919050565b6000819050602082019050919050565b6000819050602082019050919050565b6000819050602082019050919050565b6000819050602082019050919050565b6000819050602082019050919050565b6000819050602082019050919050565b6000819050602082019050919050565b6000819050602082019050919050565b6000819050602082019050919050565b6000819050602082019050919050565b6000819050919050565b6000819050602082019050919050565b600081519050919050565b600081519050919050565b600081519050919050565b600081519050919050565b600081519050919050565b600081519050919050565b600081519050919050565b600081519050919050565b600081519050919050565b600081519050919050565b600081519050919050565b600081519050919050565b600060029050919050565b600081519050919050565b6000602082019050919050565b6000602082019050919050565b6000602082019050919050565b6000602082019050919050565b6000602082019050919050565b6000602082019050919050565b6000602082019050919050565b6000602082019050919050565b6000602082019050919050565b6000602082019050919050565b6000602082019050919050565b6000602082019050919050565b6000602082019050919050565b6000602082019050919050565b600082825260208201905092915050565b600082825260208201905092915050565b600082825260208201905092915050565b600082825260208201905092915050565b600082825260208201905092915050565b600082825260208201905092915050565b600082825260208201905092915050565b600082825260208201905092915050565b600082825260208201905092915050565b600081905092915050565b600082825260208201905092915050565b600082825260208201905092915050565b600082825260208201905092915050565b6000614589826145f6565b9050919050565b60008115159050919050565b60006145a78261457e565b9050919050565b60006145b98261457e565b9050919050565b60006145cb8261457e565b9050919050565b60006145dd8261457e565b9050919050565b60006145ef8261457e565b9050919050565b600073ffffffffffffffffffffffffffffffffffffffff82169050919050565b6000819050919050565b600061462b826146c2565b9050919050565b600061463d82614644565b9050919050565b600061464f826145f6565b9050919050565b600061466182614668565b9050919050565b6000614673826145f6565b9050919050565b60006146858261468c565b9050919050565b6000614697826145f6565b9050919050565b60006146a9826146b0565b9050919050565b60006146bb826145f6565b9050919050565b60006146cd826146d4565b9050919050565b60006146df826145f6565b9050919050565b60005b838110156147045780820151818401526020810190506146e9565b83811115614713576000848401525b50505050565b6147228161457e565b811461472d57600080fd5b50565b61473981614590565b811461474457600080fd5b50565b6147508161459c565b811461475b57600080fd5b50565b614767816145ae565b811461477257600080fd5b50565b61477e816145c0565b811461478957600080fd5b50565b614795816145d2565b81146147a057600080fd5b50565b6147ac816145e4565b81146147b757600080fd5b50565b6147c381614616565b81146147ce57600080fd5b5056fea2646970667358221220b1c75646908280e1e08f5c197ddd33d920562615619e2fd28aa70fbae9a92fe964736f6c634300060c0033",
  "linkReferences": {},
  "deployedLinkReferences": {}
}