{
  "_format": "hh-sol-artifact-1",
  "contractName": "Tribe",
  "sourceName": "src/contracts/TRIBE.sol",
  "abi": [
    {
      "inputs": [
        {
          "internalType": "address",
          "name": "account",
          "type": "address"
        },
        {
          "internalType": "address",
          "name": "minter_",
          "type": "address"
        }
      ],
      "stateMutability": "nonpayable",
      "type": "constructor"
    },
    {
      "anonymous": false,
      "inputs": [
        {
          "indexed": true,
          "internalType": "address",
          "name": "owner",
          "type": "address"
        },
        {
          "indexed": true,
          "internalType": "address",
          "name": "spender",
          "type": "address"
        },
        {
          "indexed": false,
          "internalType": "uint256",
          "name": "amount",
          "type": "uint256"
        }
      ],
      "name": "Approval",
      "type": "event"
    },
    {
      "anonymous": false,
      "inputs": [
        {
          "indexed": true,
          "internalType": "address",
          "name": "delegator",
          "type": "address"
        },
        {
          "indexed": true,
          "internalType": "address",
          "name": "fromDelegate",
          "type": "address"
        },
        {
          "indexed": true,
          "internalType": "address",
          "name": "toDelegate",
          "type": "address"
        }
      ],
      "name": "DelegateChanged",
      "type": "event"
    },
    {
      "anonymous": false,
      "inputs": [
        {
          "indexed": true,
          "internalType": "address",
          "name": "delegate",
          "type": "address"
        },
        {
          "indexed": false,
          "internalType": "uint256",
          "name": "previousBalance",
          "type": "uint256"
        },
        {
          "indexed": false,
          "internalType": "uint256",
          "name": "newBalance",
          "type": "uint256"
        }
      ],
      "name": "DelegateVotesChanged",
      "type": "event"
    },
    {
      "anonymous": false,
      "inputs": [
        {
          "indexed": false,
          "internalType": "address",
          "name": "minter",
          "type": "address"
        },
        {
          "indexed": false,
          "internalType": "address",
          "name": "newMinter",
          "type": "address"
        }
      ],
      "name": "MinterChanged",
      "type": "event"
    },
    {
      "anonymous": false,
      "inputs": [
        {
          "indexed": true,
          "internalType": "address",
          "name": "from",
          "type": "address"
        },
        {
          "indexed": true,
          "internalType": "address",
          "name": "to",
          "type": "address"
        },
        {
          "indexed": false,
          "internalType": "uint256",
          "name": "amount",
          "type": "uint256"
        }
      ],
      "name": "Transfer",
      "type": "event"
    },
    {
      "inputs": [],
      "name": "DELEGATION_TYPEHASH",
      "outputs": [
        {
          "internalType": "bytes32",
          "name": "",
          "type": "bytes32"
        }
      ],
      "stateMutability": "view",
      "type": "function"
    },
    {
      "inputs": [],
      "name": "DOMAIN_TYPEHASH",
      "outputs": [
        {
          "internalType": "bytes32",
          "name": "",
          "type": "bytes32"
        }
      ],
      "stateMutability": "view",
      "type": "function"
    },
    {
      "inputs": [],
      "name": "PERMIT_TYPEHASH",
      "outputs": [
        {
          "internalType": "bytes32",
          "name": "",
          "type": "bytes32"
        }
      ],
      "stateMutability": "view",
      "type": "function"
    },
    {
      "inputs": [
        {
          "internalType": "address",
          "name": "account",
          "type": "address"
        },
        {
          "internalType": "address",
          "name": "spender",
          "type": "address"
        }
      ],
      "name": "allowance",
      "outputs": [
        {
          "internalType": "uint256",
          "name": "",
          "type": "uint256"
        }
      ],
      "stateMutability": "view",
      "type": "function"
    },
    {
      "inputs": [
        {
          "internalType": "address",
          "name": "spender",
          "type": "address"
        },
        {
          "internalType": "uint256",
          "name": "rawAmount",
          "type": "uint256"
        }
      ],
      "name": "approve",
      "outputs": [
        {
          "internalType": "bool",
          "name": "",
          "type": "bool"
        }
      ],
      "stateMutability": "nonpayable",
      "type": "function"
    },
    {
      "inputs": [
        {
          "internalType": "address",
          "name": "account",
          "type": "address"
        }
      ],
      "name": "balanceOf",
      "outputs": [
        {
          "internalType": "uint256",
          "name": "",
          "type": "uint256"
        }
      ],
      "stateMutability": "view",
      "type": "function"
    },
    {
      "inputs": [
        {
          "internalType": "address",
          "name": "",
          "type": "address"
        },
        {
          "internalType": "uint32",
          "name": "",
          "type": "uint32"
        }
      ],
      "name": "checkpoints",
      "outputs": [
        {
          "internalType": "uint32",
          "name": "fromBlock",
          "type": "uint32"
        },
        {
          "internalType": "uint96",
          "name": "votes",
          "type": "uint96"
        }
      ],
      "stateMutability": "view",
      "type": "function"
    },
    {
      "inputs": [],
      "name": "decimals",
      "outputs": [
        {
          "internalType": "uint8",
          "name": "",
          "type": "uint8"
        }
      ],
      "stateMutability": "view",
      "type": "function"
    },
    {
      "inputs": [
        {
          "internalType": "address",
          "name": "delegatee",
          "type": "address"
        }
      ],
      "name": "delegate",
      "outputs": [],
      "stateMutability": "nonpayable",
      "type": "function"
    },
    {
      "inputs": [
        {
          "internalType": "address",
          "name": "delegatee",
          "type": "address"
        },
        {
          "internalType": "uint256",
          "name": "nonce",
          "type": "uint256"
        },
        {
          "internalType": "uint256",
          "name": "expiry",
          "type": "uint256"
        },
        {
          "internalType": "uint8",
          "name": "v",
          "type": "uint8"
        },
        {
          "internalType": "bytes32",
          "name": "r",
          "type": "bytes32"
        },
        {
          "internalType": "bytes32",
          "name": "s",
          "type": "bytes32"
        }
      ],
      "name": "delegateBySig",
      "outputs": [],
      "stateMutability": "nonpayable",
      "type": "function"
    },
    {
      "inputs": [
        {
          "internalType": "address",
          "name": "",
          "type": "address"
        }
      ],
      "name": "delegates",
      "outputs": [
        {
          "internalType": "address",
          "name": "",
          "type": "address"
        }
      ],
      "stateMutability": "view",
      "type": "function"
    },
    {
      "inputs": [
        {
          "internalType": "address",
          "name": "account",
          "type": "address"
        }
      ],
      "name": "getCurrentVotes",
      "outputs": [
        {
          "internalType": "uint96",
          "name": "",
          "type": "uint96"
        }
      ],
      "stateMutability": "view",
      "type": "function"
    },
    {
      "inputs": [
        {
          "internalType": "address",
          "name": "account",
          "type": "address"
        },
        {
          "internalType": "uint256",
          "name": "blockNumber",
          "type": "uint256"
        }
      ],
      "name": "getPriorVotes",
      "outputs": [
        {
          "internalType": "uint96",
          "name": "",
          "type": "uint96"
        }
      ],
      "stateMutability": "view",
      "type": "function"
    },
    {
      "inputs": [
        {
          "internalType": "address",
          "name": "dst",
          "type": "address"
        },
        {
          "internalType": "uint256",
          "name": "rawAmount",
          "type": "uint256"
        }
      ],
      "name": "mint",
      "outputs": [],
      "stateMutability": "nonpayable",
      "type": "function"
    },
    {
      "inputs": [],
      "name": "minter",
      "outputs": [
        {
          "internalType": "address",
          "name": "",
          "type": "address"
        }
      ],
      "stateMutability": "view",
      "type": "function"
    },
    {
      "inputs": [],
      "name": "name",
      "outputs": [
        {
          "internalType": "string",
          "name": "",
          "type": "string"
        }
      ],
      "stateMutability": "view",
      "type": "function"
    },
    {
      "inputs": [
        {
          "internalType": "address",
          "name": "",
          "type": "address"
        }
      ],
      "name": "nonces",
      "outputs": [
        {
          "internalType": "uint256",
          "name": "",
          "type": "uint256"
        }
      ],
      "stateMutability": "view",
      "type": "function"
    },
    {
      "inputs": [
        {
          "internalType": "address",
          "name": "",
          "type": "address"
        }
      ],
      "name": "numCheckpoints",
      "outputs": [
        {
          "internalType": "uint32",
          "name": "",
          "type": "uint32"
        }
      ],
      "stateMutability": "view",
      "type": "function"
    },
    {
      "inputs": [
        {
          "internalType": "address",
          "name": "owner",
          "type": "address"
        },
        {
          "internalType": "address",
          "name": "spender",
          "type": "address"
        },
        {
          "internalType": "uint256",
          "name": "rawAmount",
          "type": "uint256"
        },
        {
          "internalType": "uint256",
          "name": "deadline",
          "type": "uint256"
        },
        {
          "internalType": "uint8",
          "name": "v",
          "type": "uint8"
        },
        {
          "internalType": "bytes32",
          "name": "r",
          "type": "bytes32"
        },
        {
          "internalType": "bytes32",
          "name": "s",
          "type": "bytes32"
        }
      ],
      "name": "permit",
      "outputs": [],
      "stateMutability": "nonpayable",
      "type": "function"
    },
    {
      "inputs": [
        {
          "internalType": "address",
          "name": "minter_",
          "type": "address"
        }
      ],
      "name": "setMinter",
      "outputs": [],
      "stateMutability": "nonpayable",
      "type": "function"
    },
    {
      "inputs": [],
      "name": "symbol",
      "outputs": [
        {
          "internalType": "string",
          "name": "",
          "type": "string"
        }
      ],
      "stateMutability": "view",
      "type": "function"
    },
    {
      "inputs": [],
      "name": "totalSupply",
      "outputs": [
        {
          "internalType": "uint256",
          "name": "",
          "type": "uint256"
        }
      ],
      "stateMutability": "view",
      "type": "function"
    },
    {
      "inputs": [
        {
          "internalType": "address",
          "name": "dst",
          "type": "address"
        },
        {
          "internalType": "uint256",
          "name": "rawAmount",
          "type": "uint256"
        }
      ],
      "name": "transfer",
      "outputs": [
        {
          "internalType": "bool",
          "name": "",
          "type": "bool"
        }
      ],
      "stateMutability": "nonpayable",
      "type": "function"
    },
    {
      "inputs": [
        {
          "internalType": "address",
          "name": "src",
          "type": "address"
        },
        {
          "internalType": "address",
          "name": "dst",
          "type": "address"
        },
        {
          "internalType": "uint256",
          "name": "rawAmount",
          "type": "uint256"
        }
      ],
      "name": "transferFrom",
      "outputs": [
        {
          "internalType": "bool",
          "name": "",
          "type": "bool"
        }
      ],
      "stateMutability": "nonpayable",
      "type": "function"
    }
  ],
  "bytecode": "0x60806040526b033b2e3c9fd0803ce80000006000553480156200002157600080fd5b5060405162004010380380620040108339818101604052810190620000479190620001df565b600054600360008473ffffffffffffffffffffffffffffffffffffffff1673ffffffffffffffffffffffffffffffffffffffff16815260200190815260200160002060006101000a8154816bffffffffffffffffffffffff02191690836bffffffffffffffffffffffff1602179055508173ffffffffffffffffffffffffffffffffffffffff16600073ffffffffffffffffffffffffffffffffffffffff167fddf252ad1be2c89b69c2b068fc378daa952ba7f163c4a11628f55a4df523b3ef60005460405162000119919062000275565b60405180910390a380600160006101000a81548173ffffffffffffffffffffffffffffffffffffffff021916908373ffffffffffffffffffffffffffffffffffffffff1602179055507f3b0007eb941cf645526cbb3a4fdaecda9d28ce4843167d9263b536a1f1edc0f66000600160009054906101000a900473ffffffffffffffffffffffffffffffffffffffff16604051620001b892919062000248565b60405180910390a15050620002ef565b600081519050620001d981620002d5565b92915050565b60008060408385031215620001f957620001f8620002d0565b5b60006200020985828601620001c8565b92505060206200021c85828601620001c8565b9150509250929050565b620002318162000292565b82525050565b6200024281620002c6565b82525050565b60006040820190506200025f600083018562000226565b6200026e602083018462000226565b9392505050565b60006020820190506200028c600083018462000237565b92915050565b60006200029f82620002a6565b9050919050565b600073ffffffffffffffffffffffffffffffffffffffff82169050919050565b6000819050919050565b600080fd5b620002e08162000292565b8114620002ec57600080fd5b50565b613d1180620002ff6000396000f3fe608060405234801561001057600080fd5b50600436106101585760003560e01c806370a08231116100c3578063c3cda5201161007c578063c3cda52014610417578063d505accf14610433578063dd62ed3e1461044f578063e7a324dc1461047f578063f1127ed81461049d578063fca3b5aa146104ce57610158565b806370a0823114610309578063782d6fe1146103395780637ecebe001461036957806395d89b4114610399578063a9059cbb146103b7578063b4b5ea57146103e757610158565b806330adf81f1161011557806330adf81f14610235578063313ce5671461025357806340c10f1914610271578063587cde1e1461028d5780635c19a95c146102bd5780636fcfff45146102d957610158565b806306fdde031461015d578063075461721461017b578063095ea7b31461019957806318160ddd146101c957806320606b70146101e757806323b872dd14610205575b600080fd5b6101656104ea565b60405161017291906134d7565b60405180910390f35b610183610523565b604051610190919061332d565b60405180910390f35b6101b360048036038101906101ae9190612fc3565b610549565b6040516101c09190613371565b60405180910390f35b6101d16106e5565b6040516101de9190613619565b60405180910390f35b6101ef6106eb565b6040516101fc919061338c565b60405180910390f35b61021f600480360381019061021a9190612ece565b61070f565b60405161022c9190613371565b60405180910390f35b61023d6109a0565b60405161024a919061338c565b60405180910390f35b61025b6109c4565b6040516102689190613678565b60405180910390f35b61028b60048036038101906102869190612fc3565b6109c9565b005b6102a760048036038101906102a29190612e61565b610d46565b6040516102b4919061332d565b60405180910390f35b6102d760048036038101906102d29190612e61565b610d79565b005b6102f360048036038101906102ee9190612e61565b610d86565b6040516103009190613634565b60405180910390f35b610323600480360381019061031e9190612e61565b610da9565b6040516103309190613619565b60405180910390f35b610353600480360381019061034e9190612fc3565b610e18565b60405161036091906136ae565b60405180910390f35b610383600480360381019061037e9190612e61565b611253565b6040516103909190613619565b60405180910390f35b6103a161126b565b6040516103ae91906134d7565b60405180910390f35b6103d160048036038101906103cc9190612fc3565b6112a4565b6040516103de9190613371565b60405180910390f35b61040160048036038101906103fc9190612e61565b6112fe565b60405161040e91906136ae565b60405180910390f35b610431600480360381019061042c9190613003565b6113f5565b005b61044d60048036038101906104489190612f21565b6116b8565b005b61046960048036038101906104649190612e8e565b611bde565b6040516104769190613619565b60405180910390f35b610487611c8b565b604051610494919061338c565b60405180910390f35b6104b760048036038101906104b29190613090565b611caf565b6040516104c592919061364f565b60405180910390f35b6104e860048036038101906104e39190612e61565b611d08565b005b6040518060400160405280600581526020017f547269626500000000000000000000000000000000000000000000000000000081525081565b600160009054906101000a900473ffffffffffffffffffffffffffffffffffffffff1681565b6000807fffffffffffffffffffffffffffffffffffffffffffffffffffffffffffffffff831415610588576bffffffffffffffffffffffff90506105ca565b6105c7836040518060400160405280601d81526020017f54726962653a20616d6f756e7420657863656564732039362062697473000000815250611e37565b90505b80600260003373ffffffffffffffffffffffffffffffffffffffff1673ffffffffffffffffffffffffffffffffffffffff16815260200190815260200160002060008673ffffffffffffffffffffffffffffffffffffffff1673ffffffffffffffffffffffffffffffffffffffff16815260200190815260200160002060006101000a8154816bffffffffffffffffffffffff02191690836bffffffffffffffffffffffff1602179055508373ffffffffffffffffffffffffffffffffffffffff163373ffffffffffffffffffffffffffffffffffffffff167f8c5be1e5ebec7d5bd14f71427d1e84f3dd0314c0f7b2291e5b200ac8c7c3b925836040516106d29190613693565b60405180910390a3600191505092915050565b60005481565b7f8cad95687ba82c2ce50e74f7b754645e5117c3a5bec8151c0726d5857980a86681565b6000803390506000600260008773ffffffffffffffffffffffffffffffffffffffff1673ffffffffffffffffffffffffffffffffffffffff16815260200190815260200160002060008373ffffffffffffffffffffffffffffffffffffffff1673ffffffffffffffffffffffffffffffffffffffff16815260200190815260200160002060009054906101000a90046bffffffffffffffffffffffff16905060006107ef856040518060400160405280601d81526020017f54726962653a20616d6f756e7420657863656564732039362062697473000000815250611e37565b90508673ffffffffffffffffffffffffffffffffffffffff168373ffffffffffffffffffffffffffffffffffffffff161415801561084957506bffffffffffffffffffffffff8016826bffffffffffffffffffffffff1614155b156109875760006108738383604051806060016040528060308152602001613c8660309139611e95565b905080600260008a73ffffffffffffffffffffffffffffffffffffffff1673ffffffffffffffffffffffffffffffffffffffff16815260200190815260200160002060008673ffffffffffffffffffffffffffffffffffffffff1673ffffffffffffffffffffffffffffffffffffffff16815260200190815260200160002060006101000a8154816bffffffffffffffffffffffff02191690836bffffffffffffffffffffffff1602179055508373ffffffffffffffffffffffffffffffffffffffff168873ffffffffffffffffffffffffffffffffffffffff167f8c5be1e5ebec7d5bd14f71427d1e84f3dd0314c0f7b2291e5b200ac8c7c3b9258360405161097d9190613693565b60405180910390a3505b610992878783611f0f565b600193505050509392505050565b7f6e71edae12b1b97f4d1f60370fef10105fa2faae0126114a169c64845d6126c981565b601281565b600160009054906101000a900473ffffffffffffffffffffffffffffffffffffffff1673ffffffffffffffffffffffffffffffffffffffff163373ffffffffffffffffffffffffffffffffffffffff1614610a59576040517f08c379a0000000000000000000000000000000000000000000000000000000008152600401610a50906134f9565b60405180910390fd5b600073ffffffffffffffffffffffffffffffffffffffff168273ffffffffffffffffffffffffffffffffffffffff161415610ac9576040517f08c379a0000000000000000000000000000000000000000000000000000000008152600401610ac090613519565b60405180910390fd5b6000610b0a826040518060400160405280601d81526020017f54726962653a20616d6f756e7420657863656564732039362062697473000000815250611e37565b90506000610b32600054604051806060016040528060228152602001613c6460229139611e37565b9050610b578183604051806060016040528060228152602001613c646022913961230d565b6bffffffffffffffffffffffff16600081905550610c02600360008673ffffffffffffffffffffffffffffffffffffffff1673ffffffffffffffffffffffffffffffffffffffff16815260200190815260200160002060009054906101000a90046bffffffffffffffffffffffff16836040518060400160405280602081526020017f54726962653a207472616e7366657220616d6f756e74206f766572666c6f777381525061230d565b600360008673ffffffffffffffffffffffffffffffffffffffff1673ffffffffffffffffffffffffffffffffffffffff16815260200190815260200160002060006101000a8154816bffffffffffffffffffffffff02191690836bffffffffffffffffffffffff1602179055508373ffffffffffffffffffffffffffffffffffffffff16600073ffffffffffffffffffffffffffffffffffffffff167fddf252ad1be2c89b69c2b068fc378daa952ba7f163c4a11628f55a4df523b3ef84604051610ccd9190613693565b60405180910390a3610d406000600460008773ffffffffffffffffffffffffffffffffffffffff1673ffffffffffffffffffffffffffffffffffffffff16815260200190815260200160002060009054906101000a900473ffffffffffffffffffffffffffffffffffffffff168461238c565b50505050565b60046020528060005260406000206000915054906101000a900473ffffffffffffffffffffffffffffffffffffffff1681565b610d8333826126d3565b50565b60066020528060005260406000206000915054906101000a900463ffffffff1681565b6000600360008373ffffffffffffffffffffffffffffffffffffffff1673ffffffffffffffffffffffffffffffffffffffff16815260200190815260200160002060009054906101000a90046bffffffffffffffffffffffff166bffffffffffffffffffffffff169050919050565b6000438210610e5c576040517f08c379a0000000000000000000000000000000000000000000000000000000008152600401610e53906135f9565b60405180910390fd5b6000600660008573ffffffffffffffffffffffffffffffffffffffff1673ffffffffffffffffffffffffffffffffffffffff16815260200190815260200160002060009054906101000a900463ffffffff16905060008163ffffffff161415610ec957600091505061124d565b82600560008673ffffffffffffffffffffffffffffffffffffffff1673ffffffffffffffffffffffffffffffffffffffff1681526020019081526020016000206000600184610f1891906137c6565b63ffffffff1663ffffffff16815260200190815260200160002060000160009054906101000a900463ffffffff1663ffffffff1611610fdd57600560008573ffffffffffffffffffffffffffffffffffffffff1673ffffffffffffffffffffffffffffffffffffffff1681526020019081526020016000206000600183610f9f91906137c6565b63ffffffff1663ffffffff16815260200190815260200160002060000160049054906101000a90046bffffffffffffffffffffffff1691505061124d565b82600560008673ffffffffffffffffffffffffffffffffffffffff1673ffffffffffffffffffffffffffffffffffffffff16815260200190815260200160002060008063ffffffff16815260200190815260200160002060000160009054906101000a900463ffffffff1663ffffffff16111561105e57600091505061124d565b60008060018361106e91906137c6565b90505b8163ffffffff168163ffffffff1611156111cf5760006002838361109591906137c6565b61109f9190613795565b826110aa91906137c6565b90506000600560008973ffffffffffffffffffffffffffffffffffffffff1673ffffffffffffffffffffffffffffffffffffffff16815260200190815260200160002060008363ffffffff1663ffffffff1681526020019081526020016000206040518060400160405290816000820160009054906101000a900463ffffffff1663ffffffff1663ffffffff1681526020016000820160049054906101000a90046bffffffffffffffffffffffff166bffffffffffffffffffffffff166bffffffffffffffffffffffff1681525050905086816000015163ffffffff16141561119e5780602001519550505050505061124d565b86816000015163ffffffff1610156111b8578193506111c8565b6001826111c591906137c6565b92505b5050611071565b600560008773ffffffffffffffffffffffffffffffffffffffff1673ffffffffffffffffffffffffffffffffffffffff16815260200190815260200160002060008363ffffffff1663ffffffff16815260200190815260200160002060000160049054906101000a90046bffffffffffffffffffffffff1693505050505b92915050565b60076020528060005260406000206000915090505481565b6040518060400160405280600581526020017f545249424500000000000000000000000000000000000000000000000000000081525081565b6000806112e6836040518060400160405280601d81526020017f54726962653a20616d6f756e7420657863656564732039362062697473000000815250611e37565b90506112f3338583611f0f565b600191505092915050565b600080600660008473ffffffffffffffffffffffffffffffffffffffff1673ffffffffffffffffffffffffffffffffffffffff16815260200190815260200160002060009054906101000a900463ffffffff16905060008163ffffffff16116113685760006113ed565b600560008473ffffffffffffffffffffffffffffffffffffffff1673ffffffffffffffffffffffffffffffffffffffff16815260200190815260200160002060006001836113b691906137c6565b63ffffffff1663ffffffff16815260200190815260200160002060000160049054906101000a90046bffffffffffffffffffffffff165b915050919050565b60007f8cad95687ba82c2ce50e74f7b754645e5117c3a5bec8151c0726d5857980a8666040518060400160405280600581526020017f54726962650000000000000000000000000000000000000000000000000000008152508051906020012061145d612893565b30604051602001611471949392919061344d565b60405160208183030381529060405280519060200120905060007fe48329057bfd03d55e49b547132e39cffd9c1820ad7b9d4c5307691425d15adf8888886040516020016114c29493929190613408565b604051602081830303815290604052805190602001209050600082826040516020016114ef9291906132f6565b60405160208183030381529060405280519060200120905060006001828888886040516000815260200160405260405161152c9493929190613492565b6020604051602081039080840390855afa15801561154e573d6000803e3d6000fd5b505050602060405103519050600073ffffffffffffffffffffffffffffffffffffffff168173ffffffffffffffffffffffffffffffffffffffff1614156115ca576040517f08c379a00000000000000000000000000000000000000000000000000000000081526004016115c190613599565b60405180910390fd5b600760008273ffffffffffffffffffffffffffffffffffffffff1673ffffffffffffffffffffffffffffffffffffffff168152602001908152602001600020600081548092919061161a906138fa565b91905055891461165f576040517f08c379a0000000000000000000000000000000000000000000000000000000008152600401611656906135b9565b60405180910390fd5b874211156116a2576040517f08c379a000000000000000000000000000000000000000000000000000000000815260040161169990613539565b60405180910390fd5b6116ac818b6126d3565b50505050505050505050565b60007fffffffffffffffffffffffffffffffffffffffffffffffffffffffffffffffff8614156116f6576bffffffffffffffffffffffff9050611738565b611735866040518060400160405280601d81526020017f54726962653a20616d6f756e7420657863656564732039362062697473000000815250611e37565b90505b60007f8cad95687ba82c2ce50e74f7b754645e5117c3a5bec8151c0726d5857980a8666040518060400160405280600581526020017f5472696265000000000000000000000000000000000000000000000000000000815250805190602001206117a0612893565b306040516020016117b4949392919061344d565b6040516020818303038152906040528051906020012090506117d5816128a0565b6117fe7f8cad95687ba82c2ce50e74f7b754645e5117c3a5bec8151c0726d5857980a8666128a0565b6118436040518060400160405280600581526020017f5472696265000000000000000000000000000000000000000000000000000000815250805190602001206128a0565b61185361184e612893565b612939565b61185c306129d2565b60007f6e71edae12b1b97f4d1f60370fef10105fa2faae0126114a169c64845d6126c98a8a8a600760008f73ffffffffffffffffffffffffffffffffffffffff1673ffffffffffffffffffffffffffffffffffffffff16815260200190815260200160002060008154809291906118d2906138fa565b919050558b6040516020016118ec969594939291906133a7565b60405160208183030381529060405280519060200120905061190d816128a0565b600082826040516020016119229291906132f6565b604051602081830303815290604052805190602001209050611943816128a0565b6000600182898989604051600081526020016040526040516119689493929190613492565b6020604051602081039080840390855afa15801561198a573d6000803e3d6000fd5b50505060206040510351905061199f816129d2565b600073ffffffffffffffffffffffffffffffffffffffff168173ffffffffffffffffffffffffffffffffffffffff161415611a0f576040517f08c379a0000000000000000000000000000000000000000000000000000000008152600401611a0690613599565b60405180910390fd5b8b73ffffffffffffffffffffffffffffffffffffffff168173ffffffffffffffffffffffffffffffffffffffff1614611a7d576040517f08c379a0000000000000000000000000000000000000000000000000000000008152600401611a7490613579565b60405180910390fd5b88421115611ac0576040517f08c379a0000000000000000000000000000000000000000000000000000000008152600401611ab790613539565b60405180910390fd5b84600260008e73ffffffffffffffffffffffffffffffffffffffff1673ffffffffffffffffffffffffffffffffffffffff16815260200190815260200160002060008d73ffffffffffffffffffffffffffffffffffffffff1673ffffffffffffffffffffffffffffffffffffffff16815260200190815260200160002060006101000a8154816bffffffffffffffffffffffff02191690836bffffffffffffffffffffffff1602179055508a73ffffffffffffffffffffffffffffffffffffffff168c73ffffffffffffffffffffffffffffffffffffffff167f8c5be1e5ebec7d5bd14f71427d1e84f3dd0314c0f7b2291e5b200ac8c7c3b92587604051611bc89190613693565b60405180910390a3505050505050505050505050565b6000600260008473ffffffffffffffffffffffffffffffffffffffff1673ffffffffffffffffffffffffffffffffffffffff16815260200190815260200160002060008373ffffffffffffffffffffffffffffffffffffffff1673ffffffffffffffffffffffffffffffffffffffff16815260200190815260200160002060009054906101000a90046bffffffffffffffffffffffff166bffffffffffffffffffffffff16905092915050565b7fe48329057bfd03d55e49b547132e39cffd9c1820ad7b9d4c5307691425d15adf81565b6005602052816000526040600020602052806000526040600020600091509150508060000160009054906101000a900463ffffffff16908060000160049054906101000a90046bffffffffffffffffffffffff16905082565b600160009054906101000a900473ffffffffffffffffffffffffffffffffffffffff1673ffffffffffffffffffffffffffffffffffffffff163373ffffffffffffffffffffffffffffffffffffffff1614611d98576040517f08c379a0000000000000000000000000000000000000000000000000000000008152600401611d8f906135d9565b60405180910390fd5b7f3b0007eb941cf645526cbb3a4fdaecda9d28ce4843167d9263b536a1f1edc0f6600160009054906101000a900473ffffffffffffffffffffffffffffffffffffffff1682604051611deb929190613348565b60405180910390a180600160006101000a81548173ffffffffffffffffffffffffffffffffffffffff021916908373ffffffffffffffffffffffffffffffffffffffff16021790555050565b60006c0100000000000000000000000083108290611e8b576040517f08c379a0000000000000000000000000000000000000000000000000000000008152600401611e8291906134d7565b60405180910390fd5b5082905092915050565b6000836bffffffffffffffffffffffff16836bffffffffffffffffffffffff1611158290611ef9576040517f08c379a0000000000000000000000000000000000000000000000000000000008152600401611ef091906134d7565b60405180910390fd5b508284611f0691906137fa565b90509392505050565b600073ffffffffffffffffffffffffffffffffffffffff168373ffffffffffffffffffffffffffffffffffffffff161415611f7f576040517f08c379a0000000000000000000000000000000000000000000000000000000008152600401611f7690613559565b60405180910390fd5b600073ffffffffffffffffffffffffffffffffffffffff168273ffffffffffffffffffffffffffffffffffffffff161415611fef576040517f08c379a0000000000000000000000000000000000000000000000000000000008152600401611fe690613519565b60405180910390fd5b612069600360008573ffffffffffffffffffffffffffffffffffffffff1673ffffffffffffffffffffffffffffffffffffffff16815260200190815260200160002060009054906101000a90046bffffffffffffffffffffffff1682604051806060016040528060268152602001613cb660269139611e95565b600360008573ffffffffffffffffffffffffffffffffffffffff1673ffffffffffffffffffffffffffffffffffffffff16815260200190815260200160002060006101000a8154816bffffffffffffffffffffffff02191690836bffffffffffffffffffffffff16021790555061216d600360008473ffffffffffffffffffffffffffffffffffffffff1673ffffffffffffffffffffffffffffffffffffffff16815260200190815260200160002060009054906101000a90046bffffffffffffffffffffffff16826040518060400160405280602081526020017f54726962653a207472616e7366657220616d6f756e74206f766572666c6f777381525061230d565b600360008473ffffffffffffffffffffffffffffffffffffffff1673ffffffffffffffffffffffffffffffffffffffff16815260200190815260200160002060006101000a8154816bffffffffffffffffffffffff02191690836bffffffffffffffffffffffff1602179055508173ffffffffffffffffffffffffffffffffffffffff168373ffffffffffffffffffffffffffffffffffffffff167fddf252ad1be2c89b69c2b068fc378daa952ba7f163c4a11628f55a4df523b3ef836040516122379190613693565b60405180910390a3612308600460008573ffffffffffffffffffffffffffffffffffffffff1673ffffffffffffffffffffffffffffffffffffffff16815260200190815260200160002060009054906101000a900473ffffffffffffffffffffffffffffffffffffffff16600460008573ffffffffffffffffffffffffffffffffffffffff1673ffffffffffffffffffffffffffffffffffffffff16815260200190815260200160002060009054906101000a900473ffffffffffffffffffffffffffffffffffffffff168361238c565b505050565b600080838561231c9190613753565b9050846bffffffffffffffffffffffff16816bffffffffffffffffffffffff1610158390612380576040517f08c379a000000000000000000000000000000000000000000000000000000000815260040161237791906134d7565b60405180910390fd5b50809150509392505050565b8173ffffffffffffffffffffffffffffffffffffffff168373ffffffffffffffffffffffffffffffffffffffff16141580156123d657506000816bffffffffffffffffffffffff16115b156126ce57600073ffffffffffffffffffffffffffffffffffffffff168373ffffffffffffffffffffffffffffffffffffffff1614612554576000600660008573ffffffffffffffffffffffffffffffffffffffff1673ffffffffffffffffffffffffffffffffffffffff16815260200190815260200160002060009054906101000a900463ffffffff1690506000808263ffffffff16116124795760006124fe565b600560008673ffffffffffffffffffffffffffffffffffffffff1673ffffffffffffffffffffffffffffffffffffffff16815260200190815260200160002060006001846124c791906137c6565b63ffffffff1663ffffffff16815260200190815260200160002060000160049054906101000a90046bffffffffffffffffffffffff165b9050600061254282856040518060400160405280601d81526020017f54726962653a20766f746520616d6f756e7420756e646572666c6f7773000000815250611e95565b905061255086848484612a6b565b5050505b600073ffffffffffffffffffffffffffffffffffffffff168273ffffffffffffffffffffffffffffffffffffffff16146126cd576000600660008473ffffffffffffffffffffffffffffffffffffffff1673ffffffffffffffffffffffffffffffffffffffff16815260200190815260200160002060009054906101000a900463ffffffff1690506000808263ffffffff16116125f2576000612677565b600560008573ffffffffffffffffffffffffffffffffffffffff1673ffffffffffffffffffffffffffffffffffffffff168152602001908152602001600020600060018461264091906137c6565b63ffffffff1663ffffffff16815260200190815260200160002060000160049054906101000a90046bffffffffffffffffffffffff165b905060006126bb82856040518060400160405280601c81526020017f54726962653a20766f746520616d6f756e74206f766572666c6f77730000000081525061230d565b90506126c985848484612a6b565b5050505b5b505050565b6000600460008473ffffffffffffffffffffffffffffffffffffffff1673ffffffffffffffffffffffffffffffffffffffff16815260200190815260200160002060009054906101000a900473ffffffffffffffffffffffffffffffffffffffff1690506000600360008573ffffffffffffffffffffffffffffffffffffffff1673ffffffffffffffffffffffffffffffffffffffff16815260200190815260200160002060009054906101000a90046bffffffffffffffffffffffff16905082600460008673ffffffffffffffffffffffffffffffffffffffff1673ffffffffffffffffffffffffffffffffffffffff16815260200190815260200160002060006101000a81548173ffffffffffffffffffffffffffffffffffffffff021916908373ffffffffffffffffffffffffffffffffffffffff1602179055508273ffffffffffffffffffffffffffffffffffffffff168273ffffffffffffffffffffffffffffffffffffffff168573ffffffffffffffffffffffffffffffffffffffff167f3134e8a2e6d97e929a7e54011ea5485d7d196dd5f0ba4d4ef95803e8e3fc257f60405160405180910390a461288d82848361238c565b50505050565b6000804690508091505090565b612936816040516024016128b4919061338c565b6040516020818303038152906040527f27b7cf85000000000000000000000000000000000000000000000000000000007bffffffffffffffffffffffffffffffffffffffffffffffffffffffff19166020820180517bffffffffffffffffffffffffffffffffffffffffffffffffffffffff8381831617835250505050612d79565b50565b6129cf8160405160240161294d9190613619565b6040516020818303038152906040527ff5b1bba9000000000000000000000000000000000000000000000000000000007bffffffffffffffffffffffffffffffffffffffffffffffffffffffff19166020820180517bffffffffffffffffffffffffffffffffffffffffffffffffffffffff8381831617835250505050612d79565b50565b612a68816040516024016129e6919061332d565b6040516020818303038152906040527f2c2ecbc2000000000000000000000000000000000000000000000000000000007bffffffffffffffffffffffffffffffffffffffffffffffffffffffff19166020820180517bffffffffffffffffffffffffffffffffffffffffffffffffffffffff8381831617835250505050612d79565b50565b6000612a8f43604051806060016040528060238152602001613c4160239139612da2565b905060008463ffffffff16118015612b2d57508063ffffffff16600560008773ffffffffffffffffffffffffffffffffffffffff1673ffffffffffffffffffffffffffffffffffffffff1681526020019081526020016000206000600187612af791906137c6565b63ffffffff1663ffffffff16815260200190815260200160002060000160009054906101000a900463ffffffff1663ffffffff16145b15612bd15781600560008773ffffffffffffffffffffffffffffffffffffffff1673ffffffffffffffffffffffffffffffffffffffff1681526020019081526020016000206000600187612b8191906137c6565b63ffffffff1663ffffffff16815260200190815260200160002060000160046101000a8154816bffffffffffffffffffffffff02191690836bffffffffffffffffffffffff160217905550612d22565b60405180604001604052808263ffffffff168152602001836bffffffffffffffffffffffff16815250600560008773ffffffffffffffffffffffffffffffffffffffff1673ffffffffffffffffffffffffffffffffffffffff16815260200190815260200160002060008663ffffffff1663ffffffff16815260200190815260200160002060008201518160000160006101000a81548163ffffffff021916908363ffffffff16021790555060208201518160000160046101000a8154816bffffffffffffffffffffffff02191690836bffffffffffffffffffffffff160217905550905050600184612cc49190613719565b600660008773ffffffffffffffffffffffffffffffffffffffff1673ffffffffffffffffffffffffffffffffffffffff16815260200190815260200160002060006101000a81548163ffffffff021916908363ffffffff1602179055505b8473ffffffffffffffffffffffffffffffffffffffff167fdec2bacdd2f05b59de34da9b523dff8be42e5e38e818c82fdb0bae774387a7248484604051612d6a9291906136c9565b60405180910390a25050505050565b60008151905060006a636f6e736f6c652e6c6f679050602083016000808483855afa5050505050565b600064010000000083108290612dee576040517f08c379a0000000000000000000000000000000000000000000000000000000008152600401612de591906134d7565b60405180910390fd5b5082905092915050565b600081359050612e0781613bcd565b92915050565b600081359050612e1c81613be4565b92915050565b600081359050612e3181613bfb565b92915050565b600081359050612e4681613c12565b92915050565b600081359050612e5b81613c29565b92915050565b600060208284031215612e7757612e766139ab565b5b6000612e8584828501612df8565b91505092915050565b60008060408385031215612ea557612ea46139ab565b5b6000612eb385828601612df8565b9250506020612ec485828601612df8565b9150509250929050565b600080600060608486031215612ee757612ee66139ab565b5b6000612ef586828701612df8565b9350506020612f0686828701612df8565b9250506040612f1786828701612e22565b9150509250925092565b600080600080600080600060e0888a031215612f4057612f3f6139ab565b5b6000612f4e8a828b01612df8565b9750506020612f5f8a828b01612df8565b9650506040612f708a828b01612e22565b9550506060612f818a828b01612e22565b9450506080612f928a828b01612e4c565b93505060a0612fa38a828b01612e0d565b92505060c0612fb48a828b01612e0d565b91505092959891949750929550565b60008060408385031215612fda57612fd96139ab565b5b6000612fe885828601612df8565b9250506020612ff985828601612e22565b9150509250929050565b60008060008060008060c087890312156130205761301f6139ab565b5b600061302e89828a01612df8565b965050602061303f89828a01612e22565b955050604061305089828a01612e22565b945050606061306189828a01612e4c565b935050608061307289828a01612e0d565b92505060a061308389828a01612e0d565b9150509295509295509295565b600080604083850312156130a7576130a66139ab565b5b60006130b585828601612df8565b92505060206130c685828601612e37565b9150509250929050565b6130d98161382e565b82525050565b6130e881613840565b82525050565b6130f78161384c565b82525050565b61310e6131098261384c565b613943565b82525050565b600061311f826136f2565b61312981856136fd565b93506131398185602086016138c7565b613142816139b0565b840191505092915050565b600061315a60028361370e565b9150613165826139c1565b600282019050919050565b600061317d601f836136fd565b9150613188826139ea565b602082019050919050565b60006131a0602a836136fd565b91506131ab82613a13565b604082019050919050565b60006131c36018836136fd565b91506131ce82613a62565b602082019050919050565b60006131e6602c836136fd565b91506131f182613a8b565b604082019050919050565b60006132096013836136fd565b915061321482613ada565b602082019050919050565b600061322c6018836136fd565b915061323782613b03565b602082019050919050565b600061324f6014836136fd565b915061325a82613b2c565b602082019050919050565b60006132726034836136fd565b915061327d82613b55565b604082019050919050565b60006132956019836136fd565b91506132a082613ba4565b602082019050919050565b6132b481613876565b82525050565b6132c381613880565b82525050565b6132d281613890565b82525050565b6132e1816138b5565b82525050565b6132f08161389d565b82525050565b60006133018261314d565b915061330d82856130fd565b60208201915061331d82846130fd565b6020820191508190509392505050565b600060208201905061334260008301846130d0565b92915050565b600060408201905061335d60008301856130d0565b61336a60208301846130d0565b9392505050565b600060208201905061338660008301846130df565b92915050565b60006020820190506133a160008301846130ee565b92915050565b600060c0820190506133bc60008301896130ee565b6133c960208301886130d0565b6133d660408301876130d0565b6133e360608301866132ab565b6133f060808301856132ab565b6133fd60a08301846132ab565b979650505050505050565b600060808201905061341d60008301876130ee565b61342a60208301866130d0565b61343760408301856132ab565b61344460608301846132ab565b95945050505050565b600060808201905061346260008301876130ee565b61346f60208301866130ee565b61347c60408301856132ab565b61348960608301846130d0565b95945050505050565b60006080820190506134a760008301876130ee565b6134b460208301866132c9565b6134c160408301856130ee565b6134ce60608301846130ee565b95945050505050565b600060208201905081810360008301526134f18184613114565b905092915050565b6000602082019050818103600083015261351281613170565b9050919050565b6000602082019050818103600083015261353281613193565b9050919050565b60006020820190508181036000830152613552816131b6565b9050919050565b60006020820190508181036000830152613572816131d9565b9050919050565b60006020820190508181036000830152613592816131fc565b9050919050565b600060208201905081810360008301526135b28161321f565b9050919050565b600060208201905081810360008301526135d281613242565b9050919050565b600060208201905081810360008301526135f281613265565b9050919050565b6000602082019050818103600083015261361281613288565b9050919050565b600060208201905061362e60008301846132ab565b92915050565b600060208201905061364960008301846132ba565b92915050565b600060408201905061366460008301856132ba565b61367160208301846132e7565b9392505050565b600060208201905061368d60008301846132c9565b92915050565b60006020820190506136a860008301846132d8565b92915050565b60006020820190506136c360008301846132e7565b92915050565b60006040820190506136de60008301856132d8565b6136eb60208301846132d8565b9392505050565b600081519050919050565b600082825260208201905092915050565b600081905092915050565b600061372482613880565b915061372f83613880565b92508263ffffffff038211156137485761374761394d565b5b828201905092915050565b600061375e8261389d565b91506137698361389d565b9250826bffffffffffffffffffffffff0382111561378a5761378961394d565b5b828201905092915050565b60006137a082613880565b91506137ab83613880565b9250826137bb576137ba61397c565b5b828204905092915050565b60006137d182613880565b91506137dc83613880565b9250828210156137ef576137ee61394d565b5b828203905092915050565b60006138058261389d565b91506138108361389d565b9250828210156138235761382261394d565b5b828203905092915050565b600061383982613856565b9050919050565b60008115159050919050565b6000819050919050565b600073ffffffffffffffffffffffffffffffffffffffff82169050919050565b6000819050919050565b600063ffffffff82169050919050565b600060ff82169050919050565b60006bffffffffffffffffffffffff82169050919050565b60006138c08261389d565b9050919050565b60005b838110156138e55780820151818401526020810190506138ca565b838111156138f4576000848401525b50505050565b600061390582613876565b91507fffffffffffffffffffffffffffffffffffffffffffffffffffffffffffffffff8214156139385761393761394d565b5b600182019050919050565b6000819050919050565b7f4e487b7100000000000000000000000000000000000000000000000000000000600052601160045260246000fd5b7f4e487b7100000000000000000000000000000000000000000000000000000000600052601260045260246000fd5b600080fd5b6000601f19601f8301169050919050565b7f1901000000000000000000000000000000000000000000000000000000000000600082015250565b7f54726962653a206f6e6c7920746865206d696e7465722063616e206d696e7400600082015250565b7f54726962653a2063616e6e6f74207472616e7366657220746f20746865207a6560008201527f726f206164647265737300000000000000000000000000000000000000000000602082015250565b7f54726962653a207369676e617475726520657870697265640000000000000000600082015250565b7f54726962653a2063616e6e6f74207472616e736665722066726f6d207468652060008201527f7a65726f20616464726573730000000000000000000000000000000000000000602082015250565b7f54726962653a20756e617574686f72697a656400000000000000000000000000600082015250565b7f54726962653a20696e76616c6964207369676e61747572650000000000000000600082015250565b7f54726962653a20696e76616c6964206e6f6e6365000000000000000000000000600082015250565b7f54726962653a206f6e6c7920746865206d696e7465722063616e206368616e6760008201527f6520746865206d696e7465722061646472657373000000000000000000000000602082015250565b7f54726962653a206e6f74207965742064657465726d696e656400000000000000600082015250565b613bd68161382e565b8114613be157600080fd5b50565b613bed8161384c565b8114613bf857600080fd5b50565b613c0481613876565b8114613c0f57600080fd5b50565b613c1b81613880565b8114613c2657600080fd5b50565b613c3281613890565b8114613c3d57600080fd5b5056fe54726962653a20626c6f636b206e756d6265722065786365656473203332206269747354726962653a20746f74616c537570706c792065786365656473203936206269747354726962653a207472616e7366657220616d6f756e742065786365656473207370656e64657220616c6c6f77616e636554726962653a207472616e7366657220616d6f756e7420657863656564732062616c616e6365a2646970667358221220c15b8baf0fb9fe54df0d2aa4ed99e8fc0668c4a02633f992c58452fc7ab9723264736f6c63430008050033",
  "linkReferences": {},
  "deployedLinkReferences": {}
}