{
  "_format": "hh-sol-artifact-1",
  "contractName": "MixinResolver",
  "sourceName": "contracts/external/synthetix/MixinResolver.sol",
  "abi": [
    {
      "inputs": [],
      "name": "resolver",
      "outputs": [
        {
          "internalType": "contract AddressResolver",
          "name": "",
          "type": "address"
        }
      ],
      "stateMutability": "view",
      "type": "function"
    }
  ],
  "bytecode": "0x6080604052348015600f57600080fd5b5060b98061001e6000396000f3fe6080604052348015600f57600080fd5b506004361060285760003560e01c806304f3bcec14602d575b600080fd5b6033605f565b604051808273ffffffffffffffffffffffffffffffffffffffff16815260200191505060405180910390f35b60008054906101000a900473ffffffffffffffffffffffffffffffffffffffff168156fea2646970667358221220fb744d01305875a2905ca5305c6bbe75f27772974c371baaa0f2cf33fdf033ef64736f6c634300060c0033",
  "linkReferences": {},
  "deployedLinkReferences": {}
}