{
  "_format": "hh-sol-artifact-1",
  "contractName": "BadgerPriceOracle",
  "sourceName": "contracts/oracles/BadgerPriceOracle.sol",
  "abi": [
    {
      "inputs": [],
      "name": "BADGER_ETH_FEED",
      "outputs": [
        {
          "internalType": "contract AggregatorV3Interface",
          "name": "",
          "type": "address"
        }
      ],
      "stateMutability": "view",
      "type": "function"
    },
    {
      "inputs": [],
      "name": "BBADGER",
      "outputs": [
        {
          "internalType": "contract IXToken",
          "name": "",
          "type": "address"
        }
      ],
      "stateMutability": "view",
      "type": "function"
    },
    {
      "inputs": [],
      "name": "BDIGG",
      "outputs": [
        {
          "internalType": "contract DiggSett",
          "name": "",
          "type": "address"
        }
      ],
      "stateMutability": "view",
      "type": "function"
    },
    {
      "inputs": [],
      "name": "BTC_ETH_FEED",
      "outputs": [
        {
          "internalType": "contract AggregatorV3Interface",
          "name": "",
          "type": "address"
        }
      ],
      "stateMutability": "view",
      "type": "function"
    },
    {
      "inputs": [],
      "name": "DIGG_BTC_FEED",
      "outputs": [
        {
          "internalType": "contract AggregatorV3Interface",
          "name": "",
          "type": "address"
        }
      ],
      "stateMutability": "view",
      "type": "function"
    },
    {
      "inputs": [],
      "name": "IBBTC",
      "outputs": [
        {
          "internalType": "contract IXToken",
          "name": "",
          "type": "address"
        }
      ],
      "stateMutability": "view",
      "type": "function"
    },
    {
      "inputs": [
        {
          "internalType": "contract CToken",
          "name": "cToken",
          "type": "address"
        }
      ],
      "name": "getUnderlyingPrice",
      "outputs": [
        {
          "internalType": "uint256",
          "name": "",
          "type": "uint256"
        }
      ],
      "stateMutability": "view",
      "type": "function"
    },
    {
      "inputs": [
        {
          "internalType": "address",
          "name": "underlying",
          "type": "address"
        }
      ],
      "name": "price",
      "outputs": [
        {
          "internalType": "uint256",
          "name": "",
          "type": "uint256"
        }
      ],
      "stateMutability": "view",
      "type": "function"
    }
  ],
  "bytecode": "0x608060405234801561001057600080fd5b50611150806100206000396000f3fe608060405234801561001057600080fd5b50600436106100885760003560e01c8063aea910781161005b578063aea910781461015d578063e5647635146101b5578063fc57d4df146101e9578063ff8a24a71461024157610088565b80633e49cd791461008d5780635c7fdafc146100c157806376d4dc85146100f55780638babb28d14610129575b600080fd5b610095610275565b604051808273ffffffffffffffffffffffffffffffffffffffff16815260200191505060405180910390f35b6100c961028d565b604051808273ffffffffffffffffffffffffffffffffffffffff16815260200191505060405180910390f35b6100fd6102a5565b604051808273ffffffffffffffffffffffffffffffffffffffff16815260200191505060405180910390f35b6101316102bd565b604051808273ffffffffffffffffffffffffffffffffffffffff16815260200191505060405180910390f35b61019f6004803603602081101561017357600080fd5b81019080803573ffffffffffffffffffffffffffffffffffffffff1690602001909291905050506102d5565b6040518082815260200191505060405180910390f35b6101bd6102e7565b604051808273ffffffffffffffffffffffffffffffffffffffff16815260200191505060405180910390f35b61022b600480360360208110156101ff57600080fd5b81019080803573ffffffffffffffffffffffffffffffffffffffff1690602001909291905050506102ff565b6040518082815260200191505060405180910390f35b610249610448565b604051808273ffffffffffffffffffffffffffffffffffffffff16815260200191505060405180910390f35b7319d97d8fa813ee2f51ad4b4e04ea08baf4dffc2881565b73c4e15973e6ff2a35cc804c2cf9d2a1b817a8b40f81565b73deb288f737066589598e9214e782fa5a8ed689e881565b7358921ac140522867bf50b9e009599da0ca4a237981565b60006102e082610460565b9050919050565b73418a6c98cd5b8275955f08f0b8c1c6838c8b168581565b6000808273ffffffffffffffffffffffffffffffffffffffff16636f307dc36040518163ffffffff1660e01b815260040160206040518083038186803b15801561034857600080fd5b505afa15801561035c573d6000803e3d6000fd5b505050506040513d602081101561037257600080fd5b810190808051906020019092919050505090506104408173ffffffffffffffffffffffffffffffffffffffff1663313ce5676040518163ffffffff1660e01b815260040160206040518083038186803b1580156103ce57600080fd5b505afa1580156103e2573d6000803e3d6000fd5b505050506040513d60208110156103f857600080fd5b810190808051906020019092919050505060ff16600a0a610432670de0b6b3a764000061042485610460565b610fb890919063ffffffff16565b61103e90919063ffffffff16565b915050919050565b737e7e112a68d8d2e221e11047a72ffc1065c38e1a81565b60007319d97d8fa813ee2f51ad4b4e04ea08baf4dffc2873ffffffffffffffffffffffffffffffffffffffff168273ffffffffffffffffffffffffffffffffffffffff1614156106dc5760008060007358921ac140522867bf50b9e009599da0ca4a237973ffffffffffffffffffffffffffffffffffffffff1663feaf968c6040518163ffffffff1660e01b815260040160a06040518083038186803b15801561050957600080fd5b505afa15801561051d573d6000803e3d6000fd5b505050506040513d60a081101561053357600080fd5b81019080805190602001909291908051906020019092919080519060200190929190805190602001909291908051906020019092919050505094505050925092508269ffffffffffffffffffff168169ffffffffffffffffffff1614610601576040517f08c379a000000000000000000000000000000000000000000000000000000000815260040180806020018281038252601a8152602001807f436861696e6c696e6b20726f756e642074696d6564206f75742e00000000000081525060200191505060405180910390fd5b600082136106105760006106d2565b6106d1670de0b6b3a76400006106c37319d97d8fa813ee2f51ad4b4e04ea08baf4dffc2873ffffffffffffffffffffffffffffffffffffffff166377c7b8fc6040518163ffffffff1660e01b815260040160206040518083038186803b15801561067957600080fd5b505afa15801561068d573d6000803e3d6000fd5b505050506040513d60208110156106a357600080fd5b810190808051906020019092919050505085610fb890919063ffffffff16565b61103e90919063ffffffff16565b5b9350505050610fb3565b737e7e112a68d8d2e221e11047a72ffc1065c38e1a73ffffffffffffffffffffffffffffffffffffffff168273ffffffffffffffffffffffffffffffffffffffff161415610ce857600080600073418a6c98cd5b8275955f08f0b8c1c6838c8b168573ffffffffffffffffffffffffffffffffffffffff1663feaf968c6040518163ffffffff1660e01b815260040160a06040518083038186803b15801561078357600080fd5b505afa158015610797573d6000803e3d6000fd5b505050506040513d60a08110156107ad57600080fd5b81019080805190602001909291908051906020019092919080519060200190929190805190602001909291908051906020019092919050505094505050925092508269ffffffffffffffffffff168169ffffffffffffffffffff161461087b576040517f08c379a000000000000000000000000000000000000000000000000000000000815260040180806020018281038252601a8152602001807f436861696e6c696e6b20726f756e642074696d6564206f75742e00000000000081525060200191505060405180910390fd5b60008212156108905760009350505050610fb3565b600073deb288f737066589598e9214e782fa5a8ed689e873ffffffffffffffffffffffffffffffffffffffff1663feaf968c6040518163ffffffff1660e01b815260040160a06040518083038186803b1580156108ec57600080fd5b505afa158015610900573d6000803e3d6000fd5b505050506040513d60a081101561091657600080fd5b81019080805190602001909291908051906020019092919080519060200190929190805190602001909291908051906020019092919050505090915090508094508193508296505050508369ffffffffffffffffffff168269ffffffffffffffffffff16146109ed576040517f08c379a000000000000000000000000000000000000000000000000000000000815260040180806020018281038252601a8152602001807f436861696e6c696e6b20726f756e642074696d6564206f75742e00000000000081525060200191505060405180910390fd5b6000811215610a03576000945050505050610fb3565b6000737e7e112a68d8d2e221e11047a72ffc1065c38e1a73ffffffffffffffffffffffffffffffffffffffff1663fc0c546a6040518163ffffffff1660e01b815260040160206040518083038186803b158015610a5f57600080fd5b505afa158015610a73573d6000803e3d6000fd5b505050506040513d6020811015610a8957600080fd5b810190808051906020019092919050505073ffffffffffffffffffffffffffffffffffffffff16635d2dde1d610c0a670de0b6b3a7640000610bfc737e7e112a68d8d2e221e11047a72ffc1065c38e1a73ffffffffffffffffffffffffffffffffffffffff166318160ddd6040518163ffffffff1660e01b815260040160206040518083038186803b158015610b1e57600080fd5b505afa158015610b32573d6000803e3d6000fd5b505050506040513d6020811015610b4857600080fd5b8101908080519060200190929190505050737e7e112a68d8d2e221e11047a72ffc1065c38e1a73ffffffffffffffffffffffffffffffffffffffff166303314efa6040518163ffffffff1660e01b815260040160206040518083038186803b158015610bb357600080fd5b505afa158015610bc7573d6000803e3d6000fd5b505050506040513d6020811015610bdd57600080fd5b810190808051906020019092919050505061103e90919063ffffffff16565b610fb890919063ffffffff16565b6040518263ffffffff1660e01b81526004018082815260200191505060206040518083038186803b158015610c3e57600080fd5b505afa158015610c52573d6000803e3d6000fd5b505050506040513d6020811015610c6857600080fd5b8101908080519060200190929190505050905060008111610c8a576000610cdc565b610cdb633b9aca00610ccd83610cbf6305f5e100610cb1888b610fb890919063ffffffff16565b61103e90919063ffffffff16565b610fb890919063ffffffff16565b61103e90919063ffffffff16565b5b95505050505050610fb3565b73c4e15973e6ff2a35cc804c2cf9d2a1b817a8b40f73ffffffffffffffffffffffffffffffffffffffff168273ffffffffffffffffffffffffffffffffffffffff161415610f6257600080600073deb288f737066589598e9214e782fa5a8ed689e873ffffffffffffffffffffffffffffffffffffffff1663feaf968c6040518163ffffffff1660e01b815260040160a06040518083038186803b158015610d8f57600080fd5b505afa158015610da3573d6000803e3d6000fd5b505050506040513d60a0811015610db957600080fd5b81019080805190602001909291908051906020019092919080519060200190929190805190602001909291908051906020019092919050505094505050925092508269ffffffffffffffffffff168169ffffffffffffffffffff1614610e87576040517f08c379a000000000000000000000000000000000000000000000000000000000815260040180806020018281038252601a8152602001807f436861696e6c696e6b20726f756e642074696d6564206f75742e00000000000081525060200191505060405180910390fd5b60008213610e96576000610f58565b610f57670de0b6b3a7640000610f4973c4e15973e6ff2a35cc804c2cf9d2a1b817a8b40f73ffffffffffffffffffffffffffffffffffffffff166399530b066040518163ffffffff1660e01b815260040160206040518083038186803b158015610eff57600080fd5b505afa158015610f13573d6000803e3d6000fd5b505050506040513d6020811015610f2957600080fd5b810190808051906020019092919050505085610fb890919063ffffffff16565b61103e90919063ffffffff16565b5b9350505050610fb3565b6040517f08c379a00000000000000000000000000000000000000000000000000000000081526004018080602001828103825260328152602001806110e96032913960400191505060405180910390fd5b919050565b600080831415610fcb5760009050611038565b6000828402905082848281610fdc57fe5b0414611033576040517f08c379a00000000000000000000000000000000000000000000000000000000081526004018080602001828103825260218152602001806110c86021913960400191505060405180910390fd5b809150505b92915050565b60008082116110b5576040517f08c379a000000000000000000000000000000000000000000000000000000000815260040180806020018281038252601a8152602001807f536166654d6174683a206469766973696f6e206279207a65726f00000000000081525060200191505060405180910390fd5b8183816110be57fe5b0490509291505056fe536166654d6174683a206d756c7469706c69636174696f6e206f766572666c6f77496e76616c696420746f6b656e20616464726573732070617373656420746f2042616467657250726963654f7261636c652ea2646970667358221220b8e05945b0b5bf1ce190d32b81413aeb0b1eed2fea2da8bc83091e599105708964736f6c634300060c0033",
  "linkReferences": {},
  "deployedLinkReferences": {}
}