{
  "_format": "hh-sol-artifact-1",
  "contractName": "FusePoolLens",
  "sourceName": "contracts/FusePoolLens.sol",
  "abi": [
    {
      "inputs": [],
      "name": "directory",
      "outputs": [
        {
          "internalType": "contract FusePoolDirectory",
          "name": "",
          "type": "address"
        }
      ],
      "stateMutability": "view",
      "type": "function"
    },
    {
      "inputs": [
        {
          "internalType": "contract Comptroller",
          "name": "comptroller",
          "type": "address"
        }
      ],
      "name": "getPoolAssetsWithData",
      "outputs": [
        {
          "components": [
            {
              "internalType": "address",
              "name": "cToken",
              "type": "address"
            },
            {
              "internalType": "address",
              "name": "underlyingToken",
              "type": "address"
            },
            {
              "internalType": "string",
              "name": "underlyingName",
              "type": "string"
            },
            {
              "internalType": "string",
              "name": "underlyingSymbol",
              "type": "string"
            },
            {
              "internalType": "uint256",
              "name": "underlyingDecimals",
              "type": "uint256"
            },
            {
              "internalType": "uint256",
              "name": "underlyingBalance",
              "type": "uint256"
            },
            {
              "internalType": "uint256",
              "name": "supplyRatePerBlock",
              "type": "uint256"
            },
            {
              "internalType": "uint256",
              "name": "borrowRatePerBlock",
              "type": "uint256"
            },
            {
              "internalType": "uint256",
              "name": "totalSupply",
              "type": "uint256"
            },
            {
              "internalType": "uint256",
              "name": "totalBorrow",
              "type": "uint256"
            },
            {
              "internalType": "uint256",
              "name": "supplyBalance",
              "type": "uint256"
            },
            {
              "internalType": "uint256",
              "name": "borrowBalance",
              "type": "uint256"
            },
            {
              "internalType": "uint256",
              "name": "liquidity",
              "type": "uint256"
            },
            {
              "internalType": "bool",
              "name": "membership",
              "type": "bool"
            },
            {
              "internalType": "uint256",
              "name": "exchangeRate",
              "type": "uint256"
            },
            {
              "internalType": "uint256",
              "name": "underlyingPrice",
              "type": "uint256"
            },
            {
              "internalType": "address",
              "name": "oracle",
              "type": "address"
            },
            {
              "internalType": "uint256",
              "name": "collateralFactor",
              "type": "uint256"
            },
            {
              "internalType": "uint256",
              "name": "reserveFactor",
              "type": "uint256"
            },
            {
              "internalType": "uint256",
              "name": "adminFee",
              "type": "uint256"
            },
            {
              "internalType": "uint256",
              "name": "fuseFee",
              "type": "uint256"
            },
            {
              "internalType": "bool",
              "name": "borrowGuardianPaused",
              "type": "bool"
            }
          ],
          "internalType": "struct FusePoolLens.FusePoolAsset[]",
          "name": "",
          "type": "tuple[]"
        }
      ],
      "stateMutability": "nonpayable",
      "type": "function"
    },
    {
      "inputs": [
        {
          "internalType": "contract Comptroller",
          "name": "comptroller",
          "type": "address"
        }
      ],
      "name": "getPoolSummary",
      "outputs": [
        {
          "internalType": "uint256",
          "name": "",
          "type": "uint256"
        },
        {
          "internalType": "uint256",
          "name": "",
          "type": "uint256"
        },
        {
          "internalType": "address[]",
          "name": "",
          "type": "address[]"
        },
        {
          "internalType": "string[]",
          "name": "",
          "type": "string[]"
        },
        {
          "internalType": "bool",
          "name": "",
          "type": "bool"
        }
      ],
      "stateMutability": "nonpayable",
      "type": "function"
    },
    {
      "inputs": [
        {
          "internalType": "contract Comptroller",
          "name": "comptroller",
          "type": "address"
        },
        {
          "internalType": "address",
          "name": "account",
          "type": "address"
        }
      ],
      "name": "getPoolUserSummary",
      "outputs": [
        {
          "internalType": "uint256",
          "name": "",
          "type": "uint256"
        },
        {
          "internalType": "uint256",
          "name": "",
          "type": "uint256"
        }
      ],
      "stateMutability": "nonpayable",
      "type": "function"
    },
    {
      "inputs": [
        {
          "internalType": "contract Comptroller[]",
          "name": "comptrollers",
          "type": "address[]"
        },
        {
          "internalType": "uint256",
          "name": "maxHealth",
          "type": "uint256"
        }
      ],
      "name": "getPoolUsersWithData",
      "outputs": [
        {
          "components": [
            {
              "internalType": "address",
              "name": "account",
              "type": "address"
            },
            {
              "internalType": "uint256",
              "name": "totalBorrow",
              "type": "uint256"
            },
            {
              "internalType": "uint256",
              "name": "totalCollateral",
              "type": "uint256"
            },
            {
              "internalType": "uint256",
              "name": "health",
              "type": "uint256"
            },
            {
              "components": [
                {
                  "internalType": "address",
                  "name": "cToken",
                  "type": "address"
                },
                {
                  "internalType": "address",
                  "name": "underlyingToken",
                  "type": "address"
                },
                {
                  "internalType": "string",
                  "name": "underlyingName",
                  "type": "string"
                },
                {
                  "internalType": "string",
                  "name": "underlyingSymbol",
                  "type": "string"
                },
                {
                  "internalType": "uint256",
                  "name": "underlyingDecimals",
                  "type": "uint256"
                },
                {
                  "internalType": "uint256",
                  "name": "underlyingBalance",
                  "type": "uint256"
                },
                {
                  "internalType": "uint256",
                  "name": "supplyRatePerBlock",
                  "type": "uint256"
                },
                {
                  "internalType": "uint256",
                  "name": "borrowRatePerBlock",
                  "type": "uint256"
                },
                {
                  "internalType": "uint256",
                  "name": "totalSupply",
                  "type": "uint256"
                },
                {
                  "internalType": "uint256",
                  "name": "totalBorrow",
                  "type": "uint256"
                },
                {
                  "internalType": "uint256",
                  "name": "supplyBalance",
                  "type": "uint256"
                },
                {
                  "internalType": "uint256",
                  "name": "borrowBalance",
                  "type": "uint256"
                },
                {
                  "internalType": "uint256",
                  "name": "liquidity",
                  "type": "uint256"
                },
                {
                  "internalType": "bool",
                  "name": "membership",
                  "type": "bool"
                },
                {
                  "internalType": "uint256",
                  "name": "exchangeRate",
                  "type": "uint256"
                },
                {
                  "internalType": "uint256",
                  "name": "underlyingPrice",
                  "type": "uint256"
                },
                {
                  "internalType": "address",
                  "name": "oracle",
                  "type": "address"
                },
                {
                  "internalType": "uint256",
                  "name": "collateralFactor",
                  "type": "uint256"
                },
                {
                  "internalType": "uint256",
                  "name": "reserveFactor",
                  "type": "uint256"
                },
                {
                  "internalType": "uint256",
                  "name": "adminFee",
                  "type": "uint256"
                },
                {
                  "internalType": "uint256",
                  "name": "fuseFee",
                  "type": "uint256"
                },
                {
                  "internalType": "bool",
                  "name": "borrowGuardianPaused",
                  "type": "bool"
                }
              ],
              "internalType": "struct FusePoolLens.FusePoolAsset[]",
              "name": "assets",
              "type": "tuple[]"
            }
          ],
          "internalType": "struct FusePoolLens.FusePoolUser[][]",
          "name": "",
          "type": "tuple[][]"
        },
        {
          "internalType": "uint256[]",
          "name": "",
          "type": "uint256[]"
        },
        {
          "internalType": "uint256[]",
          "name": "",
          "type": "uint256[]"
        },
        {
          "internalType": "bool[]",
          "name": "",
          "type": "bool[]"
        }
      ],
      "stateMutability": "nonpayable",
      "type": "function"
    },
    {
      "inputs": [
        {
          "internalType": "contract Comptroller",
          "name": "comptroller",
          "type": "address"
        },
        {
          "internalType": "uint256",
          "name": "maxHealth",
          "type": "uint256"
        }
      ],
      "name": "getPoolUsersWithData",
      "outputs": [
        {
          "components": [
            {
              "internalType": "address",
              "name": "account",
              "type": "address"
            },
            {
              "internalType": "uint256",
              "name": "totalBorrow",
              "type": "uint256"
            },
            {
              "internalType": "uint256",
              "name": "totalCollateral",
              "type": "uint256"
            },
            {
              "internalType": "uint256",
              "name": "health",
              "type": "uint256"
            },
            {
              "components": [
                {
                  "internalType": "address",
                  "name": "cToken",
                  "type": "address"
                },
                {
                  "internalType": "address",
                  "name": "underlyingToken",
                  "type": "address"
                },
                {
                  "internalType": "string",
                  "name": "underlyingName",
                  "type": "string"
                },
                {
                  "internalType": "string",
                  "name": "underlyingSymbol",
                  "type": "string"
                },
                {
                  "internalType": "uint256",
                  "name": "underlyingDecimals",
                  "type": "uint256"
                },
                {
                  "internalType": "uint256",
                  "name": "underlyingBalance",
                  "type": "uint256"
                },
                {
                  "internalType": "uint256",
                  "name": "supplyRatePerBlock",
                  "type": "uint256"
                },
                {
                  "internalType": "uint256",
                  "name": "borrowRatePerBlock",
                  "type": "uint256"
                },
                {
                  "internalType": "uint256",
                  "name": "totalSupply",
                  "type": "uint256"
                },
                {
                  "internalType": "uint256",
                  "name": "totalBorrow",
                  "type": "uint256"
                },
                {
                  "internalType": "uint256",
                  "name": "supplyBalance",
                  "type": "uint256"
                },
                {
                  "internalType": "uint256",
                  "name": "borrowBalance",
                  "type": "uint256"
                },
                {
                  "internalType": "uint256",
                  "name": "liquidity",
                  "type": "uint256"
                },
                {
                  "internalType": "bool",
                  "name": "membership",
                  "type": "bool"
                },
                {
                  "internalType": "uint256",
                  "name": "exchangeRate",
                  "type": "uint256"
                },
                {
                  "internalType": "uint256",
                  "name": "underlyingPrice",
                  "type": "uint256"
                },
                {
                  "internalType": "address",
                  "name": "oracle",
                  "type": "address"
                },
                {
                  "internalType": "uint256",
                  "name": "collateralFactor",
                  "type": "uint256"
                },
                {
                  "internalType": "uint256",
                  "name": "reserveFactor",
                  "type": "uint256"
                },
                {
                  "internalType": "uint256",
                  "name": "adminFee",
                  "type": "uint256"
                },
                {
                  "internalType": "uint256",
                  "name": "fuseFee",
                  "type": "uint256"
                },
                {
                  "internalType": "bool",
                  "name": "borrowGuardianPaused",
                  "type": "bool"
                }
              ],
              "internalType": "struct FusePoolLens.FusePoolAsset[]",
              "name": "assets",
              "type": "tuple[]"
            }
          ],
          "internalType": "struct FusePoolLens.FusePoolUser[]",
          "name": "",
          "type": "tuple[]"
        },
        {
          "internalType": "uint256",
          "name": "",
          "type": "uint256"
        },
        {
          "internalType": "uint256",
          "name": "",
          "type": "uint256"
        }
      ],
      "stateMutability": "nonpayable",
      "type": "function"
    },
    {
      "inputs": [
        {
          "internalType": "address",
          "name": "account",
          "type": "address"
        }
      ],
      "name": "getPoolsByAccountWithData",
      "outputs": [
        {
          "internalType": "uint256[]",
          "name": "",
          "type": "uint256[]"
        },
        {
          "components": [
            {
              "internalType": "string",
              "name": "name",
              "type": "string"
            },
            {
              "internalType": "address",
              "name": "creator",
              "type": "address"
            },
            {
              "internalType": "address",
              "name": "comptroller",
              "type": "address"
            },
            {
              "internalType": "uint256",
              "name": "blockPosted",
              "type": "uint256"
            },
            {
              "internalType": "uint256",
              "name": "timestampPosted",
              "type": "uint256"
            }
          ],
          "internalType": "struct FusePoolDirectory.FusePool[]",
          "name": "",
          "type": "tuple[]"
        },
        {
          "components": [
            {
              "internalType": "uint256",
              "name": "totalSupply",
              "type": "uint256"
            },
            {
              "internalType": "uint256",
              "name": "totalBorrow",
              "type": "uint256"
            },
            {
              "internalType": "address[]",
              "name": "underlyingTokens",
              "type": "address[]"
            },
            {
              "internalType": "string[]",
              "name": "underlyingSymbols",
              "type": "string[]"
            },
            {
              "internalType": "bool",
              "name": "whitelistedAdmin",
              "type": "bool"
            }
          ],
          "internalType": "struct FusePoolLens.FusePoolData[]",
          "name": "",
          "type": "tuple[]"
        },
        {
          "internalType": "bool[]",
          "name": "",
          "type": "bool[]"
        }
      ],
      "stateMutability": "nonpayable",
      "type": "function"
    },
    {
      "inputs": [
        {
          "internalType": "address",
          "name": "account",
          "type": "address"
        }
      ],
      "name": "getPoolsBySupplier",
      "outputs": [
        {
          "internalType": "uint256[]",
          "name": "",
          "type": "uint256[]"
        },
        {
          "components": [
            {
              "internalType": "string",
              "name": "name",
              "type": "string"
            },
            {
              "internalType": "address",
              "name": "creator",
              "type": "address"
            },
            {
              "internalType": "address",
              "name": "comptroller",
              "type": "address"
            },
            {
              "internalType": "uint256",
              "name": "blockPosted",
              "type": "uint256"
            },
            {
              "internalType": "uint256",
              "name": "timestampPosted",
              "type": "uint256"
            }
          ],
          "internalType": "struct FusePoolDirectory.FusePool[]",
          "name": "",
          "type": "tuple[]"
        }
      ],
      "stateMutability": "view",
      "type": "function"
    },
    {
      "inputs": [
        {
          "internalType": "address",
          "name": "account",
          "type": "address"
        }
      ],
      "name": "getPoolsBySupplierWithData",
      "outputs": [
        {
          "internalType": "uint256[]",
          "name": "",
          "type": "uint256[]"
        },
        {
          "components": [
            {
              "internalType": "string",
              "name": "name",
              "type": "string"
            },
            {
              "internalType": "address",
              "name": "creator",
              "type": "address"
            },
            {
              "internalType": "address",
              "name": "comptroller",
              "type": "address"
            },
            {
              "internalType": "uint256",
              "name": "blockPosted",
              "type": "uint256"
            },
            {
              "internalType": "uint256",
              "name": "timestampPosted",
              "type": "uint256"
            }
          ],
          "internalType": "struct FusePoolDirectory.FusePool[]",
          "name": "",
          "type": "tuple[]"
        },
        {
          "components": [
            {
              "internalType": "uint256",
              "name": "totalSupply",
              "type": "uint256"
            },
            {
              "internalType": "uint256",
              "name": "totalBorrow",
              "type": "uint256"
            },
            {
              "internalType": "address[]",
              "name": "underlyingTokens",
              "type": "address[]"
            },
            {
              "internalType": "string[]",
              "name": "underlyingSymbols",
              "type": "string[]"
            },
            {
              "internalType": "bool",
              "name": "whitelistedAdmin",
              "type": "bool"
            }
          ],
          "internalType": "struct FusePoolLens.FusePoolData[]",
          "name": "",
          "type": "tuple[]"
        },
        {
          "internalType": "bool[]",
          "name": "",
          "type": "bool[]"
        }
      ],
      "stateMutability": "nonpayable",
      "type": "function"
    },
    {
      "inputs": [
        {
          "internalType": "uint256",
          "name": "maxHealth",
          "type": "uint256"
        }
      ],
      "name": "getPublicPoolUsersWithData",
      "outputs": [
        {
          "internalType": "contract Comptroller[]",
          "name": "",
          "type": "address[]"
        },
        {
          "components": [
            {
              "internalType": "address",
              "name": "account",
              "type": "address"
            },
            {
              "internalType": "uint256",
              "name": "totalBorrow",
              "type": "uint256"
            },
            {
              "internalType": "uint256",
              "name": "totalCollateral",
              "type": "uint256"
            },
            {
              "internalType": "uint256",
              "name": "health",
              "type": "uint256"
            },
            {
              "components": [
                {
                  "internalType": "address",
                  "name": "cToken",
                  "type": "address"
                },
                {
                  "internalType": "address",
                  "name": "underlyingToken",
                  "type": "address"
                },
                {
                  "internalType": "string",
                  "name": "underlyingName",
                  "type": "string"
                },
                {
                  "internalType": "string",
                  "name": "underlyingSymbol",
                  "type": "string"
                },
                {
                  "internalType": "uint256",
                  "name": "underlyingDecimals",
                  "type": "uint256"
                },
                {
                  "internalType": "uint256",
                  "name": "underlyingBalance",
                  "type": "uint256"
                },
                {
                  "internalType": "uint256",
                  "name": "supplyRatePerBlock",
                  "type": "uint256"
                },
                {
                  "internalType": "uint256",
                  "name": "borrowRatePerBlock",
                  "type": "uint256"
                },
                {
                  "internalType": "uint256",
                  "name": "totalSupply",
                  "type": "uint256"
                },
                {
                  "internalType": "uint256",
                  "name": "totalBorrow",
                  "type": "uint256"
                },
                {
                  "internalType": "uint256",
                  "name": "supplyBalance",
                  "type": "uint256"
                },
                {
                  "internalType": "uint256",
                  "name": "borrowBalance",
                  "type": "uint256"
                },
                {
                  "internalType": "uint256",
                  "name": "liquidity",
                  "type": "uint256"
                },
                {
                  "internalType": "bool",
                  "name": "membership",
                  "type": "bool"
                },
                {
                  "internalType": "uint256",
                  "name": "exchangeRate",
                  "type": "uint256"
                },
                {
                  "internalType": "uint256",
                  "name": "underlyingPrice",
                  "type": "uint256"
                },
                {
                  "internalType": "address",
                  "name": "oracle",
                  "type": "address"
                },
                {
                  "internalType": "uint256",
                  "name": "collateralFactor",
                  "type": "uint256"
                },
                {
                  "internalType": "uint256",
                  "name": "reserveFactor",
                  "type": "uint256"
                },
                {
                  "internalType": "uint256",
                  "name": "adminFee",
                  "type": "uint256"
                },
                {
                  "internalType": "uint256",
                  "name": "fuseFee",
                  "type": "uint256"
                },
                {
                  "internalType": "bool",
                  "name": "borrowGuardianPaused",
                  "type": "bool"
                }
              ],
              "internalType": "struct FusePoolLens.FusePoolAsset[]",
              "name": "assets",
              "type": "tuple[]"
            }
          ],
          "internalType": "struct FusePoolLens.FusePoolUser[][]",
          "name": "",
          "type": "tuple[][]"
        },
        {
          "internalType": "uint256[]",
          "name": "",
          "type": "uint256[]"
        },
        {
          "internalType": "uint256[]",
          "name": "",
          "type": "uint256[]"
        },
        {
          "internalType": "bool[]",
          "name": "",
          "type": "bool[]"
        }
      ],
      "stateMutability": "nonpayable",
      "type": "function"
    },
    {
      "inputs": [
        {
          "internalType": "bool",
          "name": "whitelistedAdmin",
          "type": "bool"
        }
      ],
      "name": "getPublicPoolsByVerificationWithData",
      "outputs": [
        {
          "internalType": "uint256[]",
          "name": "",
          "type": "uint256[]"
        },
        {
          "components": [
            {
              "internalType": "string",
              "name": "name",
              "type": "string"
            },
            {
              "internalType": "address",
              "name": "creator",
              "type": "address"
            },
            {
              "internalType": "address",
              "name": "comptroller",
              "type": "address"
            },
            {
              "internalType": "uint256",
              "name": "blockPosted",
              "type": "uint256"
            },
            {
              "internalType": "uint256",
              "name": "timestampPosted",
              "type": "uint256"
            }
          ],
          "internalType": "struct FusePoolDirectory.FusePool[]",
          "name": "",
          "type": "tuple[]"
        },
        {
          "components": [
            {
              "internalType": "uint256",
              "name": "totalSupply",
              "type": "uint256"
            },
            {
              "internalType": "uint256",
              "name": "totalBorrow",
              "type": "uint256"
            },
            {
              "internalType": "address[]",
              "name": "underlyingTokens",
              "type": "address[]"
            },
            {
              "internalType": "string[]",
              "name": "underlyingSymbols",
              "type": "string[]"
            },
            {
              "internalType": "bool",
              "name": "whitelistedAdmin",
              "type": "bool"
            }
          ],
          "internalType": "struct FusePoolLens.FusePoolData[]",
          "name": "",
          "type": "tuple[]"
        },
        {
          "internalType": "bool[]",
          "name": "",
          "type": "bool[]"
        }
      ],
      "stateMutability": "nonpayable",
      "type": "function"
    },
    {
      "inputs": [],
      "name": "getPublicPoolsWithData",
      "outputs": [
        {
          "internalType": "uint256[]",
          "name": "",
          "type": "uint256[]"
        },
        {
          "components": [
            {
              "internalType": "string",
              "name": "name",
              "type": "string"
            },
            {
              "internalType": "address",
              "name": "creator",
              "type": "address"
            },
            {
              "internalType": "address",
              "name": "comptroller",
              "type": "address"
            },
            {
              "internalType": "uint256",
              "name": "blockPosted",
              "type": "uint256"
            },
            {
              "internalType": "uint256",
              "name": "timestampPosted",
              "type": "uint256"
            }
          ],
          "internalType": "struct FusePoolDirectory.FusePool[]",
          "name": "",
          "type": "tuple[]"
        },
        {
          "components": [
            {
              "internalType": "uint256",
              "name": "totalSupply",
              "type": "uint256"
            },
            {
              "internalType": "uint256",
              "name": "totalBorrow",
              "type": "uint256"
            },
            {
              "internalType": "address[]",
              "name": "underlyingTokens",
              "type": "address[]"
            },
            {
              "internalType": "string[]",
              "name": "underlyingSymbols",
              "type": "string[]"
            },
            {
              "internalType": "bool",
              "name": "whitelistedAdmin",
              "type": "bool"
            }
          ],
          "internalType": "struct FusePoolLens.FusePoolData[]",
          "name": "",
          "type": "tuple[]"
        },
        {
          "internalType": "bool[]",
          "name": "",
          "type": "bool[]"
        }
      ],
      "stateMutability": "nonpayable",
      "type": "function"
    },
    {
      "inputs": [
        {
          "internalType": "address",
          "name": "account",
          "type": "address"
        }
      ],
      "name": "getUserSummary",
      "outputs": [
        {
          "internalType": "uint256",
          "name": "",
          "type": "uint256"
        },
        {
          "internalType": "uint256",
          "name": "",
          "type": "uint256"
        },
        {
          "internalType": "bool",
          "name": "",
          "type": "bool"
        }
      ],
      "stateMutability": "nonpayable",
      "type": "function"
    },
    {
      "inputs": [
        {
          "internalType": "address",
          "name": "account",
          "type": "address"
        }
      ],
      "name": "getWhitelistedPoolsByAccount",
      "outputs": [
        {
          "internalType": "uint256[]",
          "name": "",
          "type": "uint256[]"
        },
        {
          "components": [
            {
              "internalType": "string",
              "name": "name",
              "type": "string"
            },
            {
              "internalType": "address",
              "name": "creator",
              "type": "address"
            },
            {
              "internalType": "address",
              "name": "comptroller",
              "type": "address"
            },
            {
              "internalType": "uint256",
              "name": "blockPosted",
              "type": "uint256"
            },
            {
              "internalType": "uint256",
              "name": "timestampPosted",
              "type": "uint256"
            }
          ],
          "internalType": "struct FusePoolDirectory.FusePool[]",
          "name": "",
          "type": "tuple[]"
        }
      ],
      "stateMutability": "view",
      "type": "function"
    },
    {
      "inputs": [
        {
          "internalType": "address",
          "name": "account",
          "type": "address"
        }
      ],
      "name": "getWhitelistedPoolsByAccountWithData",
      "outputs": [
        {
          "internalType": "uint256[]",
          "name": "",
          "type": "uint256[]"
        },
        {
          "components": [
            {
              "internalType": "string",
              "name": "name",
              "type": "string"
            },
            {
              "internalType": "address",
              "name": "creator",
              "type": "address"
            },
            {
              "internalType": "address",
              "name": "comptroller",
              "type": "address"
            },
            {
              "internalType": "uint256",
              "name": "blockPosted",
              "type": "uint256"
            },
            {
              "internalType": "uint256",
              "name": "timestampPosted",
              "type": "uint256"
            }
          ],
          "internalType": "struct FusePoolDirectory.FusePool[]",
          "name": "",
          "type": "tuple[]"
        },
        {
          "components": [
            {
              "internalType": "uint256",
              "name": "totalSupply",
              "type": "uint256"
            },
            {
              "internalType": "uint256",
              "name": "totalBorrow",
              "type": "uint256"
            },
            {
              "internalType": "address[]",
              "name": "underlyingTokens",
              "type": "address[]"
            },
            {
              "internalType": "string[]",
              "name": "underlyingSymbols",
              "type": "string[]"
            },
            {
              "internalType": "bool",
              "name": "whitelistedAdmin",
              "type": "bool"
            }
          ],
          "internalType": "struct FusePoolLens.FusePoolData[]",
          "name": "",
          "type": "tuple[]"
        },
        {
          "internalType": "bool[]",
          "name": "",
          "type": "bool[]"
        }
      ],
      "stateMutability": "nonpayable",
      "type": "function"
    },
    {
      "inputs": [
        {
          "internalType": "contract FusePoolDirectory",
          "name": "_directory",
          "type": "address"
        }
      ],
      "name": "initialize",
      "outputs": [],
      "stateMutability": "nonpayable",
      "type": "function"
    }
  ],
  "bytecode": "0x608060405234801561001057600080fd5b5061740180620000216000396000f3fe608060405234801561001057600080fd5b50600436106101005760003560e01c80639c00a3d411610097578063d0a164fb11610066578063d0a164fb14610335578063d15e963114610356578063d64996e514610387578063dedfe22f146103ba57610100565b80639c00a3d414610298578063c3530a63146102ca578063c41c2f24146102fb578063c4d66de81461031957610100565b806359d2fea6116100d357806359d2fea6146101cc578063635629e61461020057806370733375146102335780638fbd0c2d1461026657610100565b80630b9c80bd1461010557806327e16c1f146101365780635167868414610166578063586f6c1014610199575b600080fd5b61011f600480360381019061011a9190615436565b6103ee565b60405161012d929190616ab1565b60405180910390f35b610150600480360381019061014b9190615700565b6109cd565b60405161015d9190616a51565b60405180910390f35b610180600480360381019061017b9190615436565b610a63565b6040516101909493929190616ae8565b60405180910390f35b6101b360048036038101906101ae919061550a565b610b47565b6040516101c3949392919061697a565b60405180910390f35b6101e660048036038101906101e19190615700565b610dca565b6040516101f7959493929190616cf0565b60405180910390f35b61021a60048036038101906102159190615436565b611785565b60405161022a9493929190616ae8565b60405180910390f35b61024d60048036038101906102489190615436565b6117c2565b60405161025d9493929190616ae8565b60405180910390f35b610280600480360381019061027b9190615436565b6117ff565b60405161028f93929190616d51565b60405180910390f35b6102b260048036038101906102ad9190615765565b6119b5565b6040516102c193929190616a73565b60405180910390f35b6102e460048036038101906102df9190615436565b612158565b6040516102f2929190616ab1565b60405180910390f35b61030361249c565b6040516103109190616bec565b60405180910390f35b610333600480360381019061032e91906157a1565b6124c2565b005b61033d61265c565b60405161034d9493929190616ae8565b60405180910390f35b610370600480360381019061036b9190615729565b612734565b60405161037e929190616cc7565b60405180910390f35b6103a1600480360381019061039c9190615672565b612bec565b6040516103b19493929190616ae8565b60405180910390f35b6103d460048036038101906103cf9190615834565b612cd0565b6040516103e59594939291906169db565b60405180910390f35b6060806060600060029054906101000a900473ffffffffffffffffffffffffffffffffffffffff1673ffffffffffffffffffffffffffffffffffffffff1663d88ff1f46040518163ffffffff1660e01b815260040160006040518083038186803b15801561045b57600080fd5b505afa15801561046f573d6000803e3d6000fd5b505050506040513d6000823e3d601f19601f8201168201806040525081019061049891906155c5565b90506000805b82518110156106b85760008382815181106104b557fe5b60200260200101516040015190508073ffffffffffffffffffffffffffffffffffffffff166316dc15fe886040518263ffffffff1660e01b81526004016104fc9190616936565b60206040518083038186803b15801561051457600080fd5b505afa92505050801561054557506040513d601f19601f82011682018060405250810190610542919061569b565b60015b61054e576106aa565b80156106a85760608273ffffffffffffffffffffffffffffffffffffffff1663b0772d0b6040518163ffffffff1660e01b815260040160006040518083038186803b15801561059c57600080fd5b505afa1580156105b0573d6000803e3d6000fd5b505050506040513d6000823e3d601f19601f820116820180604052508101906105d991906154c9565b905060005b81518110156106a55760008282815181106105f557fe5b602002602001015173ffffffffffffffffffffffffffffffffffffffff166370a082318c6040518263ffffffff1660e01b81526004016106359190616936565b60206040518083038186803b15801561064d57600080fd5b505afa158015610661573d6000803e3d6000fd5b505050506040513d601f19601f82011682018060405250810190610685919061585d565b11156106985785806001019650506106a5565b80806001019150506105de565b50505b505b50808060010191505061049e565b5060608167ffffffffffffffff811180156106d257600080fd5b506040519080825280602002602001820160405280156107015781602001602082028036833780820191505090505b50905060608267ffffffffffffffff8111801561071d57600080fd5b5060405190808252806020026020018201604052801561075757816020015b6107446149f7565b81526020019060019003908161073c5790505b5090506000805b85518110156109bc57600086828151811061077557fe5b60200260200101516040015190508073ffffffffffffffffffffffffffffffffffffffff166316dc15fe8b6040518263ffffffff1660e01b81526004016107bc9190616936565b60206040518083038186803b1580156107d457600080fd5b505afa92505050801561080557506040513d601f19601f82011682018060405250810190610802919061569b565b60015b61080e576109ae565b80156109ac5760608273ffffffffffffffffffffffffffffffffffffffff1663b0772d0b6040518163ffffffff1660e01b815260040160006040518083038186803b15801561085c57600080fd5b505afa158015610870573d6000803e3d6000fd5b505050506040513d6000823e3d601f19601f8201168201806040525081019061089991906154c9565b905060005b81518110156109a95760008282815181106108b557fe5b602002602001015173ffffffffffffffffffffffffffffffffffffffff166370a082318f6040518263ffffffff1660e01b81526004016108f59190616936565b60206040518083038186803b15801561090d57600080fd5b505afa158015610921573d6000803e3d6000fd5b505050506040513d601f19601f82011682018060405250810190610945919061585d565b111561099c578488878151811061095857fe5b60200260200101818152505089858151811061097057fe5b602002602001015187878151811061098457fe5b602002602001018190525085806001019650506109a9565b808060010191505061089e565b50505b505b50808060010191505061075e565b508282965096505050505050915091565b6060610a5c828373ffffffffffffffffffffffffffffffffffffffff1663b0772d0b6040518163ffffffff1660e01b815260040160006040518083038186803b158015610a1957600080fd5b505afa158015610a2d573d6000803e3d6000fd5b505050506040513d6000823e3d601f19601f82011682018060405250810190610a5691906154c9565b33612e7b565b9050919050565b606080606080606080600060029054906101000a900473ffffffffffffffffffffffffffffffffffffffff1673ffffffffffffffffffffffffffffffffffffffff1663a3ed91c6886040518263ffffffff1660e01b8152600401610ac79190616936565b60006040518083038186803b158015610adf57600080fd5b505afa158015610af3573d6000803e3d6000fd5b505050506040513d6000823e3d601f19601f82011682018060405250810190610b1c9190615606565b91509150606080610b2c83613eb3565b91509150838383839750975097509750505050509193509193565b6060806060806060865167ffffffffffffffff81118015610b6757600080fd5b50604051908082528060200260200182016040528015610b9b57816020015b6060815260200190600190039081610b865790505b5090506060875167ffffffffffffffff81118015610bb857600080fd5b50604051908082528060200260200182016040528015610be75781602001602082028036833780820191505090505b5090506060885167ffffffffffffffff81118015610c0457600080fd5b50604051908082528060200260200182016040528015610c335781602001602082028036833780820191505090505b5090506060895167ffffffffffffffff81118015610c5057600080fd5b50604051908082528060200260200182016040528015610c7f5781602001602082028036833780820191505090505b50905060005b8a51811015610db0573073ffffffffffffffffffffffffffffffffffffffff16639c00a3d48c8381518110610cb657fe5b60200260200101518c6040518363ffffffff1660e01b8152600401610cdc929190616bc3565b600060405180830381600087803b158015610cf657600080fd5b505af1925050508015610d2c57506040513d6000823e3d601f19601f82011682018060405250810190610d29919061555e565b60015b610d55576001828281518110610d3e57fe5b602002602001019015159081151581525050610da3565b82888581518110610d6257fe5b602002602001018190525081878581518110610d7a57fe5b60200260200101818152505080868581518110610d9357fe5b6020026020010181815250505050505b8080600101915050610c85565b508383838397509750975097505050505092959194509250565b60008060608060008060009050600060608873ffffffffffffffffffffffffffffffffffffffff1663b0772d0b6040518163ffffffff1660e01b815260040160006040518083038186803b158015610e2157600080fd5b505afa158015610e35573d6000803e3d6000fd5b505050506040513d6000823e3d601f19601f82011682018060405250810190610e5e91906154c9565b90506060815167ffffffffffffffff81118015610e7a57600080fd5b50604051908082528060200260200182016040528015610ea95781602001602082028036833780820191505090505b5090506060825167ffffffffffffffff81118015610ec657600080fd5b50604051908082528060200260200182016040528015610efa57816020015b6060815260200190600190039081610ee55790505b50905060008b73ffffffffffffffffffffffffffffffffffffffff16637dc0d1d06040518163ffffffff1660e01b815260040160206040518083038186803b158015610f4557600080fd5b505afa158015610f59573d6000803e3d6000fd5b505050506040513d601f19601f82011682018060405250810190610f7d91906157ca565b905060005b845181101561163a576000858281518110610f9957fe5b6020026020010151905060008e73ffffffffffffffffffffffffffffffffffffffff16638e8f294b836040518263ffffffff1660e01b8152600401610fde9190616936565b604080518083038186803b158015610ff557600080fd5b505afa158015611009573d6000803e3d6000fd5b505050506040513d601f19601f8201168201806040525081019061102d91906156c4565b5090508061103c57505061162d565b60008273ffffffffffffffffffffffffffffffffffffffff166373acee986040518163ffffffff1660e01b8152600401602060405180830381600087803b15801561108657600080fd5b505af115801561109a573d6000803e3d6000fd5b505050506040513d601f19601f820116820180604052508101906110be919061585d565b905060006112ff6112618573ffffffffffffffffffffffffffffffffffffffff1663dc028ab16040518163ffffffff1660e01b815260040160206040518083038186803b15801561110e57600080fd5b505afa158015611122573d6000803e3d6000fd5b505050506040513d601f19601f82011682018060405250810190611146919061585d565b6112538773ffffffffffffffffffffffffffffffffffffffff166361feacff6040518163ffffffff1660e01b815260040160206040518083038186803b15801561118f57600080fd5b505afa1580156111a3573d6000803e3d6000fd5b505050506040513d601f19601f820116820180604052508101906111c7919061585d565b8873ffffffffffffffffffffffffffffffffffffffff16638f840ddd6040518163ffffffff1660e01b815260040160206040518083038186803b15801561120d57600080fd5b505afa158015611221573d6000803e3d6000fd5b505050506040513d601f19601f82011682018060405250810190611245919061585d565b61408f90919063ffffffff16565b61408f90919063ffffffff16565b6112f1848773ffffffffffffffffffffffffffffffffffffffff16633b1d21a26040518163ffffffff1660e01b815260040160206040518083038186803b1580156112ab57600080fd5b505afa1580156112bf573d6000803e3d6000fd5b505050506040513d601f19601f820116820180604052508101906112e3919061585d565b61408f90919063ffffffff16565b6140e490919063ffffffff16565b905060008673ffffffffffffffffffffffffffffffffffffffff1663fc57d4df866040518263ffffffff1660e01b815260040161133c9190616b64565b60206040518083038186803b15801561135457600080fd5b505afa158015611368573d6000803e3d6000fd5b505050506040513d601f19601f8201168201806040525081019061138c919061585d565b90506113cd6113be670de0b6b3a76400006113b0848761413490919063ffffffff16565b6141a490919063ffffffff16565b8d61408f90919063ffffffff16565b9b5061140e6113ff670de0b6b3a76400006113f1848661413490919063ffffffff16565b6141a490919063ffffffff16565b8c61408f90919063ffffffff16565b9a508473ffffffffffffffffffffffffffffffffffffffff1663ac784ddc6040518163ffffffff1660e01b815260040160206040518083038186803b15801561145657600080fd5b505afa15801561146a573d6000803e3d6000fd5b505050506040513d601f19601f8201168201806040525081019061148e919061569b565b1561152d5760008987815181106114a157fe5b602002602001019073ffffffffffffffffffffffffffffffffffffffff16908173ffffffffffffffffffffffffffffffffffffffff16815250506040518060400160405280600381526020017f455448000000000000000000000000000000000000000000000000000000000081525088878151811061151d57fe5b6020026020010181905250611627565b8473ffffffffffffffffffffffffffffffffffffffff16636f307dc36040518163ffffffff1660e01b815260040160206040518083038186803b15801561157357600080fd5b505afa158015611587573d6000803e3d6000fd5b505050506040513d601f19601f820116820180604052508101906115ab919061545f565b8987815181106115b757fe5b602002602001019073ffffffffffffffffffffffffffffffffffffffff16908173ffffffffffffffffffffffffffffffffffffffff168152505061160d89878151811061160057fe5b60200260200101516141fa565b905088878151811061161b57fe5b60200260200101819052505b50505050505b8080600101915050610f82565b5060008060029054906101000a900473ffffffffffffffffffffffffffffffffffffffff1673ffffffffffffffffffffffffffffffffffffffff166343e20a1d8e73ffffffffffffffffffffffffffffffffffffffff1663f851a4406040518163ffffffff1660e01b815260040160206040518083038186803b1580156116c057600080fd5b505afa1580156116d4573d6000803e3d6000fd5b505050506040513d601f19601f820116820180604052508101906116f8919061545f565b6040518263ffffffff1660e01b81526004016117149190616936565b60206040518083038186803b15801561172c57600080fd5b505afa158015611740573d6000803e3d6000fd5b505050506040513d601f19601f82011682018060405250810190611764919061569b565b905085878585849b509b509b509b509b505050505050505091939590929450565b606080606080606080611797876103ee565b915091506060806117a783613eb3565b91509150838383839750975097509750505050509193509193565b6060806060806060806117d487612158565b915091506060806117e483613eb3565b91509150838383839750975097509750505050509193509193565b60008060006060600060029054906101000a900473ffffffffffffffffffffffffffffffffffffffff1673ffffffffffffffffffffffffffffffffffffffff1663d88ff1f46040518163ffffffff1660e01b815260040160006040518083038186803b15801561186e57600080fd5b505afa158015611882573d6000803e3d6000fd5b505050506040513d6000823e3d601f19601f820116820180604052508101906118ab91906155c5565b90506000806000805b84518110156119a0573073ffffffffffffffffffffffffffffffffffffffff1663d15e96318683815181106118e557fe5b6020026020010151604001518b6040518363ffffffff1660e01b815260040161190f929190616b9a565b6040805180830381600087803b15801561192857600080fd5b505af192505050801561195957506040513d601f19601f820116820180604052508101906119569190615886565b60015b6119665760019150611993565b611979828661408f90919063ffffffff16565b945061198e818761408f90919063ffffffff16565b955050505b80806001019150506118b4565b50818382965096509650505050509193909250565b606060008060608573ffffffffffffffffffffffffffffffffffffffff166332abcdbe6040518163ffffffff1660e01b815260040160006040518083038186803b158015611a0257600080fd5b505afa158015611a16573d6000803e3d6000fd5b505050506040513d6000823e3d601f19601f82011682018060405250810190611a3f9190615488565b90506000805b8251811015611ce1576000806060611b118b8c73ffffffffffffffffffffffffffffffffffffffff1663abfceffc898881518110611a7f57fe5b60200260200101516040518263ffffffff1660e01b8152600401611aa39190616936565b60006040518083038186803b158015611abb57600080fd5b505afa158015611acf573d6000803e3d6000fd5b505050506040513d6000823e3d601f19601f82011682018060405250810190611af891906154c9565b888781518110611b0457fe5b6020026020010151612e7b565b905060005b8151811015611c7157611b8e611b7f670de0b6b3a7640000611b71858581518110611b3d57fe5b60200260200101516101e00151868681518110611b5657fe5b6020026020010151610160015161413490919063ffffffff16565b6141a490919063ffffffff16565b8561408f90919063ffffffff16565b9350818181518110611b9c57fe5b60200260200101516101a0015115611c6457611c61611c52670de0b6b3a7640000611c44858581518110611bcc57fe5b60200260200101516102200151611c36670de0b6b3a7640000611c28898981518110611bf457fe5b60200260200101516101e001518a8a81518110611c0d57fe5b6020026020010151610140015161413490919063ffffffff16565b6141a490919063ffffffff16565b61413490919063ffffffff16565b6141a490919063ffffffff16565b8461408f90919063ffffffff16565b92505b8080600101915050611b16565b506000808411611c90576ec097ce7bc90715b34b9f1000000000611cbe565b611cbd84611caf670de0b6b3a76400008661413490919063ffffffff16565b6141a490919063ffffffff16565b5b90508a8111611cd05785806001019650505b505050508080600101915050611a45565b5060608167ffffffffffffffff81118015611cfb57600080fd5b50604051908082528060200260200182016040528015611d3557816020015b611d22614a52565b815260200190600190039081611d1a5790505b5090506000805b8451811015612049576000806060611e088d8e73ffffffffffffffffffffffffffffffffffffffff1663abfceffc8b8881518110611d7657fe5b60200260200101516040518263ffffffff1660e01b8152600401611d9a9190616936565b60006040518083038186803b158015611db257600080fd5b505afa158015611dc6573d6000803e3d6000fd5b505050506040513d6000823e3d601f19601f82011682018060405250810190611def91906154c9565b8a8781518110611dfb57fe5b6020026020010151612e7b565b905060005b8151811015611f6857611e85611e76670de0b6b3a7640000611e68858581518110611e3457fe5b60200260200101516101e00151868681518110611e4d57fe5b6020026020010151610160015161413490919063ffffffff16565b6141a490919063ffffffff16565b8561408f90919063ffffffff16565b9350818181518110611e9357fe5b60200260200101516101a0015115611f5b57611f58611f49670de0b6b3a7640000611f3b858581518110611ec357fe5b60200260200101516102200151611f2d670de0b6b3a7640000611f1f898981518110611eeb57fe5b60200260200101516101e001518a8a81518110611f0457fe5b6020026020010151610140015161413490919063ffffffff16565b6141a490919063ffffffff16565b61413490919063ffffffff16565b6141a490919063ffffffff16565b8461408f90919063ffffffff16565b92505b8080600101915050611e0d565b506000808411611f87576ec097ce7bc90715b34b9f1000000000611fb5565b611fb484611fa6670de0b6b3a76400008661413490919063ffffffff16565b6141a490919063ffffffff16565b5b90508c811115611fc8575050505061203c565b6040518060a001604052808a8781518110611fdf57fe5b602002602001015173ffffffffffffffffffffffffffffffffffffffff1681526020018581526020018481526020018281526020018381525087878151811061202457fe5b60200260200101819052508580600101965050505050505b8080600101915050611d3c565b50818973ffffffffffffffffffffffffffffffffffffffff1663e87554466040518163ffffffff1660e01b815260040160206040518083038186803b15801561209157600080fd5b505afa1580156120a5573d6000803e3d6000fd5b505050506040513d601f19601f820116820180604052508101906120c9919061585d565b8a73ffffffffffffffffffffffffffffffffffffffff16634ada90af6040518163ffffffff1660e01b815260040160206040518083038186803b15801561210f57600080fd5b505afa158015612123573d6000803e3d6000fd5b505050506040513d601f19601f82011682018060405250810190612147919061585d565b965096509650505050509250925092565b6060806060600060029054906101000a900473ffffffffffffffffffffffffffffffffffffffff1673ffffffffffffffffffffffffffffffffffffffff1663d88ff1f46040518163ffffffff1660e01b815260040160006040518083038186803b1580156121c557600080fd5b505afa1580156121d9573d6000803e3d6000fd5b505050506040513d6000823e3d601f19601f8201168201806040525081019061220291906155c5565b90506000805b82518110156122d257600083828151811061221f57fe5b60200260200101516040015190508073ffffffffffffffffffffffffffffffffffffffff16639b19251a886040518263ffffffff1660e01b81526004016122669190616936565b60206040518083038186803b15801561227e57600080fd5b505afa158015612292573d6000803e3d6000fd5b505050506040513d601f19601f820116820180604052508101906122b6919061569b565b156122c45782806001019350505b508080600101915050612208565b5060608167ffffffffffffffff811180156122ec57600080fd5b5060405190808252806020026020018201604052801561231b5781602001602082028036833780820191505090505b50905060608267ffffffffffffffff8111801561233757600080fd5b5060405190808252806020026020018201604052801561237157816020015b61235e6149f7565b8152602001906001900390816123565790505b5090506000805b855181101561248b57600086828151811061238f57fe5b60200260200101516040015190508073ffffffffffffffffffffffffffffffffffffffff16639b19251a8b6040518263ffffffff1660e01b81526004016123d69190616936565b60206040518083038186803b1580156123ee57600080fd5b505afa158015612402573d6000803e3d6000fd5b505050506040513d601f19601f82011682018060405250810190612426919061569b565b1561247d578185848151811061243857fe5b60200260200101818152505086828151811061245057fe5b602002602001015184848151811061246457fe5b602002602001018190525082806001019350505061248b565b508080600101915050612378565b508282965096505050505050915091565b600060029054906101000a900473ffffffffffffffffffffffffffffffffffffffff1681565b600060019054906101000a900460ff16806124e157506124e06149d3565b5b806124f7575060008054906101000a900460ff16155b612536576040517f08c379a000000000000000000000000000000000000000000000000000000000815260040161252d90616c67565b60405180910390fd5b60008060019054906101000a900460ff161590508015612586576001600060016101000a81548160ff02191690831515021790555060016000806101000a81548160ff0219169083151502179055505b600073ffffffffffffffffffffffffffffffffffffffff168273ffffffffffffffffffffffffffffffffffffffff1614156125f6576040517f08c379a00000000000000000000000000000000000000000000000000000000081526004016125ed90616ca7565b60405180910390fd5b81600060026101000a81548173ffffffffffffffffffffffffffffffffffffffff021916908373ffffffffffffffffffffffffffffffffffffffff16021790555080156126585760008060016101000a81548160ff0219169083151502179055505b5050565b606080606080606080600060029054906101000a900473ffffffffffffffffffffffffffffffffffffffff1673ffffffffffffffffffffffffffffffffffffffff16634ae26ea16040518163ffffffff1660e01b815260040160006040518083038186803b1580156126cd57600080fd5b505afa1580156126e1573d6000803e3d6000fd5b505050506040513d6000823e3d601f19601f8201168201806040525081019061270a9190615606565b9150915060608061271a83613eb3565b915091508383838397509750975097505050505090919293565b6000806000808573ffffffffffffffffffffffffffffffffffffffff166316dc15fe866040518263ffffffff1660e01b81526004016127739190616936565b60206040518083038186803b15801561278b57600080fd5b505afa15801561279f573d6000803e3d6000fd5b505050506040513d601f19601f820116820180604052508101906127c3919061569b565b6127d557600080935093505050612be5565b60608673ffffffffffffffffffffffffffffffffffffffff1663b0772d0b6040518163ffffffff1660e01b815260040160006040518083038186803b15801561281d57600080fd5b505afa158015612831573d6000803e3d6000fd5b505050506040513d6000823e3d601f19601f8201168201806040525081019061285a91906154c9565b905060008773ffffffffffffffffffffffffffffffffffffffff16637dc0d1d06040518163ffffffff1660e01b815260040160206040518083038186803b1580156128a457600080fd5b505afa1580156128b8573d6000803e3d6000fd5b505050506040513d601f19601f820116820180604052508101906128dc91906157ca565b905060005b8251811015612bd95760008382815181106128f857fe5b6020026020010151905060008a73ffffffffffffffffffffffffffffffffffffffff16638e8f294b836040518263ffffffff1660e01b815260040161293d9190616936565b604080518083038186803b15801561295457600080fd5b505afa158015612968573d6000803e3d6000fd5b505050506040513d601f19601f8201168201806040525081019061298c91906156c4565b5090508061299b575050612bcc565b60008273ffffffffffffffffffffffffffffffffffffffff16633af9e6698c6040518263ffffffff1660e01b81526004016129d69190616936565b602060405180830381600087803b1580156129f057600080fd5b505af1158015612a04573d6000803e3d6000fd5b505050506040513d601f19601f82011682018060405250810190612a28919061585d565b905060008373ffffffffffffffffffffffffffffffffffffffff166395dd91938d6040518263ffffffff1660e01b8152600401612a659190616936565b60206040518083038186803b158015612a7d57600080fd5b505afa158015612a91573d6000803e3d6000fd5b505050506040513d601f19601f82011682018060405250810190612ab5919061585d565b905060008673ffffffffffffffffffffffffffffffffffffffff1663fc57d4df866040518263ffffffff1660e01b8152600401612af29190616b64565b60206040518083038186803b158015612b0a57600080fd5b505afa158015612b1e573d6000803e3d6000fd5b505050506040513d601f19601f82011682018060405250810190612b42919061585d565b9050612b83612b74670de0b6b3a7640000612b66848661413490919063ffffffff16565b6141a490919063ffffffff16565b8b61408f90919063ffffffff16565b9950612bc4612bb5670de0b6b3a7640000612ba7848761413490919063ffffffff16565b6141a490919063ffffffff16565b8a61408f90919063ffffffff16565b985050505050505b80806001019150506128e1565b50828495509550505050505b9250929050565b606080606080606080600060029054906101000a900473ffffffffffffffffffffffffffffffffffffffff1673ffffffffffffffffffffffffffffffffffffffff1663218a3bbe886040518263ffffffff1660e01b8152600401612c509190616b49565b60006040518083038186803b158015612c6857600080fd5b505afa158015612c7c573d6000803e3d6000fd5b505050506040513d6000823e3d601f19601f82011682018060405250810190612ca59190615606565b91509150606080612cb583613eb3565b91509150838383839750975097509750505050509193509193565b6060806060806060806060600060029054906101000a900473ffffffffffffffffffffffffffffffffffffffff1673ffffffffffffffffffffffffffffffffffffffff16634ae26ea16040518163ffffffff1660e01b815260040160006040518083038186803b158015612d4357600080fd5b505afa158015612d57573d6000803e3d6000fd5b505050506040513d6000823e3d601f19601f82011682018060405250810190612d809190615606565b915050805167ffffffffffffffff81118015612d9b57600080fd5b50604051908082528060200260200182016040528015612dca5781602001602082028036833780820191505090505b50915060005b8151811015612e4457818181518110612de557fe5b602002602001015160400151838281518110612dfd57fe5b602002602001019073ffffffffffffffffffffffffffffffffffffffff16908173ffffffffffffffffffffffffffffffffffffffff16815250508080600101915050612dd0565b5050606080606080612e56858c610b47565b9350935093509350848484848499509950995099509950505050505091939590929450565b60606000805b8451811015612f475760008673ffffffffffffffffffffffffffffffffffffffff16638e8f294b878481518110612eb457fe5b60200260200101516040518263ffffffff1660e01b8152600401612ed89190616936565b604080518083038186803b158015612eef57600080fd5b505afa158015612f03573d6000803e3d6000fd5b505050506040513d601f19601f82011682018060405250810190612f2791906156c4565b5090508015612f395782806001019350505b508080600101915050612e81565b5060608167ffffffffffffffff81118015612f6157600080fd5b50604051908082528060200260200182016040528015612f9b57816020015b612f88614a97565b815260200190600190039081612f805790505b5090506000808773ffffffffffffffffffffffffffffffffffffffff16637dc0d1d06040518163ffffffff1660e01b815260040160206040518083038186803b158015612fe757600080fd5b505afa158015612ffb573d6000803e3d6000fd5b505050506040513d601f19601f8201168201806040525081019061301f91906157ca565b905060005b8751811015613ea4576000808a73ffffffffffffffffffffffffffffffffffffffff16638e8f294b8b858151811061305857fe5b60200260200101516040518263ffffffff1660e01b815260040161307c9190616936565b604080518083038186803b15801561309357600080fd5b505afa1580156130a7573d6000803e3d6000fd5b505050506040513d601f19601f820116820180604052508101906130cb91906156c4565b91509150816130db575050613e97565b6130e3614a97565b60008b85815181106130f157fe5b6020026020010151905080826000019073ffffffffffffffffffffffffffffffffffffffff16908173ffffffffffffffffffffffffffffffffffffffff16815250508073ffffffffffffffffffffffffffffffffffffffff1663ac784ddc6040518163ffffffff1660e01b815260040160206040518083038186803b15801561317957600080fd5b505afa15801561318d573d6000803e3d6000fd5b505050506040513d601f19601f820116820180604052508101906131b1919061569b565b15613263576040518060400160405280600881526020017f457468657265756d00000000000000000000000000000000000000000000000081525082604001819052506040518060400160405280600381526020017f4554480000000000000000000000000000000000000000000000000000000000815250826060018190525060128260800181815250508a73ffffffffffffffffffffffffffffffffffffffff16318260a001818152505061345c565b8073ffffffffffffffffffffffffffffffffffffffff16636f307dc36040518163ffffffff1660e01b815260040160206040518083038186803b1580156132a957600080fd5b505afa1580156132bd573d6000803e3d6000fd5b505050506040513d601f19601f820116820180604052508101906132e1919061545f565b826020019073ffffffffffffffffffffffffffffffffffffffff16908173ffffffffffffffffffffffffffffffffffffffff168152505060008260200151905061332e83602001516141fa565b846040018560600182905282905250508073ffffffffffffffffffffffffffffffffffffffff1663313ce5676040518163ffffffff1660e01b815260040160206040518083038186803b15801561338457600080fd5b505afa158015613398573d6000803e3d6000fd5b505050506040513d601f19601f820116820180604052508101906133bc9190615969565b60ff168360800181815250508073ffffffffffffffffffffffffffffffffffffffff166370a082318d6040518263ffffffff1660e01b81526004016134019190616936565b60206040518083038186803b15801561341957600080fd5b505afa15801561342d573d6000803e3d6000fd5b505050506040513d601f19601f82011682018060405250810190613451919061585d565b8360a0018181525050505b8073ffffffffffffffffffffffffffffffffffffffff1663ae9d70b06040518163ffffffff1660e01b815260040160206040518083038186803b1580156134a257600080fd5b505afa1580156134b6573d6000803e3d6000fd5b505050506040513d601f19601f820116820180604052508101906134da919061585d565b8260c00181815250508073ffffffffffffffffffffffffffffffffffffffff1663f8f9da286040518163ffffffff1660e01b815260040160206040518083038186803b15801561352957600080fd5b505afa15801561353d573d6000803e3d6000fd5b505050506040513d601f19601f82011682018060405250810190613561919061585d565b8260e00181815250508073ffffffffffffffffffffffffffffffffffffffff16633b1d21a26040518163ffffffff1660e01b815260040160206040518083038186803b1580156135b057600080fd5b505afa1580156135c4573d6000803e3d6000fd5b505050506040513d601f19601f820116820180604052508101906135e8919061585d565b826101800181815250508073ffffffffffffffffffffffffffffffffffffffff166373acee986040518163ffffffff1660e01b8152600401602060405180830381600087803b15801561363a57600080fd5b505af115801561364e573d6000803e3d6000fd5b505050506040513d601f19601f82011682018060405250810190613672919061585d565b8261012001818152505061384661381b8273ffffffffffffffffffffffffffffffffffffffff1663dc028ab16040518163ffffffff1660e01b815260040160206040518083038186803b1580156136c857600080fd5b505afa1580156136dc573d6000803e3d6000fd5b505050506040513d601f19601f82011682018060405250810190613700919061585d565b61380d8473ffffffffffffffffffffffffffffffffffffffff166361feacff6040518163ffffffff1660e01b815260040160206040518083038186803b15801561374957600080fd5b505afa15801561375d573d6000803e3d6000fd5b505050506040513d601f19601f82011682018060405250810190613781919061585d565b8573ffffffffffffffffffffffffffffffffffffffff16638f840ddd6040518163ffffffff1660e01b815260040160206040518083038186803b1580156137c757600080fd5b505afa1580156137db573d6000803e3d6000fd5b505050506040513d601f19601f820116820180604052508101906137ff919061585d565b61408f90919063ffffffff16565b61408f90919063ffffffff16565b61383884610120015185610180015161408f90919063ffffffff16565b6140e490919063ffffffff16565b826101000181815250508073ffffffffffffffffffffffffffffffffffffffff16633af9e6698c6040518263ffffffff1660e01b81526004016138899190616936565b602060405180830381600087803b1580156138a357600080fd5b505af11580156138b7573d6000803e3d6000fd5b505050506040513d601f19601f820116820180604052508101906138db919061585d565b826101400181815250508073ffffffffffffffffffffffffffffffffffffffff166395dd91938c6040518263ffffffff1660e01b815260040161391e9190616936565b60206040518083038186803b15801561393657600080fd5b505afa15801561394a573d6000803e3d6000fd5b505050506040513d601f19601f8201168201806040525081019061396e919061585d565b826101600181815250508c73ffffffffffffffffffffffffffffffffffffffff1663929fe9a18c836040518363ffffffff1660e01b81526004016139b3929190616951565b60206040518083038186803b1580156139cb57600080fd5b505afa1580156139df573d6000803e3d6000fd5b505050506040513d601f19601f82011682018060405250810190613a03919061569b565b826101a00190151590811515815250508073ffffffffffffffffffffffffffffffffffffffff1663182df0f56040518163ffffffff1660e01b815260040160206040518083038186803b158015613a5957600080fd5b505afa158015613a6d573d6000803e3d6000fd5b505050506040513d601f19601f82011682018060405250810190613a91919061585d565b826101c00181815250508573ffffffffffffffffffffffffffffffffffffffff1663fc57d4df826040518263ffffffff1660e01b8152600401613ad49190616b64565b60206040518083038186803b158015613aec57600080fd5b505afa158015613b00573d6000803e3d6000fd5b505050506040513d601f19601f82011682018060405250810190613b24919061585d565b826101e00181815250508582610200019073ffffffffffffffffffffffffffffffffffffffff16908173ffffffffffffffffffffffffffffffffffffffff168152505081610200015173ffffffffffffffffffffffffffffffffffffffff1663addd509983602001516040518263ffffffff1660e01b8152600401613ba99190616936565b60206040518083038186803b158015613bc157600080fd5b505afa925050508015613bf257506040513d601f19601f82011682018060405250810190613bef91906157ca565b60015b613bfb57613c36565b8083610200019073ffffffffffffffffffffffffffffffffffffffff16908173ffffffffffffffffffffffffffffffffffffffff1681525050505b82826102200181815250508073ffffffffffffffffffffffffffffffffffffffff1663173b99046040518163ffffffff1660e01b815260040160206040518083038186803b158015613c8757600080fd5b505afa158015613c9b573d6000803e3d6000fd5b505050506040513d601f19601f82011682018060405250810190613cbf919061585d565b826102400181815250508073ffffffffffffffffffffffffffffffffffffffff16638d02d9a16040518163ffffffff1660e01b815260040160206040518083038186803b158015613d0f57600080fd5b505afa158015613d23573d6000803e3d6000fd5b505050506040513d601f19601f82011682018060405250810190613d47919061585d565b826102600181815250508073ffffffffffffffffffffffffffffffffffffffff1663dbfe7c196040518163ffffffff1660e01b815260040160206040518083038186803b158015613d9757600080fd5b505afa158015613dab573d6000803e3d6000fd5b505050506040513d601f19601f82011682018060405250810190613dcf919061585d565b826102800181815250508c73ffffffffffffffffffffffffffffffffffffffff16636d154ea5826040518263ffffffff1660e01b8152600401613e129190616936565b60206040518083038186803b158015613e2a57600080fd5b505afa158015613e3e573d6000803e3d6000fd5b505050506040513d601f19601f82011682018060405250810190613e62919061569b565b826102a001901515908115158152505081888881518110613e7f57fe5b60200260200101819052508680600101975050505050505b8080600101915050613024565b50829450505050509392505050565b6060806060835167ffffffffffffffff81118015613ed057600080fd5b50604051908082528060200260200182016040528015613f0a57816020015b613ef7614b84565b815260200190600190039081613eef5790505b5090506060845167ffffffffffffffff81118015613f2757600080fd5b50604051908082528060200260200182016040528015613f565781602001602082028036833780820191505090505b50905060005b8551811015614081573073ffffffffffffffffffffffffffffffffffffffff166359d2fea6878381518110613f8d57fe5b6020026020010151604001516040518263ffffffff1660e01b8152600401613fb59190616b7f565b600060405180830381600087803b158015613fcf57600080fd5b505af192505050801561400557506040513d6000823e3d601f19601f8201168201806040525081019061400291906158c2565b60015b61402e57600182828151811061401757fe5b602002602001019015159081151581525050614074565b6040518060a0016040528086815260200185815260200184815260200183815260200182151581525088878151811061406357fe5b602002602001018190525050505050505b8080600101915050613f5c565b508181935093505050915091565b6000808284019050838110156140da576040517f08c379a00000000000000000000000000000000000000000000000000000000081526004016140d190616c07565b60405180910390fd5b8091505092915050565b600082821115614129576040517f08c379a000000000000000000000000000000000000000000000000000000000815260040161412090616c27565b60405180910390fd5b818303905092915050565b600080831415614147576000905061419e565b600082840290508284828161415857fe5b0414614199576040517f08c379a000000000000000000000000000000000000000000000000000000000815260040161419090616c87565b60405180910390fd5b809150505b92915050565b60008082116141e8576040517f08c379a00000000000000000000000000000000000000000000000000000000081526004016141df90616c47565b60405180910390fd5b8183816141f157fe5b04905092915050565b606080739f8f72aa9304c8b593d555f12ef6589cc3a579a273ffffffffffffffffffffffffffffffffffffffff168373ffffffffffffffffffffffffffffffffffffffff1614156142ba576040518060400160405280600581526020017f4d616b65720000000000000000000000000000000000000000000000000000008152506040518060400160405280600381526020017f4d4b520000000000000000000000000000000000000000000000000000000000815250915091506149ce565b73b8c77482e45f1f44de1745f52c74426c631bdd5273ffffffffffffffffffffffffffffffffffffffff168373ffffffffffffffffffffffffffffffffffffffff161415614377576040518060400160405280600381526020017f424e4200000000000000000000000000000000000000000000000000000000008152506040518060400160405280600381526020017f424e420000000000000000000000000000000000000000000000000000000000815250915091506149ce565b600083905060608173ffffffffffffffffffffffffffffffffffffffff166306fdde036040518163ffffffff1660e01b815260040160006040518083038186803b1580156143c457600080fd5b505afa1580156143d8573d6000803e3d6000fd5b505050506040513d6000823e3d601f19601f8201168201806040525081019061440191906157f3565b905060608273ffffffffffffffffffffffffffffffffffffffff166395d89b416040518163ffffffff1660e01b815260040160006040518083038186803b15801561444b57600080fd5b505afa15801561445f573d6000803e3d6000fd5b505050506040513d6000823e3d601f19601f8201168201806040525081019061448891906157f3565b90508573ffffffffffffffffffffffffffffffffffffffff16630dfe16816040518163ffffffff1660e01b815260040160206040518083038186803b1580156144d057600080fd5b505afa92505050801561450157506040513d601f19601f820116820180604052508101906144fe919061545f565b60015b61450a576149c4565b600060405160200161451b906168f7565b60405160208183030381529060405280519060200120846040516020016145429190616855565b604051602081830303815290604052805190602001201480156145ae575060405160200161456f906168e2565b60405160208183030381529060405280519060200120836040516020016145969190616855565b60405160208183030381529060405280519060200120145b905060008115801561460957506040516020016145ca90616921565b60405160208183030381529060405280519060200120856040516020016145f19190616855565b60405160208183030381529060405280519060200120145b801561465e575060405160200161461f9061690c565b60405160208183030381529060405280519060200120846040516020016146469190616855565b60405160208183030381529060405280519060200120145b905081806146695750805b156149c057600083905060008a73ffffffffffffffffffffffffffffffffffffffff1663d21220a76040518163ffffffff1660e01b815260040160206040518083038186803b1580156146bb57600080fd5b505afa1580156146cf573d6000803e3d6000fd5b505050506040513d601f19601f820116820180604052508101906146f3919061545f565b905082614735576040518060400160405280600881526020017f556e69737761702000000000000000000000000000000000000000000000000081525061476c565b6040518060400160405280600a81526020017f53757368695377617020000000000000000000000000000000000000000000008152505b8273ffffffffffffffffffffffffffffffffffffffff166395d89b416040518163ffffffff1660e01b815260040160006040518083038186803b1580156147b257600080fd5b505afa1580156147c6573d6000803e3d6000fd5b505050506040513d6000823e3d601f19601f820116820180604052508101906147ef91906157f3565b8273ffffffffffffffffffffffffffffffffffffffff166395d89b416040518163ffffffff1660e01b815260040160006040518083038186803b15801561483557600080fd5b505afa158015614849573d6000803e3d6000fd5b505050506040513d6000823e3d601f19601f8201168201806040525081019061487291906157f3565b6040516020016148849392919061686c565b60405160208183030381529060405296508173ffffffffffffffffffffffffffffffffffffffff166395d89b416040518163ffffffff1660e01b815260040160006040518083038186803b1580156148db57600080fd5b505afa1580156148ef573d6000803e3d6000fd5b505050506040513d6000823e3d601f19601f8201168201806040525081019061491891906157f3565b8173ffffffffffffffffffffffffffffffffffffffff166395d89b416040518163ffffffff1660e01b815260040160006040518083038186803b15801561495e57600080fd5b505afa158015614972573d6000803e3d6000fd5b505050506040513d6000823e3d601f19601f8201168201806040525081019061499b91906157f3565b6040516020016149ac9291906168b3565b604051602081830303815290604052955050505b5050505b8181945094505050505b915091565b60006149de306149e4565b15905090565b600080823b905060008111915050919050565b6040518060a0016040528060608152602001600073ffffffffffffffffffffffffffffffffffffffff168152602001600073ffffffffffffffffffffffffffffffffffffffff16815260200160008152602001600081525090565b6040518060a00160405280600073ffffffffffffffffffffffffffffffffffffffff168152602001600081526020016000815260200160008152602001606081525090565b604051806102c00160405280600073ffffffffffffffffffffffffffffffffffffffff168152602001600073ffffffffffffffffffffffffffffffffffffffff16815260200160608152602001606081526020016000815260200160008152602001600081526020016000815260200160008152602001600081526020016000815260200160008152602001600081526020016000151581526020016000815260200160008152602001600073ffffffffffffffffffffffffffffffffffffffff168152602001600081526020016000815260200160008152602001600081526020016000151581525090565b6040518060a00160405280600081526020016000815260200160608152602001606081526020016000151581525090565b600081359050614bc481617313565b92915050565b600081519050614bd981617313565b92915050565b600082601f830112614bf057600080fd5b8151614c03614bfe82616db5565b616d88565b91508181835260208401935060208101905083856020840282011115614c2857600080fd5b60005b83811015614c585781614c3e8882614bca565b845260208401935060208301925050600181019050614c2b565b5050505092915050565b600082601f830112614c7357600080fd5b8151614c86614c8182616ddd565b616d88565b91508181835260208401935060208101905083856020840282011115614cab57600080fd5b60005b83811015614cdb5781614cc18882614fe5565b845260208401935060208301925050600181019050614cae565b5050505092915050565b600082601f830112614cf657600080fd5b8135614d09614d0482616e05565b616d88565b91508181835260208401935060208101905083856020840282011115614d2e57600080fd5b60005b83811015614d5e5781614d448882614ffa565b845260208401935060208301925050600181019050614d31565b5050505092915050565b600082601f830112614d7957600080fd5b8151614d8c614d8782616e2d565b616d88565b9150818183526020840193506020810190508360005b83811015614dd25781518601614db88882615039565b845260208401935060208301925050600181019050614da2565b5050505092915050565b600082601f830112614ded57600080fd5b8151614e00614dfb82616e55565b616d88565b9150818183526020840193506020810190508360005b83811015614e465781518601614e2c888261508d565b845260208401935060208301925050600181019050614e16565b5050505092915050565b600082601f830112614e6157600080fd5b8151614e74614e6f82616e7d565b616d88565b9150818183526020840193506020810190508360005b83811015614eba5781518601614ea088826152b7565b845260208401935060208301925050600181019050614e8a565b5050505092915050565b600082601f830112614ed557600080fd5b8151614ee8614ee382616ea5565b616d88565b9150818183526020840193506020810190508360005b83811015614f2e5781518601614f148882615357565b845260208401935060208301925050600181019050614efe565b5050505092915050565b600082601f830112614f4957600080fd5b8151614f5c614f5782616ecd565b616d88565b91508181835260208401935060208101905083856020840282011115614f8157600080fd5b60005b83811015614fb15781614f97888261540c565b845260208401935060208301925050600181019050614f84565b5050505092915050565b600081359050614fca8161732a565b92915050565b600081519050614fdf8161732a565b92915050565b600081519050614ff481617341565b92915050565b60008135905061500981617358565b92915050565b60008135905061501e8161736f565b92915050565b60008151905061503381617386565b92915050565b600082601f83011261504a57600080fd5b815161505d61505882616ef5565b616d88565b9150808252602083016020830185838301111561507957600080fd5b6150848382846172cf565b50505092915050565b60006102c082840312156150a057600080fd5b6150ab6102c0616d88565b905060006150bb84828501614bca565b60008301525060206150cf84828501614bca565b602083015250604082015167ffffffffffffffff8111156150ef57600080fd5b6150fb84828501615039565b604083015250606082015167ffffffffffffffff81111561511b57600080fd5b61512784828501615039565b606083015250608061513b8482850161540c565b60808301525060a061514f8482850161540c565b60a08301525060c06151638482850161540c565b60c08301525060e06151778482850161540c565b60e08301525061010061518c8482850161540c565b610100830152506101206151a28482850161540c565b610120830152506101406151b88482850161540c565b610140830152506101606151ce8482850161540c565b610160830152506101806151e48482850161540c565b610180830152506101a06151fa84828501614fd0565b6101a0830152506101c06152108482850161540c565b6101c0830152506101e06152268482850161540c565b6101e08301525061020061523c84828501614bca565b610200830152506102206152528482850161540c565b610220830152506102406152688482850161540c565b6102408301525061026061527e8482850161540c565b610260830152506102806152948482850161540c565b610280830152506102a06152aa84828501614fd0565b6102a08301525092915050565b600060a082840312156152c957600080fd5b6152d360a0616d88565b905060006152e384828501614bca565b60008301525060206152f78482850161540c565b602083015250604061530b8482850161540c565b604083015250606061531f8482850161540c565b606083015250608082015167ffffffffffffffff81111561533f57600080fd5b61534b84828501614ddc565b60808301525092915050565b600060a0828403121561536957600080fd5b61537360a0616d88565b9050600082015167ffffffffffffffff81111561538f57600080fd5b61539b84828501615039565b60008301525060206153af84828501614bca565b60208301525060406153c384828501614bca565b60408301525060606153d78482850161540c565b60608301525060806153eb8482850161540c565b60808301525092915050565b6000813590506154068161739d565b92915050565b60008151905061541b8161739d565b92915050565b600081519050615430816173b4565b92915050565b60006020828403121561544857600080fd5b600061545684828501614bb5565b91505092915050565b60006020828403121561547157600080fd5b600061547f84828501614bca565b91505092915050565b60006020828403121561549a57600080fd5b600082015167ffffffffffffffff8111156154b457600080fd5b6154c084828501614bdf565b91505092915050565b6000602082840312156154db57600080fd5b600082015167ffffffffffffffff8111156154f557600080fd5b61550184828501614c62565b91505092915050565b6000806040838503121561551d57600080fd5b600083013567ffffffffffffffff81111561553757600080fd5b61554385828601614ce5565b9250506020615554858286016153f7565b9150509250929050565b60008060006060848603121561557357600080fd5b600084015167ffffffffffffffff81111561558d57600080fd5b61559986828701614e50565b93505060206155aa8682870161540c565b92505060406155bb8682870161540c565b9150509250925092565b6000602082840312156155d757600080fd5b600082015167ffffffffffffffff8111156155f157600080fd5b6155fd84828501614ec4565b91505092915050565b6000806040838503121561561957600080fd5b600083015167ffffffffffffffff81111561563357600080fd5b61563f85828601614f38565b925050602083015167ffffffffffffffff81111561565c57600080fd5b61566885828601614ec4565b9150509250929050565b60006020828403121561568457600080fd5b600061569284828501614fbb565b91505092915050565b6000602082840312156156ad57600080fd5b60006156bb84828501614fd0565b91505092915050565b600080604083850312156156d757600080fd5b60006156e585828601614fd0565b92505060206156f68582860161540c565b9150509250929050565b60006020828403121561571257600080fd5b600061572084828501614ffa565b91505092915050565b6000806040838503121561573c57600080fd5b600061574a85828601614ffa565b925050602061575b85828601614bb5565b9150509250929050565b6000806040838503121561577857600080fd5b600061578685828601614ffa565b9250506020615797858286016153f7565b9150509250929050565b6000602082840312156157b357600080fd5b60006157c18482850161500f565b91505092915050565b6000602082840312156157dc57600080fd5b60006157ea84828501615024565b91505092915050565b60006020828403121561580557600080fd5b600082015167ffffffffffffffff81111561581f57600080fd5b61582b84828501615039565b91505092915050565b60006020828403121561584657600080fd5b6000615854848285016153f7565b91505092915050565b60006020828403121561586f57600080fd5b600061587d8482850161540c565b91505092915050565b6000806040838503121561589957600080fd5b60006158a78582860161540c565b92505060206158b88582860161540c565b9150509250929050565b600080600080600060a086880312156158da57600080fd5b60006158e88882890161540c565b95505060206158f98882890161540c565b945050604086015167ffffffffffffffff81111561591657600080fd5b61592288828901614bdf565b935050606086015167ffffffffffffffff81111561593f57600080fd5b61594b88828901614d68565b925050608061595c88828901614fd0565b9150509295509295909350565b60006020828403121561597b57600080fd5b600061598984828501615421565b91505092915050565b600061599e8383615a6a565b60208301905092915050565b60006159b68383615ebe565b905092915050565b60006159ca838361607b565b60208301905092915050565b60006159e283836160a8565b60208301905092915050565b60006159fa83836160d5565b905092915050565b6000615a0e83836164f1565b905092915050565b6000615a2283836166ce565b905092915050565b6000615a36838361674b565b905092915050565b6000615a4a83836167c1565b905092915050565b6000615a5e8383616837565b60208301905092915050565b615a73816171c6565b82525050565b615a82816171c6565b82525050565b6000615a9382616fc1565b615a9d81856170bc565b9350615aa883616f21565b8060005b83811015615ad9578151615ac08882615992565b9750615acb8361703a565b925050600181019050615aac565b5085935050505092915050565b6000615af182616fc1565b615afb81856170cd565b9350615b0683616f21565b8060005b83811015615b37578151615b1e8882615992565b9750615b298361703a565b925050600181019050615b0a565b5085935050505092915050565b6000615b4f82616fcc565b615b5981856170de565b935083602082028501615b6b85616f31565b8060005b85811015615ba75784840389528151615b8885826159aa565b9450615b9383617047565b925060208a01995050600181019050615b6f565b50829750879550505050505092915050565b6000615bc482616fd7565b615bce81856170ef565b9350615bd983616f41565b8060005b83811015615c0a578151615bf188826159be565b9750615bfc83617054565b925050600181019050615bdd565b5085935050505092915050565b6000615c2282616fe2565b615c2c81856170cd565b9350615c3783616f51565b8060005b83811015615c68578151615c4f88826159d6565b9750615c5a83617061565b925050600181019050615c3b565b5085935050505092915050565b6000615c8082616fed565b615c8a8185617100565b935083602082028501615c9c85616f61565b8060005b85811015615cd85784840389528151615cb985826159ee565b9450615cc48361706e565b925060208a01995050600181019050615ca0565b50829750879550505050505092915050565b6000615cf582616fed565b615cff8185617111565b935083602082028501615d1185616f61565b8060005b85811015615d4d5784840389528151615d2e85826159ee565b9450615d398361706e565b925060208a01995050600181019050615d15565b50829750879550505050505092915050565b6000615d6a82616ff8565b615d748185617122565b935083602082028501615d8685616f71565b8060005b85811015615dc25784840389528151615da38582615a02565b9450615dae8361707b565b925060208a01995050600181019050615d8a565b50829750879550505050505092915050565b6000615ddf82616ff8565b615de98185617133565b935083602082028501615dfb85616f71565b8060005b85811015615e375784840389528151615e188582615a02565b9450615e238361707b565b925060208a01995050600181019050615dff565b50829750879550505050505092915050565b6000615e5482617003565b615e5e8185617144565b935083602082028501615e7085616f81565b8060005b85811015615eac5784840389528151615e8d8582615a16565b9450615e9883617088565b925060208a01995050600181019050615e74565b50829750879550505050505092915050565b6000615ec98261700e565b615ed38185617155565b935083602082028501615ee585616f91565b8060005b85811015615f215784840389528151615f028582615a2a565b9450615f0d83617095565b925060208a01995050600181019050615ee9565b50829750879550505050505092915050565b6000615f3e8261700e565b615f488185617166565b935083602082028501615f5a85616f91565b8060005b85811015615f965784840389528151615f778582615a2a565b9450615f8283617095565b925060208a01995050600181019050615f5e565b50829750879550505050505092915050565b6000615fb382617019565b615fbd8185617177565b935083602082028501615fcf85616fa1565b8060005b8581101561600b5784840389528151615fec8582615a3e565b9450615ff7836170a2565b925060208a01995050600181019050615fd3565b50829750879550505050505092915050565b600061602882617024565b6160328185617188565b935061603d83616fb1565b8060005b8381101561606e5781516160558882615a52565b9750616060836170af565b925050600181019050616041565b5085935050505092915050565b616084816171d8565b82525050565b616093816171d8565b82525050565b6160a281617263565b82525050565b6160b181617287565b82525050565b6160c081617287565b82525050565b6160cf816172ab565b82525050565b60006160e08261702f565b6160ea8185617199565b93506160fa8185602086016172cf565b61610381617302565b840191505092915050565b60006161198261702f565b61612381856171bb565b93506161338185602086016172cf565b80840191505092915050565b600061614c6006836171bb565b91507f554e492d563200000000000000000000000000000000000000000000000000006000830152600682019050919050565b600061618c601b836171aa565b91507f536166654d6174683a206164646974696f6e206f766572666c6f7700000000006000830152602082019050919050565b60006161cc6003836171bb565b91507f204c5000000000000000000000000000000000000000000000000000000000006000830152600382019050919050565b600061620c601e836171aa565b91507f536166654d6174683a207375627472616374696f6e206f766572666c6f7700006000830152602082019050919050565b600061624c601a836171aa565b91507f536166654d6174683a206469766973696f6e206279207a65726f0000000000006000830152602082019050919050565b600061628c602e836171aa565b91507f496e697469616c697a61626c653a20636f6e747261637420697320616c72656160008301527f647920696e697469616c697a65640000000000000000000000000000000000006020830152604082019050919050565b60006162f26021836171aa565b91507f536166654d6174683a206d756c7469706c69636174696f6e206f766572666c6f60008301527f77000000000000000000000000000000000000000000000000000000000000006020830152604082019050919050565b6000616358600a836171bb565b91507f556e6973776170205632000000000000000000000000000000000000000000006000830152600a82019050919050565b60006163986001836171bb565b91507f2d000000000000000000000000000000000000000000000000000000000000006000830152600182019050919050565b60006163d86003836171bb565b91507f534c5000000000000000000000000000000000000000000000000000000000006000830152600382019050919050565b60006164186012836171bb565b91507f537573686953776170204c5020546f6b656e00000000000000000000000000006000830152601282019050919050565b60006164586036836171aa565b91507f46757365506f6f6c4469726563746f727920696e7374616e63652063616e6e6f60008301527f7420626520746865207a65726f20616464726573732e000000000000000000006020830152604082019050919050565b60006164be6001836171bb565b91507f2f000000000000000000000000000000000000000000000000000000000000006000830152600182019050919050565b60006102c08301600083015161650a6000860182615a6a565b50602083015161651d6020860182615a6a565b506040830151848203604086015261653582826160d5565b9150506060830151848203606086015261654f82826160d5565b91505060808301516165646080860182616837565b5060a083015161657760a0860182616837565b5060c083015161658a60c0860182616837565b5060e083015161659d60e0860182616837565b506101008301516165b2610100860182616837565b506101208301516165c7610120860182616837565b506101408301516165dc610140860182616837565b506101608301516165f1610160860182616837565b50610180830151616606610180860182616837565b506101a083015161661b6101a086018261607b565b506101c08301516166306101c0860182616837565b506101e08301516166456101e0860182616837565b5061020083015161665a610200860182615a6a565b5061022083015161666f610220860182616837565b50610240830151616684610240860182616837565b50610260830151616699610260860182616837565b506102808301516166ae610280860182616837565b506102a08301516166c36102a086018261607b565b508091505092915050565b600060a0830160008301516166e66000860182616837565b5060208301516166f96020860182616837565b50604083015184820360408601526167118282615a88565b9150506060830151848203606086015261672b8282615c75565b9150506080830151616740608086018261607b565b508091505092915050565b600060a0830160008301516167636000860182615a6a565b5060208301516167766020860182616837565b5060408301516167896040860182616837565b50606083015161679c6060860182616837565b50608083015184820360808601526167b48282615d5f565b9150508091505092915050565b600060a08301600083015184820360008601526167de82826160d5565b91505060208301516167f36020860182615a6a565b5060408301516168066040860182615a6a565b5060608301516168196060860182616837565b50608083015161682c6080860182616837565b508091505092915050565b6168408161724c565b82525050565b61684f8161724c565b82525050565b6000616861828461610e565b915081905092915050565b6000616878828661610e565b9150616884828561610e565b915061688f826164b1565b915061689b828461610e565b91506168a6826161bf565b9150819050949350505050565b60006168bf828561610e565b91506168ca8261638b565b91506168d6828461610e565b91508190509392505050565b60006168ed8261613f565b9150819050919050565b60006169028261634b565b9150819050919050565b6000616917826163cb565b9150819050919050565b600061692c8261640b565b9150819050919050565b600060208201905061694b6000830184615a79565b92915050565b60006040820190506169666000830185615a79565b6169736020830184616099565b9392505050565b600060808201905081810360008301526169948187615b44565b905081810360208301526169a8818661601d565b905081810360408301526169bc818561601d565b905081810360608301526169d08184615bb9565b905095945050505050565b600060a08201905081810360008301526169f58188615c17565b90508181036020830152616a098187615b44565b90508181036040830152616a1d818661601d565b90508181036060830152616a31818561601d565b90508181036080830152616a458184615bb9565b90509695505050505050565b60006020820190508181036000830152616a6b8184615dd4565b905092915050565b60006060820190508181036000830152616a8d8186615f33565b9050616a9c6020830185616846565b616aa96040830184616846565b949350505050565b60006040820190508181036000830152616acb818561601d565b90508181036020830152616adf8184615fa8565b90509392505050565b60006080820190508181036000830152616b02818761601d565b90508181036020830152616b168186615fa8565b90508181036040830152616b2a8185615e49565b90508181036060830152616b3e8184615bb9565b905095945050505050565b6000602082019050616b5e600083018461608a565b92915050565b6000602082019050616b796000830184616099565b92915050565b6000602082019050616b9460008301846160b7565b92915050565b6000604082019050616baf60008301856160b7565b616bbc6020830184615a79565b9392505050565b6000604082019050616bd860008301856160b7565b616be56020830184616846565b9392505050565b6000602082019050616c0160008301846160c6565b92915050565b60006020820190508181036000830152616c208161617f565b9050919050565b60006020820190508181036000830152616c40816161ff565b9050919050565b60006020820190508181036000830152616c608161623f565b9050919050565b60006020820190508181036000830152616c808161627f565b9050919050565b60006020820190508181036000830152616ca0816162e5565b9050919050565b60006020820190508181036000830152616cc08161644b565b9050919050565b6000604082019050616cdc6000830185616846565b616ce96020830184616846565b9392505050565b600060a082019050616d056000830188616846565b616d126020830187616846565b8181036040830152616d248186615ae6565b90508181036060830152616d388185615cea565b9050616d47608083018461608a565b9695505050505050565b6000606082019050616d666000830186616846565b616d736020830185616846565b616d80604083018461608a565b949350505050565b6000604051905081810181811067ffffffffffffffff82111715616dab57600080fd5b8060405250919050565b600067ffffffffffffffff821115616dcc57600080fd5b602082029050602081019050919050565b600067ffffffffffffffff821115616df457600080fd5b602082029050602081019050919050565b600067ffffffffffffffff821115616e1c57600080fd5b602082029050602081019050919050565b600067ffffffffffffffff821115616e4457600080fd5b602082029050602081019050919050565b600067ffffffffffffffff821115616e6c57600080fd5b602082029050602081019050919050565b600067ffffffffffffffff821115616e9457600080fd5b602082029050602081019050919050565b600067ffffffffffffffff821115616ebc57600080fd5b602082029050602081019050919050565b600067ffffffffffffffff821115616ee457600080fd5b602082029050602081019050919050565b600067ffffffffffffffff821115616f0c57600080fd5b601f19601f8301169050602081019050919050565b6000819050602082019050919050565b6000819050602082019050919050565b6000819050602082019050919050565b6000819050602082019050919050565b6000819050602082019050919050565b6000819050602082019050919050565b6000819050602082019050919050565b6000819050602082019050919050565b6000819050602082019050919050565b6000819050602082019050919050565b600081519050919050565b600081519050919050565b600081519050919050565b600081519050919050565b600081519050919050565b600081519050919050565b600081519050919050565b600081519050919050565b600081519050919050565b600081519050919050565b600081519050919050565b6000602082019050919050565b6000602082019050919050565b6000602082019050919050565b6000602082019050919050565b6000602082019050919050565b6000602082019050919050565b6000602082019050919050565b6000602082019050919050565b6000602082019050919050565b6000602082019050919050565b600082825260208201905092915050565b600082825260208201905092915050565b600082825260208201905092915050565b600082825260208201905092915050565b600082825260208201905092915050565b600082825260208201905092915050565b600082825260208201905092915050565b600082825260208201905092915050565b600082825260208201905092915050565b600082825260208201905092915050565b600082825260208201905092915050565b600082825260208201905092915050565b600082825260208201905092915050565b600082825260208201905092915050565b600082825260208201905092915050565b600081905092915050565b60006171d18261722c565b9050919050565b60008115159050919050565b60006171ef826171c6565b9050919050565b6000617201826171c6565b9050919050565b6000617213826171c6565b9050919050565b6000617225826171c6565b9050919050565b600073ffffffffffffffffffffffffffffffffffffffff82169050919050565b6000819050919050565b600060ff82169050919050565b600061726e82617275565b9050919050565b60006172808261722c565b9050919050565b600061729282617299565b9050919050565b60006172a48261722c565b9050919050565b60006172b6826172bd565b9050919050565b60006172c88261722c565b9050919050565b60005b838110156172ed5780820151818401526020810190506172d2565b838111156172fc576000848401525b50505050565b6000601f19601f8301169050919050565b61731c816171c6565b811461732757600080fd5b50565b617333816171d8565b811461733e57600080fd5b50565b61734a816171e4565b811461735557600080fd5b50565b617361816171f6565b811461736c57600080fd5b50565b61737881617208565b811461738357600080fd5b50565b61738f8161721a565b811461739a57600080fd5b50565b6173a68161724c565b81146173b157600080fd5b50565b6173bd81617256565b81146173c857600080fd5b5056fea2646970667358221220550d022cf868bd44ebdc1d99453deb5af9062774c3df50948b0b90da2cce864c64736f6c634300060c0033",
  "linkReferences": {},
  "deployedLinkReferences": {}
}