{
  "_format": "hh-sol-artifact-1",
  "contractName": "GelatoGUniPriceOracle",
  "sourceName": "contracts/oracles/GelatoGUniPriceOracle.sol",
  "abi": [
    {
      "inputs": [
        {
          "internalType": "contract CToken",
          "name": "cToken",
          "type": "address"
        }
      ],
      "name": "getUnderlyingPrice",
      "outputs": [
        {
          "internalType": "uint256",
          "name": "",
          "type": "uint256"
        }
      ],
      "stateMutability": "view",
      "type": "function"
    },
    {
      "inputs": [
        {
          "internalType": "address",
          "name": "underlying",
          "type": "address"
        }
      ],
      "name": "price",
      "outputs": [
        {
          "internalType": "uint256",
          "name": "",
          "type": "uint256"
        }
      ],
      "stateMutability": "view",
      "type": "function"
    }
  ],
  "bytecode": "0x608060405234801561001057600080fd5b50610f79806100206000396000f3fe608060405234801561001057600080fd5b50600436106100365760003560e01c8063aea910781461003b578063fc57d4df14610093575b600080fd5b61007d6004803603602081101561005157600080fd5b81019080803573ffffffffffffffffffffffffffffffffffffffff1690602001909291905050506100eb565b6040518082815260200191505060405180910390f35b6100d5600480360360208110156100a957600080fd5b81019080803573ffffffffffffffffffffffffffffffffffffffff1690602001909291905050506100fd565b6040518082815260200191505060405180910390f35b60006100f682610246565b9050919050565b6000808273ffffffffffffffffffffffffffffffffffffffff16636f307dc36040518163ffffffff1660e01b815260040160206040518083038186803b15801561014657600080fd5b505afa15801561015a573d6000803e3d6000fd5b505050506040513d602081101561017057600080fd5b8101908080519060200190929190505050905061023e8173ffffffffffffffffffffffffffffffffffffffff1663313ce5676040518163ffffffff1660e01b815260040160206040518083038186803b1580156101cc57600080fd5b505afa1580156101e0573d6000803e3d6000fd5b505050506040513d60208110156101f657600080fd5b810190808051906020019092919050505060ff16600a0a610230670de0b6b3a764000061022285610246565b610a6490919063ffffffff16565b610aea90919063ffffffff16565b915050919050565b60008082905060008173ffffffffffffffffffffffffffffffffffffffff16630dfe16816040518163ffffffff1660e01b815260040160206040518083038186803b15801561029457600080fd5b505afa1580156102a8573d6000803e3d6000fd5b505050506040513d60208110156102be57600080fd5b8101908080519060200190929190505050905060008273ffffffffffffffffffffffffffffffffffffffff1663d21220a76040518163ffffffff1660e01b815260040160206040518083038186803b15801561031957600080fd5b505afa15801561032d573d6000803e3d6000fd5b505050506040513d602081101561034357600080fd5b81019080805190602001909291905050509050600073c02aaa39b223fe8d0a0e5c4f27ead9083c756cc273ffffffffffffffffffffffffffffffffffffffff168373ffffffffffffffffffffffffffffffffffffffff1614610446573373ffffffffffffffffffffffffffffffffffffffff1663aea91078846040518263ffffffff1660e01b8152600401808273ffffffffffffffffffffffffffffffffffffffff16815260200191505060206040518083038186803b15801561040657600080fd5b505afa15801561041a573d6000803e3d6000fd5b505050506040513d602081101561043057600080fd5b8101908080519060200190929190505050610450565b670de0b6b3a76400005b9050600081116104ab576040517f08c379a0000000000000000000000000000000000000000000000000000000008152600401808060200182810382526035815260200180610e546035913960400191505060405180910390fd5b600073c02aaa39b223fe8d0a0e5c4f27ead9083c756cc273ffffffffffffffffffffffffffffffffffffffff168373ffffffffffffffffffffffffffffffffffffffff161461059b573373ffffffffffffffffffffffffffffffffffffffff1663aea91078846040518263ffffffff1660e01b8152600401808273ffffffffffffffffffffffffffffffffffffffff16815260200191505060206040518083038186803b15801561055b57600080fd5b505afa15801561056f573d6000803e3d6000fd5b505050506040513d602081101561058557600080fd5b81019080805190602001909291905050506105a5565b670de0b6b3a76400005b905060008111610600576040517f08c379a0000000000000000000000000000000000000000000000000000000008152600401808060200182810382526035815260200180610e1f6035913960400191505060405180910390fd5b60008473ffffffffffffffffffffffffffffffffffffffff1663313ce5676040518163ffffffff1660e01b815260040160206040518083038186803b15801561064857600080fd5b505afa15801561065c573d6000803e3d6000fd5b505050506040513d602081101561067257600080fd5b810190808051906020019092919050505060ff16905060128111156106e2576040517f08c379a0000000000000000000000000000000000000000000000000000000008152600401808060200182810382526031815260200180610ee26031913960400191505060405180910390fd5b600081601203600a0a905060008573ffffffffffffffffffffffffffffffffffffffff1663313ce5676040518163ffffffff1660e01b815260040160206040518083038186803b15801561073557600080fd5b505afa158015610749573d6000803e3d6000fd5b505050506040513d602081101561075f57600080fd5b810190808051906020019092919050505060ff16905060128111156107cf576040517f08c379a0000000000000000000000000000000000000000000000000000000008152600401808060200182810382526031815260200180610f136031913960400191505060405180910390fd5b600081601203600a0a9050600061084c60306108456108406107fd89600a0a8b610a6490919063ffffffff16565b6108326c010000000000000000000000006108248a600a0a8f610a6490919063ffffffff16565b610a6490919063ffffffff16565b610aea90919063ffffffff16565b610b73565b901b610cf0565b90506000808b73ffffffffffffffffffffffffffffffffffffffff1663b670ed7d846040518263ffffffff1660e01b8152600401808273ffffffffffffffffffffffffffffffffffffffff168152602001915050604080518083038186803b1580156108b757600080fd5b505afa1580156108cb573d6000803e3d6000fd5b505050506040513d60408110156108e157600080fd5b81019080805190602001909291908051906020019092919050505091509150600082118061090f5750600081115b610964576040517f08c379a0000000000000000000000000000000000000000000000000000000008152600401808060200182810382526038815260200180610e896038913960400191505060405180910390fd5b610a518e73ffffffffffffffffffffffffffffffffffffffff166318160ddd6040518163ffffffff1660e01b815260040160206040518083038186803b1580156109ad57600080fd5b505afa1580156109c1573d6000803e3d6000fd5b505050506040513d60208110156109d757600080fd5b8101908080519060200190929190505050610a43610a10610a018886610a6490919063ffffffff16565b8c610a6490919063ffffffff16565b610a35610a268b88610a6490919063ffffffff16565b8e610a6490919063ffffffff16565b610d6890919063ffffffff16565b610aea90919063ffffffff16565b9c50505050505050505050505050919050565b600080831415610a775760009050610ae4565b6000828402905082848281610a8857fe5b0414610adf576040517f08c379a0000000000000000000000000000000000000000000000000000000008152600401808060200182810382526021815260200180610ec16021913960400191505060405180910390fd5b809150505b92915050565b6000808211610b61576040517f08c379a000000000000000000000000000000000000000000000000000000000815260040180806020018281038252601a8152602001807f536166654d6174683a206469766973696f6e206279207a65726f00000000000081525060200191505060405180910390fd5b818381610b6a57fe5b04905092915050565b600080821415610b865760009050610ceb565b60008290506000600190507001000000000000000000000000000000008210610bb857608082901c9150604081901b90505b680100000000000000008210610bd757604082901c9150602081901b90505b6401000000008210610bf257602082901c9150601081901b90505b620100008210610c0b57601082901c9150600881901b90505b6101008210610c2357600882901c9150600481901b90505b60108210610c3a57600482901c9150600281901b90505b60088210610c4a57600181901b90505b6001818581610c5557fe5b048201901c90506001818581610c6757fe5b048201901c90506001818581610c7957fe5b048201901c90506001818581610c8b57fe5b048201901c90506001818581610c9d57fe5b048201901c90506001818581610caf57fe5b048201901c90506001818581610cc157fe5b048201901c90506000818581610cd357fe5b049050808210610ce35780610ce5565b815b93505050505b919050565b6000818291508173ffffffffffffffffffffffffffffffffffffffff1614610d63576040517f08c379a000000000000000000000000000000000000000000000000000000000815260040180806020018281038252602e815260200180610df1602e913960400191505060405180910390fd5b919050565b600080828401905083811015610de6576040517f08c379a000000000000000000000000000000000000000000000000000000000815260040180806020018281038252601b8152602001807f536166654d6174683a206164646974696f6e206f766572666c6f77000000000081525060200191505060405180910390fd5b809150509291505056fe4f766572666c6f77207768656e20636f6e76657274696e672075696e7432353620696e746f2075696e743136302e4661696c656420746f20726574726965766520707269636520666f7220472d554e4920756e6465726c79696e6720746f6b656e312e4661696c656420746f20726574726965766520707269636520666f7220472d554e4920756e6465726c79696e6720746f6b656e302e472d554e4920756e6465726c79696e6720746f6b656e2062616c616e636573206e6f7420626f74682067726561746572207468616e20302e536166654d6174683a206d756c7469706c69636174696f6e206f766572666c6f77472d554e4920756e6465726c79696e6720746f6b656e3020646563696d616c732067726561746572207468616e2031382e472d554e4920756e6465726c79696e6720746f6b656e3120646563696d616c732067726561746572207468616e2031382ea264697066735822122085649f19b5173fe0c9e89e2669078340e9b70a27128cdb7fa57df54c9210dd1d64736f6c634300060c0033",
  "linkReferences": {},
  "deployedLinkReferences": {}
}