{
  "_format": "hh-sol-artifact-1",
  "contractName": "UniswapV3TwapPriceOracle",
  "sourceName": "contracts/oracles/UniswapV3TwapPriceOracle.sol",
  "abi": [
    {
      "inputs": [
        {
          "internalType": "address",
          "name": "_uniswapV3Factory",
          "type": "address"
        },
        {
          "internalType": "uint24",
          "name": "_feeTier",
          "type": "uint24"
        }
      ],
      "stateMutability": "nonpayable",
      "type": "constructor"
    },
    {
      "inputs": [],
      "name": "TWAP_PERIOD",
      "outputs": [
        {
          "internalType": "uint32",
          "name": "",
          "type": "uint32"
        }
      ],
      "stateMutability": "view",
      "type": "function"
    },
    {
      "inputs": [],
      "name": "WETH",
      "outputs": [
        {
          "internalType": "address",
          "name": "",
          "type": "address"
        }
      ],
      "stateMutability": "view",
      "type": "function"
    },
    {
      "inputs": [],
      "name": "feeTier",
      "outputs": [
        {
          "internalType": "uint24",
          "name": "",
          "type": "uint24"
        }
      ],
      "stateMutability": "view",
      "type": "function"
    },
    {
      "inputs": [
        {
          "internalType": "contract CToken",
          "name": "cToken",
          "type": "address"
        }
      ],
      "name": "getUnderlyingPrice",
      "outputs": [
        {
          "internalType": "uint256",
          "name": "",
          "type": "uint256"
        }
      ],
      "stateMutability": "view",
      "type": "function"
    },
    {
      "inputs": [
        {
          "internalType": "address",
          "name": "underlying",
          "type": "address"
        }
      ],
      "name": "price",
      "outputs": [
        {
          "internalType": "uint256",
          "name": "",
          "type": "uint256"
        }
      ],
      "stateMutability": "view",
      "type": "function"
    },
    {
      "inputs": [],
      "name": "uniswapV3Factory",
      "outputs": [
        {
          "internalType": "address",
          "name": "",
          "type": "address"
        }
      ],
      "stateMutability": "view",
      "type": "function"
    }
  ],
  "bytecode": "0x60c060405234801561001057600080fd5b506040516113d73803806113d78339818101604052604081101561003357600080fd5b810190808051906020019092919080519060200190929190505050600073ffffffffffffffffffffffffffffffffffffffff168273ffffffffffffffffffffffffffffffffffffffff16141561008857600080fd5b6101f48162ffffff1614806100a35750610bb88162ffffff16145b806100b457506127108162ffffff16145b6100bd57600080fd5b8173ffffffffffffffffffffffffffffffffffffffff1660808173ffffffffffffffffffffffffffffffffffffffff1660601b815250508062ffffff1660a08162ffffff1660e81b81525050505060805160601c60a05160e81c61129961013e600039806101ec52806104d55250806101c8528061048352506112996000f3fe608060405234801561001057600080fd5b50600436106100625760003560e01c80635b5491821461006757806372f5d98a1461009b5780637ca25184146100be578063ad5c4648146100e2578063aea9107814610116578063fc57d4df1461016e575b600080fd5b61006f6101c6565b604051808273ffffffffffffffffffffffffffffffffffffffff16815260200191505060405180910390f35b6100a36101ea565b604051808262ffffff16815260200191505060405180910390f35b6100c661020e565b604051808263ffffffff16815260200191505060405180910390f35b6100ea610214565b604051808273ffffffffffffffffffffffffffffffffffffffff16815260200191505060405180910390f35b6101586004803603602081101561012c57600080fd5b81019080803573ffffffffffffffffffffffffffffffffffffffff16906020019092919050505061022c565b6040518082815260200191505060405180910390f35b6101b06004803603602081101561018457600080fd5b81019080803573ffffffffffffffffffffffffffffffffffffffff16906020019092919050505061023e565b6040518082815260200191505060405180910390f35b7f000000000000000000000000000000000000000000000000000000000000000081565b7f000000000000000000000000000000000000000000000000000000000000000081565b61025881565b73c02aaa39b223fe8d0a0e5c4f27ead9083c756cc281565b600061023782610425565b9050919050565b60008173ffffffffffffffffffffffffffffffffffffffff1663ac784ddc6040518163ffffffff1660e01b815260040160206040518083038186803b15801561028657600080fd5b505afa15801561029a573d6000803e3d6000fd5b505050506040513d60208110156102b057600080fd5b8101908080519060200190929190505050156102d657670de0b6b3a76400009050610420565b60008273ffffffffffffffffffffffffffffffffffffffff16636f307dc36040518163ffffffff1660e01b815260040160206040518083038186803b15801561031e57600080fd5b505afa158015610332573d6000803e3d6000fd5b505050506040513d602081101561034857600080fd5b8101908080519060200190929190505050905060008173ffffffffffffffffffffffffffffffffffffffff1663313ce5676040518163ffffffff1660e01b815260040160206040518083038186803b1580156103a357600080fd5b505afa1580156103b7573d6000803e3d6000fd5b505050506040513d60208110156103cd57600080fd5b810190808051906020019092919050505060ff16600a0a905061041b8161040d670de0b6b3a76400006103ff86610425565b61067c90919063ffffffff16565b61070290919063ffffffff16565b925050505b919050565b600073c02aaa39b223fe8d0a0e5c4f27ead9083c756cc273ffffffffffffffffffffffffffffffffffffffff168273ffffffffffffffffffffffffffffffffffffffff16141561047f57670de0b6b3a76400009050610677565b60007f000000000000000000000000000000000000000000000000000000000000000073ffffffffffffffffffffffffffffffffffffffff16631698ee828473c02aaa39b223fe8d0a0e5c4f27ead9083c756cc27f00000000000000000000000000000000000000000000000000000000000000006040518463ffffffff1660e01b8152600401808473ffffffffffffffffffffffffffffffffffffffff1681526020018373ffffffffffffffffffffffffffffffffffffffff1681526020018262ffffff168152602001935050505060206040518083038186803b15801561056757600080fd5b505afa15801561057b573d6000803e3d6000fd5b505050506040513d602081101561059157600080fd5b8101908080519060200190929190505050905060006105b28261025861078b565b905060008473ffffffffffffffffffffffffffffffffffffffff1663313ce5676040518163ffffffff1660e01b815260040160206040518083038186803b1580156105fc57600080fd5b505afa158015610610573d6000803e3d6000fd5b505050506040513d602081101561062657600080fd5b810190808051906020019092919050505060ff166fffffffffffffffffffffffffffffffff16600a0a905061067182828773c02aaa39b223fe8d0a0e5c4f27ead9083c756cc2610b2a565b93505050505b919050565b60008083141561068f57600090506106fc565b60008284029050828482816106a057fe5b04146106f7576040517f08c379a00000000000000000000000000000000000000000000000000000000081526004018080602001828103825260218152602001806112436021913960400191505060405180910390fd5b809150505b92915050565b6000808211610779576040517f08c379a000000000000000000000000000000000000000000000000000000000815260040180806020018281038252601a8152602001807f536166654d6174683a206469766973696f6e206279207a65726f00000000000081525060200191505060405180910390fd5b81838161078257fe5b04905092915050565b6000808263ffffffff161415610809576040517f08c379a00000000000000000000000000000000000000000000000000000000081526004018080602001828103825260028152602001807f425000000000000000000000000000000000000000000000000000000000000081525060200191505060405180910390fd5b6060600267ffffffffffffffff8111801561082357600080fd5b506040519080825280602002602001820160405280156108525781602001602082028036833780820191505090505b509050828160008151811061086357fe5b602002602001019063ffffffff16908163ffffffff168152505060008160018151811061088c57fe5b602002602001019063ffffffff16908163ffffffff168152505060608473ffffffffffffffffffffffffffffffffffffffff1663883bdbfd836040518263ffffffff1660e01b81526004018080602001828103825283818151815260200191508051906020019060200280838360005b838110156109175780820151818401526020810190506108fc565b505050509050019250505060006040518083038186803b15801561093a57600080fd5b505afa15801561094e573d6000803e3d6000fd5b505050506040513d6000823e3d601f19601f82011682018060405250604081101561097857600080fd5b810190808051604051939291908464010000000082111561099857600080fd5b838201915060208201858111156109ae57600080fd5b82518660208202830111640100000000821117156109cb57600080fd5b8083526020830192505050908051906020019060200280838360005b83811015610a025780820151818401526020810190506109e7565b5050505090500160405260200180516040519392919084640100000000821115610a2b57600080fd5b83820191506020820185811115610a4157600080fd5b8251866020820283011164010000000082111715610a5e57600080fd5b8083526020830192505050908051906020019060200280838360005b83811015610a95578082015181840152602081019050610a7a565b50505050905001604052505050509050600081600081518110610ab457fe5b602002602001015182600181518110610ac957fe5b60200260200101510390508463ffffffff168160060b81610ae657fe5b05935060008160060b128015610b12575060008563ffffffff168260060b81610b0b57fe5b0760060b14155b15610b21578380600190039450505b50505092915050565b600080610b3686610d2d565b90506fffffffffffffffffffffffffffffffff80168173ffffffffffffffffffffffffffffffffffffffff1611610c475760008173ffffffffffffffffffffffffffffffffffffffff168273ffffffffffffffffffffffffffffffffffffffff160290508373ffffffffffffffffffffffffffffffffffffffff168573ffffffffffffffffffffffffffffffffffffffff1610610c0857610c037801000000000000000000000000000000000000000000000000876fffffffffffffffffffffffffffffffff1683611168565b610c3f565b610c3e81876fffffffffffffffffffffffffffffffff167801000000000000000000000000000000000000000000000000611168565b5b925050610d24565b6000610c898273ffffffffffffffffffffffffffffffffffffffff168373ffffffffffffffffffffffffffffffffffffffff1668010000000000000000611168565b90508373ffffffffffffffffffffffffffffffffffffffff168573ffffffffffffffffffffffffffffffffffffffff1610610cf157610cec700100000000000000000000000000000000876fffffffffffffffffffffffffffffffff1683611168565b610d20565b610d1f81876fffffffffffffffffffffffffffffffff16700100000000000000000000000000000000611168565b5b9250505b50949350505050565b60008060008360020b12610d44578260020b610d4c565b8260020b6000035b90507ffffffffffffffffffffffffffffffffffffffffffffffffffffffffffff2761860000360020b811115610dea576040517f08c379a00000000000000000000000000000000000000000000000000000000081526004018080602001828103825260018152602001807f540000000000000000000000000000000000000000000000000000000000000081525060200191505060405180910390fd5b600080600183161415610e0e57700100000000000000000000000000000000610e20565b6ffffcb933bd6fad37aa2d162d1a5940015b70ffffffffffffffffffffffffffffffffff16905060006002831614610e5a5760806ffff97272373d413259a46990580e213a8202901c90505b60006004831614610e7f5760806ffff2e50f5f656932ef12357cf3c7fdcc8202901c90505b60006008831614610ea45760806fffe5caca7e10e4e61c3624eaa0941cd08202901c90505b60006010831614610ec95760806fffcb9843d60f6159c9db58835c9266448202901c90505b60006020831614610eee5760806fff973b41fa98c081472e6896dfb254c08202901c90505b60006040831614610f135760806fff2ea16466c96a3843ec78b326b528618202901c90505b60006080831614610f385760806ffe5dee046a99a2a811c461f1969c30538202901c90505b6000610100831614610f5e5760806ffcbe86c7900a88aedcffc83b479aa3a48202901c90505b6000610200831614610f845760806ff987a7253ac413176f2b074cf7815e548202901c90505b6000610400831614610faa5760806ff3392b0822b70005940c7a398e4b70f38202901c90505b6000610800831614610fd05760806fe7159475a2c29b7443b29c7fa6e889d98202901c90505b6000611000831614610ff65760806fd097f3bdfd2022b8845ad8f792aa58258202901c90505b600061200083161461101c5760806fa9f746462d870fdf8a65dc1f90e061e58202901c90505b60006140008316146110425760806f70d869a156d2a1b890bb3df62baf32f78202901c90505b60006180008316146110685760806f31be135f97d08fd981231505542fcfa68202901c90505b60006201000083161461108f5760806f09aa508b5b7a84e1c677de54f3e99bc98202901c90505b6000620200008316146110b55760806e5d6af8dedb81196699c329225ee6048202901c90505b6000620400008316146110da5760806d2216e584f5fa1ea926041bedfe988202901c90505b6000620800008316146110fd5760806b048a170391f7dc42444e8fa28202901c90505b60008460020b131561113657807fffffffffffffffffffffffffffffffffffffffffffffffffffffffffffffffff8161113257fe5b0490505b6000640100000000828161114657fe5b0614611153576001611156565b60005b60ff16602082901c0192505050919050565b6000806000801985870985870292508281108382030391505060008114156111a3576000841161119757600080fd5b8382049250505061123b565b8084116111af57600080fd5b600084868809905082811182039150808303925060008586600003169050808604955080840493506001818260000304019050808302841793506000600287600302189050808702600203810290508087026002038102905080870260020381029050808702600203810290508087026002038102905080870260020381029050808502955050505050505b939250505056fe536166654d6174683a206d756c7469706c69636174696f6e206f766572666c6f77a264697066735822122082fc064c246d23ece92d31c08bae170cc281de997896fa6d071cc67de1c492b664736f6c634300060c0033",
  "linkReferences": {},
  "deployedLinkReferences": {}
}