{
  "_format": "hh-sol-artifact-1",
  "contractName": "SynthetixPriceOracle",
  "sourceName": "contracts/oracles/SynthetixPriceOracle.sol",
  "abi": [
    {
      "inputs": [
        {
          "internalType": "contract CToken",
          "name": "cToken",
          "type": "address"
        }
      ],
      "name": "getUnderlyingPrice",
      "outputs": [
        {
          "internalType": "uint256",
          "name": "",
          "type": "uint256"
        }
      ],
      "stateMutability": "view",
      "type": "function"
    }
  ],
  "bytecode": "0x608060405234801561001057600080fd5b50610679806100206000396000f3fe608060405234801561001057600080fd5b506004361061002b5760003560e01c8063fc57d4df14610030575b600080fd5b6100726004803603602081101561004657600080fd5b81019080803573ffffffffffffffffffffffffffffffffffffffff169060200190929190505050610088565b6040518082815260200191505060405180910390f35b6000808273ffffffffffffffffffffffffffffffffffffffff16636f307dc36040518163ffffffff1660e01b815260040160206040518083038186803b1580156100d157600080fd5b505afa1580156100e5573d6000803e3d6000fd5b505050506040513d60208110156100fb57600080fd5b8101908080519060200190929190505050905060008173ffffffffffffffffffffffffffffffffffffffff1663313ce5676040518163ffffffff1660e01b815260040160206040518083038186803b15801561015657600080fd5b505afa15801561016a573d6000803e3d6000fd5b505050506040513d602081101561018057600080fd5b810190808051906020019092919050505060ff16600a0a90508173ffffffffffffffffffffffffffffffffffffffff1663d4b839926040518163ffffffff1660e01b815260040160206040518083038186803b1580156101df57600080fd5b505afa1580156101f3573d6000803e3d6000fd5b505050506040513d602081101561020957600080fd5b8101908080519060200190929190505050915060008273ffffffffffffffffffffffffffffffffffffffff166304f3bcec6040518163ffffffff1660e01b815260040160206040518083038186803b15801561026457600080fd5b505afa158015610278573d6000803e3d6000fd5b505050506040513d602081101561028e57600080fd5b810190808051906020019092919050505073ffffffffffffffffffffffffffffffffffffffff1663dacb2d016040518163ffffffff1660e01b815260040180807f45786368616e676552617465730000000000000000000000000000000000000081525060200180602001828103825260398152602001806105ea6039913960400191505060206040518083038186803b15801561032b57600080fd5b505afa15801561033f573d6000803e3d6000fd5b505050506040513d602081101561035557600080fd5b810190808051906020019092919050505090506104d0826104c2670de0b6b3a76400008473ffffffffffffffffffffffffffffffffffffffff1663654a60ac8873ffffffffffffffffffffffffffffffffffffffff1663dbd06c856040518163ffffffff1660e01b815260040160206040518083038186803b1580156103da57600080fd5b505afa1580156103ee573d6000803e3d6000fd5b505050506040513d602081101561040457600080fd5b8101908080519060200190929190505050886040518363ffffffff1660e01b815260040180838152602001828152602001807f45544800000000000000000000000000000000000000000000000000000000008152506020019250505060206040518083038186803b15801561047957600080fd5b505afa15801561048d573d6000803e3d6000fd5b505050506040513d60208110156104a357600080fd5b81019080805190602001909291905050506104da90919063ffffffff16565b61056090919063ffffffff16565b9350505050919050565b6000808314156104ed576000905061055a565b60008284029050828482816104fe57fe5b0414610555576040517f08c379a00000000000000000000000000000000000000000000000000000000081526004018080602001828103825260218152602001806106236021913960400191505060405180910390fd5b809150505b92915050565b60008082116105d7576040517f08c379a000000000000000000000000000000000000000000000000000000000815260040180806020018281038252601a8152602001807f536166654d6174683a206469766973696f6e206279207a65726f00000000000081525060200191505060405180910390fd5b8183816105e057fe5b0490509291505056fe4661696c656420746f206765742053796e74686574697827732045786368616e6765526174657320636f6e747261637420616464726573732e536166654d6174683a206d756c7469706c69636174696f6e206f766572666c6f77a26469706673582212208c733121eb5a9ee0f327761c666e426a00ce91ebf8cab0118f88d07111ee799264736f6c634300060c0033",
  "linkReferences": {},
  "deployedLinkReferences": {}
}