{
  "_format": "hh-sol-artifact-1",
  "contractName": "FusePoolDirectoryArbitrum",
  "sourceName": "contracts/chains/arbitrum/FusePoolDirectoryArbitrum.sol",
  "abi": [
    {
      "anonymous": false,
      "inputs": [
        {
          "indexed": false,
          "internalType": "address[]",
          "name": "admins",
          "type": "address[]"
        },
        {
          "indexed": false,
          "internalType": "bool",
          "name": "status",
          "type": "bool"
        }
      ],
      "name": "AdminWhitelistUpdated",
      "type": "event"
    },
    {
      "anonymous": false,
      "inputs": [
        {
          "indexed": true,
          "internalType": "address",
          "name": "previousOwner",
          "type": "address"
        },
        {
          "indexed": true,
          "internalType": "address",
          "name": "newOwner",
          "type": "address"
        }
      ],
      "name": "OwnershipTransferred",
      "type": "event"
    },
    {
      "anonymous": false,
      "inputs": [
        {
          "indexed": false,
          "internalType": "uint256",
          "name": "index",
          "type": "uint256"
        },
        {
          "components": [
            {
              "internalType": "string",
              "name": "name",
              "type": "string"
            },
            {
              "internalType": "address",
              "name": "creator",
              "type": "address"
            },
            {
              "internalType": "address",
              "name": "comptroller",
              "type": "address"
            },
            {
              "internalType": "uint256",
              "name": "blockPosted",
              "type": "uint256"
            },
            {
              "internalType": "uint256",
              "name": "timestampPosted",
              "type": "uint256"
            }
          ],
          "indexed": false,
          "internalType": "struct FusePoolDirectory.FusePool",
          "name": "pool",
          "type": "tuple"
        }
      ],
      "name": "PoolRegistered",
      "type": "event"
    },
    {
      "inputs": [
        {
          "internalType": "address[]",
          "name": "admins",
          "type": "address[]"
        },
        {
          "internalType": "bool",
          "name": "status",
          "type": "bool"
        }
      ],
      "name": "_editAdminWhitelist",
      "outputs": [],
      "stateMutability": "nonpayable",
      "type": "function"
    },
    {
      "inputs": [
        {
          "internalType": "address[]",
          "name": "deployers",
          "type": "address[]"
        },
        {
          "internalType": "bool",
          "name": "status",
          "type": "bool"
        }
      ],
      "name": "_editDeployerWhitelist",
      "outputs": [],
      "stateMutability": "nonpayable",
      "type": "function"
    },
    {
      "inputs": [
        {
          "internalType": "bool",
          "name": "enforce",
          "type": "bool"
        }
      ],
      "name": "_setDeployerWhitelistEnforcement",
      "outputs": [],
      "stateMutability": "nonpayable",
      "type": "function"
    },
    {
      "inputs": [
        {
          "internalType": "address",
          "name": "",
          "type": "address"
        }
      ],
      "name": "adminWhitelist",
      "outputs": [
        {
          "internalType": "bool",
          "name": "",
          "type": "bool"
        }
      ],
      "stateMutability": "view",
      "type": "function"
    },
    {
      "inputs": [
        {
          "internalType": "address",
          "name": "comptroller",
          "type": "address"
        }
      ],
      "name": "bookmarkPool",
      "outputs": [],
      "stateMutability": "nonpayable",
      "type": "function"
    },
    {
      "inputs": [
        {
          "internalType": "string",
          "name": "name",
          "type": "string"
        },
        {
          "internalType": "address",
          "name": "implementation",
          "type": "address"
        },
        {
          "internalType": "bool",
          "name": "enforceWhitelist",
          "type": "bool"
        },
        {
          "internalType": "uint256",
          "name": "closeFactor",
          "type": "uint256"
        },
        {
          "internalType": "uint256",
          "name": "liquidationIncentive",
          "type": "uint256"
        },
        {
          "internalType": "address",
          "name": "priceOracle",
          "type": "address"
        }
      ],
      "name": "deployPool",
      "outputs": [
        {
          "internalType": "uint256",
          "name": "",
          "type": "uint256"
        },
        {
          "internalType": "address",
          "name": "",
          "type": "address"
        }
      ],
      "stateMutability": "nonpayable",
      "type": "function"
    },
    {
      "inputs": [
        {
          "internalType": "address",
          "name": "",
          "type": "address"
        }
      ],
      "name": "deployerWhitelist",
      "outputs": [
        {
          "internalType": "bool",
          "name": "",
          "type": "bool"
        }
      ],
      "stateMutability": "view",
      "type": "function"
    },
    {
      "inputs": [],
      "name": "enforceDeployerWhitelist",
      "outputs": [
        {
          "internalType": "bool",
          "name": "",
          "type": "bool"
        }
      ],
      "stateMutability": "view",
      "type": "function"
    },
    {
      "inputs": [],
      "name": "getAllPools",
      "outputs": [
        {
          "components": [
            {
              "internalType": "string",
              "name": "name",
              "type": "string"
            },
            {
              "internalType": "address",
              "name": "creator",
              "type": "address"
            },
            {
              "internalType": "address",
              "name": "comptroller",
              "type": "address"
            },
            {
              "internalType": "uint256",
              "name": "blockPosted",
              "type": "uint256"
            },
            {
              "internalType": "uint256",
              "name": "timestampPosted",
              "type": "uint256"
            }
          ],
          "internalType": "struct FusePoolDirectory.FusePool[]",
          "name": "",
          "type": "tuple[]"
        }
      ],
      "stateMutability": "view",
      "type": "function"
    },
    {
      "inputs": [
        {
          "internalType": "address",
          "name": "account",
          "type": "address"
        }
      ],
      "name": "getBookmarks",
      "outputs": [
        {
          "internalType": "address[]",
          "name": "",
          "type": "address[]"
        }
      ],
      "stateMutability": "view",
      "type": "function"
    },
    {
      "inputs": [
        {
          "internalType": "address",
          "name": "account",
          "type": "address"
        }
      ],
      "name": "getPoolsByAccount",
      "outputs": [
        {
          "internalType": "uint256[]",
          "name": "",
          "type": "uint256[]"
        },
        {
          "components": [
            {
              "internalType": "string",
              "name": "name",
              "type": "string"
            },
            {
              "internalType": "address",
              "name": "creator",
              "type": "address"
            },
            {
              "internalType": "address",
              "name": "comptroller",
              "type": "address"
            },
            {
              "internalType": "uint256",
              "name": "blockPosted",
              "type": "uint256"
            },
            {
              "internalType": "uint256",
              "name": "timestampPosted",
              "type": "uint256"
            }
          ],
          "internalType": "struct FusePoolDirectory.FusePool[]",
          "name": "",
          "type": "tuple[]"
        }
      ],
      "stateMutability": "view",
      "type": "function"
    },
    {
      "inputs": [],
      "name": "getPublicPools",
      "outputs": [
        {
          "internalType": "uint256[]",
          "name": "",
          "type": "uint256[]"
        },
        {
          "components": [
            {
              "internalType": "string",
              "name": "name",
              "type": "string"
            },
            {
              "internalType": "address",
              "name": "creator",
              "type": "address"
            },
            {
              "internalType": "address",
              "name": "comptroller",
              "type": "address"
            },
            {
              "internalType": "uint256",
              "name": "blockPosted",
              "type": "uint256"
            },
            {
              "internalType": "uint256",
              "name": "timestampPosted",
              "type": "uint256"
            }
          ],
          "internalType": "struct FusePoolDirectory.FusePool[]",
          "name": "",
          "type": "tuple[]"
        }
      ],
      "stateMutability": "view",
      "type": "function"
    },
    {
      "inputs": [
        {
          "internalType": "bool",
          "name": "whitelistedAdmin",
          "type": "bool"
        }
      ],
      "name": "getPublicPoolsByVerification",
      "outputs": [
        {
          "internalType": "uint256[]",
          "name": "",
          "type": "uint256[]"
        },
        {
          "components": [
            {
              "internalType": "string",
              "name": "name",
              "type": "string"
            },
            {
              "internalType": "address",
              "name": "creator",
              "type": "address"
            },
            {
              "internalType": "address",
              "name": "comptroller",
              "type": "address"
            },
            {
              "internalType": "uint256",
              "name": "blockPosted",
              "type": "uint256"
            },
            {
              "internalType": "uint256",
              "name": "timestampPosted",
              "type": "uint256"
            }
          ],
          "internalType": "struct FusePoolDirectory.FusePool[]",
          "name": "",
          "type": "tuple[]"
        }
      ],
      "stateMutability": "view",
      "type": "function"
    },
    {
      "inputs": [
        {
          "internalType": "bool",
          "name": "_enforceDeployerWhitelist",
          "type": "bool"
        },
        {
          "internalType": "address[]",
          "name": "_deployerWhitelist",
          "type": "address[]"
        }
      ],
      "name": "initialize",
      "outputs": [],
      "stateMutability": "nonpayable",
      "type": "function"
    },
    {
      "inputs": [],
      "name": "owner",
      "outputs": [
        {
          "internalType": "address",
          "name": "",
          "type": "address"
        }
      ],
      "stateMutability": "view",
      "type": "function"
    },
    {
      "inputs": [
        {
          "internalType": "address",
          "name": "",
          "type": "address"
        }
      ],
      "name": "poolExists",
      "outputs": [
        {
          "internalType": "bool",
          "name": "",
          "type": "bool"
        }
      ],
      "stateMutability": "view",
      "type": "function"
    },
    {
      "inputs": [
        {
          "internalType": "uint256",
          "name": "",
          "type": "uint256"
        }
      ],
      "name": "pools",
      "outputs": [
        {
          "internalType": "string",
          "name": "name",
          "type": "string"
        },
        {
          "internalType": "address",
          "name": "creator",
          "type": "address"
        },
        {
          "internalType": "address",
          "name": "comptroller",
          "type": "address"
        },
        {
          "internalType": "uint256",
          "name": "blockPosted",
          "type": "uint256"
        },
        {
          "internalType": "uint256",
          "name": "timestampPosted",
          "type": "uint256"
        }
      ],
      "stateMutability": "view",
      "type": "function"
    },
    {
      "inputs": [],
      "name": "renounceOwnership",
      "outputs": [],
      "stateMutability": "nonpayable",
      "type": "function"
    },
    {
      "inputs": [
        {
          "internalType": "uint256",
          "name": "index",
          "type": "uint256"
        },
        {
          "internalType": "string",
          "name": "name",
          "type": "string"
        }
      ],
      "name": "setPoolName",
      "outputs": [],
      "stateMutability": "nonpayable",
      "type": "function"
    },
    {
      "inputs": [
        {
          "internalType": "address",
          "name": "newOwner",
          "type": "address"
        }
      ],
      "name": "transferOwnership",
      "outputs": [],
      "stateMutability": "nonpayable",
      "type": "function"
    }
  ],
  "bytecode": "0x608060405234801561001057600080fd5b50615347806100206000396000f3fe608060405234801561001057600080fd5b506004361061012c5760003560e01c80635710c6d8116100ad578063a970e76c11610071578063a970e76c14610345578063ac4afa3814610375578063b86579d4146103a9578063d88ff1f4146103c5578063f2fde38b146103e35761012c565b80635710c6d81461029f578063715018a6146102d05780638da5cb5b146102da578063a155497c146102f8578063a3ed91c6146103145761012c565b8063218a3bbe116100f4578063218a3bbe146101d157806326bb81d71461020257806343e20a1d146102205780634a7462ee146102505780634ae26ea1146102805761012c565b806304f03c6f14610131578063074219781461014d5780630a83d1b0146101695780631e1c6a071461018557806320c32bfe146101b5575b600080fd5b61014b6004803603810190610146919061346a565b6103ff565b005b610167600480360381019061016291906133c0565b610498565b005b610183600480360381019061017e9190613412565b61053b565b005b61019f600480360381019061019a91906133c0565b6106d0565b6040516101ac9190614160565b60405180910390f35b6101cf60048036038101906101ca9190613603565b6106f0565b005b6101eb60048036038101906101e6919061346a565b6108df565b6040516101f9929190614129565b60405180910390f35b61020a610f02565b6040516102179190614160565b60405180910390f35b61023a600480360381019061023591906133c0565b610f15565b6040516102479190614160565b60405180910390f35b61026a600480360381019061026591906133c0565b610f35565b60405161027791906140e5565b60405180910390f35b610288611002565b604051610296929190614129565b60405180910390f35b6102b960048036038101906102b49190613510565b611454565b6040516102c7929190614446565b60405180910390f35b6102d8611bfd565b005b6102e2611d3a565b6040516102ef919061407d565b60405180910390f35b610312600480360381019061030d9190613412565b611d64565b005b61032e600480360381019061032991906133c0565b611ebe565b60405161033c929190614129565b60405180910390f35b61035f600480360381019061035a91906133c0565b6122ae565b60405161036c9190614160565b60405180910390f35b61038f600480360381019061038a91906135b1565b6122ce565b6040516103a09594939291906141b1565b60405180910390f35b6103c360048036038101906103be91906134bc565b6123e9565b005b6103cd61257a565b6040516103da9190614107565b60405180910390f35b6103fd60048036038101906103f891906133c0565b61273b565b005b6104076128e7565b73ffffffffffffffffffffffffffffffffffffffff16610425611d3a565b73ffffffffffffffffffffffffffffffffffffffff161461047b576040517f08c379a00000000000000000000000000000000000000000000000000000000081526004016104729061432b565b60405180910390fd5b80606860006101000a81548160ff02191690831515021790555050565b606a60003373ffffffffffffffffffffffffffffffffffffffff1673ffffffffffffffffffffffffffffffffffffffff168152602001908152602001600020819080600181540180825580915050600190039060005260206000200160009091909190916101000a81548173ffffffffffffffffffffffffffffffffffffffff021916908373ffffffffffffffffffffffffffffffffffffffff16021790555050565b6105436128e7565b73ffffffffffffffffffffffffffffffffffffffff16610561611d3a565b73ffffffffffffffffffffffffffffffffffffffff16146105b7576040517f08c379a00000000000000000000000000000000000000000000000000000000081526004016105ae9061432b565b60405180910390fd5b600083839050116105fd576040517f08c379a00000000000000000000000000000000000000000000000000000000081526004016105f49061422b565b60405180910390fd5b60005b8383905081101561068f5781606b600086868581811061061c57fe5b905060200201602081019061063191906133c0565b73ffffffffffffffffffffffffffffffffffffffff1673ffffffffffffffffffffffffffffffffffffffff16815260200190815260200160002060006101000a81548160ff0219169083151502179055508080600101915050610600565b507f31b67e6853df85403a8c4f4f46dc53f48f700d6917c8e3ec8c77a0e6fd56793b8383836040516106c3939291906140b3565b60405180910390a1505050565b60676020528060005260406000206000915054906101000a900460ff1681565b6000606584815481106106ff57fe5b906000526020600020906005020160020160009054906101000a900473ffffffffffffffffffffffffffffffffffffffff1690508073ffffffffffffffffffffffffffffffffffffffff1663f851a4406040518163ffffffff1660e01b815260040160206040518083038186803b15801561077957600080fd5b505afa15801561078d573d6000803e3d6000fd5b505050506040513d601f19601f820116820180604052508101906107b191906133e9565b73ffffffffffffffffffffffffffffffffffffffff163373ffffffffffffffffffffffffffffffffffffffff1614801561086557508073ffffffffffffffffffffffffffffffffffffffff16630a755ec26040518163ffffffff1660e01b815260040160206040518083038186803b15801561082c57600080fd5b505afa158015610840573d6000803e3d6000fd5b505050506040513d601f19601f820116820180604052508101906108649190613493565b5b806108a25750610873611d3a565b73ffffffffffffffffffffffffffffffffffffffff163373ffffffffffffffffffffffffffffffffffffffff16145b6108ab57600080fd5b8282606586815481106108ba57fe5b906000526020600020906005020160000191906108d892919061305f565b5050505050565b6060806000805b606580549050811015610abd5760006065828154811061090257fe5b906000526020600020906005020160020160009054906101000a900473ffffffffffffffffffffffffffffffffffffffff1690508073ffffffffffffffffffffffffffffffffffffffff1663b09572106040518163ffffffff1660e01b815260040160206040518083038186803b15801561097c57600080fd5b505afa9250505080156109ad57506040513d601f19601f820116820180604052508101906109aa9190613493565b60015b6109b657610aa6565b80156109c3575050610ab0565b8173ffffffffffffffffffffffffffffffffffffffff1663f851a4406040518163ffffffff1660e01b815260040160206040518083038186803b158015610a0957600080fd5b505afa925050508015610a3a57506040513d601f19601f82011682018060405250810190610a3791906133e9565b60015b610a4357610aa4565b606b60008273ffffffffffffffffffffffffffffffffffffffff1673ffffffffffffffffffffffffffffffffffffffff16815260200190815260200160002060009054906101000a900460ff16151588151514610aa257505050610ab0565b505b505b8280600101935050505b80806001019150506108e6565b5060608167ffffffffffffffff81118015610ad757600080fd5b50604051908082528060200260200182016040528015610b065781602001602082028036833780820191505090505b50905060608267ffffffffffffffff81118015610b2257600080fd5b50604051908082528060200260200182016040528015610b5c57816020015b610b496130df565b815260200190600190039081610b415790505b5090506000805b606580549050811015610ef257600060658281548110610b7f57fe5b906000526020600020906005020160020160009054906101000a900473ffffffffffffffffffffffffffffffffffffffff1690508073ffffffffffffffffffffffffffffffffffffffff1663b09572106040518163ffffffff1660e01b815260040160206040518083038186803b158015610bf957600080fd5b505afa925050508015610c2a57506040513d601f19601f82011682018060405250810190610c279190613493565b60015b610c3357610d23565b8015610c40575050610ee5565b8173ffffffffffffffffffffffffffffffffffffffff1663f851a4406040518163ffffffff1660e01b815260040160206040518083038186803b158015610c8657600080fd5b505afa925050508015610cb757506040513d601f19601f82011682018060405250810190610cb491906133e9565b60015b610cc057610d21565b606b60008273ffffffffffffffffffffffffffffffffffffffff1673ffffffffffffffffffffffffffffffffffffffff16815260200190815260200160002060009054906101000a900460ff1615158b151514610d1f57505050610ee5565b505b505b81858481518110610d3057fe5b60200260200101818152505060658281548110610d4957fe5b90600052602060002090600502016040518060a0016040529081600082018054600181600116156101000203166002900480601f016020809104026020016040519081016040528092919081815260200182805460018160011615610100020316600290048015610dfb5780601f10610dd057610100808354040283529160200191610dfb565b820191906000526020600020905b815481529060010190602001808311610dde57829003601f168201915b505050505081526020016001820160009054906101000a900473ffffffffffffffffffffffffffffffffffffffff1673ffffffffffffffffffffffffffffffffffffffff1673ffffffffffffffffffffffffffffffffffffffff1681526020016002820160009054906101000a900473ffffffffffffffffffffffffffffffffffffffff1673ffffffffffffffffffffffffffffffffffffffff1673ffffffffffffffffffffffffffffffffffffffff16815260200160038201548152602001600482015481525050848481518110610ed057fe5b60200260200101819052508280600101935050505b8080600101915050610b63565b5082829550955050505050915091565b606860009054906101000a900460ff1681565b606b6020528060005260406000206000915054906101000a900460ff1681565b6060606a60008373ffffffffffffffffffffffffffffffffffffffff1673ffffffffffffffffffffffffffffffffffffffff168152602001908152602001600020805480602002602001604051908101604052809291908181526020018280548015610ff657602002820191906000526020600020905b8160009054906101000a900473ffffffffffffffffffffffffffffffffffffffff1673ffffffffffffffffffffffffffffffffffffffff1681526020019060010190808311610fac575b50505050509050919050565b6060806000805b6065805490508110156110f8576065818154811061102357fe5b906000526020600020906005020160020160009054906101000a900473ffffffffffffffffffffffffffffffffffffffff1673ffffffffffffffffffffffffffffffffffffffff1663b09572106040518163ffffffff1660e01b815260040160206040518083038186803b15801561109a57600080fd5b505afa9250505080156110cb57506040513d601f19601f820116820180604052508101906110c89190613493565b60015b6110d4576110e2565b80156110e057506110eb565b505b81806001019250505b8080600101915050611009565b5060608167ffffffffffffffff8111801561111257600080fd5b506040519080825280602002602001820160405280156111415781602001602082028036833780820191505090505b50905060608267ffffffffffffffff8111801561115d57600080fd5b5060405190808252806020026020018201604052801561119757816020015b6111846130df565b81526020019060019003908161117c5790505b5090506000805b60658054905081101561144557606581815481106111b857fe5b906000526020600020906005020160020160009054906101000a900473ffffffffffffffffffffffffffffffffffffffff1673ffffffffffffffffffffffffffffffffffffffff1663b09572106040518163ffffffff1660e01b815260040160206040518083038186803b15801561122f57600080fd5b505afa92505050801561126057506040513d601f19601f8201168201806040525081019061125d9190613493565b60015b61126957611277565b80156112755750611438565b505b8084838151811061128457fe5b6020026020010181815250506065818154811061129d57fe5b90600052602060002090600502016040518060a0016040529081600082018054600181600116156101000203166002900480601f01602080910402602001604051908101604052809291908181526020018280546001816001161561010002031660029004801561134f5780601f106113245761010080835404028352916020019161134f565b820191906000526020600020905b81548152906001019060200180831161133257829003601f168201915b505050505081526020016001820160009054906101000a900473ffffffffffffffffffffffffffffffffffffffff1673ffffffffffffffffffffffffffffffffffffffff1673ffffffffffffffffffffffffffffffffffffffff1681526020016002820160009054906101000a900473ffffffffffffffffffffffffffffffffffffffff1673ffffffffffffffffffffffffffffffffffffffff1673ffffffffffffffffffffffffffffffffffffffff1681526020016003820154815260200160048201548152505083838151811061142457fe5b602002602001018190525081806001019250505b808060010191505061119e565b50828295509550505050509091565b600080600073ffffffffffffffffffffffffffffffffffffffff168773ffffffffffffffffffffffffffffffffffffffff1614156114c7576040517f08c379a00000000000000000000000000000000000000000000000000000000081526004016114be906142cb565b60405180910390fd5b600073ffffffffffffffffffffffffffffffffffffffff168373ffffffffffffffffffffffffffffffffffffffff161415611537576040517f08c379a000000000000000000000000000000000000000000000000000000000815260040161152e9061436b565b60405180910390fd5b606060405180610b600160405280610b3581526020016147dd610b35913990506000338a4360405160200161156e93929190614044565b6040516020818303038152906040528051906020012090506000818351602085016000f59050803b6115bf577f4661696c656420746f206465706c6f7920556e6974726f6c6c65722e000000006000fd5b600081905060008173ffffffffffffffffffffffffffffffffffffffff1663e992a0418d6040518263ffffffff1660e01b81526004016115ff919061407d565b602060405180830381600087803b15801561161957600080fd5b505af115801561162d573d6000803e3d6000fd5b505050506040513d601f19601f8201168201806040525081019061165191906135da565b14611691576040517f08c379a00000000000000000000000000000000000000000000000000000000081526004016116889061434b565b60405180910390fd5b60008b90508073ffffffffffffffffffffffffffffffffffffffff16631d504dc6836040518263ffffffff1660e01b81526004016116cf9190614196565b600060405180830381600087803b1580156116e957600080fd5b505af11580156116fd573d6000803e3d6000fd5b50505050600083905060008173ffffffffffffffffffffffffffffffffffffffff1663317b0b778d6040518263ffffffff1660e01b8152600401611741919061442b565b602060405180830381600087803b15801561175b57600080fd5b505af115801561176f573d6000803e3d6000fd5b505050506040513d601f19601f8201168201806040525081019061179391906135da565b146117d3576040517f08c379a00000000000000000000000000000000000000000000000000000000081526004016117ca9061420b565b60405180910390fd5b60008173ffffffffffffffffffffffffffffffffffffffff16634fd42e178c6040518263ffffffff1660e01b815260040161180e919061442b565b602060405180830381600087803b15801561182857600080fd5b505af115801561183c573d6000803e3d6000fd5b505050506040513d601f19601f8201168201806040525081019061186091906135da565b146118a0576040517f08c379a00000000000000000000000000000000000000000000000000000000081526004016118979061424b565b60405180910390fd5b60008173ffffffffffffffffffffffffffffffffffffffff166355ee1fe18b6040518263ffffffff1660e01b81526004016118db919061417b565b602060405180830381600087803b1580156118f557600080fd5b505af1158015611909573d6000803e3d6000fd5b505050506040513d601f19601f8201168201806040525081019061192d91906135da565b1461196d576040517f08c379a00000000000000000000000000000000000000000000000000000000081526004016119649061428b565b60405180910390fd5b8b15611a425760008173ffffffffffffffffffffffffffffffffffffffff1663952adf5a60016040518263ffffffff1660e01b81526004016119af9190614160565b602060405180830381600087803b1580156119c957600080fd5b505af11580156119dd573d6000803e3d6000fd5b505050506040513d601f19601f82011682018060405250810190611a0191906135da565b14611a41576040517f08c379a0000000000000000000000000000000000000000000000000000000008152600401611a389061438b565b60405180910390fd5b5b60008173ffffffffffffffffffffffffffffffffffffffff1663d533316660016040518263ffffffff1660e01b8152600401611a7e9190614160565b602060405180830381600087803b158015611a9857600080fd5b505af1158015611aac573d6000803e3d6000fd5b505050506040513d601f19601f82011682018060405250810190611ad091906135da565b14611b10576040517f08c379a0000000000000000000000000000000000000000000000000000000008152600401611b07906142eb565b60405180910390fd5b60008373ffffffffffffffffffffffffffffffffffffffff1663b71d1a0c336040518263ffffffff1660e01b8152600401611b4b9190614098565b602060405180830381600087803b158015611b6557600080fd5b505af1158015611b79573d6000803e3d6000fd5b505050506040513d601f19601f82011682018060405250810190611b9d91906135da565b14611bdd576040517f08c379a0000000000000000000000000000000000000000000000000000000008152600401611bd49061430b565b60405180910390fd5b611be78e856128ef565b8497509750505050505050965096945050505050565b611c056128e7565b73ffffffffffffffffffffffffffffffffffffffff16611c23611d3a565b73ffffffffffffffffffffffffffffffffffffffff1614611c79576040517f08c379a0000000000000000000000000000000000000000000000000000000008152600401611c709061432b565b60405180910390fd5b600073ffffffffffffffffffffffffffffffffffffffff16603360009054906101000a900473ffffffffffffffffffffffffffffffffffffffff1673ffffffffffffffffffffffffffffffffffffffff167f8be0079c531659141344cd1fd0a4f28419497f9722a3daafe3b4186f6b6457e060405160405180910390a36000603360006101000a81548173ffffffffffffffffffffffffffffffffffffffff021916908373ffffffffffffffffffffffffffffffffffffffff160217905550565b6000603360009054906101000a900473ffffffffffffffffffffffffffffffffffffffff16905090565b611d6c6128e7565b73ffffffffffffffffffffffffffffffffffffffff16611d8a611d3a565b73ffffffffffffffffffffffffffffffffffffffff1614611de0576040517f08c379a0000000000000000000000000000000000000000000000000000000008152600401611dd79061432b565b60405180910390fd5b60008383905011611e26576040517f08c379a0000000000000000000000000000000000000000000000000000000008152600401611e1d906143ab565b60405180910390fd5b60005b83839050811015611eb8578160696000868685818110611e4557fe5b9050602002016020810190611e5a91906133c0565b73ffffffffffffffffffffffffffffffffffffffff1673ffffffffffffffffffffffffffffffffffffffff16815260200190815260200160002060006101000a81548160ff0219169083151502179055508080600101915050611e29565b50505050565b6060806060606660008573ffffffffffffffffffffffffffffffffffffffff1673ffffffffffffffffffffffffffffffffffffffff1681526020019081526020016000208054905067ffffffffffffffff81118015611f1c57600080fd5b50604051908082528060200260200182016040528015611f4b5781602001602082028036833780820191505090505b5090506060606660008673ffffffffffffffffffffffffffffffffffffffff1673ffffffffffffffffffffffffffffffffffffffff1681526020019081526020016000208054905067ffffffffffffffff81118015611fa957600080fd5b50604051908082528060200260200182016040528015611fe357816020015b611fd06130df565b815260200190600190039081611fc85790505b50905060005b606660008773ffffffffffffffffffffffffffffffffffffffff1673ffffffffffffffffffffffffffffffffffffffff168152602001908152602001600020805490508110156122a057606660008773ffffffffffffffffffffffffffffffffffffffff1673ffffffffffffffffffffffffffffffffffffffff168152602001908152602001600020818154811061207d57fe5b906000526020600020015483828151811061209457fe5b6020026020010181815250506065606660008873ffffffffffffffffffffffffffffffffffffffff1673ffffffffffffffffffffffffffffffffffffffff16815260200190815260200160002082815481106120ec57fe5b90600052602060002001548154811061210157fe5b90600052602060002090600502016040518060a0016040529081600082018054600181600116156101000203166002900480601f0160208091040260200160405190810160405280929190818152602001828054600181600116156101000203166002900480156121b35780601f10612188576101008083540402835291602001916121b3565b820191906000526020600020905b81548152906001019060200180831161219657829003601f168201915b505050505081526020016001820160009054906101000a900473ffffffffffffffffffffffffffffffffffffffff1673ffffffffffffffffffffffffffffffffffffffff1673ffffffffffffffffffffffffffffffffffffffff1681526020016002820160009054906101000a900473ffffffffffffffffffffffffffffffffffffffff1673ffffffffffffffffffffffffffffffffffffffff1673ffffffffffffffffffffffffffffffffffffffff1681526020016003820154815260200160048201548152505082828151811061228857fe5b60200260200101819052508080600101915050611fe9565b508181935093505050915091565b60696020528060005260406000206000915054906101000a900460ff1681565b606581815481106122db57fe5b9060005260206000209060050201600091509050806000018054600181600116156101000203166002900480601f0160208091040260200160405190810160405280929190818152602001828054600181600116156101000203166002900480156123875780601f1061235c57610100808354040283529160200191612387565b820191906000526020600020905b81548152906001019060200180831161236a57829003601f168201915b5050505050908060010160009054906101000a900473ffffffffffffffffffffffffffffffffffffffff16908060020160009054906101000a900473ffffffffffffffffffffffffffffffffffffffff16908060030154908060040154905085565b600060019054906101000a900460ff16806124085750612407612cca565b5b8061241e575060008054906101000a900460ff16155b61245d576040517f08c379a0000000000000000000000000000000000000000000000000000000008152600401612454906142ab565b60405180910390fd5b60008060019054906101000a900460ff1615905080156124ad576001600060016101000a81548160ff02191690831515021790555060016000806101000a81548160ff0219169083151502179055505b6124b5612cdb565b82606860006101000a81548160ff02191690831515021790555060005b8251811015612553576001606960008584815181106124ed57fe5b602002602001015173ffffffffffffffffffffffffffffffffffffffff1673ffffffffffffffffffffffffffffffffffffffff16815260200190815260200160002060006101000a81548160ff02191690831515021790555080806001019150506124d2565b5080156125755760008060016101000a81548160ff0219169083151502179055505b505050565b60606065805480602002602001604051908101604052809291908181526020016000905b8282101561273257838290600052602060002090600502016040518060a0016040529081600082018054600181600116156101000203166002900480601f01602080910402602001604051908101604052809291908181526020018280546001816001161561010002031660029004801561265a5780601f1061262f5761010080835404028352916020019161265a565b820191906000526020600020905b81548152906001019060200180831161263d57829003601f168201915b505050505081526020016001820160009054906101000a900473ffffffffffffffffffffffffffffffffffffffff1673ffffffffffffffffffffffffffffffffffffffff1673ffffffffffffffffffffffffffffffffffffffff1681526020016002820160009054906101000a900473ffffffffffffffffffffffffffffffffffffffff1673ffffffffffffffffffffffffffffffffffffffff1673ffffffffffffffffffffffffffffffffffffffff168152602001600382015481526020016004820154815250508152602001906001019061259e565b50505050905090565b6127436128e7565b73ffffffffffffffffffffffffffffffffffffffff16612761611d3a565b73ffffffffffffffffffffffffffffffffffffffff16146127b7576040517f08c379a00000000000000000000000000000000000000000000000000000000081526004016127ae9061432b565b60405180910390fd5b600073ffffffffffffffffffffffffffffffffffffffff168173ffffffffffffffffffffffffffffffffffffffff161415612827576040517f08c379a000000000000000000000000000000000000000000000000000000000815260040161281e9061426b565b60405180910390fd5b8073ffffffffffffffffffffffffffffffffffffffff16603360009054906101000a900473ffffffffffffffffffffffffffffffffffffffff1673ffffffffffffffffffffffffffffffffffffffff167f8be0079c531659141344cd1fd0a4f28419497f9722a3daafe3b4186f6b6457e060405160405180910390a380603360006101000a81548173ffffffffffffffffffffffffffffffffffffffff021916908373ffffffffffffffffffffffffffffffffffffffff16021790555050565b600033905090565b6000606760008373ffffffffffffffffffffffffffffffffffffffff1673ffffffffffffffffffffffffffffffffffffffff16815260200190815260200160002060009054906101000a900460ff161561297e576040517f08c379a0000000000000000000000000000000000000000000000000000000008152600401612975906143eb565b60405180910390fd5b606860009054906101000a900460ff1615806129e35750606960003373ffffffffffffffffffffffffffffffffffffffff1673ffffffffffffffffffffffffffffffffffffffff16815260200190815260200160002060009054906101000a900460ff165b612a22576040517f08c379a0000000000000000000000000000000000000000000000000000000008152600401612a199061440b565b60405180910390fd5b606483511115612a67576040517f08c379a0000000000000000000000000000000000000000000000000000000008152600401612a5e906143cb565b60405180910390fd5b612a6f6130df565b6040518060a001604052808581526020013373ffffffffffffffffffffffffffffffffffffffff1681526020018473ffffffffffffffffffffffffffffffffffffffff16815260200143815260200142815250905060658190806001815401808255809150506001900390600052602060002090600502016000909190919091506000820151816000019080519060200190612b0c92919061313a565b5060208201518160010160006101000a81548173ffffffffffffffffffffffffffffffffffffffff021916908373ffffffffffffffffffffffffffffffffffffffff16021790555060408201518160020160006101000a81548173ffffffffffffffffffffffffffffffffffffffff021916908373ffffffffffffffffffffffffffffffffffffffff16021790555060608201518160030155608082015181600401555050606660003373ffffffffffffffffffffffffffffffffffffffff1673ffffffffffffffffffffffffffffffffffffffff16815260200190815260200160002060016065805490500390806001815401808255809150506001900390600052602060002001600090919091909150556001606760008573ffffffffffffffffffffffffffffffffffffffff1673ffffffffffffffffffffffffffffffffffffffff16815260200190815260200160002060006101000a81548160ff0219169083151502179055507f18075ab463b4dc5842f37ecd67abeb192eda5d073f2c08509e189ad173d5c02060016065805490500382604051612cb092919061446f565b60405180910390a160016065805490500391505092915050565b6000612cd530612dd3565b15905090565b600060019054906101000a900460ff1680612cfa5750612cf9612cca565b5b80612d10575060008054906101000a900460ff16155b612d4f576040517f08c379a0000000000000000000000000000000000000000000000000000000008152600401612d46906142ab565b60405180910390fd5b60008060019054906101000a900460ff161590508015612d9f576001600060016101000a81548160ff02191690831515021790555060016000806101000a81548160ff0219169083151502179055505b612da7612de6565b612daf612ece565b8015612dd05760008060016101000a81548160ff0219169083151502179055505b50565b600080823b905060008111915050919050565b600060019054906101000a900460ff1680612e055750612e04612cca565b5b80612e1b575060008054906101000a900460ff16155b612e5a576040517f08c379a0000000000000000000000000000000000000000000000000000000008152600401612e51906142ab565b60405180910390fd5b60008060019054906101000a900460ff161590508015612eaa576001600060016101000a81548160ff02191690831515021790555060016000806101000a81548160ff0219169083151502179055505b8015612ecb5760008060016101000a81548160ff0219169083151502179055505b50565b600060019054906101000a900460ff1680612eed5750612eec612cca565b5b80612f03575060008054906101000a900460ff16155b612f42576040517f08c379a0000000000000000000000000000000000000000000000000000000008152600401612f39906142ab565b60405180910390fd5b60008060019054906101000a900460ff161590508015612f92576001600060016101000a81548160ff02191690831515021790555060016000806101000a81548160ff0219169083151502179055505b6000612f9c6128e7565b905080603360006101000a81548173ffffffffffffffffffffffffffffffffffffffff021916908373ffffffffffffffffffffffffffffffffffffffff1602179055508073ffffffffffffffffffffffffffffffffffffffff16600073ffffffffffffffffffffffffffffffffffffffff167f8be0079c531659141344cd1fd0a4f28419497f9722a3daafe3b4186f6b6457e060405160405180910390a350801561305c5760008060016101000a81548160ff0219169083151502179055505b50565b828054600181600116156101000203166002900490600052602060002090601f016020900481019282601f106130a057803560ff19168380011785556130ce565b828001600101855582156130ce579182015b828111156130cd5782358255916020019190600101906130b2565b5b5090506130db91906131ba565b5090565b6040518060a0016040528060608152602001600073ffffffffffffffffffffffffffffffffffffffff168152602001600073ffffffffffffffffffffffffffffffffffffffff16815260200160008152602001600081525090565b828054600181600116156101000203166002900490600052602060002090601f016020900481019282601f1061317b57805160ff19168380011785556131a9565b828001600101855582156131a9579182015b828111156131a857825182559160200191906001019061318d565b5b5090506131b691906131ba565b5090565b5b808211156131d35760008160009055506001016131bb565b5090565b6000813590506131e681614797565b92915050565b6000815190506131fb81614797565b92915050565b60008083601f84011261321357600080fd5b8235905067ffffffffffffffff81111561322c57600080fd5b60208301915083602082028301111561324457600080fd5b9250929050565b600082601f83011261325c57600080fd5b813561326f61326a826144cc565b61449f565b9150818183526020840193506020810190508385602084028201111561329457600080fd5b60005b838110156132c457816132aa88826131d7565b845260208401935060208301925050600181019050613297565b5050505092915050565b6000813590506132dd816147ae565b92915050565b6000815190506132f2816147ae565b92915050565b60008083601f84011261330a57600080fd5b8235905067ffffffffffffffff81111561332357600080fd5b60208301915083600182028301111561333b57600080fd5b9250929050565b600082601f83011261335357600080fd5b8135613366613361826144f4565b61449f565b9150808252602083016020830185838301111561338257600080fd5b61338d838284614709565b50505092915050565b6000813590506133a5816147c5565b92915050565b6000815190506133ba816147c5565b92915050565b6000602082840312156133d257600080fd5b60006133e0848285016131d7565b91505092915050565b6000602082840312156133fb57600080fd5b6000613409848285016131ec565b91505092915050565b60008060006040848603121561342757600080fd5b600084013567ffffffffffffffff81111561344157600080fd5b61344d86828701613201565b93509350506020613460868287016132ce565b9150509250925092565b60006020828403121561347c57600080fd5b600061348a848285016132ce565b91505092915050565b6000602082840312156134a557600080fd5b60006134b3848285016132e3565b91505092915050565b600080604083850312156134cf57600080fd5b60006134dd858286016132ce565b925050602083013567ffffffffffffffff8111156134fa57600080fd5b6135068582860161324b565b9150509250929050565b60008060008060008060c0878903121561352957600080fd5b600087013567ffffffffffffffff81111561354357600080fd5b61354f89828a01613342565b965050602061356089828a016131d7565b955050604061357189828a016132ce565b945050606061358289828a01613396565b935050608061359389828a01613396565b92505060a06135a489828a016131d7565b9150509295509295509295565b6000602082840312156135c357600080fd5b60006135d184828501613396565b91505092915050565b6000602082840312156135ec57600080fd5b60006135fa848285016133ab565b91505092915050565b60008060006040848603121561361857600080fd5b600061362686828701613396565b935050602084013567ffffffffffffffff81111561364357600080fd5b61364f868287016132f8565b92509250509250925092565b600061366783836136c5565b60208301905092915050565b600061367f8383613f23565b905092915050565b6000613693838361400f565b60208301905092915050565b6136a88161468b565b82525050565b6136bf6136ba82614643565b61474b565b82525050565b6136ce81614631565b82525050565b6136dd81614631565b82525050565b60006136ef83856145ba565b93506136fa82614520565b8060005b8581101561373357613710828461461a565b61371a888261365b565b975061372583614586565b9250506001810190506136fe565b5085925050509392505050565b600061374b8261455a565b61375581856145ba565b93506137608361452a565b8060005b83811015613791578151613778888261365b565b975061378383614593565b925050600181019050613764565b5085935050505092915050565b60006137a982614565565b6137b381856145cb565b9350836020820285016137c58561453a565b8060005b8581101561380157848403895281516137e28582613673565b94506137ed836145a0565b925060208a019950506001810190506137c9565b50829750879550505050505092915050565b600061381e82614570565b61382881856145dc565b93506138338361454a565b8060005b8381101561386457815161384b8882613687565b9750613856836145ad565b925050600181019050613837565b5085935050505092915050565b61387a81614655565b82525050565b6138898161469d565b82525050565b613898816146c1565b82525050565b60006138a98261457b565b6138b381856145ed565b93506138c3818560208601614718565b6138cc81614779565b840191505092915050565b60006138e28261457b565b6138ec81856145fe565b93506138fc818560208601614718565b61390581614779565b840191505092915050565b600061391b8261457b565b613925818561460f565b9350613935818560208601614718565b80840191505092915050565b600061394e6020836145fe565b91507f4661696c656420746f2073657420706f6f6c20636c6f736520666163746f722e6000830152602082019050919050565b600061398e6013836145fe565b91507f4e6f2061646d696e7320737570706c6965642e000000000000000000000000006000830152602082019050919050565b60006139ce6029836145fe565b91507f4661696c656420746f2073657420706f6f6c206c69717569646174696f6e206960008301527f6e63656e746976652e00000000000000000000000000000000000000000000006020830152604082019050919050565b6000613a346026836145fe565b91507f4f776e61626c653a206e6577206f776e657220697320746865207a65726f206160008301527f64647265737300000000000000000000000000000000000000000000000000006020830152604082019050919050565b6000613a9a6020836145fe565b91507f4661696c656420746f2073657420706f6f6c207072696365206f7261636c652e6000830152602082019050919050565b6000613ada602e836145fe565b91507f496e697469616c697a61626c653a20636f6e747261637420697320616c72656160008301527f647920696e697469616c697a65640000000000000000000000000000000000006020830152604082019050919050565b6000613b406039836145fe565b91507f4e6f20436f6d7074726f6c6c657220696d706c656d656e746174696f6e20636f60008301527f6e74726163742061646472657373207370656369666965642e000000000000006020830152604082019050919050565b6000613ba6602b836145fe565b91507f4661696c656420746f20656e61626c6520706f6f6c206175746f20696d706c6560008301527f6d656e746174696f6e732e0000000000000000000000000000000000000000006020830152604082019050919050565b6000613c0c602a836145fe565b91507f4661696c656420746f207365742070656e64696e672061646d696e206f6e205560008301527f6e6974726f6c6c65722e000000000000000000000000000000000000000000006020830152604082019050919050565b6000613c726020836145fe565b91507f4f776e61626c653a2063616c6c6572206973206e6f7420746865206f776e65726000830152602082019050919050565b6000613cb26033836145fe565b91507f4661696c656420746f207365742070656e64696e6720696d706c656d656e746160008301527f74696f6e206f6e20556e6974726f6c6c65722e000000000000000000000000006020830152604082019050919050565b6000613d18602a836145fe565b91507f4e6f2050726963654f7261636c6520636f6e747261637420616464726573732060008301527f7370656369666965642e000000000000000000000000000000000000000000006020830152604082019050919050565b6000613d7e602e836145fe565b91507f4661696c656420746f20656e666f72636520737570706c6965722f626f72726f60008301527f7765722077686974656c6973742e0000000000000000000000000000000000006020830152604082019050919050565b6000613de46016836145fe565b91507f4e6f206465706c6f7965727320737570706c6965642e000000000000000000006000830152602082019050919050565b6000613e246016836145fe565b91507f4e6f20706f6f6c206e616d6520737570706c6965642e000000000000000000006000830152602082019050919050565b6000613e646025836145fe565b91507f506f6f6c20616c72656164792065786973747320696e2074686520646972656360008301527f746f72792e0000000000000000000000000000000000000000000000000000006020830152604082019050919050565b6000613eca6024836145fe565b91507f53656e646572206973206e6f74206f6e206465706c6f7965722077686974656c60008301527f6973742e000000000000000000000000000000000000000000000000000000006020830152604082019050919050565b600060a0830160008301518482036000860152613f40828261389e565b9150506020830151613f5560208601826136c5565b506040830151613f6860408601826136c5565b506060830151613f7b606086018261400f565b506080830151613f8e608086018261400f565b508091505092915050565b600060a0830160008301518482036000860152613fb6828261389e565b9150506020830151613fcb60208601826136c5565b506040830151613fde60408601826136c5565b506060830151613ff1606086018261400f565b506080830151614004608086018261400f565b508091505092915050565b61401881614681565b82525050565b61402781614681565b82525050565b61403e61403982614681565b61476f565b82525050565b600061405082866136ae565b6014820191506140608285613910565b915061406c828461402d565b602082019150819050949350505050565b600060208201905061409260008301846136d4565b92915050565b60006020820190506140ad600083018461369f565b92915050565b600060408201905081810360008301526140ce8185876136e3565b90506140dd6020830184613871565b949350505050565b600060208201905081810360008301526140ff8184613740565b905092915050565b60006020820190508181036000830152614121818461379e565b905092915050565b600060408201905081810360008301526141438185613813565b90508181036020830152614157818461379e565b90509392505050565b60006020820190506141756000830184613871565b92915050565b60006020820190506141906000830184613880565b92915050565b60006020820190506141ab600083018461388f565b92915050565b600060a08201905081810360008301526141cb81886138d7565b90506141da60208301876136d4565b6141e760408301866136d4565b6141f4606083018561401e565b614201608083018461401e565b9695505050505050565b6000602082019050818103600083015261422481613941565b9050919050565b6000602082019050818103600083015261424481613981565b9050919050565b60006020820190508181036000830152614264816139c1565b9050919050565b6000602082019050818103600083015261428481613a27565b9050919050565b600060208201905081810360008301526142a481613a8d565b9050919050565b600060208201905081810360008301526142c481613acd565b9050919050565b600060208201905081810360008301526142e481613b33565b9050919050565b6000602082019050818103600083015261430481613b99565b9050919050565b6000602082019050818103600083015261432481613bff565b9050919050565b6000602082019050818103600083015261434481613c65565b9050919050565b6000602082019050818103600083015261436481613ca5565b9050919050565b6000602082019050818103600083015261438481613d0b565b9050919050565b600060208201905081810360008301526143a481613d71565b9050919050565b600060208201905081810360008301526143c481613dd7565b9050919050565b600060208201905081810360008301526143e481613e17565b9050919050565b6000602082019050818103600083015261440481613e57565b9050919050565b6000602082019050818103600083015261442481613ebd565b9050919050565b6000602082019050614440600083018461401e565b92915050565b600060408201905061445b600083018561401e565b61446860208301846136d4565b9392505050565b6000604082019050614484600083018561401e565b81810360208301526144968184613f99565b90509392505050565b6000604051905081810181811067ffffffffffffffff821117156144c257600080fd5b8060405250919050565b600067ffffffffffffffff8211156144e357600080fd5b602082029050602081019050919050565b600067ffffffffffffffff82111561450b57600080fd5b601f19601f8301169050602081019050919050565b6000819050919050565b6000819050602082019050919050565b6000819050602082019050919050565b6000819050602082019050919050565b600081519050919050565b600081519050919050565b600081519050919050565b600081519050919050565b6000602082019050919050565b6000602082019050919050565b6000602082019050919050565b6000602082019050919050565b600082825260208201905092915050565b600082825260208201905092915050565b600082825260208201905092915050565b600082825260208201905092915050565b600082825260208201905092915050565b600081905092915050565b600061462960208401846131d7565b905092915050565b600061463c82614661565b9050919050565b600061464e82614661565b9050919050565b60008115159050919050565b600073ffffffffffffffffffffffffffffffffffffffff82169050919050565b6000819050919050565b6000614696826146e5565b9050919050565b60006146a8826146af565b9050919050565b60006146ba82614661565b9050919050565b60006146cc826146d3565b9050919050565b60006146de82614661565b9050919050565b60006146f0826146f7565b9050919050565b600061470282614661565b9050919050565b82818337600083830152505050565b60005b8381101561473657808201518184015260208101905061471b565b83811115614745576000848401525b50505050565b60006147568261475d565b9050919050565b60006147688261478a565b9050919050565b6000819050919050565b6000601f19601f8301169050919050565b60008160601b9050919050565b6147a081614631565b81146147ab57600080fd5b50565b6147b781614655565b81146147c257600080fd5b50565b6147ce81614681565b81146147d957600080fd5b5056fe60806040526001805460ff60a81b1960ff60a01b19909116600160a01b1716600160a81b17905534801561003257600080fd5b50600080546001600160a01b03191633179055610ae1806100546000396000f3fe6080604052600436106100a75760003560e01c8063bb82aa5e11610064578063bb82aa5e14610437578063c1e803341461044c578063dcfbc0c714610461578063e992a04114610476578063e9c714f2146104a9578063f851a440146104be576100a7565b80630225ab9d1461032b5780630a755ec21461036957806326782247146103925780632f1069ba146103c35780636f63af0b146103d8578063b71d1a0c14610404575b3330146102a85760408051600481526024810182526020810180516001600160e01b0316633757348b60e21b1781529151815160009360609330939092909182918083835b6020831061010b5780518252601f1990920191602091820191016100ec565b6001836020036101000a038019825116818451168082178552505050505050905001915050600060405180830381855afa9150503d806000811461016b576040519150601f19603f3d011682016040523d82523d6000602084013e610170565b606091505b5091509150600082156101975781806020019051602081101561019257600080fd5b505190505b80156102a4576002546040805163bbcdd6d360e01b81526001600160a01b03909216600483015251600091734afb2b3dc111d091ca6c46c024d1d2f17bf477e19163bbcdd6d391602480820192602092909190829003018186803b1580156101fe57600080fd5b505afa158015610212573d6000803e3d6000fd5b505050506040513d602081101561022857600080fd5b50516002549091506001600160a01b038083169116146102a257600280546001600160a01b038381166001600160a01b0319831617928390556040805192821680845293909116602083015280517fd604de94d45953f9138079ec1b82d533cb2160c906d1076d1f7ed54befbca97a9281900390910190a1505b505b5050505b6002546040516000916001600160a01b031690829036908083838082843760405192019450600093509091505080830381855af49150503d806000811461030b576040519150601f19603f3d011682016040523d82523d6000602084013e610310565b606091505b505090506040513d6000823e818015610327573d82f35b3d82fd5b34801561033757600080fd5b506103576004803603602081101561034e57600080fd5b503515156104d3565b60408051918252519081900360200190f35b34801561037557600080fd5b5061037e61056f565b604080519115158252519081900360200190f35b34801561039e57600080fd5b506103a761057f565b604080516001600160a01b039092168252519081900360200190f35b3480156103cf57600080fd5b5061037e61058e565b3480156103e457600080fd5b50610357600480360360208110156103fb57600080fd5b5035151561059e565b34801561041057600080fd5b506103576004803603602081101561042757600080fd5b50356001600160a01b031661063a565b34801561044357600080fd5b506103a76106bd565b34801561045857600080fd5b506103576106cc565b34801561046d57600080fd5b506103a76107c7565b34801561048257600080fd5b506103576004803603602081101561049957600080fd5b50356001600160a01b03166107d6565b3480156104b557600080fd5b506103576108f6565b3480156104ca57600080fd5b506103a76109dc565b60006104dd6109eb565b6104f4576104ed60016005610a46565b905061056a565b60015460ff600160a81b90910416151582151514156105145760006104ed565b60018054831515600160a81b810260ff60a81b199092169190911790915560408051918252517f10f9a0a95673b0837d1dce21fd3bffcb6d760435e9b5300b75a271182f75f8229181900360200190a160005b90505b919050565b600154600160a81b900460ff1681565b6001546001600160a01b031681565b600154600160a01b900460ff1681565b60006105a86109eb565b6105b8576104ed60016005610a46565b60015460ff600160a01b90910416151582151514156105d85760006104ed565b60018054831515600160a01b90810260ff60a01b199092169190911791829055604080519190920460ff161515815290517fabb56a15fd39488c914b324690b88f30d7daec63d2131ca0ef47e5739068c86e9181900360200190a16000610567565b60006106446109eb565b610654576104ed60016010610a46565b600180546001600160a01b038481166001600160a01b0319831681179093556040805191909216808252602082019390935281517fca4f2f25d0898edd99413412fb94012f9e54ec8142f9b093e7720646a95b16a9929181900390910190a160005b9392505050565b6002546001600160a01b031681565b6003546000906001600160a01b0316331415806106f257506003546001600160a01b0316155b1561070957610702600180610a46565b90506107c4565b60028054600380546001600160a01b038082166001600160a01b031980861682179687905590921690925560408051938316808552949092166020840152815190927fd604de94d45953f9138079ec1b82d533cb2160c906d1076d1f7ed54befbca97a92908290030190a1600354604080516001600160a01b038085168252909216602083015280517fe945ccee5d701fc83f9b8aa8ca94ea4219ec1fcbd4f4cab4f0ea57c5c3e1d8159281900390910190a160005b925050505b90565b6003546001600160a01b031681565b60006107e06109eb565b6107f0576104ed60016012610a46565b60025460408051639d244f9f60e01b81526001600160a01b039283166004820152918416602483015251734afb2b3dc111d091ca6c46c024d1d2f17bf477e191639d244f9f916044808301926020929190829003018186803b15801561085557600080fd5b505afa158015610869573d6000803e3d6000fd5b505050506040513d602081101561087f57600080fd5b5051610891576104ed60016011610a46565b600380546001600160a01b038481166001600160a01b0319831617928390556040805192821680845293909116602083015280517fe945ccee5d701fc83f9b8aa8ca94ea4219ec1fcbd4f4cab4f0ea57c5c3e1d8159281900390910190a160006106b6565b6001546000906001600160a01b031633141580610911575033155b156109225761070260016000610a46565b60008054600180546001600160a01b038082166001600160a01b031980861682179687905590921690925560408051938316808552949092166020840152815190927ff9ffabca9c8276e99321725bcb43fb076a6c66a54b7f21c4e8146d8519b417dc92908290030190a1600154604080516001600160a01b038085168252909216602083015280517fca4f2f25d0898edd99413412fb94012f9e54ec8142f9b093e7720646a95b16a99281900390910190a160006107bf565b6000546001600160a01b031681565b600080546001600160a01b031633148015610a0f5750600154600160a81b900460ff165b80610a41575033734afb2b3dc111d091ca6c46c024d1d2f17bf477e1148015610a415750600154600160a01b900460ff165b905090565b60007f45b96fe442630264581b197e84bbada861235052c5a1aadfff9ea4e40a969aa0836015811115610a7557fe5b83601b811115610a8157fe5b604080519283526020830191909152600082820152519081900360600190a18260158111156106b657fefea265627a7a72315820b43a56e6c98a4da586c0bea9fd7bf158b8665b39690ed8e5fa39d00c94c43f8364736f6c63430005110032a2646970667358221220e9d4a88c15b4b9d2b5df5b6eeb99c017bec7742943b7606f3e00f645fab9e2b664736f6c634300060c0033",
  "linkReferences": {},
  "deployedLinkReferences": {}
}