{
  "_format": "hh-sol-artifact-1",
  "contractName": "BalancerLpTokenPriceOracle",
  "sourceName": "contracts/oracles/BalancerLpTokenPriceOracle.sol",
  "abi": [
    {
      "inputs": [],
      "name": "BONE",
      "outputs": [
        {
          "internalType": "uint256",
          "name": "",
          "type": "uint256"
        }
      ],
      "stateMutability": "view",
      "type": "function"
    },
    {
      "inputs": [],
      "name": "BPOW_PRECISION",
      "outputs": [
        {
          "internalType": "uint256",
          "name": "",
          "type": "uint256"
        }
      ],
      "stateMutability": "view",
      "type": "function"
    },
    {
      "inputs": [],
      "name": "EXIT_FEE",
      "outputs": [
        {
          "internalType": "uint256",
          "name": "",
          "type": "uint256"
        }
      ],
      "stateMutability": "view",
      "type": "function"
    },
    {
      "inputs": [],
      "name": "INIT_POOL_SUPPLY",
      "outputs": [
        {
          "internalType": "uint256",
          "name": "",
          "type": "uint256"
        }
      ],
      "stateMutability": "view",
      "type": "function"
    },
    {
      "inputs": [],
      "name": "MAX_BOUND_TOKENS",
      "outputs": [
        {
          "internalType": "uint256",
          "name": "",
          "type": "uint256"
        }
      ],
      "stateMutability": "view",
      "type": "function"
    },
    {
      "inputs": [],
      "name": "MAX_BPOW_BASE",
      "outputs": [
        {
          "internalType": "uint256",
          "name": "",
          "type": "uint256"
        }
      ],
      "stateMutability": "view",
      "type": "function"
    },
    {
      "inputs": [],
      "name": "MAX_FEE",
      "outputs": [
        {
          "internalType": "uint256",
          "name": "",
          "type": "uint256"
        }
      ],
      "stateMutability": "view",
      "type": "function"
    },
    {
      "inputs": [],
      "name": "MAX_IN_RATIO",
      "outputs": [
        {
          "internalType": "uint256",
          "name": "",
          "type": "uint256"
        }
      ],
      "stateMutability": "view",
      "type": "function"
    },
    {
      "inputs": [],
      "name": "MAX_OUT_RATIO",
      "outputs": [
        {
          "internalType": "uint256",
          "name": "",
          "type": "uint256"
        }
      ],
      "stateMutability": "view",
      "type": "function"
    },
    {
      "inputs": [],
      "name": "MAX_TOTAL_WEIGHT",
      "outputs": [
        {
          "internalType": "uint256",
          "name": "",
          "type": "uint256"
        }
      ],
      "stateMutability": "view",
      "type": "function"
    },
    {
      "inputs": [],
      "name": "MAX_WEIGHT",
      "outputs": [
        {
          "internalType": "uint256",
          "name": "",
          "type": "uint256"
        }
      ],
      "stateMutability": "view",
      "type": "function"
    },
    {
      "inputs": [],
      "name": "MIN_BALANCE",
      "outputs": [
        {
          "internalType": "uint256",
          "name": "",
          "type": "uint256"
        }
      ],
      "stateMutability": "view",
      "type": "function"
    },
    {
      "inputs": [],
      "name": "MIN_BOUND_TOKENS",
      "outputs": [
        {
          "internalType": "uint256",
          "name": "",
          "type": "uint256"
        }
      ],
      "stateMutability": "view",
      "type": "function"
    },
    {
      "inputs": [],
      "name": "MIN_BPOW_BASE",
      "outputs": [
        {
          "internalType": "uint256",
          "name": "",
          "type": "uint256"
        }
      ],
      "stateMutability": "view",
      "type": "function"
    },
    {
      "inputs": [],
      "name": "MIN_FEE",
      "outputs": [
        {
          "internalType": "uint256",
          "name": "",
          "type": "uint256"
        }
      ],
      "stateMutability": "view",
      "type": "function"
    },
    {
      "inputs": [],
      "name": "MIN_WEIGHT",
      "outputs": [
        {
          "internalType": "uint256",
          "name": "",
          "type": "uint256"
        }
      ],
      "stateMutability": "view",
      "type": "function"
    },
    {
      "inputs": [
        {
          "internalType": "contract CToken",
          "name": "cToken",
          "type": "address"
        }
      ],
      "name": "getUnderlyingPrice",
      "outputs": [
        {
          "internalType": "uint256",
          "name": "",
          "type": "uint256"
        }
      ],
      "stateMutability": "view",
      "type": "function"
    },
    {
      "inputs": [
        {
          "internalType": "address",
          "name": "underlying",
          "type": "address"
        }
      ],
      "name": "price",
      "outputs": [
        {
          "internalType": "uint256",
          "name": "",
          "type": "uint256"
        }
      ],
      "stateMutability": "view",
      "type": "function"
    }
  ],
  "bytecode": "0x608060405234801561001057600080fd5b506118f2806100206000396000f3fe608060405234801561001057600080fd5b50600436106101165760003560e01c8063b7b800a4116100a2578063c36596a611610071578063c36596a6146102db578063c6580d12146102f9578063e4a28a5214610317578063ec09302114610335578063fc57d4df1461035357610116565b8063b7b800a414610263578063ba019dab14610281578063bc063e1a1461029f578063bc694ea2146102bd57610116565b8063867378c5116100e9578063867378c5146101935780639381cd2b146101b1578063992e2a92146101cf578063aea91078146101ed578063b0e0d1361461024557610116565b806309a3bbe41461011b578063189d00ca14610139578063218b53821461015757806376c7a3c714610175575b600080fd5b6101236103ab565b6040518082815260200191505060405180910390f35b6101416103ba565b6040518082815260200191505060405180910390f35b61015f6103d4565b6040518082815260200191505060405180910390f35b61017d6103e0565b6040518082815260200191505060405180910390f35b61019b6103f8565b6040518082815260200191505060405180910390f35b6101b9610412565b6040518082815260200191505060405180910390f35b6101d7610421565b6040518082815260200191505060405180910390f35b61022f6004803603602081101561020357600080fd5b81019080803573ffffffffffffffffffffffffffffffffffffffff16906020019092919050505061043a565b6040518082815260200191505060405180910390f35b61024d61044c565b6040518082815260200191505060405180910390f35b61026b610451565b6040518082815260200191505060405180910390f35b610289610456565b6040518082815260200191505060405180910390f35b6102a761045b565b6040518082815260200191505060405180910390f35b6102c5610471565b6040518082815260200191505060405180910390f35b6102e3610483565b6040518082815260200191505060405180910390f35b61030161048f565b6040518082815260200191505060405180910390f35b61031f610494565b6040518082815260200191505060405180910390f35b61033d6104a3565b6040518082815260200191505060405180910390f35b6103956004803603602081101561036957600080fd5b81019080803573ffffffffffffffffffffffffffffffffffffffff1690602001909291905050506104b9565b6040518082815260200191505060405180910390f35b6032670de0b6b3a76400000281565b6402540be400670de0b6b3a7640000816103d057fe5b0481565b670de0b6b3a764000081565b620f4240670de0b6b3a7640000816103f457fe5b0481565b64e8d4a51000670de0b6b3a76400008161040e57fe5b0481565b6064670de0b6b3a76400000281565b60016003670de0b6b3a76400008161043557fe5b040181565b600061044582610602565b9050919050565b600881565b600281565b600181565b600a670de0b6b3a76400008161046d57fe5b0481565b6001670de0b6b3a76400006002020381565b670de0b6b3a764000081565b600081565b6032670de0b6b3a76400000281565b6002670de0b6b3a7640000816104b557fe5b0481565b6000808273ffffffffffffffffffffffffffffffffffffffff16636f307dc36040518163ffffffff1660e01b815260040160206040518083038186803b15801561050257600080fd5b505afa158015610516573d6000803e3d6000fd5b505050506040513d602081101561052c57600080fd5b810190808051906020019092919050505090506105fa8173ffffffffffffffffffffffffffffffffffffffff1663313ce5676040518163ffffffff1660e01b815260040160206040518083038186803b15801561058857600080fd5b505afa15801561059c573d6000803e3d6000fd5b505050506040513d60208110156105b257600080fd5b810190808051906020019092919050505060ff16600a0a6105ec670de0b6b3a76400006105de85610602565b610ea790919063ffffffff16565b610f2d90919063ffffffff16565b915050919050565b60008082905060028173ffffffffffffffffffffffffffffffffffffffff1663cd2ed8fb6040518163ffffffff1660e01b815260040160206040518083038186803b15801561065057600080fd5b505afa158015610664573d6000803e3d6000fd5b505050506040513d602081101561067a57600080fd5b8101908080519060200190929190505050146106e1576040517f08c379a00000000000000000000000000000000000000000000000000000000081526004018080602001828103825260298152602001806118736029913960400191505060405180910390fd5b60608173ffffffffffffffffffffffffffffffffffffffff1663be3bbd2e6040518163ffffffff1660e01b815260040160006040518083038186803b15801561072957600080fd5b505afa15801561073d573d6000803e3d6000fd5b505050506040513d6000823e3d601f19601f82011682018060405250602081101561076757600080fd5b810190808051604051939291908464010000000082111561078757600080fd5b8382019150602082018581111561079d57600080fd5b82518660208202830111640100000000821117156107ba57600080fd5b8083526020830192505050908051906020019060200280838360005b838110156107f15780820151818401526020810190506107d6565b50505050905001604052505050905060008160008151811061080f57fe5b6020026020010151905060008260018151811061082857fe5b6020026020010151905060003373ffffffffffffffffffffffffffffffffffffffff1663aea91078846040518263ffffffff1660e01b8152600401808273ffffffffffffffffffffffffffffffffffffffff16815260200191505060206040518083038186803b15801561089b57600080fd5b505afa1580156108af573d6000803e3d6000fd5b505050506040513d60208110156108c557600080fd5b8101908080519060200190929190505050905060003373ffffffffffffffffffffffffffffffffffffffff1663aea91078846040518263ffffffff1660e01b8152600401808273ffffffffffffffffffffffffffffffffffffffff16815260200191505060206040518083038186803b15801561094157600080fd5b505afa158015610955573d6000803e3d6000fd5b505050506040513d602081101561096b57600080fd5b8101908080519060200190929190505050905060008473ffffffffffffffffffffffffffffffffffffffff1663313ce5676040518163ffffffff1660e01b815260040160206040518083038186803b1580156109c657600080fd5b505afa1580156109da573d6000803e3d6000fd5b505050506040513d60208110156109f057600080fd5b8101908080519060200190929190505050905060008473ffffffffffffffffffffffffffffffffffffffff1663313ce5676040518163ffffffff1660e01b815260040160206040518083038186803b158015610a4b57600080fd5b505afa158015610a5f573d6000803e3d6000fd5b505050506040513d6020811015610a7557600080fd5b8101908080519060200190929190505050905060128260ff161015610ab357610ab08260ff16601203600a0a85610ea790919063ffffffff16565b93505b60128260ff161115610ade57610adb60128360ff1603600a0a85610f2d90919063ffffffff16565b93505b60128160ff161015610b0957610b068160ff16601203600a0a84610ea790919063ffffffff16565b92505b60128160ff161115610b3457610b3160128260ff1603600a0a84610f2d90919063ffffffff16565b92505b600080610dc98a73ffffffffffffffffffffffffffffffffffffffff1663f8b2cb4f8a6040518263ffffffff1660e01b8152600401808273ffffffffffffffffffffffffffffffffffffffff16815260200191505060206040518083038186803b158015610ba157600080fd5b505afa158015610bb5573d6000803e3d6000fd5b505050506040513d6020811015610bcb57600080fd5b81019080805190602001909291905050508b73ffffffffffffffffffffffffffffffffffffffff1663f8b2cb4f8a6040518263ffffffff1660e01b8152600401808273ffffffffffffffffffffffffffffffffffffffff16815260200191505060206040518083038186803b158015610c4357600080fd5b505afa158015610c57573d6000803e3d6000fd5b505050506040513d6020811015610c6d57600080fd5b81019080805190602001909291905050508c73ffffffffffffffffffffffffffffffffffffffff1663f1b8a9b78c6040518263ffffffff1660e01b8152600401808273ffffffffffffffffffffffffffffffffffffffff16815260200191505060206040518083038186803b158015610ce557600080fd5b505afa158015610cf9573d6000803e3d6000fd5b505050506040513d6020811015610d0f57600080fd5b81019080805190602001909291905050508d73ffffffffffffffffffffffffffffffffffffffff1663f1b8a9b78c6040518263ffffffff1660e01b8152600401808273ffffffffffffffffffffffffffffffffffffffff16815260200191505060206040518083038186803b158015610d8757600080fd5b505afa158015610d9b573d6000803e3d6000fd5b505050506040513d6020811015610db157600080fd5b81019080805190602001909291905050508a8a610fb6565b91509150610e968a73ffffffffffffffffffffffffffffffffffffffff166318160ddd6040518163ffffffff1660e01b815260040160206040518083038186803b158015610e1657600080fd5b505afa158015610e2a573d6000803e3d6000fd5b505050506040513d6020811015610e4057600080fd5b8101908080519060200190929190505050610e88610e678885610ea790919063ffffffff16565b610e7a8a87610ea790919063ffffffff16565b61107490919063ffffffff16565b610f2d90919063ffffffff16565b9a5050505050505050505050919050565b600080831415610eba5760009050610f27565b6000828402905082848281610ecb57fe5b0414610f22576040517f08c379a000000000000000000000000000000000000000000000000000000000815260040180806020018281038252602181526020018061189c6021913960400191505060405180910390fd5b809150505b92915050565b6000808211610fa4576040517f08c379a000000000000000000000000000000000000000000000000000000000815260040180806020018281038252601a8152602001807f536166654d6174683a206469766973696f6e206279207a65726f00000000000081525060200191505060405180910390fd5b818381610fad57fe5b04905092915050565b6000806000610fc589896110fc565b90506000610fe5610fd689876112b5565b610fe089896112b5565b6110fc565b90508082111561102d576000610ffb82846110fc565b90506110108b61100b838b6113f7565b6112b5565b94506110258a611020838c6113f7565b6110fc565b935050611067565b600061103983836110fc565b905061104e8b611049838b6113f7565b6110fc565b94506110638a61105e838c6113f7565b6112b5565b9350505b5050965096945050505050565b6000808284019050838110156110f2576040517f08c379a000000000000000000000000000000000000000000000000000000000815260040180806020018281038252601b8152602001807f536166654d6174683a206164646974696f6e206f766572666c6f77000000000081525060200191505060405180910390fd5b8091505092915050565b600080821415611174576040517f08c379a000000000000000000000000000000000000000000000000000000000815260040180806020018281038252600c8152602001807f4552525f4449565f5a45524f000000000000000000000000000000000000000081525060200191505060405180910390fd5b6000670de0b6b3a76400008402905060008414806111a25750670de0b6b3a764000084828161119f57fe5b04145b611214576040517f08c379a00000000000000000000000000000000000000000000000000000000081526004018080602001828103825260108152602001807f4552525f4449565f494e5445524e414c0000000000000000000000000000000081525060200191505060405180910390fd5b60006002848161122057fe5b04820190508181101561129b576040517f08c379a00000000000000000000000000000000000000000000000000000000081526004018080602001828103825260108152602001807f4552525f4449565f494e5445524e414c0000000000000000000000000000000081525060200191505060405180910390fd5b60008482816112a657fe5b04905080935050505092915050565b600080828402905060008414806112d45750828482816112d157fe5b04145b611346576040517f08c379a00000000000000000000000000000000000000000000000000000000081526004018080602001828103825260108152602001807f4552525f4d554c5f4f564552464c4f570000000000000000000000000000000081525060200191505060405180910390fd5b60006002670de0b6b3a76400008161135a57fe5b0482019050818110156113d5576040517f08c379a00000000000000000000000000000000000000000000000000000000081526004018080602001828103825260108152602001807f4552525f4d554c5f4f564552464c4f570000000000000000000000000000000081525060200191505060405180910390fd5b6000670de0b6b3a764000082816113e857fe5b04905080935050505092915050565b60006001831015611470576040517f08c379a00000000000000000000000000000000000000000000000000000000081526004018080602001828103825260158152602001807f4552525f42504f575f424153455f544f4f5f4c4f57000000000000000000000081525060200191505060405180910390fd5b6001670de0b6b3a7640000600202038311156114f4576040517f08c379a00000000000000000000000000000000000000000000000000000000081526004018080602001828103825260168152602001807f4552525f42504f575f424153455f544f4f5f484947480000000000000000000081525060200191505060405180910390fd5b60006114ff83611575565b9050600061150d8483611591565b905060006115238661151e85611623565b61163e565b905060008214156115395780935050505061156f565b600061155c87846402540be400670de0b6b3a76400008161155657fe5b046116c3565b905061156882826112b5565b9450505050505b92915050565b6000670de0b6b3a764000061158983611623565b029050919050565b60008060006115a085856117c1565b915091508015611618576040517f08c379a00000000000000000000000000000000000000000000000000000000081526004018080602001828103825260118152602001807f4552525f5355425f554e444552464c4f5700000000000000000000000000000081525060200191505060405180910390fd5b819250505092915050565b6000670de0b6b3a7640000828161163657fe5b049050919050565b60008060006002848161164d57fe5b06141561166257670de0b6b3a7640000611664565b835b90506002838161167057fe5b0492505b600083146116b95761168684856112b5565b935060006002848161169457fe5b06146116a7576116a481856112b5565b90505b600283816116b157fe5b049250611674565b8091505092915050565b6000808390506000806116de87670de0b6b3a76400006117c1565b915091506000670de0b6b3a764000090506000819050600080600190505b8884106117b0576000670de0b6b3a7640000820290506000806117308a61172b85670de0b6b3a7640000611591565b6117c1565b9150915061174787611742848c6112b5565b6112b5565b965061175387846110fc565b96506000871415611766575050506117b0565b871561177157841594505b801561177c57841594505b84156117935761178c8688611591565b95506117a0565b61179d86886117ea565b95505b50505080806001019150506116fc565b508196505050505050509392505050565b6000808284106117d9578284036000915091506117e3565b8383036001915091505b9250929050565b600080828401905083811015611868576040517f08c379a00000000000000000000000000000000000000000000000000000000081526004018080602001828103825260108152602001807f4552525f4144445f4f564552464c4f570000000000000000000000000000000081525060200191505060405180910390fd5b809150509291505056fe42616c616e63657220706f6f6c206d75737420686176652065786163746c79203220746f6b656e732e536166654d6174683a206d756c7469706c69636174696f6e206f766572666c6f77a264697066735822122062a91f63485c513a78abc57ac117e38dcab9c482ff6e26e6b6f340139ce5036964736f6c634300060c0033",
  "linkReferences": {},
  "deployedLinkReferences": {}
}