{
  "_format": "hh-sol-artifact-1",
  "contractName": "Keep3rPriceOracle",
  "sourceName": "contracts/oracles/Keep3rPriceOracle.sol",
  "abi": [
    {
      "inputs": [
        {
          "internalType": "bool",
          "name": "sushiSwap",
          "type": "bool"
        }
      ],
      "stateMutability": "nonpayable",
      "type": "constructor"
    },
    {
      "inputs": [],
      "name": "MAX_TWAP_TIME",
      "outputs": [
        {
          "internalType": "uint256",
          "name": "",
          "type": "uint256"
        }
      ],
      "stateMutability": "view",
      "type": "function"
    },
    {
      "inputs": [],
      "name": "MIN_TWAP_TIME",
      "outputs": [
        {
          "internalType": "uint256",
          "name": "",
          "type": "uint256"
        }
      ],
      "stateMutability": "view",
      "type": "function"
    },
    {
      "inputs": [],
      "name": "WETH_ADDRESS",
      "outputs": [
        {
          "internalType": "address",
          "name": "",
          "type": "address"
        }
      ],
      "stateMutability": "view",
      "type": "function"
    },
    {
      "inputs": [
        {
          "internalType": "contract CToken",
          "name": "cToken",
          "type": "address"
        }
      ],
      "name": "getUnderlyingPrice",
      "outputs": [
        {
          "internalType": "uint256",
          "name": "",
          "type": "uint256"
        }
      ],
      "stateMutability": "view",
      "type": "function"
    },
    {
      "inputs": [
        {
          "internalType": "address",
          "name": "underlying",
          "type": "address"
        }
      ],
      "name": "price",
      "outputs": [
        {
          "internalType": "uint256",
          "name": "",
          "type": "uint256"
        }
      ],
      "stateMutability": "view",
      "type": "function"
    },
    {
      "inputs": [],
      "name": "rootOracle",
      "outputs": [
        {
          "internalType": "contract Keep3rV1Oracle",
          "name": "",
          "type": "address"
        }
      ],
      "stateMutability": "view",
      "type": "function"
    },
    {
      "inputs": [],
      "name": "uniswapV2Factory",
      "outputs": [
        {
          "internalType": "contract IUniswapV2Factory",
          "name": "",
          "type": "address"
        }
      ],
      "stateMutability": "view",
      "type": "function"
    }
  ],
  "bytecode": "0x60c060405234801561001057600080fd5b506040516115b33803806115b38339818101604052602081101561003357600080fd5b8101908080519060200190929190505050600081610065577373353801921417f465377c8d898c6f4c0270282c61007b565b73f67ab1c914dee06ba0f264031885ea7b276a7cda5b90508073ffffffffffffffffffffffffffffffffffffffff1660808173ffffffffffffffffffffffffffffffffffffffff1660601b815250508073ffffffffffffffffffffffffffffffffffffffff1663c45a01556040518163ffffffff1660e01b815260040160206040518083038186803b1580156100fa57600080fd5b505afa15801561010e573d6000803e3d6000fd5b505050506040513d602081101561012457600080fd5b810190808051906020019092919050505073ffffffffffffffffffffffffffffffffffffffff1660a08173ffffffffffffffffffffffffffffffffffffffff1660601b81525050505060805160601c60a05160601c6113fa6101b96000398061022a52806104cd525080610266528061080f528061094c5280610ab45280610c575280610d945280610efc52506113fa6000f3fe608060405234801561001057600080fd5b506004361061007d5760003560e01c8063aea910781161005b578063aea9107814610108578063af8a9ba514610160578063e3cb23a51461017e578063fc57d4df146101b25761007d565b8063040141e51461008257806309cd510e146100b657806359d0f713146100d4575b600080fd5b61008a61020a565b604051808273ffffffffffffffffffffffffffffffffffffffff16815260200191505060405180910390f35b6100be610222565b6040518082815260200191505060405180910390f35b6100dc610228565b604051808273ffffffffffffffffffffffffffffffffffffffff16815260200191505060405180910390f35b61014a6004803603602081101561011e57600080fd5b81019080803573ffffffffffffffffffffffffffffffffffffffff16906020019092919050505061024c565b6040518082815260200191505060405180910390f35b61016861025e565b6040518082815260200191505060405180910390f35b610186610264565b604051808273ffffffffffffffffffffffffffffffffffffffff16815260200191505060405180910390f35b6101f4600480360360208110156101c857600080fd5b81019080803573ffffffffffffffffffffffffffffffffffffffff169060200190929190505050610288565b6040518082815260200191505060405180910390f35b73c02aaa39b223fe8d0a0e5c4f27ead9083c756cc281565b610e1081565b7f000000000000000000000000000000000000000000000000000000000000000081565b60006102578261046f565b9050919050565b61038481565b7f000000000000000000000000000000000000000000000000000000000000000081565b60008173ffffffffffffffffffffffffffffffffffffffff1663ac784ddc6040518163ffffffff1660e01b815260040160206040518083038186803b1580156102d057600080fd5b505afa1580156102e4573d6000803e3d6000fd5b505050506040513d60208110156102fa57600080fd5b81019080805190602001909291905050501561032057670de0b6b3a7640000905061046a565b60008273ffffffffffffffffffffffffffffffffffffffff16636f307dc36040518163ffffffff1660e01b815260040160206040518083038186803b15801561036857600080fd5b505afa15801561037c573d6000803e3d6000fd5b505050506040513d602081101561039257600080fd5b8101908080519060200190929190505050905060008173ffffffffffffffffffffffffffffffffffffffff1663313ce5676040518163ffffffff1660e01b815260040160206040518083038186803b1580156103ed57600080fd5b505afa158015610401573d6000803e3d6000fd5b505050506040513d602081101561041757600080fd5b810190808051906020019092919050505060ff16600a0a905061046581610457670de0b6b3a76400006104498661046f565b6106fb90919063ffffffff16565b61078190919063ffffffff16565b925050505b919050565b600073c02aaa39b223fe8d0a0e5c4f27ead9083c756cc273ffffffffffffffffffffffffffffffffffffffff168273ffffffffffffffffffffffffffffffffffffffff1614156104c957670de0b6b3a764000090506106f6565b60007f000000000000000000000000000000000000000000000000000000000000000073ffffffffffffffffffffffffffffffffffffffff1663e6a439058473c02aaa39b223fe8d0a0e5c4f27ead9083c756cc26040518363ffffffff1660e01b8152600401808373ffffffffffffffffffffffffffffffffffffffff1681526020018273ffffffffffffffffffffffffffffffffffffffff1681526020019250505060206040518083038186803b15801561058457600080fd5b505afa158015610598573d6000803e3d6000fd5b505050506040513d60208110156105ae57600080fd5b8101908080519060200190929190505050905060008373ffffffffffffffffffffffffffffffffffffffff1663313ce5676040518163ffffffff1660e01b815260040160206040518083038186803b15801561060957600080fd5b505afa15801561061d573d6000803e3d6000fd5b505050506040513d602081101561063357600080fd5b810190808051906020019092919050505060ff16600a0a90506106f16701000000000000006106e3836106d567010000000000000073c02aaa39b223fe8d0a0e5c4f27ead9083c756cc273ffffffffffffffffffffffffffffffffffffffff168a73ffffffffffffffffffffffffffffffffffffffff16106106bd576106b88861080a565b6106c7565b6106c688610c52565b5b61078190919063ffffffff16565b6106fb90919063ffffffff16565b61078190919063ffffffff16565b925050505b919050565b60008083141561070e576000905061077b565b600082840290508284828161071f57fe5b0414610776576040517f08c379a00000000000000000000000000000000000000000000000000000000081526004018080602001828103825260218152602001806113a46021913960400191505060405180910390fd5b809150505b92915050565b60008082116107f8576040517f08c379a000000000000000000000000000000000000000000000000000000000815260040180806020018281038252601a8152602001807f536166654d6174683a206469766973696f6e206279207a65726f00000000000081525060200191505060405180910390fd5b81838161080157fe5b04905092915050565b6000807f000000000000000000000000000000000000000000000000000000000000000073ffffffffffffffffffffffffffffffffffffffff166381bfb885846040518263ffffffff1660e01b8152600401808273ffffffffffffffffffffffffffffffffffffffff16815260200191505060206040518083038186803b15801561089457600080fd5b505afa1580156108a8573d6000803e3d6000fd5b505050506040513d60208110156108be57600080fd5b8101908080519060200190929190505050905060008111610947576040517f08c379a00000000000000000000000000000000000000000000000000000000081526004018080602001828103825260178152602001807f6e6f206c656e6774682d31206f62736572766174696f6e00000000000000000081525060200191505060405180910390fd5b6000807f000000000000000000000000000000000000000000000000000000000000000073ffffffffffffffffffffffffffffffffffffffff16630245996686600186036040518363ffffffff1660e01b8152600401808373ffffffffffffffffffffffffffffffffffffffff1681526020018281526020019250505060606040518083038186803b1580156109dc57600080fd5b505afa1580156109f0573d6000803e3d6000fd5b505050506040513d6060811015610a0657600080fd5b8101908080519060200190929190805190602001909291908051906020019092919050505092505091506103844203821115610b9e5760018311610ab2576040517f08c379a00000000000000000000000000000000000000000000000000000000081526004018080602001828103825260178152602001807f6e6f206c656e6774682d32206f62736572766174696f6e00000000000000000081525060200191505060405180910390fd5b7f000000000000000000000000000000000000000000000000000000000000000073ffffffffffffffffffffffffffffffffffffffff16630245996686600286036040518363ffffffff1660e01b8152600401808373ffffffffffffffffffffffffffffffffffffffff1681526020018281526020019250505060606040518083038186803b158015610b4457600080fd5b505afa158015610b58573d6000803e3d6000fd5b505050506040513d6060811015610b6e57600080fd5b81019080805190602001909291908051906020019092919080519060200190929190505050905080925081935050505b600082420390506103848110158015610bb95750610e108111155b610c2b576040517f08c379a000000000000000000000000000000000000000000000000000000000815260040180806020018281038252600d8152602001807f62616420545741502074696d650000000000000000000000000000000000000081525060200191505060405180910390fd5b6000610c3687611099565b905083420383820381610c4557fe5b0495505050505050919050565b6000807f000000000000000000000000000000000000000000000000000000000000000073ffffffffffffffffffffffffffffffffffffffff166381bfb885846040518263ffffffff1660e01b8152600401808273ffffffffffffffffffffffffffffffffffffffff16815260200191505060206040518083038186803b158015610cdc57600080fd5b505afa158015610cf0573d6000803e3d6000fd5b505050506040513d6020811015610d0657600080fd5b8101908080519060200190929190505050905060008111610d8f576040517f08c379a00000000000000000000000000000000000000000000000000000000081526004018080602001828103825260178152602001807f6e6f206c656e6774682d31206f62736572766174696f6e00000000000000000081525060200191505060405180910390fd5b6000807f000000000000000000000000000000000000000000000000000000000000000073ffffffffffffffffffffffffffffffffffffffff16630245996686600186036040518363ffffffff1660e01b8152600401808373ffffffffffffffffffffffffffffffffffffffff1681526020018281526020019250505060606040518083038186803b158015610e2457600080fd5b505afa158015610e38573d6000803e3d6000fd5b505050506040513d6060811015610e4e57600080fd5b8101908080519060200190929190805190602001909291908051906020019092919050505050915091506103844203821115610fe55760018311610efa576040517f08c379a00000000000000000000000000000000000000000000000000000000081526004018080602001828103825260178152602001807f6e6f206c656e6774682d32206f62736572766174696f6e00000000000000000081525060200191505060405180910390fd5b7f000000000000000000000000000000000000000000000000000000000000000073ffffffffffffffffffffffffffffffffffffffff16630245996686600286036040518363ffffffff1660e01b8152600401808373ffffffffffffffffffffffffffffffffffffffff1681526020018281526020019250505060606040518083038186803b158015610f8c57600080fd5b505afa158015610fa0573d6000803e3d6000fd5b505050506040513d6060811015610fb657600080fd5b810190808051906020019092919080519060200190929190805190602001909291905050505080925081935050505b6000824203905061038481101580156110005750610e108111155b611072576040517f08c379a000000000000000000000000000000000000000000000000000000000815260040180806020018281038252600d8152602001807f62616420545741502074696d650000000000000000000000000000000000000081525060200191505060405180910390fd5b600061107d87611221565b90508342038382038161108c57fe5b0495505050505050919050565b6000804290508273ffffffffffffffffffffffffffffffffffffffff16635a3d54936040518163ffffffff1660e01b815260040160206040518083038186803b1580156110e557600080fd5b505afa1580156110f9573d6000803e3d6000fd5b505050506040513d602081101561110f57600080fd5b8101908080519060200190929190505050915060008060008573ffffffffffffffffffffffffffffffffffffffff16630902f1ac6040518163ffffffff1660e01b815260040160606040518083038186803b15801561116d57600080fd5b505afa158015611181573d6000803e3d6000fd5b505050506040513d606081101561119757600080fd5b8101908080519060200190929190805190602001909291908051906020019092919050505092506dffffffffffffffffffffffffffff1692506dffffffffffffffffffffffffffff1692508363ffffffff168163ffffffff161461121857600081850390508063ffffffff1683607086901b8161121057fe5b040286019550505b50505050919050565b6000804290508273ffffffffffffffffffffffffffffffffffffffff16635909c0d56040518163ffffffff1660e01b815260040160206040518083038186803b15801561126d57600080fd5b505afa158015611281573d6000803e3d6000fd5b505050506040513d602081101561129757600080fd5b8101908080519060200190929190505050915060008060008573ffffffffffffffffffffffffffffffffffffffff16630902f1ac6040518163ffffffff1660e01b815260040160606040518083038186803b1580156112f557600080fd5b505afa158015611309573d6000803e3d6000fd5b505050506040513d606081101561131f57600080fd5b8101908080519060200190929190805190602001909291908051906020019092919050505092506dffffffffffffffffffffffffffff1692506dffffffffffffffffffffffffffff169250428163ffffffff161461139a57600081850390508063ffffffff1684607085901b8161139257fe5b040286019550505b5050505091905056fe536166654d6174683a206d756c7469706c69636174696f6e206f766572666c6f77a26469706673582212205733074ad5637c529a893211c5006ce7b6eb8907f18d207566e56626bd43d3cf64736f6c634300060c0033",
  "linkReferences": {},
  "deployedLinkReferences": {}
}