{
  "_format": "hh-sol-artifact-1",
  "contractName": "FixedTokenPriceOracle",
  "sourceName": "contracts/oracles/FixedTokenPriceOracle.sol",
  "abi": [
    {
      "inputs": [
        {
          "internalType": "address",
          "name": "_baseToken",
          "type": "address"
        }
      ],
      "stateMutability": "nonpayable",
      "type": "constructor"
    },
    {
      "inputs": [],
      "name": "baseToken",
      "outputs": [
        {
          "internalType": "address",
          "name": "",
          "type": "address"
        }
      ],
      "stateMutability": "view",
      "type": "function"
    },
    {
      "inputs": [
        {
          "internalType": "contract CToken",
          "name": "cToken",
          "type": "address"
        }
      ],
      "name": "getUnderlyingPrice",
      "outputs": [
        {
          "internalType": "uint256",
          "name": "",
          "type": "uint256"
        }
      ],
      "stateMutability": "view",
      "type": "function"
    },
    {
      "inputs": [
        {
          "internalType": "address",
          "name": "underlying",
          "type": "address"
        }
      ],
      "name": "price",
      "outputs": [
        {
          "internalType": "uint256",
          "name": "",
          "type": "uint256"
        }
      ],
      "stateMutability": "view",
      "type": "function"
    }
  ],
  "bytecode": "0x60a060405234801561001057600080fd5b506040516105783803806105788339818101604052602081101561003357600080fd5b81019080805190602001909291905050508073ffffffffffffffffffffffffffffffffffffffff1660808173ffffffffffffffffffffffffffffffffffffffff1660601b815250505060805160601c6104da61009e6000398061013e52806102c952506104da6000f3fe608060405234801561001057600080fd5b50600436106100415760003560e01c8063aea9107814610046578063c55dae631461009e578063fc57d4df146100d2575b600080fd5b6100886004803603602081101561005c57600080fd5b81019080803573ffffffffffffffffffffffffffffffffffffffff16906020019092919050505061012a565b6040518082815260200191505060405180910390f35b6100a661013c565b604051808273ffffffffffffffffffffffffffffffffffffffff16815260200191505060405180910390f35b610114600480360360208110156100e857600080fd5b81019080803573ffffffffffffffffffffffffffffffffffffffff169060200190929190505050610160565b6040518082815260200191505060405180910390f35b6000610135826102a9565b9050919050565b7f000000000000000000000000000000000000000000000000000000000000000081565b6000808273ffffffffffffffffffffffffffffffffffffffff16636f307dc36040518163ffffffff1660e01b815260040160206040518083038186803b1580156101a957600080fd5b505afa1580156101bd573d6000803e3d6000fd5b505050506040513d60208110156101d357600080fd5b810190808051906020019092919050505090506102a18173ffffffffffffffffffffffffffffffffffffffff1663313ce5676040518163ffffffff1660e01b815260040160206040518083038186803b15801561022f57600080fd5b505afa158015610243573d6000803e3d6000fd5b505050506040513d602081101561025957600080fd5b810190808051906020019092919050505060ff16600a0a610293670de0b6b3a7640000610285856102a9565b61037490919063ffffffff16565b6103fa90919063ffffffff16565b915050919050565b60003373ffffffffffffffffffffffffffffffffffffffff1663aea910787f00000000000000000000000000000000000000000000000000000000000000006040518263ffffffff1660e01b8152600401808273ffffffffffffffffffffffffffffffffffffffff16815260200191505060206040518083038186803b15801561033257600080fd5b505afa158015610346573d6000803e3d6000fd5b505050506040513d602081101561035c57600080fd5b81019080805190602001909291905050509050919050565b60008083141561038757600090506103f4565b600082840290508284828161039857fe5b04146103ef576040517f08c379a00000000000000000000000000000000000000000000000000000000081526004018080602001828103825260218152602001806104846021913960400191505060405180910390fd5b809150505b92915050565b6000808211610471576040517f08c379a000000000000000000000000000000000000000000000000000000000815260040180806020018281038252601a8152602001807f536166654d6174683a206469766973696f6e206279207a65726f00000000000081525060200191505060405180910390fd5b81838161047a57fe5b0490509291505056fe536166654d6174683a206d756c7469706c69636174696f6e206f766572666c6f77a26469706673582212206dd296a65570403570f17f6f27a48330141eb7ae00a46d12ea2797882ea24d9364736f6c634300060c0033",
  "linkReferences": {},
  "deployedLinkReferences": {}
}