{
  "_format": "hh-sol-artifact-1",
  "contractName": "FuseFeeDistributor",
  "sourceName": "contracts/FuseFeeDistributor.sol",
  "abi": [
    {
      "anonymous": false,
      "inputs": [
        {
          "indexed": true,
          "internalType": "address",
          "name": "previousOwner",
          "type": "address"
        },
        {
          "indexed": true,
          "internalType": "address",
          "name": "newOwner",
          "type": "address"
        }
      ],
      "name": "OwnershipTransferred",
      "type": "event"
    },
    {
      "inputs": [
        {
          "internalType": "address[]",
          "name": "targets",
          "type": "address[]"
        },
        {
          "internalType": "bytes[]",
          "name": "data",
          "type": "bytes[]"
        }
      ],
      "name": "_callPool",
      "outputs": [],
      "stateMutability": "nonpayable",
      "type": "function"
    },
    {
      "inputs": [
        {
          "internalType": "address[]",
          "name": "targets",
          "type": "address[]"
        },
        {
          "internalType": "bytes",
          "name": "data",
          "type": "bytes"
        }
      ],
      "name": "_callPool",
      "outputs": [],
      "stateMutability": "nonpayable",
      "type": "function"
    },
    {
      "inputs": [
        {
          "internalType": "address[]",
          "name": "oldImplementations",
          "type": "address[]"
        },
        {
          "internalType": "address[]",
          "name": "newImplementations",
          "type": "address[]"
        },
        {
          "internalType": "bool[]",
          "name": "allowResign",
          "type": "bool[]"
        },
        {
          "internalType": "bool[]",
          "name": "statuses",
          "type": "bool[]"
        }
      ],
      "name": "_editCErc20DelegateWhitelist",
      "outputs": [],
      "stateMutability": "nonpayable",
      "type": "function"
    },
    {
      "inputs": [
        {
          "internalType": "address[]",
          "name": "oldImplementations",
          "type": "address[]"
        },
        {
          "internalType": "address[]",
          "name": "newImplementations",
          "type": "address[]"
        },
        {
          "internalType": "bool[]",
          "name": "allowResign",
          "type": "bool[]"
        },
        {
          "internalType": "bool[]",
          "name": "statuses",
          "type": "bool[]"
        }
      ],
      "name": "_editCEtherDelegateWhitelist",
      "outputs": [],
      "stateMutability": "nonpayable",
      "type": "function"
    },
    {
      "inputs": [
        {
          "internalType": "address[]",
          "name": "oldImplementations",
          "type": "address[]"
        },
        {
          "internalType": "address[]",
          "name": "newImplementations",
          "type": "address[]"
        },
        {
          "internalType": "bool[]",
          "name": "statuses",
          "type": "bool[]"
        }
      ],
      "name": "_editComptrollerImplementationWhitelist",
      "outputs": [],
      "stateMutability": "nonpayable",
      "type": "function"
    },
    {
      "inputs": [
        {
          "internalType": "address",
          "name": "",
          "type": "address"
        }
      ],
      "name": "_latestCErc20Delegate",
      "outputs": [
        {
          "internalType": "address",
          "name": "implementation",
          "type": "address"
        },
        {
          "internalType": "bool",
          "name": "allowResign",
          "type": "bool"
        },
        {
          "internalType": "bytes",
          "name": "becomeImplementationData",
          "type": "bytes"
        }
      ],
      "stateMutability": "view",
      "type": "function"
    },
    {
      "inputs": [
        {
          "internalType": "address",
          "name": "",
          "type": "address"
        }
      ],
      "name": "_latestCEtherDelegate",
      "outputs": [
        {
          "internalType": "address",
          "name": "implementation",
          "type": "address"
        },
        {
          "internalType": "bool",
          "name": "allowResign",
          "type": "bool"
        },
        {
          "internalType": "bytes",
          "name": "becomeImplementationData",
          "type": "bytes"
        }
      ],
      "stateMutability": "view",
      "type": "function"
    },
    {
      "inputs": [
        {
          "internalType": "address",
          "name": "comptroller",
          "type": "address"
        },
        {
          "internalType": "int256",
          "name": "rate",
          "type": "int256"
        }
      ],
      "name": "_setCustomInterestFeeRate",
      "outputs": [],
      "stateMutability": "nonpayable",
      "type": "function"
    },
    {
      "inputs": [
        {
          "internalType": "uint256",
          "name": "_defaultInterestFeeRate",
          "type": "uint256"
        }
      ],
      "name": "_setDefaultInterestFeeRate",
      "outputs": [],
      "stateMutability": "nonpayable",
      "type": "function"
    },
    {
      "inputs": [
        {
          "internalType": "address",
          "name": "oldImplementation",
          "type": "address"
        },
        {
          "internalType": "address",
          "name": "newImplementation",
          "type": "address"
        },
        {
          "internalType": "bool",
          "name": "allowResign",
          "type": "bool"
        },
        {
          "internalType": "bytes",
          "name": "becomeImplementationData",
          "type": "bytes"
        }
      ],
      "name": "_setLatestCErc20Delegate",
      "outputs": [],
      "stateMutability": "nonpayable",
      "type": "function"
    },
    {
      "inputs": [
        {
          "internalType": "address",
          "name": "oldImplementation",
          "type": "address"
        },
        {
          "internalType": "address",
          "name": "newImplementation",
          "type": "address"
        },
        {
          "internalType": "bool",
          "name": "allowResign",
          "type": "bool"
        },
        {
          "internalType": "bytes",
          "name": "becomeImplementationData",
          "type": "bytes"
        }
      ],
      "name": "_setLatestCEtherDelegate",
      "outputs": [],
      "stateMutability": "nonpayable",
      "type": "function"
    },
    {
      "inputs": [
        {
          "internalType": "address",
          "name": "oldImplementation",
          "type": "address"
        },
        {
          "internalType": "address",
          "name": "newImplementation",
          "type": "address"
        }
      ],
      "name": "_setLatestComptrollerImplementation",
      "outputs": [],
      "stateMutability": "nonpayable",
      "type": "function"
    },
    {
      "inputs": [
        {
          "internalType": "uint256",
          "name": "_minBorrowEth",
          "type": "uint256"
        },
        {
          "internalType": "uint256",
          "name": "_maxSupplyEth",
          "type": "uint256"
        },
        {
          "internalType": "uint256",
          "name": "_maxUtilizationRate",
          "type": "uint256"
        }
      ],
      "name": "_setPoolLimits",
      "outputs": [],
      "stateMutability": "nonpayable",
      "type": "function"
    },
    {
      "inputs": [
        {
          "internalType": "address",
          "name": "erc20Contract",
          "type": "address"
        }
      ],
      "name": "_withdrawAssets",
      "outputs": [],
      "stateMutability": "nonpayable",
      "type": "function"
    },
    {
      "inputs": [
        {
          "internalType": "address",
          "name": "",
          "type": "address"
        },
        {
          "internalType": "address",
          "name": "",
          "type": "address"
        },
        {
          "internalType": "bool",
          "name": "",
          "type": "bool"
        }
      ],
      "name": "cErc20DelegateWhitelist",
      "outputs": [
        {
          "internalType": "bool",
          "name": "",
          "type": "bool"
        }
      ],
      "stateMutability": "view",
      "type": "function"
    },
    {
      "inputs": [
        {
          "internalType": "address",
          "name": "",
          "type": "address"
        },
        {
          "internalType": "address",
          "name": "",
          "type": "address"
        },
        {
          "internalType": "bool",
          "name": "",
          "type": "bool"
        }
      ],
      "name": "cEtherDelegateWhitelist",
      "outputs": [
        {
          "internalType": "bool",
          "name": "",
          "type": "bool"
        }
      ],
      "stateMutability": "view",
      "type": "function"
    },
    {
      "inputs": [
        {
          "internalType": "address",
          "name": "",
          "type": "address"
        },
        {
          "internalType": "address",
          "name": "",
          "type": "address"
        }
      ],
      "name": "comptrollerImplementationWhitelist",
      "outputs": [
        {
          "internalType": "bool",
          "name": "",
          "type": "bool"
        }
      ],
      "stateMutability": "view",
      "type": "function"
    },
    {
      "inputs": [
        {
          "internalType": "address",
          "name": "",
          "type": "address"
        }
      ],
      "name": "customInterestFeeRates",
      "outputs": [
        {
          "internalType": "int256",
          "name": "",
          "type": "int256"
        }
      ],
      "stateMutability": "view",
      "type": "function"
    },
    {
      "inputs": [],
      "name": "defaultInterestFeeRate",
      "outputs": [
        {
          "internalType": "uint256",
          "name": "",
          "type": "uint256"
        }
      ],
      "stateMutability": "view",
      "type": "function"
    },
    {
      "inputs": [
        {
          "internalType": "bytes",
          "name": "constructorData",
          "type": "bytes"
        }
      ],
      "name": "deployCErc20",
      "outputs": [
        {
          "internalType": "address",
          "name": "",
          "type": "address"
        }
      ],
      "stateMutability": "nonpayable",
      "type": "function"
    },
    {
      "inputs": [
        {
          "internalType": "bytes",
          "name": "constructorData",
          "type": "bytes"
        }
      ],
      "name": "deployCEther",
      "outputs": [
        {
          "internalType": "address",
          "name": "",
          "type": "address"
        }
      ],
      "stateMutability": "nonpayable",
      "type": "function"
    },
    {
      "inputs": [
        {
          "internalType": "uint256",
          "name": "_defaultInterestFeeRate",
          "type": "uint256"
        }
      ],
      "name": "initialize",
      "outputs": [],
      "stateMutability": "nonpayable",
      "type": "function"
    },
    {
      "inputs": [],
      "name": "interestFeeRate",
      "outputs": [
        {
          "internalType": "uint256",
          "name": "",
          "type": "uint256"
        }
      ],
      "stateMutability": "view",
      "type": "function"
    },
    {
      "inputs": [
        {
          "internalType": "address",
          "name": "oldImplementation",
          "type": "address"
        }
      ],
      "name": "latestCErc20Delegate",
      "outputs": [
        {
          "internalType": "address",
          "name": "",
          "type": "address"
        },
        {
          "internalType": "bool",
          "name": "",
          "type": "bool"
        },
        {
          "internalType": "bytes",
          "name": "",
          "type": "bytes"
        }
      ],
      "stateMutability": "view",
      "type": "function"
    },
    {
      "inputs": [
        {
          "internalType": "address",
          "name": "oldImplementation",
          "type": "address"
        }
      ],
      "name": "latestCEtherDelegate",
      "outputs": [
        {
          "internalType": "address",
          "name": "",
          "type": "address"
        },
        {
          "internalType": "bool",
          "name": "",
          "type": "bool"
        },
        {
          "internalType": "bytes",
          "name": "",
          "type": "bytes"
        }
      ],
      "stateMutability": "view",
      "type": "function"
    },
    {
      "inputs": [
        {
          "internalType": "address",
          "name": "oldImplementation",
          "type": "address"
        }
      ],
      "name": "latestComptrollerImplementation",
      "outputs": [
        {
          "internalType": "address",
          "name": "",
          "type": "address"
        }
      ],
      "stateMutability": "view",
      "type": "function"
    },
    {
      "inputs": [],
      "name": "maxSupplyEth",
      "outputs": [
        {
          "internalType": "uint256",
          "name": "",
          "type": "uint256"
        }
      ],
      "stateMutability": "view",
      "type": "function"
    },
    {
      "inputs": [],
      "name": "maxUtilizationRate",
      "outputs": [
        {
          "internalType": "uint256",
          "name": "",
          "type": "uint256"
        }
      ],
      "stateMutability": "view",
      "type": "function"
    },
    {
      "inputs": [],
      "name": "minBorrowEth",
      "outputs": [
        {
          "internalType": "uint256",
          "name": "",
          "type": "uint256"
        }
      ],
      "stateMutability": "view",
      "type": "function"
    },
    {
      "inputs": [],
      "name": "owner",
      "outputs": [
        {
          "internalType": "address",
          "name": "",
          "type": "address"
        }
      ],
      "stateMutability": "view",
      "type": "function"
    },
    {
      "inputs": [],
      "name": "renounceOwnership",
      "outputs": [],
      "stateMutability": "nonpayable",
      "type": "function"
    },
    {
      "inputs": [
        {
          "internalType": "address",
          "name": "newOwner",
          "type": "address"
        }
      ],
      "name": "transferOwnership",
      "outputs": [],
      "stateMutability": "nonpayable",
      "type": "function"
    },
    {
      "stateMutability": "payable",
      "type": "receive"
    }
  ],
  "bytecode": "0x608060405234801561001057600080fd5b50615d04806100206000396000f3fe6080604052600436106101e75760003560e01c8063930d243811610102578063c5232b4711610095578063e35a480111610064578063e35a48011461074b578063f2fde38b14610774578063fdb25fb11461079d578063fe4b84df146107c8576101ee565b8063c5232b471461068f578063d64517b2146106cc578063dd86fea1146106f5578063dfcb48bd14610720576101ee565b8063a430e617116100d1578063a430e617146105c3578063b01b86fd146105ec578063bbcdd6d314610615578063c11cd44014610652576101ee565b8063930d2438146104f55780639b86a9b51461051e5780639c7be7081461055b5780639d244f9f14610586576101ee565b8063715018a61161017a5780638754e4fd116101495780638754e4fd146104255780638abe0b75146104625780638d3bb8ef146104a15780638da5cb5b146104ca576101ee565b8063715018a61461037d57806371cd40e61461039457806375365b87146103d157806384651d73146103fa576101ee565b80632acbff39116101b65780632acbff39146102c35780632f876d32146102ec5780633465b6e11461031557806345cc97051461033e576101ee565b806301758fc2146101f35780630284db761461021c57806306bc46111461025b578063183a3f7214610284576101ee565b366101ee57005b600080fd5b3480156101ff57600080fd5b5061021a60048036038101906102159190613afd565b6107f1565b005b34801561022857600080fd5b50610243600480360381019061023e91906136b8565b610a35565b6040516102529392919061476e565b60405180910390f35b34801561026757600080fd5b50610282600480360381019061027d9190613a1d565b610b24565b005b34801561029057600080fd5b506102ab60048036038101906102a691906136b8565b610c33565b6040516102ba9392919061476e565b60405180910390f35b3480156102cf57600080fd5b506102ea60048036038101906102e59190613bd2565b610d22565b005b3480156102f857600080fd5b50610313600480360381019061030e9190613da5565b610ec1565b005b34801561032157600080fd5b5061033c600480360381019061033791906136b8565b610f57565b005b34801561034a57600080fd5b50610365600480360381019061036091906136b8565b61119b565b6040516103749392919061476e565b60405180910390f35b34801561038957600080fd5b5061039261136a565b005b3480156103a057600080fd5b506103bb60048036038101906103b6919061394e565b6114a7565b6040516103c891906147d5565b60405180910390f35b3480156103dd57600080fd5b506103f860048036038101906103f3919061399d565b6114e3565b005b34801561040657600080fd5b5061040f6116a3565b60405161041c9190614a6d565b60405180910390f35b34801561043157600080fd5b5061044c60048036038101906104479190613d0e565b6116a9565b6040516104599190614738565b60405180910390f35b34801561046e57600080fd5b50610489600480360381019061048491906136b8565b6118d3565b6040516104989392919061476e565b60405180910390f35b3480156104ad57600080fd5b506104c860048036038101906104c39190613a59565b611aa2565b005b3480156104d657600080fd5b506104df611c9e565b6040516104ec9190614738565b60405180910390f35b34801561050157600080fd5b5061051c60048036038101906105179190613912565b611cc8565b005b34801561052a57600080fd5b5061054560048036038101906105409190613d0e565b611dc6565b6040516105529190614738565b60405180910390f35b34801561056757600080fd5b50610570611fed565b60405161057d9190614a6d565b60405180910390f35b34801561059257600080fd5b506105ad60048036038101906105a89190613912565b611ff3565b6040516105ba91906147d5565b60405180910390f35b3480156105cf57600080fd5b506105ea60048036038101906105e5919061399d565b612022565b005b3480156105f857600080fd5b50610613600480360381019061060e9190613c47565b6121e2565b005b34801561062157600080fd5b5061063c600480360381019061063791906136b8565b612354565b6040516106499190614738565b60405180910390f35b34801561065e57600080fd5b506106796004803603810190610674919061394e565b612457565b60405161068691906147d5565b60405180910390f35b34801561069b57600080fd5b506106b660048036038101906106b191906136b8565b612493565b6040516106c391906147f0565b60405180910390f35b3480156106d857600080fd5b506106f360048036038101906106ee9190613afd565b6124ab565b005b34801561070157600080fd5b5061070a6126ef565b6040516107179190614a6d565b60405180910390f35b34801561072c57600080fd5b50610735612888565b6040516107429190614a6d565b60405180910390f35b34801561075757600080fd5b50610772600480360381019061076d9190613d53565b61288e565b005b34801561078057600080fd5b5061079b600480360381019061079691906136b8565b61295f565b005b3480156107a957600080fd5b506107b2612b0b565b6040516107bf9190614a6d565b60405180910390f35b3480156107d457600080fd5b506107ef60048036038101906107ea9190613d53565b612b11565b005b6107f9612ca2565b73ffffffffffffffffffffffffffffffffffffffff16610817611c9e565b73ffffffffffffffffffffffffffffffffffffffff161461086d576040517f08c379a00000000000000000000000000000000000000000000000000000000081526004016108649061492d565b60405180910390fd5b60008686905011801561088557508787905086869050145b801561089657508383905086869050145b80156108a757508181905086869050145b6108e6576040517f08c379a00000000000000000000000000000000000000000000000000000000081526004016108dd9061488d565b60405180910390fd5b60005b86869050811015610a2a5782828281811061090057fe5b90506020020160208101906109159190613cbc565b606a60008b8b8581811061092557fe5b905060200201602081019061093a91906136b8565b73ffffffffffffffffffffffffffffffffffffffff1673ffffffffffffffffffffffffffffffffffffffff168152602001908152602001600020600089898581811061098257fe5b905060200201602081019061099791906136b8565b73ffffffffffffffffffffffffffffffffffffffff1673ffffffffffffffffffffffffffffffffffffffff16815260200190815260200160002060008787858181106109df57fe5b90506020020160208101906109f49190613cbc565b15151515815260200190815260200160002060006101000a81548160ff02191690831515021790555080806001019150506108e9565b505050505050505050565b606e6020528060005260406000206000915090508060000160009054906101000a900473ffffffffffffffffffffffffffffffffffffffff16908060000160149054906101000a900460ff1690806001018054600181600116156101000203166002900480601f016020809104026020016040519081016040528092919081815260200182805460018160011615610100020316600290048015610b1a5780601f10610aef57610100808354040283529160200191610b1a565b820191906000526020600020905b815481529060010190602001808311610afd57829003601f168201915b5050505050905083565b610b2c612ca2565b73ffffffffffffffffffffffffffffffffffffffff16610b4a611c9e565b73ffffffffffffffffffffffffffffffffffffffff1614610ba0576040517f08c379a0000000000000000000000000000000000000000000000000000000008152600401610b979061492d565b60405180910390fd5b670de0b6b3a7640000811315610beb576040517f08c379a0000000000000000000000000000000000000000000000000000000008152600401610be29061482d565b60405180910390fd5b80606f60008473ffffffffffffffffffffffffffffffffffffffff1673ffffffffffffffffffffffffffffffffffffffff168152602001908152602001600020819055505050565b606d6020528060005260406000206000915090508060000160009054906101000a900473ffffffffffffffffffffffffffffffffffffffff16908060000160149054906101000a900460ff1690806001018054600181600116156101000203166002900480601f016020809104026020016040519081016040528092919081815260200182805460018160011615610100020316600290048015610d185780601f10610ced57610100808354040283529160200191610d18565b820191906000526020600020905b815481529060010190602001808311610cfb57829003601f168201915b5050505050905083565b610d2a612ca2565b73ffffffffffffffffffffffffffffffffffffffff16610d48611c9e565b73ffffffffffffffffffffffffffffffffffffffff1614610d9e576040517f08c379a0000000000000000000000000000000000000000000000000000000008152600401610d959061492d565b60405180910390fd5b600084849050118015610db657508181905084849050145b610df5576040517f08c379a0000000000000000000000000000000000000000000000000000000008152600401610dec9061498d565b60405180910390fd5b60005b84849050811015610eba57610eac838383818110610e1257fe5b9050602002810190610e249190614a88565b8080601f016020809104026020016040519081016040528093929190818152602001838380828437600081840152601f19601f82011690508083019250505050505050868684818110610e7357fe5b9050602002016020810190610e8891906136b8565b73ffffffffffffffffffffffffffffffffffffffff16612caa90919063ffffffff16565b508080600101915050610df8565b5050505050565b610ec9612ca2565b73ffffffffffffffffffffffffffffffffffffffff16610ee7611c9e565b73ffffffffffffffffffffffffffffffffffffffff1614610f3d576040517f08c379a0000000000000000000000000000000000000000000000000000000008152600401610f349061492d565b60405180910390fd5b826066819055508160678190555080606881905550505050565b600073ffffffffffffffffffffffffffffffffffffffff168173ffffffffffffffffffffffffffffffffffffffff16141561108e57600047905060008111610fd4576040517f08c379a0000000000000000000000000000000000000000000000000000000008152600401610fcb9061496d565b60405180910390fd5b6000610fde611c9e565b73ffffffffffffffffffffffffffffffffffffffff168260405161100190614723565b60006040518083038185875af1925050503d806000811461103e576040519150601f19603f3d011682016040523d82523d6000602084013e611043565b606091505b5050905080611087576040517f08c379a000000000000000000000000000000000000000000000000000000000815260040161107e9061490d565b60405180910390fd5b5050611198565b600081905060008173ffffffffffffffffffffffffffffffffffffffff166370a08231306040518263ffffffff1660e01b81526004016110ce9190614753565b60206040518083038186803b1580156110e657600080fd5b505afa1580156110fa573d6000803e3d6000fd5b505050506040513d601f19601f8201168201806040525081019061111e9190613d7c565b905060008111611163576040517f08c379a000000000000000000000000000000000000000000000000000000000815260040161115a9061494d565b60405180910390fd5b61119561116e611c9e565b828473ffffffffffffffffffffffffffffffffffffffff16612cf49092919063ffffffff16565b50505b50565b60008060606111a861336a565b606d60008673ffffffffffffffffffffffffffffffffffffffff1673ffffffffffffffffffffffffffffffffffffffff1681526020019081526020016000206040518060600160405290816000820160009054906101000a900473ffffffffffffffffffffffffffffffffffffffff1673ffffffffffffffffffffffffffffffffffffffff1673ffffffffffffffffffffffffffffffffffffffff1681526020016000820160149054906101000a900460ff16151515158152602001600182018054600181600116156101000203166002900480601f0160208091040260200160405190810160405280929190818152602001828054600181600116156101000203166002900480156112fc5780601f106112d1576101008083540402835291602001916112fc565b820191906000526020600020905b8154815290600101906020018083116112df57829003601f168201915b50505050508152505090506060600073ffffffffffffffffffffffffffffffffffffffff16826000015173ffffffffffffffffffffffffffffffffffffffff16141561134b578560008261135b565b8160000151826020015183604001515b94509450945050509193909250565b611372612ca2565b73ffffffffffffffffffffffffffffffffffffffff16611390611c9e565b73ffffffffffffffffffffffffffffffffffffffff16146113e6576040517f08c379a00000000000000000000000000000000000000000000000000000000081526004016113dd9061492d565b60405180910390fd5b600073ffffffffffffffffffffffffffffffffffffffff16603360009054906101000a900473ffffffffffffffffffffffffffffffffffffffff1673ffffffffffffffffffffffffffffffffffffffff167f8be0079c531659141344cd1fd0a4f28419497f9722a3daafe3b4186f6b6457e060405160405180910390a36000603360006101000a81548173ffffffffffffffffffffffffffffffffffffffff021916908373ffffffffffffffffffffffffffffffffffffffff160217905550565b606a602052826000526040600020602052816000526040600020602052806000526040600020600092509250509054906101000a900460ff1681565b6114eb612ca2565b73ffffffffffffffffffffffffffffffffffffffff16611509611c9e565b73ffffffffffffffffffffffffffffffffffffffff161461155f576040517f08c379a00000000000000000000000000000000000000000000000000000000081526004016115569061492d565b60405180910390fd5b60405180606001604052808573ffffffffffffffffffffffffffffffffffffffff168152602001841515815260200183838080601f016020809104026020016040519081016040528093929190818152602001838380828437600081840152601f19601f82011690508083019250505050505050815250606d60008773ffffffffffffffffffffffffffffffffffffffff1673ffffffffffffffffffffffffffffffffffffffff16815260200190815260200160002060008201518160000160006101000a81548173ffffffffffffffffffffffffffffffffffffffff021916908373ffffffffffffffffffffffffffffffffffffffff16021790555060208201518160000160146101000a81548160ff02191690831515021790555060408201518160010190805190602001906116989291906133a3565b509050505050505050565b60655481565b60008060008085858101906116be919061370a565b505050955050505092509250606a60008073ffffffffffffffffffffffffffffffffffffffff1673ffffffffffffffffffffffffffffffffffffffff16815260200190815260200160002060008273ffffffffffffffffffffffffffffffffffffffff1673ffffffffffffffffffffffffffffffffffffffff16815260200190815260200160002060008015151515815260200190815260200160002060009054906101000a900460ff166117a8576040517f08c379a000000000000000000000000000000000000000000000000000000000815260040161179f906149ad565b60405180910390fd5b3373ffffffffffffffffffffffffffffffffffffffff168273ffffffffffffffffffffffffffffffffffffffff1614611816576040517f08c379a000000000000000000000000000000000000000000000000000000000815260040161180d906148cd565b60405180910390fd5b60606040518061082001604052806107f58152602001614d556107f59139905080878760405160200161184b939291906146fd565b60405160208183030381529060405290506000338543604051602001611873939291906146a9565b6040516020818303038152906040528051906020012090506000818351602085016000f59050803b6118c4577f4661696c656420746f206465706c6f79204345726332302e00000000000000006000fd5b80965050505050505092915050565b60008060606118e061336a565b606e60008673ffffffffffffffffffffffffffffffffffffffff1673ffffffffffffffffffffffffffffffffffffffff1681526020019081526020016000206040518060600160405290816000820160009054906101000a900473ffffffffffffffffffffffffffffffffffffffff1673ffffffffffffffffffffffffffffffffffffffff1673ffffffffffffffffffffffffffffffffffffffff1681526020016000820160149054906101000a900460ff16151515158152602001600182018054600181600116156101000203166002900480601f016020809104026020016040519081016040528092919081815260200182805460018160011615610100020316600290048015611a345780601f10611a0957610100808354040283529160200191611a34565b820191906000526020600020905b815481529060010190602001808311611a1757829003601f168201915b50505050508152505090506060600073ffffffffffffffffffffffffffffffffffffffff16826000015173ffffffffffffffffffffffffffffffffffffffff161415611a835785600082611a93565b8160000151826020015183604001515b94509450945050509193909250565b611aaa612ca2565b73ffffffffffffffffffffffffffffffffffffffff16611ac8611c9e565b73ffffffffffffffffffffffffffffffffffffffff1614611b1e576040517f08c379a0000000000000000000000000000000000000000000000000000000008152600401611b159061492d565b60405180910390fd5b600084849050118015611b3657508585905084849050145b8015611b4757508181905084849050145b611b86576040517f08c379a0000000000000000000000000000000000000000000000000000000008152600401611b7d9061484d565b60405180910390fd5b60005b84849050811015611c9557828282818110611ba057fe5b9050602002016020810190611bb59190613cbc565b60696000898985818110611bc557fe5b9050602002016020810190611bda91906136b8565b73ffffffffffffffffffffffffffffffffffffffff1673ffffffffffffffffffffffffffffffffffffffff1681526020019081526020016000206000878785818110611c2257fe5b9050602002016020810190611c3791906136b8565b73ffffffffffffffffffffffffffffffffffffffff1673ffffffffffffffffffffffffffffffffffffffff16815260200190815260200160002060006101000a81548160ff0219169083151502179055508080600101915050611b89565b50505050505050565b6000603360009054906101000a900473ffffffffffffffffffffffffffffffffffffffff16905090565b611cd0612ca2565b73ffffffffffffffffffffffffffffffffffffffff16611cee611c9e565b73ffffffffffffffffffffffffffffffffffffffff1614611d44576040517f08c379a0000000000000000000000000000000000000000000000000000000008152600401611d3b9061492d565b60405180910390fd5b80606c60008473ffffffffffffffffffffffffffffffffffffffff1673ffffffffffffffffffffffffffffffffffffffff16815260200190815260200160002060006101000a81548173ffffffffffffffffffffffffffffffffffffffff021916908373ffffffffffffffffffffffffffffffffffffffff1602179055505050565b60008060008484810190611dda9190613818565b50505094505050509150606b60008073ffffffffffffffffffffffffffffffffffffffff1673ffffffffffffffffffffffffffffffffffffffff16815260200190815260200160002060008273ffffffffffffffffffffffffffffffffffffffff1673ffffffffffffffffffffffffffffffffffffffff16815260200190815260200160002060008015151515815260200190815260200160002060009054906101000a900460ff16611ec2576040517f08c379a0000000000000000000000000000000000000000000000000000000008152600401611eb990614a4d565b60405180910390fd5b3373ffffffffffffffffffffffffffffffffffffffff168273ffffffffffffffffffffffffffffffffffffffff1614611f30576040517f08c379a0000000000000000000000000000000000000000000000000000000008152600401611f27906148cd565b60405180910390fd5b6060604051806107c00160405280610785815260200161554a61078591399050808686604051602001611f65939291906146fd565b6040516020818303038152906040529050600033600043604051602001611f8e9392919061466c565b6040516020818303038152906040528051906020012090506000818351602085016000f59050803b611fdf577f4661696c656420746f206465706c6f79204345746865722e00000000000000006000fd5b809550505050505092915050565b60675481565b60696020528160005260406000206020528060005260406000206000915091509054906101000a900460ff1681565b61202a612ca2565b73ffffffffffffffffffffffffffffffffffffffff16612048611c9e565b73ffffffffffffffffffffffffffffffffffffffff161461209e576040517f08c379a00000000000000000000000000000000000000000000000000000000081526004016120959061492d565b60405180910390fd5b60405180606001604052808573ffffffffffffffffffffffffffffffffffffffff168152602001841515815260200183838080601f016020809104026020016040519081016040528093929190818152602001838380828437600081840152601f19601f82011690508083019250505050505050815250606e60008773ffffffffffffffffffffffffffffffffffffffff1673ffffffffffffffffffffffffffffffffffffffff16815260200190815260200160002060008201518160000160006101000a81548173ffffffffffffffffffffffffffffffffffffffff021916908373ffffffffffffffffffffffffffffffffffffffff16021790555060208201518160000160146101000a81548160ff02191690831515021790555060408201518160010190805190602001906121d79291906133a3565b509050505050505050565b6121ea612ca2565b73ffffffffffffffffffffffffffffffffffffffff16612208611c9e565b73ffffffffffffffffffffffffffffffffffffffff161461225e576040517f08c379a00000000000000000000000000000000000000000000000000000000081526004016122559061492d565b60405180910390fd5b600084849050116122a4576040517f08c379a000000000000000000000000000000000000000000000000000000000815260040161229b906149ed565b60405180910390fd5b60005b8484905081101561234d5761233f83838080601f016020809104026020016040519081016040528093929190818152602001838380828437600081840152601f19601f8201169050808301925050505050505086868481811061230657fe5b905060200201602081019061231b91906136b8565b73ffffffffffffffffffffffffffffffffffffffff16612caa90919063ffffffff16565b5080806001019150506122a7565b5050505050565b60008073ffffffffffffffffffffffffffffffffffffffff16606c60008473ffffffffffffffffffffffffffffffffffffffff1673ffffffffffffffffffffffffffffffffffffffff16815260200190815260200160002060009054906101000a900473ffffffffffffffffffffffffffffffffffffffff1673ffffffffffffffffffffffffffffffffffffffff1614156123ef5781612450565b606c60008373ffffffffffffffffffffffffffffffffffffffff1673ffffffffffffffffffffffffffffffffffffffff16815260200190815260200160002060009054906101000a900473ffffffffffffffffffffffffffffffffffffffff165b9050919050565b606b602052826000526040600020602052816000526040600020602052806000526040600020600092509250509054906101000a900460ff1681565b606f6020528060005260406000206000915090505481565b6124b3612ca2565b73ffffffffffffffffffffffffffffffffffffffff166124d1611c9e565b73ffffffffffffffffffffffffffffffffffffffff1614612527576040517f08c379a000000000000000000000000000000000000000000000000000000000815260040161251e9061492d565b60405180910390fd5b60008686905011801561253f57508787905086869050145b801561255057508383905086869050145b801561256157508181905086869050145b6125a0576040517f08c379a000000000000000000000000000000000000000000000000000000000815260040161259790614a2d565b60405180910390fd5b60005b868690508110156126e4578282828181106125ba57fe5b90506020020160208101906125cf9190613cbc565b606b60008b8b858181106125df57fe5b90506020020160208101906125f491906136b8565b73ffffffffffffffffffffffffffffffffffffffff1673ffffffffffffffffffffffffffffffffffffffff168152602001908152602001600020600089898581811061263c57fe5b905060200201602081019061265191906136b8565b73ffffffffffffffffffffffffffffffffffffffff1673ffffffffffffffffffffffffffffffffffffffff168152602001908152602001600020600087878581811061269957fe5b90506020020160208101906126ae9190613cbc565b15151515815260200190815260200160002060006101000a81548160ff02191690831515021790555080806001019150506125a3565b505050505050505050565b60008060603373ffffffffffffffffffffffffffffffffffffffff166040516024016040516020818303038152906040527f5fe3b567000000000000000000000000000000000000000000000000000000007bffffffffffffffffffffffffffffffffffffffffffffffffffffffff19166020820180517bffffffffffffffffffffffffffffffffffffffffffffffffffffffff838183161783525050505060405161279b91906146e6565b600060405180830381855afa9150503d80600081146127d6576040519150601f19603f3d011682016040523d82523d6000602084013e6127db565b606091505b50915091508180156127ee575060208151145b1561287d5760008180602001905181019061280991906136e1565b90506000606f60008373ffffffffffffffffffffffffffffffffffffffff1673ffffffffffffffffffffffffffffffffffffffff16815260200190815260200160002054905060008113156128645780945050505050612885565b600081121561287a576000945050505050612885565b50505b606554925050505b90565b60685481565b612896612ca2565b73ffffffffffffffffffffffffffffffffffffffff166128b4611c9e565b73ffffffffffffffffffffffffffffffffffffffff161461290a576040517f08c379a00000000000000000000000000000000000000000000000000000000081526004016129019061492d565b60405180910390fd5b670de0b6b3a7640000811115612955576040517f08c379a000000000000000000000000000000000000000000000000000000000815260040161294c9061482d565b60405180910390fd5b8060658190555050565b612967612ca2565b73ffffffffffffffffffffffffffffffffffffffff16612985611c9e565b73ffffffffffffffffffffffffffffffffffffffff16146129db576040517f08c379a00000000000000000000000000000000000000000000000000000000081526004016129d29061492d565b60405180910390fd5b600073ffffffffffffffffffffffffffffffffffffffff168173ffffffffffffffffffffffffffffffffffffffff161415612a4b576040517f08c379a0000000000000000000000000000000000000000000000000000000008152600401612a429061486d565b60405180910390fd5b8073ffffffffffffffffffffffffffffffffffffffff16603360009054906101000a900473ffffffffffffffffffffffffffffffffffffffff1673ffffffffffffffffffffffffffffffffffffffff167f8be0079c531659141344cd1fd0a4f28419497f9722a3daafe3b4186f6b6457e060405160405180910390a380603360006101000a81548173ffffffffffffffffffffffffffffffffffffffff021916908373ffffffffffffffffffffffffffffffffffffffff16021790555050565b60665481565b600060019054906101000a900460ff1680612b305750612b2f612d7a565b5b80612b46575060008054906101000a900460ff16155b612b85576040517f08c379a0000000000000000000000000000000000000000000000000000000008152600401612b7c906148ed565b60405180910390fd5b60008060019054906101000a900460ff161590508015612bd5576001600060016101000a81548160ff02191690831515021790555060016000806101000a81548160ff0219169083151502179055505b670de0b6b3a7640000821115612c20576040517f08c379a0000000000000000000000000000000000000000000000000000000008152600401612c179061482d565b60405180910390fd5b612c28612d8b565b816065819055507fffffffffffffffffffffffffffffffffffffffffffffffffffffffffffffffff6067819055507fffffffffffffffffffffffffffffffffffffffffffffffffffffffffffffffff6068819055508015612c9e5760008060016101000a81548160ff0219169083151502179055505b5050565b600033905090565b6060612cec83836040518060400160405280601e81526020017f416464726573733a206c6f772d6c6576656c2063616c6c206661696c65640000815250612e83565b905092915050565b612d758363a9059cbb60e01b8484604051602401612d139291906147ac565b604051602081830303815290604052907bffffffffffffffffffffffffffffffffffffffffffffffffffffffff19166020820180517bffffffffffffffffffffffffffffffffffffffffffffffffffffffff8381831617835250505050612e9b565b505050565b6000612d8530612f62565b15905090565b600060019054906101000a900460ff1680612daa5750612da9612d7a565b5b80612dc0575060008054906101000a900460ff16155b612dff576040517f08c379a0000000000000000000000000000000000000000000000000000000008152600401612df6906148ed565b60405180910390fd5b60008060019054906101000a900460ff161590508015612e4f576001600060016101000a81548160ff02191690831515021790555060016000806101000a81548160ff0219169083151502179055505b612e57612f75565b612e5f61305d565b8015612e805760008060016101000a81548160ff0219169083151502179055505b50565b6060612e9284846000856131ee565b90509392505050565b6060612efd826040518060400160405280602081526020017f5361666545524332303a206c6f772d6c6576656c2063616c6c206661696c65648152508573ffffffffffffffffffffffffffffffffffffffff16612e839092919063ffffffff16565b9050600081511115612f5d5780806020019051810190612f1d9190613ce5565b612f5c576040517f08c379a0000000000000000000000000000000000000000000000000000000008152600401612f5390614a0d565b60405180910390fd5b5b505050565b600080823b905060008111915050919050565b600060019054906101000a900460ff1680612f945750612f93612d7a565b5b80612faa575060008054906101000a900460ff16155b612fe9576040517f08c379a0000000000000000000000000000000000000000000000000000000008152600401612fe0906148ed565b60405180910390fd5b60008060019054906101000a900460ff161590508015613039576001600060016101000a81548160ff02191690831515021790555060016000806101000a81548160ff0219169083151502179055505b801561305a5760008060016101000a81548160ff0219169083151502179055505b50565b600060019054906101000a900460ff168061307c575061307b612d7a565b5b80613092575060008054906101000a900460ff16155b6130d1576040517f08c379a00000000000000000000000000000000000000000000000000000000081526004016130c8906148ed565b60405180910390fd5b60008060019054906101000a900460ff161590508015613121576001600060016101000a81548160ff02191690831515021790555060016000806101000a81548160ff0219169083151502179055505b600061312b612ca2565b905080603360006101000a81548173ffffffffffffffffffffffffffffffffffffffff021916908373ffffffffffffffffffffffffffffffffffffffff1602179055508073ffffffffffffffffffffffffffffffffffffffff16600073ffffffffffffffffffffffffffffffffffffffff167f8be0079c531659141344cd1fd0a4f28419497f9722a3daafe3b4186f6b6457e060405160405180910390a35080156131eb5760008060016101000a81548160ff0219169083151502179055505b50565b606082471015613233576040517f08c379a000000000000000000000000000000000000000000000000000000000815260040161322a906148ad565b60405180910390fd5b61323c85612f62565b61327b576040517f08c379a0000000000000000000000000000000000000000000000000000000008152600401613272906149cd565b60405180910390fd5b600060608673ffffffffffffffffffffffffffffffffffffffff1685876040516132a591906146e6565b60006040518083038185875af1925050503d80600081146132e2576040519150601f19603f3d011682016040523d82523d6000602084013e6132e7565b606091505b50915091506132f7828286613303565b92505050949350505050565b6060831561331357829050613363565b6000835111156133265782518084602001fd5b816040517f08c379a000000000000000000000000000000000000000000000000000000000815260040161335a919061480b565b60405180910390fd5b9392505050565b6040518060600160405280600073ffffffffffffffffffffffffffffffffffffffff168152602001600015158152602001606081525090565b828054600181600116156101000203166002900490600052602060002090601f016020900481019282601f106133e457805160ff1916838001178555613412565b82800160010185558215613412579182015b828111156134115782518255916020019190600101906133f6565b5b50905061341f9190613423565b5090565b5b8082111561343c576000816000905550600101613424565b5090565b60008135905061344f81614ce1565b92915050565b60008135905061346481614cf8565b92915050565b60008151905061347981614cf8565b92915050565b60008083601f84011261349157600080fd5b8235905067ffffffffffffffff8111156134aa57600080fd5b6020830191508360208202830111156134c257600080fd5b9250929050565b60008083601f8401126134db57600080fd5b8235905067ffffffffffffffff8111156134f457600080fd5b60208301915083602082028301111561350c57600080fd5b9250929050565b60008083601f84011261352557600080fd5b8235905067ffffffffffffffff81111561353e57600080fd5b60208301915083602082028301111561355657600080fd5b9250929050565b60008135905061356c81614d0f565b92915050565b60008151905061358181614d0f565b92915050565b60008083601f84011261359957600080fd5b8235905067ffffffffffffffff8111156135b257600080fd5b6020830191508360018202830111156135ca57600080fd5b9250929050565b600082601f8301126135e257600080fd5b81356135f56135f082614b0c565b614adf565b9150808252602083016020830185838301111561361157600080fd5b61361c838284614c41565b50505092915050565b60008135905061363481614d26565b92915050565b600082601f83011261364b57600080fd5b813561365e61365982614b38565b614adf565b9150808252602083016020830185838301111561367a57600080fd5b613685838284614c41565b50505092915050565b60008135905061369d81614d3d565b92915050565b6000815190506136b281614d3d565b92915050565b6000602082840312156136ca57600080fd5b60006136d884828501613440565b91505092915050565b6000602082840312156136f357600080fd5b60006137018482850161346a565b91505092915050565b60008060008060008060008060006101208a8c03121561372957600080fd5b60006137378c828d01613455565b99505060206137488c828d01613455565b98505060406137598c828d01613455565b97505060608a013567ffffffffffffffff81111561377657600080fd5b6137828c828d0161363a565b96505060808a013567ffffffffffffffff81111561379f57600080fd5b6137ab8c828d0161363a565b95505060a06137bc8c828d01613455565b94505060c08a013567ffffffffffffffff8111156137d957600080fd5b6137e58c828d016135d1565b93505060e06137f68c828d0161368e565b9250506101006138088c828d0161368e565b9150509295985092959850929598565b600080600080600080600080610100898b03121561383557600080fd5b60006138438b828c01613455565b98505060206138548b828c01613455565b975050604089013567ffffffffffffffff81111561387157600080fd5b61387d8b828c0161363a565b965050606089013567ffffffffffffffff81111561389a57600080fd5b6138a68b828c0161363a565b95505060806138b78b828c01613455565b94505060a089013567ffffffffffffffff8111156138d457600080fd5b6138e08b828c016135d1565b93505060c06138f18b828c0161368e565b92505060e06139028b828c0161368e565b9150509295985092959890939650565b6000806040838503121561392557600080fd5b600061393385828601613440565b925050602061394485828601613440565b9150509250929050565b60008060006060848603121561396357600080fd5b600061397186828701613440565b935050602061398286828701613440565b92505060406139938682870161355d565b9150509250925092565b6000806000806000608086880312156139b557600080fd5b60006139c388828901613440565b95505060206139d488828901613440565b94505060406139e58882890161355d565b935050606086013567ffffffffffffffff811115613a0257600080fd5b613a0e88828901613587565b92509250509295509295909350565b60008060408385031215613a3057600080fd5b6000613a3e85828601613440565b9250506020613a4f85828601613625565b9150509250929050565b60008060008060008060608789031215613a7257600080fd5b600087013567ffffffffffffffff811115613a8c57600080fd5b613a9889828a0161347f565b9650965050602087013567ffffffffffffffff811115613ab757600080fd5b613ac389828a0161347f565b9450945050604087013567ffffffffffffffff811115613ae257600080fd5b613aee89828a016134c9565b92509250509295509295509295565b6000806000806000806000806080898b031215613b1957600080fd5b600089013567ffffffffffffffff811115613b3357600080fd5b613b3f8b828c0161347f565b9850985050602089013567ffffffffffffffff811115613b5e57600080fd5b613b6a8b828c0161347f565b9650965050604089013567ffffffffffffffff811115613b8957600080fd5b613b958b828c016134c9565b9450945050606089013567ffffffffffffffff811115613bb457600080fd5b613bc08b828c016134c9565b92509250509295985092959890939650565b60008060008060408587031215613be857600080fd5b600085013567ffffffffffffffff811115613c0257600080fd5b613c0e8782880161347f565b9450945050602085013567ffffffffffffffff811115613c2d57600080fd5b613c3987828801613513565b925092505092959194509250565b60008060008060408587031215613c5d57600080fd5b600085013567ffffffffffffffff811115613c7757600080fd5b613c838782880161347f565b9450945050602085013567ffffffffffffffff811115613ca257600080fd5b613cae87828801613587565b925092505092959194509250565b600060208284031215613cce57600080fd5b6000613cdc8482850161355d565b91505092915050565b600060208284031215613cf757600080fd5b6000613d0584828501613572565b91505092915050565b60008060208385031215613d2157600080fd5b600083013567ffffffffffffffff811115613d3b57600080fd5b613d4785828601613587565b92509250509250929050565b600060208284031215613d6557600080fd5b6000613d738482850161368e565b91505092915050565b600060208284031215613d8e57600080fd5b6000613d9c848285016136a3565b91505092915050565b600080600060608486031215613dba57600080fd5b6000613dc88682870161368e565b9350506020613dd98682870161368e565b9250506040613dea8682870161368e565b9150509250925092565b613dfd81614c0b565b82525050565b613e14613e0f82614bb9565b614c95565b82525050565b613e2381614ba7565b82525050565b613e3a613e3582614ba7565b614c83565b82525050565b613e4981614bcb565b82525050565b6000613e5b8385614b8b565b9350613e68838584614c41565b82840190509392505050565b6000613e7f82614b64565b613e898185614b7a565b9350613e99818560208601614c50565b613ea281614cc3565b840191505092915050565b6000613eb882614b64565b613ec28185614b8b565b9350613ed2818560208601614c50565b80840191505092915050565b613ee781614bd7565b82525050565b6000613ef882614b6f565b613f028185614b96565b9350613f12818560208601614c50565b613f1b81614cc3565b840191505092915050565b6000613f33602b83614b96565b91507f496e7465726573742066656520726174652063616e6e6f74206265206d6f726560008301527f207468616e20313030252e0000000000000000000000000000000000000000006020830152604082019050919050565b6000613f99604383614b96565b91507f4e6f20436f6d7074726f6c6c657220696d706c656d656e746174696f6e73207360008301527f7570706c696564206f72206172726179206c656e67746873206e6f742065717560208301527f616c2e00000000000000000000000000000000000000000000000000000000006040830152606082019050919050565b6000614025602683614b96565b91507f4f776e61626c653a206e6577206f776e657220697320746865207a65726f206160008301527f64647265737300000000000000000000000000000000000000000000000000006020830152604082019050919050565b600061408b604683614b96565b91507f4e6f2043457263323044656c656761746520696d706c656d656e746174696f6e60008301527f7320737570706c696564206f72206172726179206c656e67746873206e6f742060208301527f657175616c2e00000000000000000000000000000000000000000000000000006040830152606082019050919050565b6000614117602683614b96565b91507f416464726573733a20696e73756666696369656e742062616c616e636520666f60008301527f722063616c6c00000000000000000000000000000000000000000000000000006020830152604082019050919050565b600061417d601a83614b96565b91507f436f6d7074726f6c6c6572206973206e6f742073656e6465722e0000000000006000830152602082019050919050565b60006141bd602e83614b96565b91507f496e697469616c697a61626c653a20636f6e747261637420697320616c72656160008301527f647920696e697469616c697a65640000000000000000000000000000000000006020830152604082019050919050565b6000614223602d83614b96565b91507f4661696c656420746f207472616e73666572204554482062616c616e6365207460008301527f6f206d73672e73656e6465722e000000000000000000000000000000000000006020830152604082019050919050565b6000614289602083614b96565b91507f4f776e61626c653a2063616c6c6572206973206e6f7420746865206f776e65726000830152602082019050919050565b60006142c9602783614b96565b91507f4e6f20746f6b656e2062616c616e636520617661696c61626c6520746f20776960008301527f7468647261772e000000000000000000000000000000000000000000000000006020830152604082019050919050565b600061432f602183614b96565b91507f4e6f2062616c616e636520617661696c61626c6520746f20776974686472617760008301527f2e000000000000000000000000000000000000000000000000000000000000006020830152604082019050919050565b6000614395602f83614b96565b91507f4172726179206c656e67746873206d75737420626520657175616c20616e642060008301527f67726561746572207468616e20302e00000000000000000000000000000000006020830152604082019050919050565b60006143fb602883614b96565b91507f43457263323044656c656761746520636f6e7472616374206e6f74207768697460008301527f656c69737465642e0000000000000000000000000000000000000000000000006020830152604082019050919050565b6000614461600083614b8b565b9150600082019050919050565b600061447b601d83614b96565b91507f416464726573733a2063616c6c20746f206e6f6e2d636f6e74726163740000006000830152602082019050919050565b60006144bb601e83614b96565b91507f4e6f2074617267657420616464726573736573207370656369666965642e00006000830152602082019050919050565b60006144fb602a83614b96565b91507f5361666545524332303a204552433230206f7065726174696f6e20646964206e60008301527f6f742073756363656564000000000000000000000000000000000000000000006020830152604082019050919050565b6000614561604683614b96565b91507f4e6f2043457468657244656c656761746520696d706c656d656e746174696f6e60008301527f7320737570706c696564206f72206172726179206c656e67746873206e6f742060208301527f657175616c2e00000000000000000000000000000000000000000000000000006040830152606082019050919050565b60006145ed602883614b96565b91507f43457468657244656c656761746520636f6e7472616374206e6f74207768697460008301527f656c69737465642e0000000000000000000000000000000000000000000000006020830152604082019050919050565b61464f81614c01565b82525050565b61466661466182614c01565b614cb9565b82525050565b60006146788286613e03565b6014820191506146888285613e03565b6014820191506146988284614655565b602082019150819050949350505050565b60006146b58286613e03565b6014820191506146c58285613e29565b6014820191506146d58284614655565b602082019150819050949350505050565b60006146f28284613ead565b915081905092915050565b60006147098286613ead565b9150614716828486613e4f565b9150819050949350505050565b600061472e82614454565b9150819050919050565b600060208201905061474d6000830184613e1a565b92915050565b60006020820190506147686000830184613df4565b92915050565b60006060820190506147836000830186613e1a565b6147906020830185613e40565b81810360408301526147a28184613e74565b9050949350505050565b60006040820190506147c16000830185613e1a565b6147ce6020830184614646565b9392505050565b60006020820190506147ea6000830184613e40565b92915050565b60006020820190506148056000830184613ede565b92915050565b600060208201905081810360008301526148258184613eed565b905092915050565b6000602082019050818103600083015261484681613f26565b9050919050565b6000602082019050818103600083015261486681613f8c565b9050919050565b6000602082019050818103600083015261488681614018565b9050919050565b600060208201905081810360008301526148a68161407e565b9050919050565b600060208201905081810360008301526148c68161410a565b9050919050565b600060208201905081810360008301526148e681614170565b9050919050565b60006020820190508181036000830152614906816141b0565b9050919050565b6000602082019050818103600083015261492681614216565b9050919050565b600060208201905081810360008301526149468161427c565b9050919050565b60006020820190508181036000830152614966816142bc565b9050919050565b6000602082019050818103600083015261498681614322565b9050919050565b600060208201905081810360008301526149a681614388565b9050919050565b600060208201905081810360008301526149c6816143ee565b9050919050565b600060208201905081810360008301526149e68161446e565b9050919050565b60006020820190508181036000830152614a06816144ae565b9050919050565b60006020820190508181036000830152614a26816144ee565b9050919050565b60006020820190508181036000830152614a4681614554565b9050919050565b60006020820190508181036000830152614a66816145e0565b9050919050565b6000602082019050614a826000830184614646565b92915050565b60008083356001602003843603038112614aa157600080fd5b80840192508235915067ffffffffffffffff821115614abf57600080fd5b602083019250600182023603831315614ad757600080fd5b509250929050565b6000604051905081810181811067ffffffffffffffff82111715614b0257600080fd5b8060405250919050565b600067ffffffffffffffff821115614b2357600080fd5b601f19601f8301169050602081019050919050565b600067ffffffffffffffff821115614b4f57600080fd5b601f19601f8301169050602081019050919050565b600081519050919050565b600081519050919050565b600082825260208201905092915050565b600081905092915050565b600082825260208201905092915050565b6000614bb282614be1565b9050919050565b6000614bc482614be1565b9050919050565b60008115159050919050565b6000819050919050565b600073ffffffffffffffffffffffffffffffffffffffff82169050919050565b6000819050919050565b6000614c1682614c1d565b9050919050565b6000614c2882614c2f565b9050919050565b6000614c3a82614be1565b9050919050565b82818337600083830152505050565b60005b83811015614c6e578082015181840152602081019050614c53565b83811115614c7d576000848401525b50505050565b6000614c8e82614ca7565b9050919050565b6000614ca082614ca7565b9050919050565b6000614cb282614cd4565b9050919050565b6000819050919050565b6000601f19601f8301169050919050565b60008160601b9050919050565b614cea81614ba7565b8114614cf557600080fd5b50565b614d0181614bb9565b8114614d0c57600080fd5b50565b614d1881614bcb565b8114614d2357600080fd5b50565b614d2f81614bd7565b8114614d3a57600080fd5b50565b614d4681614c01565b8114614d5157600080fd5b5056fe608060405234801561001057600080fd5b506040516107f53803806107f5833981810160405261012081101561003457600080fd5b81516020830151604080850151606086018051925194969395919493918201928464010000000082111561006757600080fd5b90830190602082018581111561007c57600080fd5b825164010000000081118282018810171561009657600080fd5b82525081516020918201929091019080838360005b838110156100c35781810151838201526020016100ab565b50505050905090810190601f1680156100f05780820380516001836020036101000a031916815260200191505b506040526020018051604051939291908464010000000082111561011357600080fd5b90830190602082018581111561012857600080fd5b825164010000000081118282018810171561014257600080fd5b82525081516020918201929091019080838360005b8381101561016f578181015183820152602001610157565b50505050905090810190601f16801561019c5780820380516001836020036101000a031916815260200191505b506040818152602083015192018051929491939192846401000000008211156101c457600080fd5b9083019060208201858111156101d957600080fd5b82516401000000008111828201881017156101f357600080fd5b82525081516020918201929091019080838360005b83811015610220578181015183820152602001610208565b50505050905090810190601f16801561024d5780820380516001836020036101000a031916815260200191505b50604081815260208381015193909101516001600160a01b03808e1660248501908152818e166044860152908c16606485015260c4840185905260e4840182905260e0608485019081528b516101048601528b519597509195506103b59489948f948f948f948f948f948d948d949260a4830192610124019189019080838360005b838110156102e75781810151838201526020016102cf565b50505050905090810190601f1680156103145780820380516001836020036101000a031916815260200191505b50838103825286518152865160209182019188019080838360005b8381101561034757818101518382015260200161032f565b50505050905090810190601f1680156103745780820380516001836020036101000a031916815260200191505b5060408051601f198184030181529190526020810180516001600160e01b0390811663a0b0d28960e01b17909152909a506104981698505050505050505050565b50610489848560008660405160240180846001600160a01b03166001600160a01b031681526020018315151515815260200180602001828103825283818151815260200191508051906020019080838360005b83811015610420578181015183820152602001610408565b50505050905090810190601f16801561044d5780820380516001836020036101000a031916815260200191505b5060408051601f198184030181529190526020810180516001600160e01b039081166350d85b7360e01b17909152909550610498169350505050565b5050505050505050505061055a565b606060006060846001600160a01b0316846040518082805190602001908083835b602083106104d85780518252601f1990920191602091820191016104b9565b6001836020036101000a038019825116818451168082178552505050505050905001915050600060405180830381855af49150503d8060008114610538576040519150601f19603f3d011682016040523d82523d6000602084013e61053d565b606091505b50915091506000821415610552573d60208201fd5b949350505050565b61028c806105696000396000f3fe60806040526004361061001e5760003560e01c80635c60da1b1461011e575b341561005b5760405162461bcd60e51b81526004018080602001828103825260378152602001806102216037913960400191505060405180910390fd5b6000546040805160048152602481019091526020810180516001600160e01b031663076de25160e21b17905261009a916001600160a01b03169061014f565b50600080546040516001600160a01b0390911690829036908083838082843760405192019450600093509091505080830381855af49150503d80600081146100fe576040519150601f19603f3d011682016040523d82523d6000602084013e610103565b606091505b505090506040513d6000823e81801561011a573d82f35b3d82fd5b34801561012a57600080fd5b50610133610211565b604080516001600160a01b039092168252519081900360200190f35b606060006060846001600160a01b0316846040518082805190602001908083835b6020831061018f5780518252601f199092019160209182019101610170565b6001836020036101000a038019825116818451168082178552505050505050905001915050600060405180830381855af49150503d80600081146101ef576040519150601f19603f3d011682016040523d82523d6000602084013e6101f4565b606091505b50915091506000821415610209573d60208201fd5b949350505050565b6000546001600160a01b03168156fe43457263323044656c656761746f723a66616c6c6261636b3a2063616e6e6f742073656e642076616c756520746f2066616c6c6261636ba265627a7a7231582005c7822f7294a2303680b0d2b051bee472cd65b928fd92bacf345e29e5b26c9f64736f6c63430005110032608060405234801561001057600080fd5b50604051610785380380610785833981810160405261010081101561003457600080fd5b8151602083015160408085018051915193959294830192918464010000000082111561005f57600080fd5b90830190602082018581111561007457600080fd5b825164010000000081118282018810171561008e57600080fd5b82525081516020918201929091019080838360005b838110156100bb5781810151838201526020016100a3565b50505050905090810190601f1680156100e85780820380516001836020036101000a031916815260200191505b506040526020018051604051939291908464010000000082111561010b57600080fd5b90830190602082018581111561012057600080fd5b825164010000000081118282018810171561013a57600080fd5b82525081516020918201929091019080838360005b8381101561016757818101518382015260200161014f565b50505050905090810190601f1680156101945780820380516001836020036101000a031916815260200191505b506040818152602083015192018051929491939192846401000000008211156101bc57600080fd5b9083019060208201858111156101d157600080fd5b82516401000000008111828201881017156101eb57600080fd5b82525081516020918201929091019080838360005b83811015610218578181015183820152602001610200565b50505050905090810190601f1680156102455780820380516001836020036101000a031916815260200191505b5060405260200180519060200190929190805190602001909291905050506103ba8489898989878760405160240180876001600160a01b03166001600160a01b03168152602001866001600160a01b03166001600160a01b031681526020018060200180602001858152602001848152602001838103835287818151815260200191508051906020019080838360005b838110156102ed5781810151838201526020016102d5565b50505050905090810190601f16801561031a5780820380516001836020036101000a031916815260200191505b50838103825286518152865160209182019188019080838360005b8381101561034d578181015183820152602001610335565b50505050905090810190601f16801561037a5780820380516001836020036101000a031916815260200191505b5060408051601f198184030181529190526020810180516001600160e01b03908116631e70b25560e21b1790915290995061049c16975050505050505050565b5061048e848560008660405160240180846001600160a01b03166001600160a01b031681526020018315151515815260200180602001828103825283818151815260200191508051906020019080838360005b8381101561042557818101518382015260200161040d565b50505050905090810190601f1680156104525780820380516001836020036101000a031916815260200191505b5060408051601f198184030181529190526020810180516001600160e01b039081166350d85b7360e01b1790915290955061049c169350505050565b50505050505050505061055e565b606060006060846001600160a01b0316846040518082805190602001908083835b602083106104dc5780518252601f1990920191602091820191016104bd565b6001836020036101000a038019825116818451168082178552505050505050905001915050600060405180830381855af49150503d806000811461053c576040519150601f19603f3d011682016040523d82523d6000602084013e610541565b606091505b50915091506000821415610556573d60208201fd5b949350505050565b6102188061056d6000396000f3fe60806040526004361061001e5760003560e01c80635c60da1b146100e1575b6000546040805160048152602481019091526020810180516001600160e01b031663076de25160e21b17905261005d916001600160a01b031690610112565b50600080546040516001600160a01b0390911690829036908083838082843760405192019450600093509091505080830381855af49150503d80600081146100c1576040519150601f19603f3d011682016040523d82523d6000602084013e6100c6565b606091505b505090506040513d6000823e8180156100dd573d82f35b3d82fd5b3480156100ed57600080fd5b506100f66101d4565b604080516001600160a01b039092168252519081900360200190f35b606060006060846001600160a01b0316846040518082805190602001908083835b602083106101525780518252601f199092019160209182019101610133565b6001836020036101000a038019825116818451168082178552505050505050905001915050600060405180830381855af49150503d80600081146101b2576040519150601f19603f3d011682016040523d82523d6000602084013e6101b7565b606091505b509150915060008214156101cc573d60208201fd5b949350505050565b6000546001600160a01b03168156fea265627a7a723158208e3e63485e5f7ae8cba3fa394e12885c029940469c7a173b8ff7745fabdad3b364736f6c63430005110032a2646970667358221220ef024af86b3e7d6b24a6a7cae09b2d098e83c624c1104f57a30dd93bd7226aa264736f6c634300060c0033",
  "linkReferences": {},
  "deployedLinkReferences": {}
}