{
  "_format": "hh-sol-artifact-1",
  "contractName": "FixedEurPriceOracle",
  "sourceName": "contracts/oracles/FixedEurPriceOracle.sol",
  "abi": [
    {
      "inputs": [
        {
          "internalType": "uint256",
          "name": "_maxSecondsBeforePriceIsStale",
          "type": "uint256"
        }
      ],
      "stateMutability": "nonpayable",
      "type": "constructor"
    },
    {
      "inputs": [],
      "name": "ETH_USD_PRICE_FEED",
      "outputs": [
        {
          "internalType": "contract AggregatorV3Interface",
          "name": "",
          "type": "address"
        }
      ],
      "stateMutability": "view",
      "type": "function"
    },
    {
      "inputs": [],
      "name": "EUR_USD_PRICE_FEED",
      "outputs": [
        {
          "internalType": "contract AggregatorV3Interface",
          "name": "",
          "type": "address"
        }
      ],
      "stateMutability": "view",
      "type": "function"
    },
    {
      "inputs": [
        {
          "internalType": "contract CToken",
          "name": "cToken",
          "type": "address"
        }
      ],
      "name": "getUnderlyingPrice",
      "outputs": [
        {
          "internalType": "uint256",
          "name": "",
          "type": "uint256"
        }
      ],
      "stateMutability": "view",
      "type": "function"
    },
    {
      "inputs": [],
      "name": "maxSecondsBeforePriceIsStale",
      "outputs": [
        {
          "internalType": "uint256",
          "name": "",
          "type": "uint256"
        }
      ],
      "stateMutability": "view",
      "type": "function"
    },
    {
      "inputs": [
        {
          "internalType": "address",
          "name": "underlying",
          "type": "address"
        }
      ],
      "name": "price",
      "outputs": [
        {
          "internalType": "uint256",
          "name": "",
          "type": "uint256"
        }
      ],
      "stateMutability": "view",
      "type": "function"
    }
  ],
  "bytecode": "0x608060405234801561001057600080fd5b506040516107ee3803806107ee8339818101604052602081101561003357600080fd5b810190808051906020019092919050505080600081905550506107938061005b6000396000f3fe608060405234801561001057600080fd5b50600436106100575760003560e01c80634be6e2d61461005c578063aea9107814610090578063b0f0abe9146100e8578063e073a2411461011c578063fc57d4df1461013a575b600080fd5b610064610192565b604051808273ffffffffffffffffffffffffffffffffffffffff16815260200191505060405180910390f35b6100d2600480360360208110156100a657600080fd5b81019080803573ffffffffffffffffffffffffffffffffffffffff1690602001909291905050506101aa565b6040518082815260200191505060405180910390f35b6100f06101bc565b604051808273ffffffffffffffffffffffffffffffffffffffff16815260200191505060405180910390f35b6101246101d4565b6040518082815260200191505060405180910390f35b61017c6004803603602081101561015057600080fd5b81019080803573ffffffffffffffffffffffffffffffffffffffff1690602001909291905050506101da565b6040518082815260200191505060405180910390f35b73b49f677943bc038e9857d61e7d053caa2c1734c181565b60006101b582610323565b9050919050565b735f4ec3df9cbd43714fe2740f5e3616155c5b841981565b60005481565b6000808273ffffffffffffffffffffffffffffffffffffffff16636f307dc36040518163ffffffff1660e01b815260040160206040518083038186803b15801561022357600080fd5b505afa158015610237573d6000803e3d6000fd5b505050506040513d602081101561024d57600080fd5b8101908080519060200190929190505050905061031b8173ffffffffffffffffffffffffffffffffffffffff1663313ce5676040518163ffffffff1660e01b815260040160206040518083038186803b1580156102a957600080fd5b505afa1580156102bd573d6000803e3d6000fd5b505050506040513d60208110156102d357600080fd5b810190808051906020019092919050505060ff16600a0a61030d670de0b6b3a76400006102ff85610323565b6105eb90919063ffffffff16565b61067190919063ffffffff16565b915050919050565b6000806000735f4ec3df9cbd43714fe2740f5e3616155c5b841973ffffffffffffffffffffffffffffffffffffffff1663feaf968c6040518163ffffffff1660e01b815260040160a06040518083038186803b15801561038257600080fd5b505afa158015610396573d6000803e3d6000fd5b505050506040513d60a08110156103ac57600080fd5b81019080805190602001909291908051906020019092919080519060200190929190805190602001909291908051906020019092919050505050935050925050600080541115610454576000548101421115610453576040517f08c379a000000000000000000000000000000000000000000000000000000000815260040180806020018281038252602181526020018061071c6021913960400191505060405180910390fd5b5b60008213610467576000925050506105e6565b600073b49f677943bc038e9857d61e7d053caa2c1734c173ffffffffffffffffffffffffffffffffffffffff1663feaf968c6040518163ffffffff1660e01b815260040160a06040518083038186803b1580156104c357600080fd5b505afa1580156104d7573d6000803e3d6000fd5b505050506040513d60a08110156104ed57600080fd5b810190808051906020019092919080519060200190929190805190602001909291908051906020019092919080519060200190929190505050909192935090915050809350819250505060008054111561059f57600054820142111561059e576040517f08c379a00000000000000000000000000000000000000000000000000000000081526004018080602001828103825260218152602001806106fb6021913960400191505060405180910390fd5b5b600081136105b357600093505050506105e6565b6105e0836105d2670de0b6b3a7640000846105eb90919063ffffffff16565b61067190919063ffffffff16565b93505050505b919050565b6000808314156105fe576000905061066b565b600082840290508284828161060f57fe5b0414610666576040517f08c379a000000000000000000000000000000000000000000000000000000000815260040180806020018281038252602181526020018061073d6021913960400191505060405180910390fd5b809150505b92915050565b60008082116106e8576040517f08c379a000000000000000000000000000000000000000000000000000000000815260040180806020018281038252601a8152602001807f536166654d6174683a206469766973696f6e206279207a65726f00000000000081525060200191505060405180910390fd5b8183816106f157fe5b0490509291505056fe4555522f55534420436861696e6c696e6b207072696365206973207374616c652e4554482f55534420436861696e6c696e6b207072696365206973207374616c652e536166654d6174683a206d756c7469706c69636174696f6e206f766572666c6f77a2646970667358221220a8b93ccb7a6a46d222d0a18371adc34a2405cd17df538cef26522a67ced50b9964736f6c634300060c0033",
  "linkReferences": {},
  "deployedLinkReferences": {}
}