{
  "_format": "hh-sol-artifact-1",
  "contractName": "CurveTriCryptoLpTokenPriceOracle",
  "sourceName": "contracts/oracles/CurveTriCryptoLpTokenPriceOracle.sol",
  "abi": [
    {
      "inputs": [],
      "name": "ETH_USD_PRICE_FEED",
      "outputs": [
        {
          "internalType": "contract AggregatorV3Interface",
          "name": "",
          "type": "address"
        }
      ],
      "stateMutability": "view",
      "type": "function"
    },
    {
      "inputs": [],
      "name": "SOURCE_ORACLE",
      "outputs": [
        {
          "internalType": "contract ICurveTriCryptoLpTokenOracle",
          "name": "",
          "type": "address"
        }
      ],
      "stateMutability": "view",
      "type": "function"
    },
    {
      "inputs": [
        {
          "internalType": "contract CToken",
          "name": "cToken",
          "type": "address"
        }
      ],
      "name": "getUnderlyingPrice",
      "outputs": [
        {
          "internalType": "uint256",
          "name": "",
          "type": "uint256"
        }
      ],
      "stateMutability": "view",
      "type": "function"
    },
    {
      "inputs": [
        {
          "internalType": "address",
          "name": "underlying",
          "type": "address"
        }
      ],
      "name": "price",
      "outputs": [
        {
          "internalType": "uint256",
          "name": "",
          "type": "uint256"
        }
      ],
      "stateMutability": "view",
      "type": "function"
    }
  ],
  "bytecode": "0x608060405234801561001057600080fd5b50610679806100206000396000f3fe608060405234801561001057600080fd5b506004361061004c5760003560e01c8063567ecd4414610051578063aea9107814610085578063b0f0abe9146100dd578063fc57d4df14610111575b600080fd5b610059610169565b604051808273ffffffffffffffffffffffffffffffffffffffff16815260200191505060405180910390f35b6100c76004803603602081101561009b57600080fd5b81019080803573ffffffffffffffffffffffffffffffffffffffff169060200190929190505050610181565b6040518082815260200191505060405180910390f35b6100e5610193565b604051808273ffffffffffffffffffffffffffffffffffffffff16815260200191505060405180910390f35b6101536004803603602081101561012757600080fd5b81019080803573ffffffffffffffffffffffffffffffffffffffff1690602001909291905050506101ab565b6040518082815260200191505060405180910390f35b73e8b2989276e2ca8fdea2268e3551b2b4b241895081565b600061018c826102f4565b9050919050565b735f4ec3df9cbd43714fe2740f5e3616155c5b841981565b6000808273ffffffffffffffffffffffffffffffffffffffff16636f307dc36040518163ffffffff1660e01b815260040160206040518083038186803b1580156101f457600080fd5b505afa158015610208573d6000803e3d6000fd5b505050506040513d602081101561021e57600080fd5b810190808051906020019092919050505090506102ec8173ffffffffffffffffffffffffffffffffffffffff1663313ce5676040518163ffffffff1660e01b815260040160206040518083038186803b15801561027a57600080fd5b505afa15801561028e573d6000803e3d6000fd5b505050506040513d60208110156102a457600080fd5b810190808051906020019092919050505060ff16600a0a6102de670de0b6b3a76400006102d0856102f4565b61051390919063ffffffff16565b61059990919063ffffffff16565b915050919050565b600080600080735f4ec3df9cbd43714fe2740f5e3616155c5b841973ffffffffffffffffffffffffffffffffffffffff1663feaf968c6040518163ffffffff1660e01b815260040160a06040518083038186803b15801561035457600080fd5b505afa158015610368573d6000803e3d6000fd5b505050506040513d60a081101561037e57600080fd5b81019080805190602001909291908051906020019092919080519060200190929190805190602001909291908051906020019092919050505094505050925092508269ffffffffffffffffffff168169ffffffffffffffffffff161461044c576040517f08c379a000000000000000000000000000000000000000000000000000000000815260040180806020018281038252601a8152602001807f436861696e6c696e6b20726f756e642074696d6564206f75742e00000000000081525060200191505060405180910390fd5b610509826104fb6305f5e10073e8b2989276e2ca8fdea2268e3551b2b4b241895073ffffffffffffffffffffffffffffffffffffffff166354f0f7d56040518163ffffffff1660e01b815260040160206040518083038186803b1580156104b257600080fd5b505afa1580156104c6573d6000803e3d6000fd5b505050506040513d60208110156104dc57600080fd5b810190808051906020019092919050505061051390919063ffffffff16565b61059990919063ffffffff16565b9350505050919050565b6000808314156105265760009050610593565b600082840290508284828161053757fe5b041461058e576040517f08c379a00000000000000000000000000000000000000000000000000000000081526004018080602001828103825260218152602001806106236021913960400191505060405180910390fd5b809150505b92915050565b6000808211610610576040517f08c379a000000000000000000000000000000000000000000000000000000000815260040180806020018281038252601a8152602001807f536166654d6174683a206469766973696f6e206279207a65726f00000000000081525060200191505060405180910390fd5b81838161061957fe5b0490509291505056fe536166654d6174683a206d756c7469706c69636174696f6e206f766572666c6f77a2646970667358221220746da2fa2d011000c3cad521d2d64d805d1bb1bb5186f3115ca2f959c47e8af664736f6c634300060c0033",
  "linkReferences": {},
  "deployedLinkReferences": {}
}