{
  "_format": "hh-sol-artifact-1",
  "contractName": "UniswapTwapPriceOracle",
  "sourceName": "contracts/oracles/UniswapTwapPriceOracle.sol",
  "abi": [
    {
      "inputs": [
        {
          "internalType": "address",
          "name": "_rootOracle",
          "type": "address"
        },
        {
          "internalType": "address",
          "name": "_uniswapV2Factory",
          "type": "address"
        }
      ],
      "stateMutability": "nonpayable",
      "type": "constructor"
    },
    {
      "inputs": [],
      "name": "WETH",
      "outputs": [
        {
          "internalType": "address",
          "name": "",
          "type": "address"
        }
      ],
      "stateMutability": "view",
      "type": "function"
    },
    {
      "inputs": [
        {
          "internalType": "contract CToken",
          "name": "cToken",
          "type": "address"
        }
      ],
      "name": "getUnderlyingPrice",
      "outputs": [
        {
          "internalType": "uint256",
          "name": "",
          "type": "uint256"
        }
      ],
      "stateMutability": "view",
      "type": "function"
    },
    {
      "inputs": [
        {
          "internalType": "address",
          "name": "underlying",
          "type": "address"
        }
      ],
      "name": "price",
      "outputs": [
        {
          "internalType": "uint256",
          "name": "",
          "type": "uint256"
        }
      ],
      "stateMutability": "view",
      "type": "function"
    },
    {
      "inputs": [],
      "name": "rootOracle",
      "outputs": [
        {
          "internalType": "contract UniswapTwapPriceOracleRoot",
          "name": "",
          "type": "address"
        }
      ],
      "stateMutability": "view",
      "type": "function"
    },
    {
      "inputs": [],
      "name": "uniswapV2Factory",
      "outputs": [
        {
          "internalType": "address",
          "name": "",
          "type": "address"
        }
      ],
      "stateMutability": "view",
      "type": "function"
    }
  ],
  "bytecode": "0x60c060405234801561001057600080fd5b506040516107ba3803806107ba8339818101604052604081101561003357600080fd5b8101908080519060200190929190805190602001909291905050508173ffffffffffffffffffffffffffffffffffffffff1660808173ffffffffffffffffffffffffffffffffffffffff1660601b815250508073ffffffffffffffffffffffffffffffffffffffff1660a08173ffffffffffffffffffffffffffffffffffffffff1660601b81525050505060805160601c60a05160601c6106c96100f1600039806101aa528061049a5250806101f8528061045d52506106c96000f3fe608060405234801561001057600080fd5b50600436106100575760003560e01c806359d0f7131461005c578063ad5c464814610090578063aea91078146100c4578063e3cb23a51461011c578063fc57d4df14610150575b600080fd5b6100646101a8565b604051808273ffffffffffffffffffffffffffffffffffffffff16815260200191505060405180910390f35b6100986101cc565b604051808273ffffffffffffffffffffffffffffffffffffffff16815260200191505060405180910390f35b610106600480360360208110156100da57600080fd5b81019080803573ffffffffffffffffffffffffffffffffffffffff1690602001909291905050506101e4565b6040518082815260200191505060405180910390f35b6101246101f6565b604051808273ffffffffffffffffffffffffffffffffffffffff16815260200191505060405180910390f35b6101926004803603602081101561016657600080fd5b81019080803573ffffffffffffffffffffffffffffffffffffffff16906020019092919050505061021a565b6040518082815260200191505060405180910390f35b7f000000000000000000000000000000000000000000000000000000000000000081565b73c02aaa39b223fe8d0a0e5c4f27ead9083c756cc281565b60006101ef82610401565b9050919050565b7f000000000000000000000000000000000000000000000000000000000000000081565b60008173ffffffffffffffffffffffffffffffffffffffff1663ac784ddc6040518163ffffffff1660e01b815260040160206040518083038186803b15801561026257600080fd5b505afa158015610276573d6000803e3d6000fd5b505050506040513d602081101561028c57600080fd5b8101908080519060200190929190505050156102b257670de0b6b3a764000090506103fc565b60008273ffffffffffffffffffffffffffffffffffffffff16636f307dc36040518163ffffffff1660e01b815260040160206040518083038186803b1580156102fa57600080fd5b505afa15801561030e573d6000803e3d6000fd5b505050506040513d602081101561032457600080fd5b8101908080519060200190929190505050905060008173ffffffffffffffffffffffffffffffffffffffff1663313ce5676040518163ffffffff1660e01b815260040160206040518083038186803b15801561037f57600080fd5b505afa158015610393573d6000803e3d6000fd5b505050506040513d60208110156103a957600080fd5b810190808051906020019092919050505060ff16600a0a90506103f7816103e9670de0b6b3a76400006103db86610401565b61056390919063ffffffff16565b6105e990919063ffffffff16565b925050505b919050565b600073c02aaa39b223fe8d0a0e5c4f27ead9083c756cc273ffffffffffffffffffffffffffffffffffffffff168273ffffffffffffffffffffffffffffffffffffffff16141561045b57670de0b6b3a7640000905061055e565b7f000000000000000000000000000000000000000000000000000000000000000073ffffffffffffffffffffffffffffffffffffffff16632b00490d837f00000000000000000000000000000000000000000000000000000000000000006040518363ffffffff1660e01b8152600401808373ffffffffffffffffffffffffffffffffffffffff1681526020018273ffffffffffffffffffffffffffffffffffffffff1681526020019250505060206040518083038186803b15801561052057600080fd5b505afa158015610534573d6000803e3d6000fd5b505050506040513d602081101561054a57600080fd5b810190808051906020019092919050505090505b919050565b60008083141561057657600090506105e3565b600082840290508284828161058757fe5b04146105de576040517f08c379a00000000000000000000000000000000000000000000000000000000081526004018080602001828103825260218152602001806106736021913960400191505060405180910390fd5b809150505b92915050565b6000808211610660576040517f08c379a000000000000000000000000000000000000000000000000000000000815260040180806020018281038252601a8152602001807f536166654d6174683a206469766973696f6e206279207a65726f00000000000081525060200191505060405180910390fd5b81838161066957fe5b0490509291505056fe536166654d6174683a206d756c7469706c69636174696f6e206f766572666c6f77a26469706673582212203f70b1e645914131d2b8cdf79db53eecf12bb1d6d4f337a55d207e0528e1ce9d64736f6c634300060c0033",
  "linkReferences": {},
  "deployedLinkReferences": {}
}