{
  "_format": "hh-sol-artifact-1",
  "contractName": "MStableLiquidator",
  "sourceName": "contracts/liquidators/MStableLiquidator.sol",
  "abi": [
    {
      "inputs": [],
      "name": "IMBTC",
      "outputs": [
        {
          "internalType": "contract ISavingsContractV2",
          "name": "",
          "type": "address"
        }
      ],
      "stateMutability": "view",
      "type": "function"
    },
    {
      "inputs": [],
      "name": "IMUSD",
      "outputs": [
        {
          "internalType": "contract ISavingsContractV2",
          "name": "",
          "type": "address"
        }
      ],
      "stateMutability": "view",
      "type": "function"
    },
    {
      "inputs": [],
      "name": "MBTC",
      "outputs": [
        {
          "internalType": "contract IMasset",
          "name": "",
          "type": "address"
        }
      ],
      "stateMutability": "view",
      "type": "function"
    },
    {
      "inputs": [],
      "name": "MUSD",
      "outputs": [
        {
          "internalType": "contract IMasset",
          "name": "",
          "type": "address"
        }
      ],
      "stateMutability": "view",
      "type": "function"
    },
    {
      "inputs": [
        {
          "internalType": "contract IERC20Upgradeable",
          "name": "inputToken",
          "type": "address"
        },
        {
          "internalType": "uint256",
          "name": "inputAmount",
          "type": "uint256"
        },
        {
          "internalType": "bytes",
          "name": "strategyData",
          "type": "bytes"
        }
      ],
      "name": "redeem",
      "outputs": [
        {
          "internalType": "contract IERC20Upgradeable",
          "name": "outputToken",
          "type": "address"
        },
        {
          "internalType": "uint256",
          "name": "outputAmount",
          "type": "uint256"
        }
      ],
      "stateMutability": "nonpayable",
      "type": "function"
    }
  ],
  "bytecode": "0x608060405234801561001057600080fd5b50610b64806100206000396000f3fe608060405234801561001057600080fd5b50600436106100575760003560e01c806310badf4e1461005c57806343a82621146101725780635685c387146101a6578063cb5690e5146101da578063f35d2ab61461020e575b600080fd5b61013f6004803603606081101561007257600080fd5b81019080803573ffffffffffffffffffffffffffffffffffffffff16906020019092919080359060200190929190803590602001906401000000008111156100b957600080fd5b8201836020820111156100cb57600080fd5b803590602001918460018302840111640100000000831117156100ed57600080fd5b91908080601f016020809104026020016040519081016040528093929190818152602001838380828437600081840152601f19601f820116905080830192505050505050509192919290505050610242565b604051808373ffffffffffffffffffffffffffffffffffffffff1681526020018281526020019250505060405180910390f35b61017a610a8b565b604051808273ffffffffffffffffffffffffffffffffffffffff16815260200191505060405180910390f35b6101ae610aa3565b604051808273ffffffffffffffffffffffffffffffffffffffff16815260200191505060405180910390f35b6101e2610abb565b604051808273ffffffffffffffffffffffffffffffffffffffff16815260200191505060405180910390f35b610216610ad3565b604051808273ffffffffffffffffffffffffffffffffffffffff16815260200191505060405180910390f35b6000806000835111156102785782806020019051602081101561026457600080fd5b810190808051906020019092919050505091505b73e2f2a5c287993345a840db3b0845fbc70f5935a573ffffffffffffffffffffffffffffffffffffffff168573ffffffffffffffffffffffffffffffffffffffff1614156103fb57600073ffffffffffffffffffffffffffffffffffffffff168273ffffffffffffffffffffffffffffffffffffffff16141561030d5773a0b86991c6218b36c1d19d4a2e9eb0ce3606eb4891505b73e2f2a5c287993345a840db3b0845fbc70f5935a573ffffffffffffffffffffffffffffffffffffffff166343bcfab683866001306040518563ffffffff1660e01b8152600401808573ffffffffffffffffffffffffffffffffffffffff1681526020018481526020018381526020018273ffffffffffffffffffffffffffffffffffffffff168152602001945050505050602060405180830381600087803b1580156103b957600080fd5b505af11580156103cd573d6000803e3d6000fd5b505050506040513d60208110156103e357600080fd5b81019080805190602001909291905050509050610a83565b7330647a72dc82d7fbb1123ea74716ab8a317eac1973ffffffffffffffffffffffffffffffffffffffff168573ffffffffffffffffffffffffffffffffffffffff16141561067e5760007330647a72dc82d7fbb1123ea74716ab8a317eac1973ffffffffffffffffffffffffffffffffffffffff1663c9f18ebd866040518263ffffffff1660e01b815260040180828152602001915050602060405180830381600087803b1580156104ac57600080fd5b505af11580156104c0573d6000803e3d6000fd5b505050506040513d60208110156104d657600080fd5b8101908080519060200190929190505050905060008111610542576040517f08c379a0000000000000000000000000000000000000000000000000000000008152600401808060200182810382526043815260200180610aec6043913960600191505060405180910390fd5b600073ffffffffffffffffffffffffffffffffffffffff168373ffffffffffffffffffffffffffffffffffffffff16141561058f5773a0b86991c6218b36c1d19d4a2e9eb0ce3606eb4892505b73e2f2a5c287993345a840db3b0845fbc70f5935a573ffffffffffffffffffffffffffffffffffffffff166343bcfab684836001306040518563ffffffff1660e01b8152600401808573ffffffffffffffffffffffffffffffffffffffff1681526020018481526020018381526020018273ffffffffffffffffffffffffffffffffffffffff168152602001945050505050602060405180830381600087803b15801561063b57600080fd5b505af115801561064f573d6000803e3d6000fd5b505050506040513d602081101561066557600080fd5b8101908080519060200190929190505050915050610a82565b73945facb997494cc2570096c74b5f66a3507330a173ffffffffffffffffffffffffffffffffffffffff168573ffffffffffffffffffffffffffffffffffffffff16141561080157600073ffffffffffffffffffffffffffffffffffffffff168273ffffffffffffffffffffffffffffffffffffffff16141561071357732260fac5e5542a773aa44fbcfedf7c193bc2c59991505b73945facb997494cc2570096c74b5f66a3507330a173ffffffffffffffffffffffffffffffffffffffff166343bcfab683866001306040518563ffffffff1660e01b8152600401808573ffffffffffffffffffffffffffffffffffffffff1681526020018481526020018381526020018273ffffffffffffffffffffffffffffffffffffffff168152602001945050505050602060405180830381600087803b1580156107bf57600080fd5b505af11580156107d3573d6000803e3d6000fd5b505050506040513d60208110156107e957600080fd5b81019080805190602001909291905050509050610a81565b7317d8cbb6bce8cee970a4027d1198f6700a7a6c2473ffffffffffffffffffffffffffffffffffffffff168573ffffffffffffffffffffffffffffffffffffffff161415610a805760007317d8cbb6bce8cee970a4027d1198f6700a7a6c2473ffffffffffffffffffffffffffffffffffffffff1663c9f18ebd866040518263ffffffff1660e01b815260040180828152602001915050602060405180830381600087803b1580156108b257600080fd5b505af11580156108c6573d6000803e3d6000fd5b505050506040513d60208110156108dc57600080fd5b8101908080519060200190929190505050905060008111610948576040517f08c379a0000000000000000000000000000000000000000000000000000000008152600401808060200182810382526043815260200180610aec6043913960600191505060405180910390fd5b600073ffffffffffffffffffffffffffffffffffffffff168373ffffffffffffffffffffffffffffffffffffffff16141561099557732260fac5e5542a773aa44fbcfedf7c193bc2c59992505b73945facb997494cc2570096c74b5f66a3507330a173ffffffffffffffffffffffffffffffffffffffff166343bcfab684836001306040518563ffffffff1660e01b8152600401808573ffffffffffffffffffffffffffffffffffffffff1681526020018481526020018381526020018273ffffffffffffffffffffffffffffffffffffffff168152602001945050505050602060405180830381600087803b158015610a4157600080fd5b505af1158015610a55573d6000803e3d6000fd5b505050506040513d6020811015610a6b57600080fd5b81019080805190602001909291905050509150505b5b5b5b935093915050565b73e2f2a5c287993345a840db3b0845fbc70f5935a581565b7317d8cbb6bce8cee970a4027d1198f6700a7a6c2481565b73945facb997494cc2570096c74b5f66a3507330a181565b7330647a72dc82d7fbb1123ea74716ab8a317eac198156fe4572726f722063616c6c696e672072656465656d206f6e206d537461626c6520736176696e677320636f6e74726163743a206e6f206d5553442072657475726e65642ea26469706673582212209ea60181f2b156a413922de1bcbbdaa9aaf6e7d75dde4e9cce4a5e35126932f364736f6c634300060c0033",
  "linkReferences": {},
  "deployedLinkReferences": {}
}