{
  "_format": "hh-sol-artifact-1",
  "contractName": "WSSquidPriceOracle",
  "sourceName": "contracts/oracles/WSSquidPriceOracle.sol",
  "abi": [
    {
      "inputs": [],
      "name": "SQUID",
      "outputs": [
        {
          "internalType": "address",
          "name": "",
          "type": "address"
        }
      ],
      "stateMutability": "view",
      "type": "function"
    },
    {
      "inputs": [],
      "name": "SSQUID",
      "outputs": [
        {
          "internalType": "contract sOlympus",
          "name": "",
          "type": "address"
        }
      ],
      "stateMutability": "view",
      "type": "function"
    },
    {
      "inputs": [],
      "name": "WSSQUID",
      "outputs": [
        {
          "internalType": "address",
          "name": "",
          "type": "address"
        }
      ],
      "stateMutability": "view",
      "type": "function"
    },
    {
      "inputs": [
        {
          "internalType": "contract CToken",
          "name": "cToken",
          "type": "address"
        }
      ],
      "name": "getUnderlyingPrice",
      "outputs": [
        {
          "internalType": "uint256",
          "name": "",
          "type": "uint256"
        }
      ],
      "stateMutability": "view",
      "type": "function"
    },
    {
      "inputs": [
        {
          "internalType": "address",
          "name": "underlying",
          "type": "address"
        }
      ],
      "name": "price",
      "outputs": [
        {
          "internalType": "uint256",
          "name": "",
          "type": "uint256"
        }
      ],
      "stateMutability": "view",
      "type": "function"
    }
  ],
  "bytecode": "0x6080604052739d49bfc921f36448234b0efa67b5f91b3c6915156000806101000a81548173ffffffffffffffffffffffffffffffffffffffff021916908373ffffffffffffffffffffffffffffffffffffffff160217905550733b1388eb39c72d2145f092c01067c02bb627d4be600160006101000a81548173ffffffffffffffffffffffffffffffffffffffff021916908373ffffffffffffffffffffffffffffffffffffffff1602179055507321ad647b8f4fe333212e735bfc1f36b4941e6ad2600260006101000a81548173ffffffffffffffffffffffffffffffffffffffff021916908373ffffffffffffffffffffffffffffffffffffffff16021790555034801561010e57600080fd5b5061073f8061011e6000396000f3fe608060405234801561001057600080fd5b50600436106100575760003560e01c806329be100d1461005c57806386679344146100905780639c9a4dd5146100c4578063aea91078146100f8578063fc57d4df14610150575b600080fd5b6100646101a8565b604051808273ffffffffffffffffffffffffffffffffffffffff16815260200191505060405180910390f35b6100986101ce565b604051808273ffffffffffffffffffffffffffffffffffffffff16815260200191505060405180910390f35b6100cc6101f4565b604051808273ffffffffffffffffffffffffffffffffffffffff16815260200191505060405180910390f35b61013a6004803603602081101561010e57600080fd5b81019080803573ffffffffffffffffffffffffffffffffffffffff169060200190929190505050610218565b6040518082815260200191505060405180910390f35b6101926004803603602081101561016657600080fd5b81019080803573ffffffffffffffffffffffffffffffffffffffff16906020019092919050505061022a565b6040518082815260200191505060405180910390f35b600260009054906101000a900473ffffffffffffffffffffffffffffffffffffffff1681565b600160009054906101000a900473ffffffffffffffffffffffffffffffffffffffff1681565b60008054906101000a900473ffffffffffffffffffffffffffffffffffffffff1681565b600061022382610373565b9050919050565b6000808273ffffffffffffffffffffffffffffffffffffffff16636f307dc36040518163ffffffff1660e01b815260040160206040518083038186803b15801561027357600080fd5b505afa158015610287573d6000803e3d6000fd5b505050506040513d602081101561029d57600080fd5b8101908080519060200190929190505050905061036b8173ffffffffffffffffffffffffffffffffffffffff1663313ce5676040518163ffffffff1660e01b815260040160206040518083038186803b1580156102f957600080fd5b505afa15801561030d573d6000803e3d6000fd5b505050506040513d602081101561032357600080fd5b810190808051906020019092919050505060ff16600a0a61035d670de0b6b3a764000061034f85610373565b6105ae90919063ffffffff16565b61063490919063ffffffff16565b915050919050565b6000600160009054906101000a900473ffffffffffffffffffffffffffffffffffffffff1673ffffffffffffffffffffffffffffffffffffffff168273ffffffffffffffffffffffffffffffffffffffff161461041b576040517f08c379a000000000000000000000000000000000000000000000000000000000815260040180806020018281038252602b8152602001806106df602b913960400191505060405180910390fd5b6105a7633b9aca006105993373ffffffffffffffffffffffffffffffffffffffff1663aea91078600260009054906101000a900473ffffffffffffffffffffffffffffffffffffffff166040518263ffffffff1660e01b8152600401808273ffffffffffffffffffffffffffffffffffffffff16815260200191505060206040518083038186803b1580156104af57600080fd5b505afa1580156104c3573d6000803e3d6000fd5b505050506040513d60208110156104d957600080fd5b810190808051906020019092919050505060008054906101000a900473ffffffffffffffffffffffffffffffffffffffff1673ffffffffffffffffffffffffffffffffffffffff16632986c0e56040518163ffffffff1660e01b815260040160206040518083038186803b15801561055057600080fd5b505afa158015610564573d6000803e3d6000fd5b505050506040513d602081101561057a57600080fd5b81019080805190602001909291905050506105ae90919063ffffffff16565b61063490919063ffffffff16565b9050919050565b6000808314156105c1576000905061062e565b60008284029050828482816105d257fe5b0414610629576040517f08c379a00000000000000000000000000000000000000000000000000000000081526004018080602001828103825260218152602001806106be6021913960400191505060405180910390fd5b809150505b92915050565b60008082116106ab576040517f08c379a000000000000000000000000000000000000000000000000000000000815260040180806020018281038252601a8152602001807f536166654d6174683a206469766973696f6e206279207a65726f00000000000081525060200191505060405180910390fd5b8183816106b457fe5b0490509291505056fe536166654d6174683a206d756c7469706c69636174696f6e206f766572666c6f77496e76616c696420746f6b656e2070617373656420746f205753537175696450726963654f7261636c652ea2646970667358221220be6702f1d48706706652677bed25f7893069bb6cb1e213a35a838b854ac0cae764736f6c634300060c0033",
  "linkReferences": {},
  "deployedLinkReferences": {}
}